:040000006F30A009B4
:100004000000000000000000EC450000F045000086
:10001400000000004001000000000000000000009B
:1000240040010000983000000000000000000000C3
:10003400983000000000000098300000000000002C
:10004400983000009830000098300000983000008C
:10005400983000009830000098300000983000007C
:10006400983000009830000098300000983000006C
:10007400983000009830000098300000983000005C
:10008400983000009830000098300000983000004C
:10009400983000009830000098300000983000003C
:1000A400983000009830000098300000983000002C
:1000B400983000009830000098300000983000001C
:1000C400983000009830000098300000983000000C
:1000D40098300000983000009830000098300000FC
:1000E40098300000783D00009830000098300000FF
:1000F400983000009830000098300000F24500006D
:10010400CC2F000098300000983000009830000098
:10011400983000009830000000000000000000004B
:1001240000000000000000000000000000000000CB
:0C013400000000000000000000000000BF
:100140009305000273A04580824573901534924058
:100150002242B2424243D2436244F2440255925593
:100160002256B2564257D2576258F258064996491B
:10017000264AB64A464BD64B664CF64C065D965D13
:10018000265EB65E465FD65F096173002030EF429F
:100190001017C52BFDBF23AC05FE1C4181E70CC128
:1001A0008280BA8703A787FF6DFF23ACB7FE8280EA
:1001B000411126C24AC0B744024006C622C403A960
:1001C000C42023A604200F10000009E923A624213F
:1001D000B240224492440249410182802A8421058E
:1001E000BD654205C18D4181EF20B00001CDFD57B5
:1001F00023200500231285002303F50023A62421D4
:100200002105F9B723A624210145D9B701114AC810
:100210004EC6B747024006CE22CC26CA83A9C720C5
:100220002A8923A607200F10000097270020938714
:10023000A70380438144014619E499E8A1654A85F2
:10024000EF60605115A08347E4FF639B270395CCC3
:10025000A6851725002013052501EF50F04E79DC07
:10026000A1654A85EF602007F2406244B74702402B
:1002700023A6372126854249D244B24905618280AE
:1002800091E02286032484FF45BFA284E5BF97271F
:100290000020938767029C4399E33E85828003D7C1
:1002A00027006316B70003C70700E308A7FEDC4773
:1002B000E5B7B747024003A7C72023A607200F10C2
:1002C000000001C599C1814711E6B747024023A646
:1002D000E7208280B386F50003C80600B306F50068
:1002E000850723800601E317F6FEC5B737470240AE
:1002F0008327C720232607200F10000019C191C1B2
:1003000011E6374702402326F7208280910503A794
:10031000C5FF11057D16232EE5FEDDB737470240E8
:100320008327C720232607200F10000001C53307AD
:10033000C50011E6374702402326F72082800505D5
:10034000A30FB5FEE31DE5FEF5B7B747024083A650
:10035000C72023A607200F10000081473307F500B0
:100360000307070019E7374702402326D7203E85B9
:1003700082808507E5B7011126CA4AC8B7470240FF
:1003800006CE22CC83A4C7202A892E8623A6072046
:100390000F100000131506019305F004418132C6C9
:1003A000EF2020652A8401C53246CA851937228587
:1003B000F2406244B747024023A697204249D24404
:1003C00005618280B747024003A7C72023A6072004
:1003D0000F10000001C599C1814711EAB7470240DB
:1003E00023A6E720054582808507E309F6FE33084A
:1003F000F500B386F5000348080083C60600E30550
:10040000D8FEB747024023A6E72001458280B747C0
:10041000024003A7C72023A607200F100000930760
:10042000F6FFBE952A966317C500B747024023A67C
:10043000E7208280FD1583C715000505A30FF5FE93
:10044000DDB7374702408327C720232607200F1038
:10045000000001C53307C50019E6374702402326CF
:10046000F7200145828005058346F5FFE397B6FE38
:10047000E31BE5FE374702402326F720054582802F
:10048000797197270020938727E322D4804306D6EB
:1004900026D24AD04ECE52CC56CA5AC85EC669C081
:1004A000B7C4C901014B97290020938969E093845F
:1004B000F437172A0020130A6AE0972A0020938A4B
:1004C000EADA172900201309E9E38357240095E3AA
:1004D0005C44631D0B0017270020232FF7DC832BC0
:1004E000C4002285EF20C05F5E84A9A82326FB00FC
:1004F000FDB783A7090082971C443307F540637654
:10050000F500032749001D8F2A9763E0E408972729
:10051000002023A507D68355240003450400EF508F
:10052000905B5C405844A1CB0C4403264900AE9735
:10053000BE8663E4B70063E4C700B386C74014C453
:10054000228B3A8459F097270020938727D29C4B1F
:1005500005476372F706FD17172700202320F7D2FF
:10056000B250225492540259F249624AD24A424B42
:10057000B24B4561828063170B009727002023ADA3
:10058000E7D2B1BF2326EB0099BF03278A0209CF28
:1005900063EFA7003385A74083A70A016376F500C0
:1005A0009727002023ACA7CC228B404461BF0327B0
:1005B0004900BA97C5B79727002023A107CC4DB7AC
:1005C00001114EC6B747024006CE22CC26CA4AC801
:1005D00052C483A9C72023A607200F1000001729A3
:1005E0000020130929D29727002083C767D203254B
:1005F0004900ADC39727002083D787F4A1CF972761
:1006000000209387A7E803A4070B6305A40497279A
:1006100000209387A7C5984B3E8A6307A7109724AD
:1006200000209384E4C89C408297636BA40E9C4096
:10063000098C829703270A016373E4002287B307BA
:10064000A7003E858326490063E4E70063E4D70002
:100650003385D740B747024023A637218327490077
:10066000639FA70217240020130444C0184897274B
:1006700000209387E7C39C43631AA70A82978326C7
:100680004900B74736FE938707C8B6973387A70058
:100690003A856364F7006364D7003305D7401724B5
:1006A0000020130424F45C5081CF97270020938707
:1006B00027FB94433707CDFF7D179C46F98F9CC6D7
:1006C00019E1032549008547172700202322F7F267
:1006D00097270020938787BE9C57829711ED5C5027
:1006E00099CB5C4489CBEFF0217AEFE0F15097276A
:1006F000002023AF07EE69335C5099CB9727002089
:10070000938707F69843B70633001C47D58F1CC75D
:10071000F2406244D2444249B249224A0561828091
:10072000832749003E9421B722852DB7829714482C
:1007300003274900B387A6003E8563E4D700E3E0C2
:10074000E7F63385E740A1BF23A6A18601C585470B
:100750002388F18682809387C1869C4381CF411193
:1007600006C6829783C7018799E323A60186B24014
:100770004101828083C7018781E723A601868280A9
:100780008280411126C206C622C49727002083C753
:1007900027B897240020938424B085EB9727002066
:1007A00083C797E4858B172700201307A7E391CF12
:1007B0008347770099466396F60C97270020A38518
:1007C00007E2EF107032DC4482979C4491C3829719
:1007D00017240020130404AE1840172600200346F7
:1007E000F6A89727002083C767A893961700BA96A4
:1007F00083D60600C5C69727002083C727A763E9CD
:10080000C70A97270020238307A69727002083C7BE
:10081000F7DD972400209384E4DC63970712972781
:1008200000209387E7A89C43638B0710972700203D
:10083000938747ADDC43172700202321F7A4893194
:1008400097270020938787A79C57638A070E83C743
:10085000740011476365F70E9727002083C707DEF2
:10086000918BF1EF83C70187F9EB104097260020A9
:1008700083C6D69F63C7D70E2244B240924441013B
:1008800081B3834777001D47E311F7F497270020D2
:10089000A38C07D4EF1050259C483DB7850793F7EC
:1008A000F70F972600202383F69CE3ECC7F2A1B74D
:1008B00086073E97835507002310070097270020DF
:1008C0002396079E972700209387C79C9C43172554
:1008D00000200345A59913172500BA979C438297DA
:1008E0009727002083D7879C172700200347079866
:1008F00093C7F7FF7D8D9317170018403E978357D6
:1009000007005D8D2310A7009727002083C7079657
:1009100091C7850717270020230AF7949C4091C7A9
:1009200082979727002023A90796172700200347BF
:10093000E7939727002083C77793E374F7ECB240DF
:10094000224492444101828083C7740093F7F70FD9
:10095000E39707EC97270020A38A07C8EFE03178D8
:100960007DBD1397170032970357070069FB850772
:1009700011B7374702408326C720F177FD17F58F5F
:100980002326F72001000100972700209387078E78
:10099000C84F832787262326D7206A0593C7F7FFEA
:1009A00099835D8D82809727002083C7578C99CFCC
:1009B0009727002083C7C79581CF9727002093876B
:1009C000679503A307006307030002830545828040
:1009D000094582801305F00F82809387818C9843AC
:1009E00017260020034606AA81476315F6008146B4
:1009F00036858280BA8613078702835587FDE3898F
:100A0000A5FE850793F7F70FCDB79387418E9C43DB
:100A100017270020034717A72A86050781463E852A
:100A200083D707006388C700850693076500E3E85E
:100A3000E6FE014582809387C18D984319E3014604
:100A400015A81C4703D8A700636B0501835847000E
:100A5000B38608016355D500814663941601184397
:100A6000F1BF3E86C10703D3A7FF6317A30099C157
:100A700023900501328582808506C206C182F1BFBE
:100A8000972700209387079A98431726002003464C
:100A9000669F81476315F600814636858280BA8657
:100AA0001307C703835567FCE389A5FE850793F702
:100AB000F70FCDB70327851163020712411122C436
:100AC00006C68347C5008345E5042A8493F7C70F0C
:100AD0002306F500834697000356C7001395860149
:100AE000618563F2C508635B05060345870093F6DD
:100AF000F607A304D700054693E627006314C50054
:100B000093E617002306D4005C4389075CC3A30A5D
:100B1000B400032504112E864C430905EFF06FF94C
:100B20008327841103465401D44303D7C700B296E8
:100B3000118FD4C32396E7008947A30DF400034720
:100B400064039717002083C787786378F704834787
:100B5000C40093E707012306F40081A093E7170080
:100B60002306F4006DB79376F60F635D0502034527
:100B70008700854513E627006314B50013E61700C8
:100B80002306C400A30AD400A30407008547A30DCD
:100B9000F400832784119C43DDF3B24022440145D5
:100BA0004101828093E717002306F400A30AD400D2
:100BB000A3040700032504114C430905EFF06FEF70
:100BC0008327841103465401D44303D7C700B29648
:100BD000118FD4C32396E7008D4755BF054582800A
:100BE000972700209387479D9C43411122C406C646
:100BF000858B2A84D5EB4165130525F5EF70016ED1
:100C000045C58347A5002315F50083270412BDE7DA
:100C10002320A4122322A41285472311F4042320A5
:100C200005008347640154412316F5000347D400AF
:100C30002304E5000547A304E50017270020130758
:100C4000679A58531385170215811C437D15137538
:100C5000F50F9CC25C43DCC21C479CC65C47DCC6EB
:100C60001C4B9CCA5C4BDCCA1C4F9CCE5C4FDCCE40
:100C700019CD9386060213070702C1BF83274412CA
:100C800088C3835724042322A412850779B79727A2
:100C9000002083D72780850717170020231CF77EA5
:100CA000B2402244410182808347C40023090400EA
:100CB000054593C747002306F400DDB78347850148
:100CC00093F7E70FC5EF83479501CDEB0346250169
:100CD0008346C50009CA83456503171700200347EB
:100CE000175F63E7E50013F7060151CB014709C61B
:100CF000C18A0357251E81C68356651E369741C398
:100D00001307C7121715002003554560B335A70216
:100D100037460F00411113060624814622C426C21D
:100D200006C67D543305A702EF30502197170020E7
:100D300083C7375AB384A700971700209387077596
:100D400003A7C7098327070963F387003E84184375
:100D500075FB971700209387A7559C43829781477F
:100D60006364A400B307A440B2402244B3B7970021
:100D700093C7170092443E854101828081473E859A
:100D80008280972700209387678898437C53FDFFD4
:100D900082800111971700209387476F22CC03A40C
:100DA000470A26CA9717002083D7475683546408FA
:100DB000032504094AC8B384F402B7470F00138718
:100DC000F7239387072406CE4EC652C456C217197E
:100DD000002013092953BA94B3D4F402636E950228
:100DE000971900209389C94C83A70900B304954043
:100DF000829763E7A402898C63C8040283570404C2
:100E0000A30F040085072310F40483470414639F91
:100E100007102285352729AA832749003E95C9B79F
:100E200083274900BE94C1BF83A709008297032787
:100E300084086367E50A198D8357E40317170020B8
:100E40000357C74C8E07B387E70213070032938717
:100E50000719B3D7E70263EAA708374A0F00930AD6
:100E6000FA23130A0A248357040485072310F40481
:100E70008347041499E32285E1252285EF60214B05
:100E8000631A0526832604098327C408032749001B
:100E9000B6973E8563E4D70063E4E7003385E74017
:100EA0008347F401835464082328A4088507A30F0B
:100EB000F4009717002083D76745B384F402D694D3
:100EC000B3D44403636C9504B304954083A709002D
:100ED000829763E9A4043385A440E34605F839BF4B
:100EE00083274900998F3E9581BFA1452285EF60F8
:100EF000813BA305A402971700209387273C03A3F7
:100F000047036309031E6244F240D2444249B24996
:100F1000224A924A8945154505610283B3049740E8
:100F2000AA946DB783274900BE9475B72285452DD5
:100F30002285EF60C13F631F051A835764081715A8
:100F400000200355A53CB7460F00B387A7021386C0
:100F5000F6239386062403270409230B0402032A9D
:100F60004900B297B3D7D702636FF718B307F740BA
:100F70008326C4082324F408814AB387E600BE848C
:100F800063E4D70063E44701B38447418357040215
:100F900023289408B1CB83560404035744023746F0
:100FA0000F002312D4023387E640B387E7020357CA
:100FB00024021306062481468145BA97C207C183DD
:100FC0003385A7022311F402EF30407711CD269527
:100FD000B3349500AE94AA8763949A006364450184
:100FE000B30745412328F40883A709008297AA8400
:100FF00083A709008297E30D95FE83A70900832448
:101000008408829763E6A4103385A4406303051225
:10101000835764089719002083D9492FB7440F00DC
:10102000B38737031387F42393840424BA97B3D781
:101030009702171700200347D729BA9763EBA70E2B
:10104000B3359502035924024E8681463305950235
:10105000EF30C06E330AA9003305390337460F005D
:101060001306062481468145EF30406D05C1B33734
:1010700095024E868146B385B4023385A402BE959F
:10108000EF30C06B3305A9402311A4023545EFE0D2
:10109000B1179717002023AD87488346B400054752
:1010A0009717002083C7C7266398E606130700FD3D
:1010B0002307E40017170020130747510843B5C75B
:1010C000EFF08FE89716002093864654904295479C
:1010D00017170020A30BF7505846F977FD17F98F23
:1010E0005CC60F1000009C428966060A94C723A2C2
:1010F0004707D8C7F2406244D2444249B249224A23
:10110000924A05618280B3064701B387F6408DB5E8
:1011100083274900BE94CDBD130710FC2307E400CC
:10112000171700201307074A51BF8145EF50007B76
:1011300051BF9717002023AD073E9717002083C7A4
:10114000271D99CF97170020938787478843EF5033
:10115000D03AB7E700E03707000223A2E72059BFE3
:101160008347940285456244F240D2444249B249E1
:10117000224A924AB395F500C205C1810145056135
:101180006F506015011122CC4AC84EC606CE26CA41
:1011900052C456C25AC00347B50085472A842E89D7
:1011A00083290509631DF71E83570508035BC503E3
:1011B000971A002083DA8A15171A0020130A8A1456
:1011C00063F7671B834605016393E61A03278511BE
:1011D000631F07180327450A631B07188346F5009A
:1011E0001D476396E6180355A503330BFB40930791
:1011F000204E330565038324440937460F00130648
:10120000062481463305F5029717002083C7670C33
:10121000B3549502B3B5AA02BE94C204C18023138D
:1012200094083385AA02EF306051AA9933B5A9001A
:101230002E954E8783274A0019E163E4F90033872E
:10124000F940B3845403B7460F009387F62393867F
:1012500006242320E900BE94B3D4D40293171B00C4
:10126000A6976360F7101D8F2320E90097190020CF
:101270009389090483A7090083240900829763E303
:10128000A4123385A4406352050C83A709008297FA
:1012900003270900636FE510198D8357E4031717BF
:1012A00000200357A7068E07B387E7021307003213
:1012B00093870719B3D7E70263E5A710374A0F00F2
:1012C000130BFA23971A0020938ACA03130A0A24DD
:1012D0008357040485072310F4048347041499E317
:1012E0002285B92C2285EF60810465E983260409F3
:1012F0008327C40803A74A00B6973E8563E4D70056
:1013000063E4E7003385E7408347F40183546408CE
:101310002328A4088507A30FF4009717002083D77C
:10132000E7FEB384F402DA94B3D444036366950C05
:10133000B304954083A7090023209900829763E1B5
:10134000A40C3385A440E34505F89717002083C714
:1013500057F863E5A7089717002023AB871C0145C2
:10136000B5A883264A00B387F6403E97F5BD83575C
:10137000640837470F00B38457039307F723A697F2
:1013800093040724B3D4970263E79900B384994088
:1013900023209900E1BD83274A00BE99C5BF23A041
:1013A0003501E9B5971700209387C7F5DC43BE9454
:1013B000C9BD971700209387E7F4DC43998F3E95CA
:1013C000E9BDA1452285EF50116EA305A402971730
:1013D00000209387A7EEDC5B81EF7D55F2406244ED
:1013E000D2444249B249224A924A024B0561828064
:1013F000894515458297D5B7B3049740AA941DBF78
:1014000083A74A00BE9435BF31CD01116C0022CCB8
:1014100006CE2A84853B29C5FD576308F502971639
:1014200000209386A6E9945632479717002083C779
:1014300057EA91C28583636EF700B307F7403EC653
:10144000B24503459402EF500000F240624405614A
:101450008280971600209386E6EAD4423697F1BF41
:101460000D3AE5B7828079719717002093870702BC
:1014700026D283A4C70906D622D44AD04ECE094725
:10148000A5C09716002083C6561695470D47638959
:10149000F604971700209387E714DC472A8989CB45
:1014A000EFE0911EEFD051759717002023A207148B
:1014B000FD596C002685F93105ED1705000013056F
:1014C000858DEFF06FA8A14717170020230EF710A6
:1014D00097170020938787139C430947F8D30D473C
:1014E000B250225492540259F2493A8545618280A1
:1014F000637435013244AA898440C5FCFD57130743
:10150000F00FE38FF9FC914763F487029307B4FF70
:101510002320F900171700202322F7020147E9F3DF
:1015200097170020938707DEDC432320F9004DBF87
:1015300097170020938707DDDC43ED17A297C9BFFB
:10154000797126D206D622D44AD04ECE52CC56CA73
:101550005AC85EC68347550303447513AA843E9454
:101560001374F40F9307400263F687001304B4FD6D
:101570001374F40F03AA841383AAC413A38B8412D5
:1015800022865285D685EF30E015058905E503CB27
:10159000D41201498149337B6403930B50024A867C
:1015A0005285D685EF300014058915C5639169030E
:1015B0001374F90F238B8412B2502254925402599F
:1015C000F249624AD24A424BB24B45618280850958
:1015D000E20993D989410509E31379FDE1BF832726
:1015E000850903560504797193D60701BD8EC2069D
:1015F000C182358E1357764093575640898B058BA1
:101600005D8F93573640918B5D8F93571640A18B1A
:101610005D8F93171600C18B5D8F9317360093F77C
:1016200007025D8F931756009355860093F70704C2
:101630001E065D8F1376F60F518F93D7554013D644
:101640003540118A898BD18F13D67540D18F13D62F
:101650001540218AD18F13961500418AD18F139698
:10166000350013760602D18F1396550013760604C3
:101670009E05D18F93F5F50FCD8FA20745465D8F5F
:101680003307C70222D42A8426D252CC56CA032A50
:101690008413832AC4135AC806D636974207418357
:1016A00093577740135557400989858BC98F135538
:1016B00037401189C98F135517402189C98F1315D8
:1016C00017004189C98F1315370013750502C98F9B
:1016D0001315570093558700137505041E07C98F0E
:1016E0001377F70FD98F13D5354013D7554011898C
:1016F000098B498F13D57540498F13D51540218922
:10170000498F139515004189498F1395350013753D
:101710000502498F13955500137505049E05498FE1
:1017200093F5F50F4D8F2207D98FB387C7024AD0A3
:101730004ECE5EC662C4B697C207C18313D7774048
:1017400013D557400989058B498F13D53740118927
:10175000498F13D517402189498F13951700418967
:10176000498F1395370013750502498F139557005C
:1017700093D58700137505049E07498F93F7F70FDC
:10178000D98F13D5354013D755401189098B498F0F
:1017900013D57540498F13D515402189498F13956D
:1017A00015004189498F1395350013750502498F3E
:1017B00013955500137505049E05498F93F5F50F94
:1017C0004D8F2207D98FB387C70213065002528567
:1017D000D685B697BD8E93940601C18033F6C402B8
:1017E000137BF60FEF20107005891DE98347D41293
:1017F00001498149B3849702130C5002C1804A8683
:101800005285D685EF20106E0589937BF90F11C59F
:1018100063863403850993F9F90F0509E31189FFFC
:10182000230B6413B250225492540259F249624A73
:10183000D24A424BB24B224C456182805E8BCDB77F
:101840008327C50803568508797193D60701BD8E95
:10185000C206C182358E1357764093575640898B06
:10186000058B5D8F93573640918B5D8F9357164054
:10187000A18B5D8F93171600C18B5D8F9317360078
:1018800093F707025D8F931756009355860093F7E1
:1018900007041E065D8F1376F60F518F93D75540C0
:1018A00013D63540118A898BD18F13D67540D18FCD
:1018B00013D61540218AD18F13961500418AD18FF6
:1018C0001396350013760602D18F139655001376C2
:1018D00006049E05D18F93F5F50FCD8FA2074546DF
:1018E0005D8F3307C70222D42A8426D252CC56CA2F
:1018F000032A040A832A440A5AC806D6369742079E
:10190000418393577740135557400989858BC98F79
:10191000135537401189C98F135517402189C98F35
:10192000131517004189C98F131537001375050268
:10193000C98F1315570093558700137505041E07AB
:10194000C98F1377F70FD98F13D5354013D755406B
:101950001189098B498F13D57540498F13D51540CF
:101960002189498F139515004189498F13953500B9
:1019700013750502498F13955500137505049E05CF
:10198000498F93F5F50F4D8F2207D98FB387C70283
:101990004AD04ECE5EC662C4B697C207C18313D783
:1019A000774013D557400989058B498F13D53740A8
:1019B0001189498F13D517402189498F1395170035
:1019C0004189498F1395370013750502498F139587
:1019D000570093D58700137505049E07498F93F729
:1019E000F70FD98F13D5354013D755401189098B7F
:1019F000498F13D57540498F13D515402189498FDB
:101A0000139515004189498F13953500137505020B
:101A1000498F13955500137505049E05498F93F55D
:101A2000F50F4D8F2207D98FB387C70213065002D7
:101A30005285D685B697BD8E93940601C18033F644
:101A4000C402137BF60FEF20F04905891DE9834797
:101A5000140801498149B3849702130C5002C180D4
:101A60004A865285D685EF20F0470589937BF90F8A
:101A700011C563863403850993F9F90F0509E3114C
:101A800089FF230F6407B250225492540259F2493D
:101A9000624AD24A424BB24B224C456182805E8BF5
:101AA000CDB78327450903568508797193D6070179
:101AB000BD8EC206C182358E13577640935756406D
:101AC000898B058B5D8F93573640918B5D8F935734
:101AD0001640A18B5D8F93171600C18B5D8F9317F6
:101AE000360093F707025D8F9317560093558600D3
:101AF00093F707041E065D8F1376F60F518F93D769
:101B0000554013D63540118A898BD18F13D6754035
:101B1000D18F13D61540218AD18F13961500418A93
:101B2000D18F1396350013760602D18F1396550088
:101B3000137606049E05D18F93F5F50FCD8FA2077E
:101B400045465D8F3307C70222D42A8426D252CC61
:101B500056CA032A040B832A440B5AC806D6369762
:101B60004207418393577740135557400989858B26
:101B7000C98F135537401189C98F135517402189D3
:101B8000C98F131517004189C98F131537001375B5
:101B90000502C98F13155700935587001375050467
:101BA0001E07C98F1377F70FD98F13D5354013D779
:101BB00055401189098B498F13D57540498F13D52D
:101BC00015402189498F139515004189498F139537
:101BD000350013750502498F1395550013750504DB
:101BE0009E05498F93F5F50F4D8F2207D98FB38747
:101BF000C7024AD04ECE5EC662C4B697C207C18342
:101C000013D7774013D557400989058B498F13D5D2
:101C100037401189498F13D517402189498F139572
:101C200017004189498F1395370013750502498FB5
:101C30001395570093D58700137505049E07498FA8
:101C400093F7F70FD98F13D5354013D75540118926
:101C5000098B498F13D57540498F13D515402189BC
:101C6000498F139515004189498F139535001375D8
:101C70000502498F13955500137505049E05498F7C
:101C800093F5F50F4D8F2207D98FB387C70213063F
:101C900050025285D685B697BD8E93940601C180B9
:101CA00033F6C402137BF60FEF20D02305891DE91C
:101CB0008347F40801498149B3849702130C500209
:101CC000C1804A865285D685EF20D0210589937B35
:101CD000F90F11C563863403850993F9F90F0509D6
:101CE000E31189FF230F6407B25022549254025922
:101CF000F249624AD24A424BB24B224C4561828041
:101D00005E8BCDB7797122D406D683C735002E8479
:101D100023160100A307F10083C74500100802C085
:101D20002307F10083C755008A8502C2A306F1008C
:101D300002C402C802CA02CC02CED52A0347F1016E
:101D40008347040001456310F7020347E10183471D
:101D5000140001456319F7000345D10183472400AE
:101D60001D8D13351500B25022544561828001113A
:101D7000970700209387877122CC03A4C70C26CA3B
:101D80004AC84EC606CEAA8413092500854915C047
:101D900083C7140003473400858B6304F700405C5D
:101DA000FDB71946930544004A85EFE0AFE1E3181B
:101DB00035FF2285F2406244D2444249B24905616E
:101DC00082804111970700209387476C22C403A4A7
:101DD000C70C26C24AC006C693042500054901E87F
:101DE0002285B24022449244024941018280A68564
:101DF0001305A402013FE30525FF405CCDB7411167
:101E0000970700209387876822C403A4C70C26C2C3
:101E10004AC006C693042500054901E82285B24060
:101E200022449244024941018280A6851305A401FF
:101E3000D13DE30525FF405CCDB7011122CC6041C7
:101E400026CA4AC84EC652C406CEAA841D4A1309E1
:101E500065058549BC446364F400054581A803C752
:101E6000D40083474400631B470503C7840263040F
:101E7000F7000040C5B70347540083C75405E31A71
:101E8000F7FE1946CA8513056400EFE0AFD3E312ED
:101E900035FF0347C40083C79402E31CF7FC0357D4
:101EA000E40083D7A402E316F7FC0145F240624444
:101EB000D2444249B249224A05618280E31BF7FAC3
:101EC0000347540083C75405E315F7FA1946CA853A
:101ED00013056400EFE00FCFE31D35F9F9B70111E9
:101EE000970700209387875A22CC03A4470C26CA61
:101EF00006CE2AC42EC6854419E40145F240624448
:101F0000D244056182808347910003471400858B8A
:101F10006304F7000044CDB719469305A1001305EB
:101F20002400EFE02FCAE31795FE0545C1BF9706D1
:101F300000209386266A9C421307001098C323A0B2
:101F4000070003471500034825002207420842976F
:101F5000034805004297034835006208429798D726
:101F6000034755000348650022074208429703488B
:101F7000450042970348750062084297D8D7034747
:101F800095000348A50022074208429703488500B0
:101F900042970348B5006208429798DB0347D50093
:101FA0000348E5002207420842970348C50003455D
:101FB000F500429762052A97D8DB03C7150003C5D1
:101FC0002500220742052A9703C505002A9703C565
:101FD000350062052A9798CF03C7550003C56500F1
:101FE000220742052A9703C545002A9703C57500B5
:101FF00062052A97D8CF03C7950003C5A50022071D
:1020000042052A9703C585002A9703C5B5006205D6
:102010002A9798D303C7D50003C5E50022074205D8
:102020002A9703C5C50083C5F5002A97E2052E97B8
:10203000D8D3D843759BD8C3D84313671700D8C3E8
:1020400098431367170098C398425C43858BD9E384
:102050001C4F01452300F6009C429C4FA183A30026
:10206000F6009C429C4FC1832301F6009C429C4F8A
:10207000E183A301F6009C42D84F2302E600D84F2B
:102080002183A302E600D84F41832303E600D84F03
:102090006183A303E60098532304E6009853218349
:1020A000A304E600985341832305E6009853618317
:1020B000A305E600D8532306E600D8532183A306E0
:1020C000E600D85341832307E600DC53E183A307EE
:1020D000F600828001008DBF970700209387075389
:1020E00098431605136505083C4B93E707083CCB5E
:1020F000970700209387074E9C4303A7450E88C38C
:1021000098CB03A7850E0145D8CB03A7C50B98CF65
:1021100003A7050CD8CF03A7450C98D303A7850CBC
:10212000D8D303A7C50C98D703A7050DD8D703A705
:10213000450D98DB03A7850DD8DB03A7C50D98C710
:1021400003A7050ED8C798431367070498C3828076
:10215000970700209387874B98431605136505085A
:102160003C4B93E707083CCB9707002093878746B3
:102170009C4303A7C50E88C398CB03A7050F014551
:10218000D8CB03A7C50B98CF03A7050CD8CF03A7BF
:10219000450C98D303A7850CD8D303A7C50C98D7B3
:1021A00003A7050DD8D703A7450D98DB03A7850D19
:1021B000D8DB03A7C50D98C703A7050ED8C798435A
:1021C0001367070498C3930700F817070020230E2E
:1021D000F74082809706002093860640984241117E
:1021E00026C21C5F06C622C49983858BB684CDC3E4
:1021F000930700061CDF9707002083C7A73E93F7CD
:102200000704170400201304E43D9DC39707002032
:102210009387070A9C4382979707002023A2A73E33
:102220008347040093F7F70B17070020230CF73AB6
:102230008347040093F707029DC383470400A16608
:1022400093F7F70D17070020230EF7381707002024
:102250001307C73B5C481843860714C77CD78347DE
:10226000440093F707048DE7854717070020A30D67
:10227000F73697070020938767399C43096798C70B
:10228000130700FC970600202380E6361848F8D391
:1022900098401C5F9183858B81CBC1471CDF8547AC
:1022A000970600202382F6341C5F9D83858B89CBA3
:1022B000930700081CDF8547170700202306F73225
:1022C00097070020938707319C43D8430583058BEC
:1022D00019C7D843759BD8C3D843799BD8C3B2409C
:1022E000224492444101828097070020938707325D
:1022F0009443970700209387E72E03C70700058BB9
:1023000009EB03C71700058B09E7F8527DF783C770
:10231000570097070020A389072C82801708002008
:102320001308882B032708001C5F9583858BBDEB62
:1023300009C61C5BBD832300F60085CA83270800FD
:10234000985B4607935767016356070093E707C0FA
:10235000C207C18303970600C207C18709C7BA979E
:102360000947B3C7E7022390F60095C183471500DC
:1023700099CF3E95834795000547194593F6F70693
:102380006393E602E207E187394563CE07008327BE
:10239000080001459C5FED838D8B17070020A30883
:1023A000F724828005458280411122C406C61704A5
:1023B00000201304A42518403DE5AE877453FDFEAC
:1023C0003E85B28597070020238F0720EFD0612339
:1023D00097070020938747209C43B70680009843C7
:1023E000558F98C3D857719BD8D797070020A38DD6
:1023F000071E97070020A387071E1C40094798C3A4
:102400001440170700201307E71D83472700858B1B
:1024100099E783473700858B99E3FC52FDF7B2407B
:102420002244410182808D476310F5029707002006
:102430009387871A9C43B70680009843558F98C3AB
:10244000D857719BD8D76DBF8547E31BF5FA544722
:10245000F977FD17F58F5CC70F1000001C40096766
:1024600098C7130700F817060020230FE616170772
:102470000020130767161043184231830D8B11E7B4
:1024800013076019F8D3D4C7A5BF18420946318392
:102490000D8B6315C7001307E043EDB71307E01B6F
:1024A000D5B75D7152DC170A0020130AEA12032720
:1024B0000A0086C6A2C4A6C2CAC04EDE1C43970943
:1024C00000209389E919170900201309291493F7AB
:1024D000F7E793E707081CC383A609003707CEFF79
:1024E0007D179C46130680022A84F98F9CC6832799
:1024F00009002800AE8423A8070493051008EFD034
:10250000FFE13545EFD0415083270A009376F41F51
:102510003706330023A40700984B370FFCFF4E8883
:102520001367F70398CBF84FCA88130510F8137791
:1025300007E0558FF8CF9843F576FD16758F98C351
:1025400017070020A302070A8326090017070020A7
:10255000A30A0708054798C29843D285B70204002A
:102560001377F7E798C398439303802511491377AE
:10257000F7E71367071098C303A709007D1F854974
:102580001C47930F8002D18F1CC793079005BCCACC
:102590000147340013533700269383470300137613
:1025A0007700B3D7C740858BDDCF9C41832E0800D1
:1025B000239C07042390070603AECE02137EDEFFA2
:1025C00023A6CE0383AE0700137EF70793FE0EF813
:1025D00033EECE0123A0C70103AE4702336E5E0087
:1025E00023A2C70383AE0800014E23A27E0603DAAE
:1025F000070663074E0303AE0703038A0600135E54
:10260000FE00620E135E8E416358CA0103AE0703DB
:10261000135EFE002380C60103DE0706137EFE0F55
:1026200003AA4E0663060A0003DA8705E37F49FB27
:1026300003AE4702337EEE0123A2C7038387060061
:10264000635CF400034E03003396C9001346F6FFA3
:102650003376C6012300C3003E8663D3A7002A86D3
:1026600013158601618505071377F70F8506E313B8
:10267000F7F3B640264496440649F259625A61611E
:10268000828097070020938767F89C43D84793166A
:10269000170163D5060298479316170163D0060207
:1026A0007D57B8D717070020130747BC584F0507B9
:1026B0009706002023AAE6BC116798C798470D83A8
:1026C000058B1DC3170700200347E7F113671700A9
:1026D000970600202389E6F0130700F897060020EC
:1026E0002384E6F0214798C79847058B09CF170741
:1026F0000020034737EF1367170097060020A383D6
:10270000E6EE054798C798470983058B09E7984780
:102710000583058B35C317070020A30707EC9847EF
:1027200017060020130606EC970600209386C6EADB
:102730000983058B9442B285630007109842318368
:102740000D8B65EBB04BD85113760602034717008B
:102750005DCA69EF1307D005D8CF03C7050013671B
:10276000170017060020230FE6E6114798C7D85632
:10277000719B13671700D8D698479316370163D615
:1027800006029706002083C626D8C18A17070020B4
:102790001307C7CFC5CE0347C707136707029706BE
:1027A00000202383E6D6056798C79847931627012C
:1027B00063D1060217070020034707E3620761871A
:1027C00063570700054797060020238FE6E0096757
:1027D00098C798479316070163D60602970600200C
:1027E00083C696D2858A17070020130727CAADCE65
:1027F0000347D7071367270097060020A386E6D074
:10280000216798C7828039D705466315C70013072B
:10281000100699B709466315C700130750062DBF68
:102820000D466315C700130790063DB71307B006A2
:1028300025B71307C0060DB7034736001367170007
:1028400017060020A301E6DA09470DB78346C7073C
:102850000946BD8A6388C6000347C7078D463D8B7E
:10286000E313D7F4114725BF8346D707918AC9DA06
:102870000347D7071367870041B79707002093875F
:10288000E7D89C4398479706002023A9E6D69447AB
:1028900017070020130707D58D82858A8DC28346CE
:1028A000270093E6160017060020230ED6D29306C3
:1028B00000F8170600202309D6D2A14694C79447F2
:1028C000858A99CA8346170093E6160017060020EA
:1028D000A30AD6D0854694C794478982858A89E61B
:1028E00094478582858AA1CE97060020A38E06CEC6
:1028F000944717060020130626CE10428982858A47
:10290000D5C21442B1828D8AD9EAAC4B545393F5A7
:10291000050283C61600B1CDC1E29306D005D4CF1F
:102920008346070093E6160097050020238CD5CA3E
:10293000914694C75456F19A93E6160054D694479C
:1029400013962601635F060003474700620761870D
:10295000635707000547970600202387E6C80967E5
:1029600098C798479316070163D40600216798C754
:102970008280C5D685456395B6009306100645B797
:1029800089456395B6009306500651BF8D45639502
:10299000B6009306900661B79306B00649B7930652
:1029A000C006B5BF8346370093E6160097050020A2
:1029B000A38BD5C28946B5BF97070020938707C56B
:1029C00098438567938707777CD397070020938781
:1029D00027C99C4383A6070913965600635806002F
:1029E00083A6070913966600634406007453FDF23C
:1029F0008280411122C4B747024006C603A4C72003
:102A000023A607200F10000011C199E5B747024027
:102A100023A6872001457DA893073500C207C183FF
:102A2000F19BC207C183130740036369F7021707CD
:102A300000201307A7CB084317070020130787CAF6
:102A400014436392A6021707002013072787585BD9
:102A500055DFC207DD8D054502974DBF17070020E2
:102A6000130787C8C9BF035765002DEB03574500FF
:102A70006366F706B306F7402146637CD602032857
:102A80000500938687001D8FAA96611717F6FF1F12
:102A90000356267E2392E60023A006012393060018
:102AA00014C12312F500130786FF97F6FF1F239228
:102AB000E67C2313B50097F5FF1F83D5857BB3878D
:102AC000F54017F7FF1F2316F77AB747024023A6F2
:102AD00087202105B240224441018280084195B7F8
:102AE000B747024003A8C72023A607200F10000005
:102AF00001E523A60721828097070020938707BF5F
:102B000003AE0700970700209387C7BD03A3070004
:102B10008146F28763F0670C83A80700636FF50AAC
:102B200063EDA80A138787006366E50A03D667008A
:102B3000216705076317E60003C7818F0507238C0C
:102B4000E18E97F5FF1F9385657203D6470003D783
:102B500065002393070032974207418317F5FF1F53
:102B60002319E570638AC703170500201305C5B74D
:102B700008416303F50203D5660019ED83D74600CB
:102B800023A0160121073E9621062392C60097F73F
:102B9000FF1F2390E76EB6879843630D6702970681
:102BA0000020938666B494426306D702835667007A
:102BB00095E283D64700035647001843A106B29614
:102BC0002392D70098C383D76500A10717F7FF1F8B
:102BD0002311F76AB747024029BFBE86C6871DBFCB
:102BE00097070020938787B097060020938686AFCB
:102BF0009C4390422A87B305B5406314F6003A859A
:102C000029A8938687009C43E369D7FEE377F7FE04
:102C10002E85E3E4D5FEE3F2F5FE828041119707AD
:102C200000209387A78626C2A44F06C622C44AC0A6
:102C30008547C1CC03A4C40A854741C88347A40083
:102C40001307700A639AE708034754008347940008
:102C500097F6FF1F9386066BD042B387E70217F7FC
:102C6000FF1F0357A76AB387E70213070032938752
:102C70000719B3D7E70203A74409B6843E973A89F8
:102C80006364F7006364C7003309C74097F7FF1F09
:102C9000938707629C43232025018297B307A940AD
:102CA0006374A900D840BA9781E79307F00F31A861
:102CB000034754009306204E3307D702E3F7E7FE9D
:102CC000930780FA2305F4008147B24022449244DE
:102CD00002493E85410182801307800AE397E7FCA1
:102CE00097F7FF1F9387C75C9C4382972A893545D6
:102CF000EFC09151AD4717070020A308F78E034797
:102D000054008347940017F6FF1F1306A65F504236
:102D1000B387E70217F7FF1F0357475FB387E70241
:102D20001307003293870719B3D7E70203A74409B3
:102D30003E97BA866364F7006364C700B306C74072
:102D4000E315D9F617650200130565BEEFD0DF9FC6
:102D5000970700209387878B9C430947F8D7B1B723
:102D6000397152D4170A0020130ACA8783278A01AF
:102D700006DE22DC26DA4AD84ED656D25AD05ECEAD
:102D800062CC66CA6AC86EC61397070163570720EC
:102D900097F7FF1F9387876FA04F0329C40A8347C4
:102DA00099000327C9009207330CF70003452C0054
:102DB000314705053305E50203574C003A954205B6
:102DC0004181EFD0EFBEAA8B6303051E130DC50032
:102DD0002324A50103462C00B145F97A3306B60237
:102DE00023130C008144970900209389298217FB43
:102DF000FF1F130B6B7E970C0020938C6C86930D3A
:102E00009005FD1A6A962326CC00034679009307A5
:102E1000D00703A509003306F60285671CC5B7076E
:102E20003300060630D103260B000C4293F5F5E77C
:102E30000CC20C4293F5F5E793E505100CC203A80C
:102E40000C0083258800DD8D2324B800832509002C
:102E50002328B5050CC683556C000326CC002E969E
:102E60002324CD0003461C00930550022696A3019F
:102E7000CD0003450408014697F7FF1FA38407769A
:102E8000EFC0D10D03A609004846B37555014CC6E5
:102E90000F10000003A60900896503280B000CC66B
:102EA000930500F897F7FF1F2380B7748325080068
:102EB000B1818D89F1E1930560196CD248C697F70D
:102EC000FF1FA3830772854597F7FF1FA38C077029
:102ED0000CC2EFF06FC1EFC0F12A03461A00058A59
:102EE0004DCAEA852285EF60522E15ED03465D003E
:102EF0004DC283556C0003554C00B29563DBA508A9
:102F0000834524012848918D8905AA9503258D00C4
:102F1000EFD02FBA23020D0083455D0003566C00ED
:102F20002E962313CC0083A50900310DB0517DFEF0
:102F300003462C00850493F4F40FE3E8C4EC034744
:102F400084005E85A381EB0083470C00A3820B0005
:102F50002383CB002382FB006254F250D2544259A7
:102F6000B259225A925A025BF24B624CD24C424DF9
:102F7000B24D21616F00D13D832508000948B18120
:102F80008D89639505019305E04305BF9305E01B1B
:102F90002DB77D562302CD0079B797F7FF1F938792
:102FA000E7669C43FC5781C785472388F186F2502A
:102FB0006254D2544259B259225A925A025BF24B8D
:102FC000624CD24C424DB24D21618280197106C2D1
:102FD00012C416C61AC81ECA22CC26CE2AD02ED299
:102FE00032D436D63AD83EDA42DC46DECAC0CEC249
:102FF000D2C4D6C6DAC8DECAE2CCE6CEEAD0EED279
:10300000F2D4F6D6FAD8FEDA938541858841E700F6
:10301000050092402242B2424243D2436244F2440B
:10302000025592552256B2564257D2576258F2581C
:1030300006499649264AB64A464BD64B664CF64C4C
:10304000065D965D265EB65E465FD65F09617300DB
:1030500020300000EFD02FF07300000000000000CF
:10306000938201870383020023800200630F030021
:10307000F32510342EC0970500009385E5FD73906D
:103080001534EFF08FFF7300203086DCEFF06FDF38
:08309000E65082800000000000
:1030980001A097E1FF1F9381618417D100201301DC
:1030A800E1F5177502001305E54D97D5FF1F9385C8
:1030B800E5F41386018563FAC5008322050023A081
:1030C800550011059105E3EAC5FE1385018597F5BD
:1030D800FF1F9385E5616377B5002320050011057F
:1030E800E36DB5FEFD42739002BC8D427390428041
:1030F800930280087390023097D2FFFF938242F0C8
:1031080093E2320073905230EF10A04E97120000F5
:10311800938262497390123473002030EF12B01D0D
:10312800B727014093870740631CF50085451305C1
:103138000020012B81451305002021236F10F01D6D
:10314800B737014093870780E31AF5FE85451305D5
:103158000040C529814513050040C5B75C413707C4
:10316800F1E01307F7EF944D7D8F9C41D58FD44D37
:10317800D58FD441A206D58FD98F5CC11C4537F7AE
:10318800F1FF1307D77FD4457D8F9C49D58F944590
:103198008606D58FD98F1CC55C55370710FF7D175C
:1031A8007D8FDC29FD1793F7F70FD207D98F5CD5F0
:1031B80082801C4589C593E717001CC58280F99B4E
:1031C800EDBF1C4591C537075000D98F1CC58280BB
:1031D8003707B0FF7D17F98FD5BFA54763F7B70449
:1031E8008D47138765FF3307F7020328C5009D47FE
:1031F800B397E70093C7F7FFB3F70701B396E60065
:10320800DD8E54C5994763E3C70495477D16330699
:10321800F6025859FD47B397C70093C7F7FFF98FD0
:103228003396C5005D8E50D982800D473387E502FD
:10323800032805019D47B397E70093C7F7FFB3F746
:103248000701B396E600DD8E14C96DBFB14763E28E
:10325800C702954765163306F6021859FD47B39716
:10326800C70093C7F7FFF98F3396C5005D8E10D955
:10327800828095474D163306F6025855FD47B39799
:10328800C70093C7F7FFF98FB395C500DD8D4CD5FF
:1032980082806845420541818280B7270140938733
:1032A8000740984711C5B7068000558F98C7828098
:1032B800B70680FFFD16758FD5BF08416D8D333574
:1032C800A00082805C4191C537070004D98F5CC19A
:1032D8008280370700FC7D17F98FD5BFB7070140FB
:1032E80023AAA7408280B7066745B727024093867E
:1032F80036123797EFCDD4C31307B79AD8C3D4D3B0
:10330800D8D38280372702401C4BA166D58F1CCBAF
:103318008280B7270240984BB7060200137505F064
:10332800558F98CBC8CB984B1367070498CBD847D1
:10333800058B75FF984B8176FD16758F98CB82802B
:10334800372702401C4BC166137505F0D58F1CCB7F
:103358005C47858BF5FF372702405C47898BF5FF73
:103368003727024013060010B386F50003A80600AD
:10337800B306F50023A006015447898AF5FE910794
:10338800E394C7FE1C4BB7062000D58F1CCBB7278C
:103398000240D847058B75FF984BC176FD16758F8F
:1033A80098CB828037F7FF1F8327877E93D68700C5
:1033B8001CA114B193D60701E18334A13CB1832742
:1033C800C77E5CA1A1835CB182809C4513F707018D
:1033D80013F8F70001C7D8413368E8008E2113F7C6
:1033E800F50F39C318418146854E3D4F930F800232
:1033F80093028004214E3396DE00B3F8C5006311B2
:1034080016039398260033131F011343F3FF3377F2
:10341800E300B318180133E7E800639FF70550C9C4
:103428008506E39AC6FD18C11307F00F6375B70444
:1034380054412146854E3D4F930F800293028004EC
:10344800414EB398CE0033F715016392E802131783
:10345800260001173313EF001343F3FFB376D300AD
:103468003317E800D98E639DF701232A1501050655
:10347800E319C6FD54C18280E39457FA10C94DB7C9
:10348800E39757FE23281501DDB7377700401C4323
:1034980009C593E707101CC3828093F7F7EFE5BFD0
:1034A800B7160240DC4251777D17F98F5D8DC8C28F
:1034B8008280B7170240238007022380070205474E
:1034C8006306E50011476306E50082802380A702B2
:1034D800828015472380E7028280371702401C53F9
:1034E8005D8D08D3828001C9371702401C53A1663D
:1034F800D58F1CD38280B71602409C5261777D1706
:10350800F98F9CD28280371702405C439146B18B79
:103518006387D706A1466389D706B7177A009387CA
:1035280007201CC1371602405C42370700201307EA
:1035380007009183BD8BBA9794231C41B3D7D7005A
:103548005CC15442A1829D8ABA969422B3D6D70010
:1035580014C55442AD829D8A36971823B3D7E70025
:103568005CC5584239839376370037070020130724
:10357800070E36971823B3D7E7021CC98280B757BE
:10358800E8019387078071BF5C435843C166C983CC
:10359800BD8B758F8907C5466393D700C94701EF6F
:1035A8003747024003270780418B15CB37177A002E
:1035B8001307072029A8B7160240D8423706C000CB
:1035C800718F6319C7003727F40013070740B387C3
:1035D800E70281BFD8429316E700E3D906FC371704
:1035E8003D0013070790E5B799C5371702405C4BB4
:1035F8005D8D48CB8280B7170240D84B1345F5FF45
:10360800798DC8CB828099C5371702401C4F5D8DD4
:1036180008CF8280B7170240984F1345F5FF798D80
:1036280088CF828099C5371702405C4F5D8D48CF9F
:103638008280B7170240D84F1345F5FF798DC8CF60
:10364800828099C5371702405C475D8D48C78280E4
:10365800B7170240D8471345F5FF798DC8C7828050
:103668009357550005476399E700B71702409C43F5
:1036780033D5A7000589828009476396E700B71705
:1036880002409C53F5B7B7170240DC53D5B7B7379C
:10369800004003D74780136707012392E7808280A1
:1036A8003737004083574780C207C183BD9BC20795
:1036B800C1832312F7808280373600408356868183
:1036C8000357868142074183E31AD7FE3736004005
:1036D8008356C6818357C681C207C183E39AD7FE42
:1036E800B735004003D6858103D5858142054181E0
:1036F800E31AC5FE630CA700B736004003D7C6819E
:1037080083D7C681C207C183E39AE7FE42055D8D70
:103718008280EF12403E41112AC6953F3245B737A5
:103728000040135705014205239CE7804181239EF1
:10373800A780BD3741016F10403EEF12C03B4111D9
:103748002AC6B1373245B7370040135705013D8BBC
:1037580042052394E78041812396A7809137410150
:103768006F10A03B373700408357478093F7070215
:10377800E5DF8280B737004003D747801345F5FF60
:10378800798D2392A7808280EF12E036E5376F109B
:10379800C038EF1240361629F577FD17F58FF62158
:1037A800DA257971D58F1EA95625FD779387379F1E
:1037B800F58FD6212A842EC6D58F9625D58FB62586
:1037C800D58F5EA55E29C207C18393F7F7CFD98F3E
:1037D8005EA968080D3BB747014093870780B2454B
:1037E800631EF402A2576547B387E7029841930620
:1037F80040060A07B3D7E70233D7D702B3F7D70291
:103808001207920793872703B3D7D702BD8BD98FA7
:10381800C207C1831EA445616F1020309257E1B7DB
:1038280091C55E250967D98F5EA582805A25F977EB
:10383800FD17F98FD5BF93F5F51F4EA182800A2198
:103848006D8D3335A000828083A7418137177A00B8
:1038580013070720B3D7E70293F7F70F2389F184FB
:103868001307803EB387E7022398F1848280B7F775
:1038780000E0D8438146799BD8C303C72185330626
:10388800A70290CBD4CB98431367070198C39843FA
:103898001367170298C3D843058B75DF9843799B44
:1038A80098C38280B7F700E0D8438146799BD8C394
:1038B80003D701853306A70290CBD4CB984313676F
:1038C800070198C398431367170298C3D843058B19
:1038D80075DF9843799B98C38280EF12C0212A84B0
:1038E8001165011185451105393B930700207C823C
:1038F800371501408D473EC44C00E147130505804C
:103908003EC6E13422C837440140B70708000C0816
:10391800130504803ECC02CA231E01009D3D854547
:1039280013050480F53D05616F10201FEF12001B81
:10393800B7440140AE8932890144938404806345C9
:1039480024014A856F10C01C930500042685C53DD7
:1039580065DDB38789008385070026850504C205D0
:10396800C181D13DE9BF138741801C43B7260020A0
:103978009386466F3E95636BD500B7060120938604
:10398800068063E5A60008C33E858280FD57EDBF2B
:10399800EF126016B28713962500AA853E85EFC000
:1039A800DF9001456F106017EF12E01441112A846F
:1039B80032C6153A2285B13A32462285B285493255
:1039C800913205456D35014541016F100015EF1223
:1039D800800F39711306000281450810EF10C01FCF
:1039E800B717024083AD870103AD4700B7270140F1
:1039F8009384074083AC440003AC840083ABC402C7
:103A080003AB040383AA440303AAC40083A90401E3
:103A180003A944019C4C8545130500203EC2DC4C9B
:103A2800372401403EC49C503EC6DC503EC89C54DE
:103A38003ECA9C5C3ECCC13E31659D342685EFF084
:103A4800EFED37070E003AD60C1005472685230AF6
:103A5800E10202D002D202D402D8EFF02FF085455D
:103A68002685EFF00FF585452685EFF0BF850545DE
:103A7800EFF0BF829D460546C1452685EFF0EFF57C
:103A880085452685EFF0EFF3A6873E858945EFF05B
:103A9800DF82B72701409387074065D913050440A3
:103AA800EFF02FFF2ACE13050440EFF02FE7B717EA
:103AB800024023ACB70123A2A70123229441232467
:103AC80084412326744323286443232A544323260A
:103AD8004441924723283441232A2441232CF4408B
:103AE800A2477247130404405CCCB2473A851CD005
:103AF800C2475CD0D2471CD4E2471CDC21616F105E
:103B08004000EF02507F93970501C1872E8463DB45
:103B18000700EFC02FEF19C1EF2060442165218D08
:103B28006F00B07F93F7150013C51500F5FB939749
:103B3800250163DF0700EFC0411D03C5818537F606
:103B48000200130606E08965EF2050170965C1BF1A
:103B5800939715010145E3D507FC37A50200130526
:103B680045AAEF10C02503C5818513060064916539
:103B7800EF20D014116565B7EF02F077B737000072
:103B8800B7A5020037A502005D7193870706554661
:103B9800938585AA1305851A23AAF184EFC01F828D
:103BA80001E937A50200130505ACEF10402101A07B
:103BB800B7270240D857B7060090FD16758FD8D79B
:103BC800D857B706003013060004558FD8D7D857F2
:103BD800B70600038145558FD8D70808EFC08FF383
:103BE800B70700209387074D3EC88967938707C0AA
:103BF800FC82B7870708938707C03ECC93073050ED
:103C0800FC87ED472310F10285472301F102B747EE
:103C1800000093878799BEC4B74700009387079B26
:103C2800BEC691672317F102930720032318F102F8
:103C38008567938797D02312F102B74700009387CF
:103C4800679D28003EDEEFF0EFF51808814799469A
:103C580030003E9610228507050770BBE39AD7FE11
:103C6800C24789C7B88285676373F70001A008084F
:103C7800EF20505DAA8501C937A50200130545AD9F
:103C8800EF10000001A0854513050004B13AB7E71D
:103C980000E03707008023A2E710054723A4E710B8
:103CA80061616F009067EF021065374500001305EA
:103CB800A5B0EF2070551384818508A01928082025
:103CC80037F60200130606E08965EF20207F6F00B3
:103CD800D064EF025062411185453705001802C0D3
:103CE80002C202C402C6EFF0FF930545EFF0EFF9F8
:103CF8000545EFF00FFC014413051004EFF05F9643
:103D080035C19307900F63F8870037A502001305A4
:103D180045AFEF10C00A13050010EFF00FFC054582
:103D2800EFF06FFC81343D3C0545013C253C0145E5
:103D3800CD320D3CFD573EC2B74764003EC4B7378D
:103D480000009387076C0A853EC0EF304001AA85C2
:103D580019C537A50200130545B0EF00707241017F
:103D68006F00B05B0504420429454180253E69B7D0
:103D780005473705020023AEE184EFF02FD6094549
:103D88002134CD32730020308280EF02D05637A51F
:103D98000200130545DFEF00B06E0547A382E186F8
:103DA8006F00B057EF023055411136C62E84EF2010
:103DB800A039B24637460F00130606243376C502EB
:103DC80091CA37A50200B285130505E932C6EF008E
:103DD800306B324681452285EF10821241016F0017
:103DE800D053EF02505189E937A50200B285130577
:103DF80005E2EF00F06819A885476390F50209EA23
:103E080037A50200130545E3EF00707B6F00F05003
:103E180037A50200130545E4C5BF89476398F50037
:103E280075F637A50200130545E5F9BF8D47E39FF1
:103E3800F5FC11E637A50200130545E6F1B737A5ED
:103E48000200B285130585E76DB7EF0230492A8A6B
:103E5800AE8981441384019713896186034509005B
:103E680063E9A4040E0509051946D2852295EFC019
:103E7800CFC38345090037A502001305C5CF939723
:103E88003500850593F5F50F1386F5FF0E06229686
:103E9800A297A380370183487600034866005C3206
:103EA8005822343230222300B900EF00705D6F00D1
:103EB80030469395340089051946A2955285EFC07E
:103EC800EFCF75F5850493F4F40F79B7EF02B03F9F
:103ED80093970501C1870111AE8463D2072603C5F4
:103EE800818693898186EFC0EFB12A8405C51821A0
:103EF8009307000B631DF70083C7718609474C21A0
:103F0800930B8500638DE7005E85EF702061228545
:103F1800EF20E0042165258D05616F00903E0D4777
:103F2800638FE5000547639EE50018256317F702D0
:103F38004C2537A50200130585B6EF007054A382FF
:103F4800018658209307F0076319F7000E2437A558
:103F58000200130505B8EF00B0525C202D476384BA
:103F6800E70205476398E7021824A946631ED702AB
:103F78004C2437A502001305C5B8EF007050A38282
:103F880001864C2051B75C4437A502001305C5B91A
:103F98008C23E5B74D476392E70237A50200130566
:103FA80005BCEF00D061E1BFC9466314D70237A54D
:103FB80002004C241305C5BAC9B76D47639BE700D7
:103FC8005C4437A50200130505BD8C23EF00504B58
:103FD8004DBF03C741869386418645D70546631A78
:103FE800C70245466394C7001830E947E39BE7F8E2
:103FF80089479CA283C6090003D5E18041668545AF
:104008007D16EF607079AA8537A50200130545BEB5
:1040180075BF8946E317D7F62547E394E7F61E24CC
:10402800ADD3814A37AC0200B7AC0200B7AD02008D
:10403800E5A0035AA4005C4433075A036D1A137AA7
:10404800FA0FBA9703C94700B83303CB27003EC419
:10405800B7A70200138507C022093369E900EF00FA
:104068001056B7A70200138507C2EF007041A24798
:10407800014785076366470B2945EF007044CA85E9
:104088001305CCC3EF00D03FD28513858CC5EF0054
:10409800303F9377CB0085C3CA8513858DC723919D
:1040A8002187EF00F03D03C509001306006493055E
:1040B8000004EF20A04093770B018DC737A50200BD
:1040C80093071900CA85130505C92390F186EF00E7
:1040D800303B03C509001166130606E8930500087E
:1040E800EF20C03D137B0B0263050B0237A50200CE
:1040F80013071900CA85130585CA2390E186EF00C6
:10410800303803C509001306003293050008EF2074
:10411800E03A850A93FAFA0F1E24E3ECFAF095B513
:10412800CC233EC4B7A70200138547C33AC6EF00A5
:1041380030353247A24705071377F70F1DBF93F7AE
:10414800150085C303C5818637060020B705002002
:104158001306C60193850501EFF0714B13C51400D2
:1041680065BB93F7052081CB41657D15EF10D237EC
:1041780013C5042055B393F7850095C705472391C8
:1041880001862382E18683C5818603D5E180EF60BD
:104198005063AA8537A50200130505CCEF00502E01
:1041A80013C5840095BB93F7050191CF03D5E18032
:1041B80013078025814613064006D145EF10523279
:1041C80013C5040191BB93F705029DC303D5E18094
:1041D8000147894609468145EF105233AA8537A51C
:1041E8000200130585CEEF00B02913C504022DB3D4
:1041F80093F70504D9CB83C7518613895186B9EF44
:1042080083C6018103D7218603D5E1809389E180A4
:1042180013840181A1CEF88285470147814605466E
:10422800C945231E0100FC83EF6030712ACC1DC5EF
:104238009307A0051CA113848186102003D50900CB
:104248004C08EF60106811ED0820854713060064DC
:10425800930500042300F900EF20402613C5040449
:1042680065B9C9454808EF70602BCDBF03C6818684
:104278004C08F882EF60B06475F185472300F900B7
:104288001C2093B717001CA0D1BF93F70508A5C33E
:1042980003C751861384518639E383D7018603D532
:1042A800E180FC82814689470946C945231E0100F1
:1042B800FC83EF6090682ACC1389E1800DC18549A1
:1042C80023003501E247035509004C08A380070085
:1042D80003C68186EF60F05E11E52300340113C543
:1042E80004081DB9C9454808EF704023CDBF93F7AE
:1042F80005100145E38207C203D5E180EF10121EC5
:1043080003C5818605661306069693050010EF20FF
:10431800E01A13C5041009B13C214947636FF71C23
:10432800EF02C07B37A702008A071307C7B1BA9705
:104338009C4341112A84828705041374F40F83C7B0
:10434800618613896186637CF400931534008905BE
:104358001946A69513858180EFC04F8671DD834786
:104368000900639A870237A50200130545D3EF00B9
:104378001025014685450D4523000900EFF0F13170
:1043880037A50200130545D2EF007023C9A80144E0
:10439800938401976DB737A50200130585D4EF0004
:1043A8001022938701970E04930624003E94103040
:1043B800BE9681450145EFF0312B03C58186056620
:1043C800130606C893050020EF20400F37A502000A
:1043D800130585D555BF93848186882093050020D1
:1043E800EF20E0360C30A9E92A240947A383E186A7
:1043F800902005472397A180A382E1866C00DD47C2
:104408007C86EF60B041882013068070A145EF20BC
:10441800E00A88200564130604C8C145EF20000A95
:1044280088201306049693050010EF20200937A56D
:104438000200130585D689BF37A50200130585D765
:10444800EF00100437A50200130545D2EF0030171E
:1044580023830186014685450D45EFF0112441016E
:1044680045ADA383018679572397E180238201868E
:104478002391018623830186A382018603C5818651
:1044880093050010EF20A02C6C2037A5020013051F
:1044980045D9EF00E07E37A50200130545D2EF00AD
:1044A80010124DBF37A50200130505DBEF003011D0
:1044B80003C581861306006493050004EF200000FD
:1044C80079BF37A50200130505DC7DBD37A50200BD
:1044D800130505DDEF00B00E03C761869307F004EE
:1044E800E3EFE7F64C2013055400EFF01F9685BF65
:1044F80037A50200130505DEF1BF8280EF02A05F39
:10450800374500004111130545EDEF20E04F1384B6
:104518008186856508A0938505960945EF40802723
:10452800D1451D45EF4000279305C0032145EF40C5
:104538006026930540063545EF40C02585470D4761
:10454800700091451305F0405C84DC845885DC8557
:1045580002C6EF00F2403000854513058040EF00A9
:10456800324013069100854513059040EF00523FF5
:104578001306A10085451305A040EF00723E1306FF
:10458800B10085451305D040EF00923DEF709025AE
:104598000820EF70805108208545EF1050534101E5
:1045A800ADABEF024055EFF02FAA7165130505205A
:1045B800EFF0AFB2B7A5020037A50200938505EA70
:1045C8001305C5EA752D37A502001305851AEF00F6
:1045D800007FEFF06FDAEFF00FEDEF106273393F05
:1045E800EFB07FBA7300203001A0EFD03FBE730058
:1045F8002030B71702409843B706FFF04111136700
:10460800170098C3D84337060200758FD8C398435C
:10461800B706F7FEFD16758F98C39843B706FCFFDB
:10462800FD16758F98C3D843B70601FFFD16758F21
:10463800D8C337079F0098C702C402C69843C1660B
:10464800558F98C3B716024005679C42F18F3EC646
:10465800A24785073EC4B24781E7A247E397E7FE32
:10466800B71702409C431397E7006357070685472F
:104678003EC632478547631FF704B7170240D84341
:10468800B706C1FFFD16D8C3D843D8C3D8431367AC
:104698000740D8C3D843758FD8C3D843B706290075
:1046A800558FD8C39843B7060001558F98C39843D0
:1046B80093166700E3DD06FED843B7160240719BE8
:1046C800D8C3D84313672700D8C32147DC42B18B2E
:1046D800E39EE7FE4101828002C661BF11CE9307C7
:1046E8000002918F635BF0003355C500B397F50066
:1046F80033D6C5005D8DB2858280130506FE01465E
:1047080033D5A500B285CDBF11CE93070002918F96
:10471800635BF000B395C500B357F5003316C500C9
:10472800DD8D32858280930506FE0146B315B500FE
:104738003285CDBFB687B2882A832E88639B06143C
:1047480063F8C50A4167636BE61AB707000163603F
:10475800F63493568601E147176702001307C7C668
:1047680036971823BA97130700021D8F19CB339871
:10477800E500B357F500B318E60033E80701331333
:10478800E50013D608013355C80293960801C18283
:10479800935703013377C802B385A60242073368EB
:1047A800F700637AB80046989307F5FF6364180129
:1047B8006365B8303E853308B8403357C8024203B2
:1047C800135303013378C802B386E60242083368FC
:1047D8006800637BD80046989307F7FF6365180164
:1047E80079176363D8003E874205598D81458280D9
:1047F80001E60547B358C702416763E8E80EB70703
:10480800000163EAF82893D68801E1471767020098
:10481800130787BB36971423BE9693070002958F1C
:10482800FDE7939E08013387154113DF080193DEE6
:104838000E018545935703013355E7033377E703A3
:10484800B306D5034207D98F63FAD700C697130773
:10485800F5FF63E4170163E5D7263A85958F33D7CB
:10486800E703420313530301B3F7E703B30ED70378
:10487800C207B3E7670063FBD701C6979306F7FF44
:1048880063E51701791763E3D70136874205598D28
:10489800828063E1D504C16763E1F604B7070001CC
:1048A80063E3F61E13D78601614897670200938772
:1048B800A7B1BA979823130E00024297330EEE4021
:1048C800631A0E0C63EDB61C3335C500134515008D
:1048D800814582808145014582809307F00F63F30B
:1048E800D71C13D786002148C9B71307F00FC6860F
:1048F800E37E17F193D68800A14709BF1307F00F8D
:10490800B286E37BC7E493568600A147B1B5B39856
:10491800F80033D6D50013DF0801335EE60333977A
:10492800F500B356D500558F939E080193DE0E010E
:104938003313F50093550701B376E603B387CE0327
:10494800C206CD8E63FBF600C6961306FEFF63E42F
:10495800161763F2F616791EC6969D8E33D6E603B1
:1049680093170701C183B3F6E6033385CE02139785
:1049780006015D8F637BA70046979307F6FF636880
:1049880017136376A7127916469793150E01098FA8
:10499800D18D4DB5B357E600B396C601DD8E33D33E
:1049A800E50013DF0601B357E303939E060193DE88
:1049B8000E013398C5013357E50033680701935852
:1049C80008013316C6013373E303B385FE024203BD
:1049D800B368130163FBB800B6981387F7FF63EA5F
:1049E800D80C63F8B80CF917B698B388B84033D721
:1049F800E803420813580801B3F8E8033383EE02CA
:104A0800C208B3E5080163FB6500B6951308F7FF14
:104A180063EDD50863FB65087917B695C207416F42
:104A2800D98F1307FFFFB3F6E70093D80701718FFB
:104A38004182B38EE602B3856540B386C60213D8B9
:104A48000E013387E802BA96C2963386C80263F32A
:104A5800E6007A9693D80601469663E2C502638516
:104A6800C5003E858145828041677D17F98EC20663
:104A7800B3FEEE003315C501F696E374D5FE138533
:104A8800F7FF8145828013D70601414839BD935607
:104A98000601C147D1B193D60801C14785BB8145FD
:104AA800054582803687014809B5428785BF3E861D
:104AB800E9BDBA871DBF328E4DB579154698E5B95F
:104AC8007915C69761BB397101436EC619A0397152
:104AD80041536AC866CA62CC5ECE19A039710153C7
:104AE8005AD056D252D44ED64AD826DA22DC06DE1E
:104AF80033016140828241114AC026C222C406C6DF
:104B08008282B24D4101024D924C224CB24B41017E
:104B1800024B924A224AB249410102499244224434
:104B2800B24041018280B3C7A5008D8B3307C50011
:104B380081E78D4763EDC700AA87637EE508942166
:104B480085078505A38FD7FEE3EBE7FE8280937682
:104B58003500AA8789CA942185078505A38FD7FEC2
:104B680093F63700C5BF9376C7FF138606FE63F03A
:104B7800C70683A3050083A2450083AF850003AF62
:104B8800C50083AE050103AE450103A3850183A8D3
:104B9800C5019385450223A0770003A8C5FF23A27A
:104BA800570023A4F70123A6E70123A8D70123AAC6
:104BB800C70123AC670023AE17019387470223AED2
:104BC80007FF75B790419107910523AEC7FEE3EB48
:104BD800D7FEE3E6E7F682803D432A876373C30284
:104BE8009377F700BDEFADE5937606FF3D8ABA9659
:104BF8000CC34CC30CC74CC74107E36BD7FE11E28B
:104C08008280B306C3408A069702000096966780A2
:104C1800A6002307B700A306B7002306B700A3051D
:104C2800B7002305B700A304B7002304B700A30304
:104C3800B7002303B700A302B7002302B700A301FC
:104C4800B7002301B700A300B7002300B700828094
:104C580093F5F50F93968500D58D93960501D58D1F
:104C680061B7939627009702000096968682E780A0
:104C780086FA9680C1171D8F3E96E374C3F8A5B7D0
:104C880039713EDA2ED232D436D63AD842DC46DEF4
:104C98009387818422CC804326CA06CEAA8409C47D
:104CA8001C4C99E3228515230C4454102686228532
:104CB80036C6EF00D015F2406244D24421618280AA
:104CC80001119387818422CC804306CEAA8519C41A
:104CD8001C4C89E72AC62285CD29B2451044228575
:104CE8006244F24005616F00F075011126CA4AC896
:104CF80006CE22CC4EC652C4AA842E8901C51C4DAC
:104D080091E3E1219C4C804499E326857D299757BE
:104D180002009387677D631BF402C0405E24A18B69
:104D2800B1C71C48A1C7FD59294A1C44834509003D
:104D3800FD17B1E91CC463DD07062286A94526854F
:104D48006120FD576308F502294535A097570200F1
:104D58009387877B6314F4008044C9B79757020090
:104D680093878776E31CF4FAC0444DBFA285268555
:104D7800112A55D97D55F2406244D2444249B2497C
:104D8800224A056182801CC4050963D70700184CB4
:104D980063CAE700638845011C401387170018C0E1
:104DA8008CA361B7228626850520E31035F9D9B78B
:104DB8001C401387170018C0294798A371B7938719
:104DC8008184AA85884315B7011122CC26CA4AC80E
:104DD80006CE4EC6AA842E89328401C51C4D91E3A5
:104DE800ED2697570200938727706317F406C04093
:104DF8001C4C1CC45E24A18BC1C31C48B5CF1C48E5
:104E080008409379F90F1379F90F1D8D5C486346B3
:104E1800F500A2852685692C25E51C440505FD17A6
:104E28001CC41C401387170018C0238037015C4836
:104E38006388A7005E24858B81CBA9476316F90098
:104E4800A2852685B5240DEDF24062444A85D244F8
:104E58004249B24905618280975702009387C76A21
:104E68006314F400804469B7975702009387C765B5
:104E7800E310F4F8C044ADBFA2852685212041D1B6
:104E88007D59D9B741119387818426C2844322C4AE
:104E98004AC006C62A892E8489C49C4C99E3268573
:104EA8002D269757020093872764631BF402C0409E
:104EB8000317C40093170701C18393F68700ADEA6F
:104EC80093F6070195EEA5472320F9001367070419
:104ED8005AA47D55B240224492440249410182803D
:104EE80097570200938747626314F4008044C9B758
:104EF800975702009387475DE31CF4FAC0444DBFFF
:104F0800918B9DC34C5889C9930744046384F50069
:104F18004A85112B232A04025E242322040093F7D6
:104F2800B7FD5EA41C481CC05E2493E787005EA4FE
:104F38001C4899EB5E241307002093F70728638524
:104F4800E700A2854A8581295E2413F717001DC34F
:104F58005C4823240400B307F0401CCC1C480145DE
:104F6800B5FB8317C40013F707082DD793E7070489
:104F78005EA485B7898B014791E3584818C4F9BFE7
:104F8800DE25011122CC26CA06CE4AC84EC613F722
:104F98008700AA842E8479EBD841634DE000B8419C
:104FA800634AE0000145F2406244D2444249B249B2
:104FB8000561828058547DD703A904009396370170
:104FC80023A0040063DB060670485E24918B99C712
:104FD8005C401D8E5C5899C33C401D8E5C540C503F
:104FE800814626858297FD575A24631DF500944013
:104FF800F54763E8D706B70740208507B3D7D7003A
:10500800858BA5C31C48232204001CC093173701B5
:1050180063D80700FD576314F5009C4091E368C806
:105028004C5823A02401BDDD930744046384F50094
:105038002685D52E232A0402B5B70C50014685468D
:1050480026850297FD572A86E311F5F89C40B5DFBF
:1050580075476385E70059476393E70423A0240154
:1050680091B7136707045AA47D5535BF83A9050175
:10507800E38A09F203A905008D8B23A035013309C2
:105088003941014791E3D84918C4E35D20F11C5424
:105098000C50CA864E86268582976347A0005E24F8
:1050A80093E707045EA4C9B7AA993309A940F1BFD9
:1050B8009C49B9CF011122CC06CE2A8411C51C4DBA
:1050C80081E72EC61922B245975702009387C74138
:1050D800639BF5004C408397C50095C722856244C1
:1050E800F240056171BD975702009387E7416394C9
:1050F800F5000C44CDB7975702009387E73CE39C33
:10510800F5FC4C44C9BFF240624401450561828008
:1051180001458280411122C406C62A844EA572A583
:105128002320050023220500232405002322050649
:1051380023280500232A0500232C05002146814544
:105148001305C505EFF05FA997170000938727BBE4
:105158005CD097170000938747BD1CD497170000B1
:10516800938727C15CD497170000938787C300D023
:105178001CD8B240224441018280970500009385E3
:1051880065F389AA411126C2130680069384F5FFA8
:10519800B384C4024AC02E8922C406C69385440734
:1051A8003D262A8401CD232005002322250131052F
:1051B80008C4138684068145EFF01FA22285B240F9
:1051C800224492440249410182801C4DBDE34111B1
:1051D80006C622C497070000938767FA1CD597571D
:1051E80002009387E7399C432324050423260504FA
:1051F800232805046314F50085471CCD2A841D283F
:1052080048C02285052808C422852D2048C4484066
:1052180001469145013708440546A545E53D484402
:105228000946C945C53D85471CCCB24022444101C9
:10523800828082804111975702009387673426C283
:1052480084434AC006C69C4C22C42A8999E3268511
:10525800AD3F938484048044DC40FD1763D6070087
:105268009C40B9CF8440C5BF0317C40039E7C17754
:105278008507232204062320040023220400232474
:1052880004005CC423280400232A0400232C0400FF
:10529800214681451305C405EFF01F94232A040213
:1052A800232C040223240404232604042285B24068
:1052B800224492440249410182801304840671BF4A
:1052C80091454A85C13588C051FDB1472320F90071
:1052D8000144E9BF797122D44AD052CC56CA5AC87F
:1052E8005EC606D626D24ECE2A8AAE8A1304850416
:1052F8000149054BFD5B09ECB25022544A85925492
:105308000259F249624AD24A424BB24B4561828005
:10531800044483294400FD1963D409000040E1BF17
:10532800DE24637BFB008397E40063877701A6850F
:105338005285829A3369A90093848406E9BF19715A
:10534800A6DAAE848395E500A2DC86DE328463DBD0
:105358000500DE2423A0060093F7070885E79307D6
:1053680000401DA0300836C6EF00302AB246E3429E
:1053780005FE7247BD67F98F7977BA9793B717001B
:105388009CC2F1BF930700041CC0F6506654D65463
:10539800014509618280DE25011122CC06CE26CA8C
:1053A8004AC8898B2E8489CF930774041CC01CC8F3
:1053B80085475CC8F2406244D24442490561828014
:1053C80074003000AA84A53FA2452A8926850122B7
:1053D80019E98317C40013F7072069FFF19B93E7C6
:1053E80027005EA4D1B797070000938747D99CD4BC
:1053F8005E2408C008C893E707085EA4A2475CC8F3
:10540800B24781CF8315E4002685EF00302311C50C
:105418005E24F19B93E717005EA45E243369F900CC
:105428002316240141BFDDC183A7C5FF411122C452
:1054380006C626C21384C5FF63D307003E94AA8418
:10544800EF009027938781969C4381EF23220400E5
:1054580023A481962244B2402685924441016F00DC
:10546800D025637EF40014403307D4006396E70028
:105478009843DC43369718C05CC0D9BFBA87D84375
:1054880019C3E37DE4FE94433386D700631F860087
:105498001040B29694C33386D700E31DC7FA104371
:1054A8005843B29694C3D8C375B76375C400B1475F
:1054B8009CC04DB71040B306C4006316D700144310
:1054C8005843B29614C058C0C0C369B7828001114E
:1054D80026CA93843500F19806CE22CC4AC84EC617
:1054E800A104B14763F5F404B14463E4B4042A8920
:1054F800EF00901C9387819698433A8429E4938718
:10550800C1969C4399E781454A85EF00E07B23A635
:10551800A196A6854A85EF00207BFD5963193507BA
:10552800B1472320F9004A85EF00301929A0E3DEAE
:1055380004FAB1471CC10145F2406244D2444249D1
:10554800B249056182801C40858F63CF0702AD4652
:1055580063F6F6001CC03E9404C031A05C4063139F
:10556800870223A4F1964A85EF0030151305B4008D
:105578009307440061993307F5405DDF3A94898FBA
:105588001CC05DBF5CC3C5B72287404085BF1304FC
:1055980035007198E30285FCB305A4404A852D27A0
:1055A800E31C35FBB5BF1C46FD171CC663DA0700B4
:1055B800184E63C5E700A9476394F5006FF0DF80D4
:1055C8001C422E851387170018C28CA382800111F4
:1055D80022CC26CA4AC84EC652C406CE2A89AE89EB
:1055E8003284B304D6007D5A63149400014501A89F
:1055F8000C204E864A85453F0504E31745FFF240D7
:105608006244D2444249B249224A056182803571D6
:1056180022CD26CB4AC94EC706CF52C556C35AC15A
:10562800DEDEE2DCE6DAAA89AE843289368409C590
:105638001C4D99E3EFF07FB9975702009387C7EAAB
:105648006398F40C83A44900DE24A18BE5C79C4829
:10565800F5C393070002A304F1029307000302D2E3
:105668002305F10222C6930B5002975A0200938A2F
:10567800AAEB054C294B4A841C2099C3639F770DDC
:10568800B30C2441638D0C00E6864A86A6854E85B8
:105698003D3FFD576300F51E9256E69636D21C2014
:1056A800638A071CFD571309140002C802CE3ECABC
:1056B80002CCA309010482D4834509001546568506
:1056C800EF00007E13041900C24751E913F70701E0
:1056D80009C713070002A309E10413F7870009C7E4
:1056E8001307B002A309E104834609001307A002C7
:1056F800638FE606F2474A848146254618209305BB
:105708001400130707FD6377E60AB5CA3ECE85A8DD
:1057180097570200938747DF6395F40083A48900B5
:1057280025B797570200938727DAE39FF4F083A4FD
:10573800C90019BFA6854E85EFF0CFF419D97D555C
:10574800FA406A44DA444A49BA492A4A9A4A0A4B08
:10575800F65B665CD65C0D618280050431BF33055B
:1057680055413315AC00C98F3EC82289B1B73247BD
:1057780093064700184336C6634707023ACE1820F7
:105788009307E002631DF70418309307A002631B18
:10579800F702B2470904138747009C433AC663C11E
:1057A80007023ECA2DA83307E04093E727003ACE08
:1057B8003EC8F1B7B387670385462E84BA973DBFC5
:1057C800FD57C5B7050402CA8146814725461820FA
:1057D80093051400130707FD6374E606F9F20C201D
:1057E8000D46175502001305A5D45D2D11CD975709
:1057F80002009387E7D31D8D93070004B397A70092
:10580800424505045D8D2AC80C201946175502002B
:10581800130545D2130914002304B102512535C1DB
:1058280097A7FFFF9387877D95E74247B24713778E
:10583800071009CF91073EC69257D2973ED225BD91
:10584800B387670385462E84BA9751B79D07E19BB6
:10585800A107D5B7780097060000938686D72686D5
:105868000C084E8597000000E7000000FD572A8AC3
:10587800E314F5FCDE2493F70704E39207EC1255D2
:10588800C1B57800970600009386A6D426860C0832
:105898004E85012AE1BF797156CA9C49BA8A984552
:1058A80022D426D24ECE52CC06D64AD05AC85EC68C
:1058B800AA892E84B284368A63D3E700BA879CC04B
:1058C8000347340419C385079CC01C4093F707029B
:1058D80081C79C4089079CC003290400137969008B
:1058E800631A0900130B9401FD5B5C449840998F7F
:1058F800634CF9041C408346340493F70702B3361B
:10590800D000A5EB13063404D2854E85829AFD5744
:105918006303F5041C4011469840998B5444814414
:105928006397C700B384E64063D3040081441C44F2
:1059380018486354F700998FBE94014969047D5B48
:1059480063982405014509A885465A86D2854E855F
:10595800829A631E75017D55B250225492540259A1
:10596800F249624AD24A424BB24B456182800509EC
:10597800ADBF3307D40013060003A301C7040347D0
:10598800540493871600A2978906A381E7049DBF54
:1059980085462286D2854E85829AE30E65FB0509E7
:1059A80045B7797122D426D24AD04ECE06D652CCEB
:1059B80056CA5AC8B689942D930790063289AA8484
:1059C8002E8413863504638DF60263E2D7069307A7
:1059D80080056386F61863EDD700638E062093076B
:1059E8003004638EF60A930A24042301D404C9A060
:1059F800930730066385F60A93074006E395F6FE9B
:105A08001C40084393F6070893054500C5C61C418A
:105A18000CC363D807001307D002B307F040A301F3
:105A2800E40497560200938666B1294765A8930750
:105A380000076382F61663E5D7029307E0066389D9
:105A4800F6189307F006E390F6FA0C401C4313F897
:105A58000508138547006307080608C39C4385A803
:105A680093075007E383F6FE930780076389F612CE
:105A780093073007E399F6F61C43D0418145938696
:105A8800470014C383AA07005685192901C53305A1
:105A9800554148C05C401CC8A301040461A81C43CC
:105AA800930A2404938647009C4314C32301F404F7
:105AB8008547D5B793F607041C410CC3B9DAC2076A
:105AC800C18781BF93F5050408C3C9D99E2313076D
