:040000006F00F02875
:100004000000000000000000080700000A070000CC
:10001400000000008C0A0000000000000000000046
:100024008C0A00008C0A00000000000000000000A0
:10003400F4230000000000000002000000000000A3
:100044008C0A00008C0A00008C0A00008C0A000054
:100054008C0A00008C0A00008C0A00000C070000C7
:100064008C0A00008C0A00008C0A00008C0A000034
:100074008C0A00008C0A00008C0A00008C0A000024
:100084008C0A00008C0A00008C0A00008C0A000014
:100094008C0A00008C0A00008C0A00008C0A000004
:1000A4008C0A00008C0A00008C0A00008C0A0000F4
:1000B4008C0A00008C0A00008C0A00008C0A0000E4
:1000C4008C0A00008C0A00008C0A00008C0A0000D4
:1000D4008C0A00008C0A00008C0A00008C0A0000C4
:1000E4008C0A00008C0A00008C0A00008C0A0000B4
:1000F4008C0A00008C0A00008C0A00008C0A0000A4
:10010400000000008C0A00008C0A00008C0A000029
:100114008C0A00008C0A00008C0A00008C0A000083
:100124008C0A00008C0A00008C0A00008C0A000073
:100134008C0A00008C0A00008C0A00008C0A000063
:100144008C0A00008C0A00008C0A00008C0A000053
:100154008C0A00008C0A00008C0A00008C0A000043
:100164008C0A00008C0A00008C0A00008C0A000033
:100174008C0A00008C0A00008C0A00008C0A000023
:100184008C0A00008C0A00008C0A00008C0A000013
:100194008C0A00008C0A00008C0A00008C0A000003
:1001A400000000000000000000000000000000004B
:0C01B4000000000000000000000000003F
:10020000130181F806C216C41AC61EC822CA26CC1B
:100210002ACE2ED032D236D43AD63ED842DA46DC76
:100220004ADECEC0D2C2D6C4DAC6DEC8E2CAE6CC46
:10023000EACEEED0F2D2F6D4FAD6FED8F3220030CF
:1002400096DA9702002083A2620123A02200F32500
:1002500010342EC09305000273A0458003A10182D3
:10026000EF20106C17030020032343FF032103003A
:10027000824273901234D652739002309240A2425E
:100280003243C2435244E244724582551256A2564A
:100290003257C2575258E25872598649164AA64AEE
:1002A000364BC64B564CE64C764D865D165EA65ECA
:1002B000365FC65F13018107730020301300000012
:1002C00013000000130000001300000013000000E2
:1002D00013000000130000001300000013000000D2
:1002E00013000000130000001300000013000000C2
:1002F00013000000130000001300000013000000B2
:1003000083A20182938202E07390023417010020DD
:100310000321C1F4024182403243C2435244E244C9
:10032000724582551256A2563257C2575258E25859
:1003300072598649164AA64A364BC64B564CE64C6D
:10034000764D865D165EA65E365FC65FD652A1020A
:1003500073900230A24213018107828013000000D3
:100360001300000013000000130000001300000041
:100370001300000013000000130000001300000031
:100380001300000013000000130000001300000021
:100390001300000013000000130000001300000011
:1003A0001300000013000000130000001300000001
:1003B00013000000130000001300000013000000F1
:1003C00013000000130000001300000013000000E1
:1003D00013000000130000001300000013000000D1
:1003E00013000000130000001300000013000000C1
:1003F00013000000130000001300000013000000B1
:10040000F322003093F272FF130380781203B3E2F9
:100410006200711523205500130585FA10C12115BE
:10042000232005009302000063870200711523203A
:100430000500FD12D5BF71150CC1828000000000BF
:1004400000000000000000000000000000000000AC
:10045000000000000000000000000000000000009C
:10046000000000000000000000000000000000008C
:10047000000000000000000000000000000000007C
:10048000000000000000000000000000000000006C
:10049000000000000000000000000000000000005C
:1004A000000000000000000000000000000000004C
:1004B000000000000000000000000000000000003C
:1004C000000000000000000000000000000000002C
:1004D000000000000000000000000000000000001C
:1004E000000000000000397101436EC619A0397187
:1004F00041536AC866CA62CC5ECE19A039710153F5
:100500005AD056D252D44ED64AD826DA22DC06DE4B
:1005100033016140828241114AC026C222C406C60C
:100520008282B24D4101024D924C224CB24B4101AC
:10053000024B924A224AB249410102499244224462
:10054000B240410182803D432A876373C30293779F
:10055000F700BDEFADE5937606FF3D8ABA960CC372
:100560004CC30CC74CC74107E36BD7FE11E2828036
:10057000B306C3408A069702000096966780A600DD
:100580002307B700A306B7002306B700A305B700EB
:100590002305B700A304B7002304B700A303B700E3
:1005A0002303B700A302B7002302B700A301B700DB
:1005B0002301B700A300B7002300B700828093F5A2
:1005C000F50F93968500D58D93960501D58D61B76E
:1005D000939627009702000096968682E78086FA17
:1005E0009680C1171D8F3E96E374C3F8A5B7336795
:1005F000B500FD530D8B79E7B7877F7F9387F7F7BA
:1006000010419441B372F6003363F600BE92B3E238
:1006100062006395720C6318D6065041D441B372E0
:10062000F6003363F600BE92B3E262006396720A8C
:10063000631BD60410459445B372F6003363F6008D
:10064000BE92B3E26200639F7208631ED6025045F9
:10065000D445B372F6003363F600BE92B3E2620093
:10066000639872086311D60210499449B372F60078
:100670003363F600BE92B3E26200639172085105E3
:10068000D105E30FD6F61317060193970601631CF5
:10069000F7001357060193D706013305F74093750A
:1006A000F50F91E982804183C1833305F74093754B
:1006B000F50F91E182801377F70F93F7F70F33056A
:1006C000F740828010219421050585056313D6002B
:1006D00075FA3305D640828011059105E314D6FEE4
:1006E000014582802105A105E31ED6FC01458280DB
:1006F0003105B105E318D6FC014582804105C105ED
:10070000E312D6FC0145828001A001A009453125F4
:100710000DC137150140894513050580DD2501C947
:10072000B7070020938707229843050798C3094518
:10073000212573002030EFF27FDC0564B7790000DB
:100740001304843837790000B77400001385C9009A
:10075000EF40903C2285EF30600D13054901EF40DA
:10076000B03B0145EF0050401385C401EF40D03A43
:10077000F1BFEFF25FDAEF10704BB7070020B775EB
:1007800000003705000015478146130600089385D1
:1007900005099387872213056573EF20A028EF10C2
:1007A000504AB707002003A5C722EF20E04771B3E6
:1007B000EFF27FD641110D45912D5522EF30E00229
:1007C000716513050520EF300009B707002083A5E8
:1007D000871F3775000013054502EF40B0228926B8
:1007E000AA853775000013054503EF40B021B775A2
:1007F000000037750000938545041305C504EF40DC
:100800007020EF00F04CB7470000370700209387B7
:10081000E7832322F722B72700009387870F3EC480
:10082000B72700009387272828003EC6EF10A06254
:10083000B7070020B7750000370500009387C7226F
:1008400005478146130600209385C50613052577C5
:10085000EF20401DEF20604A377400001305840725
:10086000EF40902BE5BFB71702409843B706FFF063
:1008700041111367170098C3D84337060200758FDC
:10088000D8C39843B706F7FEFD16758F98C39843F3
:10089000B706FCFFFD16758F98C3D843B70601FF56
:1008A000FD16758FD8C39843B70600ECFD16758FFB
:1008B00098C33707FF0098C723A6070202C402C6E1
:1008C0009843C166558F98C3B716024005679C428E
:1008D000F18F3EC6A24785073EC4B24781E7A247D3
:1008E000E397E7FEB71702409C431397E700635670
:1008F000070685473EC632478547631EF704B7178C
:100900000240D843B706C1FFFD16D8C3D843D8C3A9
:10091000D84313670740D8C3D843758FD8C3D8438B
:10092000C166558FD8C39843B7060001558F98C349
:10093000984393166700E3DD06FED843B7160240DE
:10094000719BD8C3D84313672700D8C32147DC4223
:10095000B18BE39EE7FE4101828002C669BFB716F4
:100960000240D842B70700201146318B9387871F7A
:100970006305C70021466308C70237177A001307CB
:10098000072098C337170240584311839376F70026
:10099000370700201307070036971423984333576F
:1009A000D70098C38280D842D442416649833D8BA8
:1009B000F18E1306270015CF3D47630FE60241472E
:1009C000630FE602454781456313E6004146A1E215
:1009D0003747024003270780418B0DC737177A003E
:1009E000130707203306C70290C3C9DD9843058368
:1009F00049BF81454946E1BF85453546C9BF814567
:100A00003D46F1B737173D0013070790E1BF371593
:100A1000024058559316F700585563DF06041183BA
:100A20003D8B9306170037177A00130707203357BB
:100A3000D70298C35455A182BD8A8DE295463307EB
:100A4000D702058398C337170240585794433D8B0C
:100A5000050733D7E60298C3984369B70545639401
:100A6000A600E546E9BF3D456396A600D14633871B
:100A7000E602C9BF8906E5BF3D8B9306170037170D
:100A80007A00130707203357D702F1B701A0970167
:100A900000209381A1F617F101201301A1561775CB
:100AA0000000130525CD97F5FF1F9385A5551386E7
:100AB000818263FAC5008322050023A05500110539
:100AC0009105E3EAC5FE17F5FF1F1305A5759735D8
:100AD0000020938525DE6377B500232005001105EE
:100AE000E36DB5FEFD42739002BCFD4273904280FF
:100AF000B7820000938202807390023097F2FFFF6A
:100B00009382825093E2320073905230EFF0BFD55F
:100B100097020000938202CA73901234730020304F
:100B2000B7F7FF1F03A5477082801C414167791703
:100B3000F98F1CC123200500232205002324050072
:100B4000B707024023260500138787006317E500D7
:100B5000D8431367F700D8C382801387C701631691
:100B6000E500D8431367070FFDB713870703631822
:100B7000E500D8438566938606F0558FE9BF138755
:100B800047046315E500D843BD66C5BF13878705D5
:100B90006316E500D843B7060F00C5B71387C7062D
:100BA0006316E500D843B706F000C1BF13870708F6
:100BB0006316E500D843B706000FC1B71387874017
:100BC0006319E50003A747401367F70023A2E74036
:100BD00082801387C7416317E50003A74740136767
:100BE000070FEDB793870743631BF500B707024074
:100BF00003A747408566938606F0558FC1BFB707A8
:100C00000240138747446316E50003A74740BD66CB
:100C1000EDB7138787456317E50003A74740B7067D
:100C20000F00E1BF1387C7466317E50003A74740DE
:100C3000B706F000D9B7138707486317E50003A785
:100C40004740B706000F55BF138707496319E500F2
:100C500003A7474D1367F70023AAE74C8280138749
:100C6000074A6317E50003A7474D1367070FEDB762
:100C70001387074B6319E50003A7474D85669386E5
:100C800006F0558FD1BF1387074CE319E5FC03A786
:100C9000474DBD66FDB71C4161773D0794517D8F7F
:100CA0009C45D58F9449D58FD449D58F944DD58FF8
:100CB000D44DD58FD451D58F9455D58FD98F1CC194
:100CC000DC455CC19C411CC5DC415CC582801C418B
:100CD00089C593E717001CC1828041677917F98F96
:100CE000DDBF4CC18280484142054181828093171B
:100CF000350063D70700B707024023A2A7408280D0
:100D00009317250063D70700B707024023AAA74C13
:100D10008280B7070240C8C38280B70701401387AB
:100D2000074083A70740584B698F09C77D8D33352E
:100D3000A000828001458280B707014023AAA74016
:100D400082809C4513F7070113F8F70001C7D841CB
:100D50003368E8008E2113F7F50F39C31841814637
:100D6000854E3D4F930F800293028004214E3396AF
:100D7000DE00B3F8C5006311160393982600331301
:100D80001F011343F3FF3377E300B318180133E770
:100D9000E800639FF70550C98506E39AC6FD18C1B0
:100DA0001307F00F6375B70454412146854E3D4F3C
:100DB000930F800293028004414EB398CE0033F724
:100DC00015016392E8021317260001173313EF0091
:100DD0001343F3FFB376D3003317E800D98E639D36
:100DE000F701232A15010506E319C6FD54C18280C7
:100DF000E39457FA10C94DB7E39757FE232815011E
:100E0000DDB708456D8D3335A0008280B70700201F
:100E100023A8A7228280371702405C439146B18BFA
:100E20006385D700A1466382D706B7177A009387F8
:100E300007201CC1371602405C4237070020130709
:100E400007019183BD8BBA9794231C41B3D7D70078
:100E50005CC15442A1829D8ABA969422B3D6D7002F
:100E600014C55442AD829D8A36971823B3D7E70044
:100E70005CC5584239839376370013874180369793
:100E80001823B3D7E7021CC982805C435843C1666C
:100E9000C983758FB7F6FF1F83A6C670BD8B890700
:100EA0001396160163480600C54601466392D702B1
:100EB000C94739A88946638FD702BD46638ED702DA
:100EC000C146638ED702C54601466393D700C1472A
:100ED0001DEF3747024003270780418B05C73717AF
:100EE0007A0013070720B307F7021CC121D61C4163
:100EF000858381B701466DBF0546B547D1BF014621
:100F0000BD47F9B737173D0013070790E9BFB7157D
:100F10000240D8559316F700D85563DF06041183B5
:100F20003D8B9306170037177A00130707203357B6
:100F3000D70218C1D455A182BD8A8DE295463307E8
:100F4000D702058318C137170240585714413D8B0B
:100F5000050733D7E60218C1184171B78545639478
:100F6000B600E546E9BFBD456396B600D146338776
:100F7000E602C9BF8906E5BF3D8B93061700371708
:100F80007A00130707203357D702F1B799C53717EF
:100F900002405C4B5D8D48CB8280B7170240D84B36
:100FA0001345F5FF798DC8CB828099C5371702406C
:100FB0001C4F5D8D08CF8280B7170240984F1345B4
:100FC000F5FF798D88CF828099C5371702405C4F35
:100FD0005D8D48CF8280B7170240D84F1345F5FF8B
:100FE000798DC8CF8280EFF20FD31629F577FD17E0
:100FF000F58FF621DA257971D58F1EA95625FD7753
:101000009387379FF58FD6212A842EC6D58F9625B4
:10101000D58FB625D58F5EA55E29C207C18393F70C
:10102000F7CFD98F5EA96808FD33B7470140938792
:101030000780B245631EF402A2576547B387E702F3
:101040009841930640060A07B3D7E70233D7D70281
:10105000B3F7D7021207920793872703B3D7D702B4
:10106000BD8BD98FC207C1831EA445616FF0EFCC41
:101070009257E1B791C55E250967D98F5EA5828039
:101080005A25F977FD17F98FD5BF5E2901C6DD8D89
:101090004EA9828093C5F5FFFD8DDDBF93F5F51F49
:1010A0004EA182800A216D8D3335A0008280EFF23F
:1010B0008FC6011185451305000439378545414523
:1010C000ED3585477C828D473EC44C00E14737159E
:1010D00001403EC6BD3189477C824C0093078004A5
:1010E000371501403EC6B139F16737240040938778
:1010F00007203EC80C08B7070C00130504803ECC3F
:1011000002CA231E0100C535370502408545130577
:101110000548753E854513050480A93F05616FF0BC
:10112000CFC1EFF24FBF7971854509458535370449
:1011300002401305C446D53AB7270040938747803D
:101140003EC2B7070020938747233EC4C1473EC62F
:10115000930700083ECC4C008D671305C4463ED46F
:1011600002C802CA02CE02D002D202D62D36B7077A
:1011700000209387472B3EC4930700403EC84C0095
:1011800093070002130504483ED202C62936456182
:101190006FF0AFBAEFF22FB8370402402A89130577
:1011A000C446AE84893615E5370500200905813629
:1011B0001305C4468145213E1304C4462326240159
:1011C000A6852285393E22858545113605456FF075
:1011D000CFB60145EDBFEFF20FB42A8437050240C8
:1011E0004111130505482EC6FD3C13070040B70703
:1011F0000020098F83D66723420741830145638519
:10120000E602B2453706002093876723014513069F
:10121000462B9308F03F96236388E60013180501D8
:10122000135808016365B80041016FF00FB1B29621
:1012300094223308A4002300D80096238506C20612
:10124000C18263E5D80096A30505F1B72390070096
:10125000E5BFEFF24FAC8145B307B50083870700C8
:1012600081E70D3F6FF06FAD8505C205C181EDB718
:10127000EFF26FAA3705024013050548AD34930716
:101280000040370700203385A740035767234205F6
:1012900041816367E500198D420541816FF0EFA937
:1012A000998F3E95D5BFEFF20FA723000500A3004D
:1012B000050023010500A30105002A84553F19C933
:1012C000AA852285093F37750000A28513054506CA
:1012D000EF3050736FF06FA6EFF2EFA39D6783D7E7
:1012E000C7C06D712A842EC61306E00F8145130511
:1012F0002101FC80EFF02FA5B246B77500002286D1
:10130000938505210808EF40E0050808993775DD49
:101310001305401FEF10705A51616FF00FA2EFF2EA
:101320008F9F9D6783D7C7C06D712A842EC6130611
:10133000E00F814513052101FC80EFF0CFA003A74A
:101340008180B246B775000022869385451E080845
:10135000EF4040010808F53D75DD1305401FEF1013
:10136000D05551616FF06F9DEFF24F999D6783D714
:10137000C7C0130101DF1306E00F814513052111DA
:101380002318F110EFF02F9CEF00905037760000FB
:10139000B7750000130686179385C5172A84EF00DA
:1013A000704C37760000B775000013060618938559
:1013B00045182285EF00104BEF00904DB7750000E7
:1013C0002A892A869385C5182285EF00F03AEF0016
:1013D000304CB777000003A6071683A64716B774EC
:1013E000000093854419AA89EF003042B7750000C8
:1013F0004E869385C5194A85EF001038EF00504995
:10140000B777000083A6C71603A6871693854419ED
:10141000AA89EF00903FB77500004E869385051BA3
:101420004A85EF007035938544194E85EF00F033FF
:10143000B777000083A5071703A64717EF00902B87
:101440002285EF00D0312A89EF30106D81469387D5
:1014500016003307F9000307F7FF93F4F60F3DE793
:1014600093F6F60F37750000B6851305C51B36C613
:10147000EF3050592285EF00902EB24603A6C1806E
:10148000B77500002A899385451C0808EF30906DD8
:101490000808C13375DD13054006C204EF10F041A2
:1014A000C180A6854A85FD316DDD1305401FEF1013
:1014B000D040080ACD3B2285EF00901E4A85EF0000
:1014C000505C0145130101216FF08F86BE8641B744
:1014D000EFF26F849D6783D7C7C0130101C0130665
:1014E000E03F8145130521007C80EFF0CF85153961
:1014F0007D3E3725004005469305000C1305058009
:101500006936377400008D451305040A613165FDA5
:1015100013054006EF208031377400009145130514
:10152000440A8D3913054006EF204030B77400009F
:101530001385C40A393B6DDD13054006EF20002FEB
:10154000B77400001385C40B29336DDD1305400605
:10155000EF20C02D91451305440A2D39130540068F
:10156000EF20C02C3775000099451305050D1D317E
:1015700013054006EF20802B377400001305840DFF
:10158000C9396DDD13054006EF20402A377400008D
:101590001305840E7D393DC9377400001305840F8F
:1015A0004D396DDD13054006EF204028B77500006A
:1015B000377500009385851013054511313B1305E0
:1015C000803EEF20A0260A85F93913054006EF205A
:1015D000E025B775000037750000938505121305E7
:1015E000C512353B1305401FEF204024377400001F
:1015F00013054413B9396DDD1305803EEF20002338
:101600000A855531130101406FE03FF31305401F78
:10161000EF20C021B5BF19CD1C4189CFEFE2BFEF4C
:1016200004452A8433859700EF305069269508C415
:101630006FE0BFF08280EFE21FEE05CD044199CC50
:101640005C4181C718456376F70263C405021845FB
:10165000138915003A9963E62701BA9426856FE04D
:10166000DFED1C4999E7B70700406366F900635551
:1016700009028144E5B706091C512A849DC32685C9
:10168000CA858297AA8415ED5C4C08408297232274
:10169000040023200400D9B7370900801349F9FF5B
:1016A000E1BF1C4D4A858297AA840C4001E55C4C41
:1016B0002E85E9BF10440506EF3020215C4C084020
:1016C00082971C4404C023222401BE9441BFEFE250
:1016D000FFE241CDD9C9AE8900453DEE854A51C4EE
:1016E0000329040263070906630F39074E8B034A77
:1016F0000B00EF30A01752951C318D8B639457016E
:10170000130A0A0283440900EF3040162695183167
:10171000A6870D8B631457019387040283440B0043
:101720006309FA04EF30801426951C318D8B639485
:1017300057019384040203490900EF3020134A95AE
:101740001831CA870D8B6314570193070902638C04
:10175000F400004069B7004009C80C5089C54E85A7
:10176000EFE0FFE86DF91C5091E3014422856FE042
:101770003FDCF5D8050B05099DBF814799C911C903
:101780006389A500184501EB0CC5CCC123A0050059
:1017900085473E85828054438547E5DE8CC2D4C1AF
:1017A0004CC3C5BF99E501458280014541016FE009
:1017B0005FD7EFE25FD3AA8441112E85C9E08D4542
:1017C0009D3D65D5B775000093850532EF30104E0D
:1017D0000545E9BF63EDF60463F86700138787FFEB
:1017E0001377F70F6369EE04050905061C22FDF364
:1017F000058E4A969305360032C6353D5DD5324694
:1018000013041500130A1600930926002A9AAA99B0
:10181000631209041309200223002501A6852285ED
:10182000EF30A00A23002A012380090055B7E38D79
:1018300007FBE38B17FBE3EAF5FA15097DB726866C
:101840000149B546FD45130820029308C005314300
:10185000094E69BF930720021CA1FD4B130CC00564
:10186000314B930C6006377D000013092002930A68
:10187000C005B54D9C2091E7930720022300FA0094
:1018800065B763FCFB00638A2701638857011CA0CE
:101890002285850413041500F1BF230084019020E4
:1018A0001305140063006605636FCB00A547630151
:1018B000F604A947630BF602A147631EF6029307DD
:1018C00020061CB0F9B7630C2601630756016314A8
:1018D000B60393072007F5B7A30054015DBFA3002B
:1018E000240145BFA30094016DB79307E006D1BF63
:1018F00093074007F9B793054D32EF30B026130533
:10190000540041BFEFE23FC1AA87130580028297CE
:101910002A8411C5130680028145EFE0DFC22285CB
:101920006FE0BFC1EFE23FBF411101441DC12AC6B4
:10193000EF30D038B707002083A707021306150041
:10194000328532C482972A8409C52246B245EF20E7
:10195000D077228541016FE05FBE19E501458280A5
:10196000014541016FE07FBDF5D9EFE2DFBA4111DA
:1019700032847DD62A89E305C5FE9DC6444693E49C
:1019800004205C4493F7072091EB085001C9B70786
:10199000002083A747022EC68297B2450CD044C4CC
:1019A000A2854A85D93B75BF2E85AD3FAA854DD905
:1019B000444493F4F4DFF1B719E101458280EFE28A
:1019C0001FB339712E848DC15C252147AA8463839E
:1019D000E70A634FF70009476385E7081147638DFE
:1019E000E70405476386E706014521616FE0BFB361
:1019F000130700026386E71E6348F7004147E3953B
:101A0000E7FE08494533D5B7130700046389E72685
:101A100013070008E39AE7FC084979D5EF30102A4C
:101A200013061500B285228532C6313155DD3246A6
:101A30008C48EF20906919A895452285ED3E4DD53B
:101A4000B775000093850534EF305026054571BF0A
:101A500099452285CD3649D9B775000093858534DF
:101A6000E5B795452285C13E41D1B7750000938504
:101A70000535D9BF032985018329C50169468145FB
:101A80004810EFE05FAC4A86CE864A85CE8502CC10
:101A900002CEEF20F04B15E9B777000003AB073318
:101AA00083AB4733139A1900135A1A005A86DE86FD
:101AB0004A85D285EF20D04931E55A86DE864A85AF
:101AC000D285EF10307E635FA002B775000093856A
:101AD00005344810EF30901D9144E547E3E697F058
:101AE000938514002285813EE30005F081471307AA
:101AF000E002639BF40C2695230005001C44BE9471
:101B000004C4A9B7C4482685EF20D04E2A86AE86E5
:101B10004A85CE85EF10906719E9B77500002686D3
:101B2000938585354810EF30F003AA847DB7B775EB
:101B300000004A86CE869385C5354810EF30900266
:101B4000B7750000AA843008938545364810EF30F9
:101B5000D00585476310F506724C624B4A85931A8F
:101B60001C0093DA1A005A86D686D285DA8BEF10DB
:101B7000707363440500CA8BD28A4A86CE865A8522
:101B8000E285EF200049B777000003A6873383A6DC
:101B9000C7332A8B139A15005E85D685EF10F07B2C
:101BA000135A1A002A86AE865A85D285EF10906F96
:101BB000E355A0F2B77500004A86CE869385853638
:101BC0004810EF30207A95B75410BE969022B30695
:101BD000F5006315E60098A2850721BF90A2EDBF2E
:101BE0000329850085452285EFF0FFA4E30E05DE7D
:101BF0009307B0051CA11C449309C002130A0002FC
:101C000085071CC45C4485075CC4631109028945CF
:101C10002285EFF05FA29307D005E30705DC1CA146
:101C2000A30005005C44FD175CC40DB5A2854A8580
:101C30006133E30B05DA2285EFF0FF9D832709006E
:101C40009DC744482285B3349000850493851400D1
:101C5000EFF07F9EE30A05D8230035015C4899EB3D
:101C600093071500238007001C44BE9404C4032975
:101C7000090061BF93072500A3004501E5B703A94B
:101C800045010445228533392001050993051900D2
:101C9000EFF07F9AE30A05D49307B0071CA15C44D8
:101CA00085075CC45C4899C3A9471CB11C44A5497D
:101CB000130AA0033E9923242401930AC002294B4E
:101CC0005C4899EC894599C34C4485052285EFF021
:101CD0009F96E30B05D05C48E9EB9307D00781B7EB
:101CE00091CF4C442285EFF01F95E30F05CE81473D
:101CF000584463ECE7081C44BA971CC48850A2857A
:101D0000EFF05FAAE30205CE2285EFF0DF90032912
:101D100044012285333920010509CA85EFF0BF91BE
:101D2000E30405CC230045015C4899C3A3003501B9
:101D30001C44A28526853E9923242401B539E30558
:101D400005CA2285EFF03F8D9C400329440122857E
:101D5000B337F000333920013E9993051900EFF0B5
:101D60009F8DE30305C89C4081C7230055010505ED
:101D70005C4881C7230065010505230005001C445C
:101D800084403E992324240125BF3307F500230016
:101D900037018507B1BF90A285075844B306F50007
:101DA0007D17E3EAE7FE36850DBF81472546F5B787
:101DB000EFE2CFF4797113064002AE892A8981459A
:101DC0006800EFE04FF8B704002083A70402130572
:101DD000001082972AC693070010938504022A8474
:101DE000314648103EC84ED093840402EF20F02DB7
:101DF0000DC06C004A85EFF03FBC01CD6800EFF0EC
:101E00009F819C44D24589CF3245850582972A849B
:101E10001DED32440DCCDC4022850144829705A89B
:101E20009C401385150082972A8465D55246C24787
:101E3000050663F3C7003E86B2452285EF20F028F1
:101E4000D247A29723800700DC4032458297228543
:101E500045616FE0EFEDB7070020B75600009387AC
:101E60000702938646883757000094C31307E78814
:101E700001E9D8C3375700001307473298C705A0B8
:101E8000104111C290C35041D8C311C2D0C3904376
:101E900023A407006315D600D443E38DE6FC8280BB
:101EA000EFE26FE7B70400202A849384040219E06C
:101EB0006FE0AFE85C440329040093F7071089E75B
:101EC000084405E1084805E55C4493F7072089E7E5
:101ED000085019C1DC408297DC4022854A848297F1
:101EE000F9B77D3F5C4493F70710E9DFF1BFDC40B1
:101EF0008297D9BFEFE22FE2B7770000B28483A6C2
:101F0000473103A607312A892E842E85A685EF1036
:101F1000902E63400502B707008093C7F7FF232A7E
:101F2000F900232C8900232E99002285A6856FE0D5
:101F3000CFE0B777000003A6873183A6C73122859B
:101F4000A685EF1030366345A000B7070080C1BFFB
:101F50002285A685EF209003232AA900D9B7EFE2B6
:101F60008FDB8145B1356FE04FDDEFE2CFDA01461F
:101F7000EFF0EFF56FE06FDCEFE2EFD98146EFF0C5
:101F8000DF9D6FE08FDB4111B70700204AC22A892D
:101F900003A5070222C44EC006C6AE89EFF09F9685
:101FA0002A8405C9A1475CC5B777000003A607319D
:101FB00083A64731232C2501232E3501CE854A8562
:101FC000EF107023634E0500B707008093C7F7FF3B
:101FD0005CC82285B2402244124982494101828074
:101FE000B777000003A6873183A6C7314A85CE851F
:101FF000EF10502B6345A000B7070080D1BF4A8582
:10200000CE85EF20A07848C8E9B7EFE2CFD0AA8408
:102010002E893285B685853F2A842A868146CA85DF
:102020002685EFF09F9301E522859D3D01442285A1
:102030006FE0AFD0EFE22FCEB7070020AA8403A550
:102040000702EFF03F8C2A8419C9C1475CC5268579
:10205000EFF05F8D08C801E522859935014422859E
:102060006FE0AFCDEFE22FCB4111AA8432852EC6AF
:10207000D137B2452A842A8681462685EFF0FF8D26
:1020800001E52285313D0144228541016FE0EFCA1F
:10209000EFE26FC8B707002003A50702EFF09F86A5
:1020A00001C5930700045CC56FE02FC9B707002086
:1020B000938707259843636FA702D043B386C70071
:1020C0006316D50054413E85B296D4C35041B30641
:1020D000C500631CD700B706002083A686236306CD
:1020E000D70054431843B29654C118C16303F50096
:1020F00088C38280BA877DBFEFE24FC041112AC6F4
:10210000EF00D048B706002083A7862337060020BB
:10211000938686231306C6233245A1EF3707002096
:102120009307476B93F5F7001307476B81C5138738
:10213000F700419BB70500209385052523A20500E4
:1021400098C18D65C115AE97C19B23A2070023A03E
:102150000700B385E7409CC21CC3B707002023A239
:10216000B724B707002023A0B724B70700804CC3CB
:102170001CC2032A0600B377AA0085E39307F5FF84
:102180003957636CF7009307050113F7F70041C354
:1021900013F707FF410763EBE706814489A0228715
:1021A0002E8461A058C15CC011375840B70600208A
:1021B000938646249042B307E94023A0F90063F3D5
:1021C000C7009CC2B70700203367EA0093878724C3
:1021D00058C09843C10423200400050798C3EF00AA
:1021E000505793F7F400D1CBA16793870780739082
:1021F0000730377600003775000013060637930561
:10220000001113058539EF20F07F01A0BA87370749
:1022100000200329072493090724E360F9F837070E
:102220000020032407251307072550406374F60098
:102230000C40B5F59442E38286F61440044314C37F
:102240003307F64093060002E3F1E6F63305F400A7
:102250009376F500A1DAA167938707807390073022
:102260003776000037750000130606379305F00C2B
:1022700013058539EF20107901A0268541016FE013
:102280002FAB55C1EFE22FA9B7070020032745FF69
:1022900083A7C7232A84B376F7009DE2A1679387BB
:1022A00007807390073037760000377500001306FB
:1022B00006379305401213058539EF20B07401A04D
:1022C000832605FF9DC2A16793870780739007301F
:1022D0003776000037750000130606379305501255
:1022E00013058539EF20107201A093C7F7FFF98F0E
:1022F000232AF5FEEF009029B707002093870724D3
:102300009443032744FF130504FF369798C3793B92
:10231000B70700209387C7249843050798C3EF00A9
:1023200050436FE08FA18280B7E700E041572387D9
:10233000E7402386E740B7F700E023A0070023A289
:102340000700814694C70147D8C737070020832577
:10235000871F1307803E814633D6E5023D4790CB69
:10236000D4CB98C38280EFE20F9B411102C6F327C2
:1023700050303EC6B2470D478D8B6384E702A1679C
:102380009387078073900730377600003775000019
:102390001306C63B9305600B13058539EF20906645
:1023A00001A0B707022093870700BD8B9DC3A167DB
:1023B00093870780739007303776000037750000E9
:1023C0001306C63B9305B00B13058539EF209063C8
:1023D00001A0993FB7E700E0056723A0E710116768
:1023E00023A0E71023A80180EFD09FF10145410110
:1023F0006FE0AF9473110134A167938707807390E6
:102400000730B7F700E023A20700EF00D01911C58D
:10241000B7E700E0116723A0E720A16793878788CB
:10242000739007307311013473002030A1679387D4
:10243000078073900730938701819843050798C3FD
:102440008280138701811C438DE7EFE2CF8CA16767
:102450009387078073900730377600003775000048
:102460001306C63B9305201013058539EF209059BC
:1024700001A0FD171CC391E7A1679387878873901C
:1024800007308280930785007D575CC118C55CC505
:102490001CC92320050082802328050082805C411E
:1024A0009847DCC198C598474CC38CC71C4188C964
:1024B00085071CC182809841FD5693078500631EE5
:1024C000D7001C49D843D8C10CC79CC5CCC31C41FC
:1024D00088C985071CC18280B687D4439042E37DBA
:1024E000C7FECDB7544118451C4998C654C3D443C0
:1024F0006393A600D8C39843232805007D1798C38B
:1025000088438280EFE22F8141112AC60537324588
:10251000005D053F1335140041016FE00F8230412B
:1025200015C2EFD25FFF58451445AA87329758C5A8
:102530006364D700184158C52E85CC47EF20E0389A
:102540006FD0BFFF8280EFD21FFD2A84C535834440
:10255000540413094402E204E18463459002FD57E8
:10256000A302F404F93DD93583444404130904015A
:10257000E204E18463449002FD572302F404D13560
:102580006FD0BFFB5C50E1DF4A85EF00F04E19C110
:10259000EF00506BFD14E204E184C1B71C48E9DF91
:1025A0004A85EF00704D19C1EF00D069FD14E204B7
:1025B000E184C9B7EFD23FF641111DE1A1679387CE
:1025C00007807390073037760000377500001306D8
:1025D000463E9305001113058539EF20B04201A056
:1025E0005C5D2EC62A84BDC33841B3B7E702B9EF9C
:1025F000353D3040585C1440232C0402B307E602FA
:10260000B24554C03387F600918FB6975CC4FD572E
:102610002302F40418C4A302F40495E11C4899CBE6
:1026200013050401EF00504511C5B7E700E011673D
:1026300023A0E7203935054541016FD01FF0130570
:102640000401893513054402353DEDB7A167938731
:102650000780739007303776000037750000130647
:10266000463E9305501413058539EF20B03901A07B
:10267000EFD27FEA411129C1B3B7A502AA848DEF39
:102680003305B502930770FB63E8A70213058504C1
:102690002EC6EFF07FA62A8401CDB245AA8799C144
:1026A000930785042CC01CC044DC8545228519375E
:1026B000228541016FD07FE8A167938707807390DF
:1026C000073037760000377500001306463E930545
:1026D000601C13058539EF20F03201A0EFD23FE1F5
:1026E000011132C61DE1A1679387078073900730FF
:1026F00037760000377500001306463E93051055E7
:1027000013058539EF20103001A02A84AE898DE5AC
:102710003C419DC3A167938707807390073037764C
:102720000000377500001306463E9305505513050B
:102730008539EF20302D01A0EF00905115E5B2470B
:10274000014985C7A1679387078073900730377663
:102750000000377500001306463E9305A05513058B
:102760008539EF20302A01A001497D5A930A44029D
:1027700037EB00E0916B8DA8B24789E7EFF07FCC93
:10278000014561A8631509002808EF00B03DEFF08E
:102790005FCBED2BEFF09FC983474404E207E1874D
:1027A000639447012302040483475404E207E1874A
:1027B00063944701A3020404EFF0BFC86C0028082B
:1027C000EF00B03B25E52285EFF0DFD331C9B245FC
:1027D0005685EF00901E2285EFF0FFD6EF00607760
:1027E00019E123207B210549EFF05FC4045CC9D4C3
:1027F000CE852285FD14EFF09FD204DC1C4899CBD6
:1028000013050401EF00502711C5B7E700E0116779
:1028100023A0E720EFF0FFC2054505616FD0BFD0D0
:102820002285EFF05FD2EF00C07275BF2285EFF016
:102830009FD1EF0000722285EFF0DFCC4DD589B734
:1028400015E5EFD25FCDA1679387078073900730BE
:10285000377600008565377500001306463E938580
:1028600085AC13058539EF20F01901A09DCD3736D1
:1028700000209306466B814701471306466B2148AB
:1028800083A846006398A80093173700B2978CC3BB
:10289000C8C321A891E783A8060063930800B68700
:1028A0000507A106E31E07FDFDF38280EFD2BFC638
:1028B00041112A842EC632C4EFF05FB78347440427
:1028C0007D572246E207E187B2456394E700230281
:1028D0000404834754047D57E207E1876394E700CB
:1028E000A302040432C62EC4EFF0BFB51C5CA2459F
:1028F000324689E713054402EF00B0102285EFF05D
:102900009FC441016FD07FC3370700201307C7253D
:102910001C439443B70700209387C72781E67D5760
:1029200098C38280184358471843DDBFEFD21FBDBC
:1029300037090020B70700209304892583A9C728F9
:102940002A849C4088404111A388070411052EC6A3
:10295000EFF05FB97D5793078925B245631CE40208
:1029600095C9B74700209387C7859440D84398C638
:1029700010479440D0C694401047910654C29440EA
:10298000910614C798405CCB9843050798C3410152
:102990006FD01FBA98434E9440C3637B340137070E
:1029A0000020032507268C439105EFF0DFB0C5B763
:1029B000370700200325C7258C439105EFF0BFAFF3
:1029C000B70700209387C7279843E372E4FC80C3CE
:1029D0007DBFEFD2BFB237440020B70900201304F7
:1029E0000487370A0020938489269C40EDDFEFF0AE
:1029F000FFA35C4403A9C70013054900EFF09FAE95
:102A000013074A261C43FD171CC39C40FD179CC09E
:102A1000EFF03FA303250903EFF0BF864A85EFF0EF
:102A20005F86D1B7EFD2BFAC13192600AA8A4A85B8
:102A30002E8A368BBA8BBE89EFF00FEC1DC1AA84AB
:102A400013054005EFF04FEB2A8409C904D98147EB
:102A5000C146631A0A00230A050225A02685EFF065
:102A60005F827D5565A23307FA000307070033062E
:102A7000F400230AE60201C78507E396D7FEA30107
:102A80000404B94763F47703A167938707807390C1
:102A9000073037760000377500001306863F930530
:102AA000703913058539EF20E07501A0130A440041
:102AB0005285232674032322740523240404EFF093
:102AC000BF9D13058401EFF03F9D3D471305C9FFEE
:102AD00033077741269500C818CC40D0230604045C
:102AE000A306040423070404A3070404230804041E
:102AF000A30804045A86D6854199EFD07F9008C078
:102B00006384090023A08900EFF05F92B7070020DB
:102B1000938747269843B7040020B739002005075C
:102B200098C3138784251843938484251389496F98
:102B30006310070E80C0984385476316F706938994
:102B4000496F930AC9124E85D109EFF0BF93E39CF8
:102B50003AFF37450020930A058213050582EFF0FE
:102B60007F92374500209309458313054583EFF095
:102B70007F913745002013058584EFF0BF903745DE
:102B8000002013050587EFF0FF8F37450020130560
:102B9000C585EFF03F8FB707002023AE5725B70755
:102BA000002023A03727B7070020938707279843E3
:102BB000050798C337070020130747275C541443C1
:102BC00063F3F6001CC35147B387E702CA97D843A3
:102BD000144718C454C4144723A2460123244701B0
:102BE00098435CC8050798C3EFF0BF85B70700207E
:102BF00083A78728054599CB9C40D8575C546377B9
:102C0000F700B7E700E0116723A0E7206FD0BF917E
:102C1000B707002083A78728D9F79C40D8575C5472
:102C2000E3E3E7F880C041B7EFD2FF8E2A84B70410
:102C30000020EFF0AFFF9384842511E0804013095A
:102C400044004A85EFF01F8A1C5489C7130584018C
:102C5000EFF05F89B70700209387072798430507A0
:102C600098C39C40639A870637450020CA851305A0
:102C70000587EFF0DF82B707002093878726984308
:102C8000050798C3EFF0EFFB9C4063888700085866
:102C9000EFF02FDF2285EFF0CFDEB707002083A70C
:102CA0008728B1CB9C4063988704B707002083A78F
:102CB000C7268DCFA167938707807390073037763B
:102CC0000000377500001306863F9305C04D1305BD
:102CD0008539EF20205301A0B707002093874726AE
:102CE00098437D1798C3EFF03FC269BFB7E700E094
:102CF000116723A0E7206FD05F84EFD2DF81B70791
:102D00000020B775000037350000938787270147FB
:102D10008146130600109385C5401305259DEFF0ED
:102D20007FD00544631E8502EF009022631A85025E
:102D3000A1679387078073900730B70700207D57FE
:102D400023AEE726B707002023A4A728B707002053
:102D500023A60728EFF02FE183A741816FD0EFFD75
:102D6000FD57E31BF5FEA16793870780739007303B
:102D7000377600008565377500001306863F93851A
:102D8000058413058539EF20E04701A0B70700202F
:102D90009387C7269843050798C38280B70700200A
:102DA00003A5C7288280B707002083A7C726639999
:102DB0000718EFD24FF6B70700209387C728804344
:102DC000050480C321ECB70700209387C7259843EB
:102DD000184305C7A167938707807390073037763C
:102DE00000008565377500001306863F938575AC36
:102DF00013058539EF20004101A037070020130794
:102E000007269443104390C3B707002014C3938749
:102E100007289843050798C3EFF01FAF3706002037
:102E20009307C6279C4337370020B70500201306B9
:102E3000C6271307476F9385852501456375F402FF
:102E40009C41D146DC57B387D7023E97184385474C
:102E500063F3E7000545B707002083A7072991C35F
:102E600005456FD08FED370E0020B70E0020514F73
:102E70009307CE259443944281E6FD571CC2C9B7FF
:102E80009C43DC47DC47D4436374D40014C24DBF79
:102E900083A8870003A8C700D44B1383470023A44B
:102EA00008012322180183A846006394680023A226
:102EB000060103A8060023AA07007D1823A0060127
:102EC000945795CA03A8C70183A8070283AF460099
:102ED0002324180183A8070223A20801138887016D
:102EE00063940F0123A2160103A8060023A407027E
:102EF0007D1823A0060193864E2703A8C70283A846
:102F0000060063F4080123A00601B306E803BA969D
:102F100083A8460083AF880023A4170123A6F701E6
:102F200083AF880023A26F0023A46800D4CB9C4207
:102F300085079CC29C41DC57E36CF8F205450DBF48
:102F4000B70700209387472898430145050798C392
:102F50008280EFD2AFDA370400201304C4261C406D
:102F6000411185E7A1679387078073900730377613
:102F700000008565377500001306863F9385358B05
:102F800013058539EF20002801A0EFF02FCA1C405F
:102F9000FD171CC01C4089CB01452AC6EFF06FCA43
:102FA000324541016FD0CFD8B707002083A747260D
:102FB000E5D7B746002037350020814793868684C1
:102FC000370F00201305456FD14837030020370E17
:102FD0000020854E59A8DC46DC47CC4F90539857CB
:102FE00090C503A807022322B80003284700938551
:102FF00087016313B80050C3104323A407027D1652
:1030000010C38C47D047D84B1388470090C54CC29B
:103010004C436393050150C3104323AA07007D1658
:1030200010C313074F27D0570C4363F3C50010C3D9
:10303000330716032A974C4383AF85008CC723A61A
:10304000F70183AF850023A20F0123A405010C43E0
:10305000D8CB85050CC313078325184358576366DF
:10306000E60013070E292320D70198422DF799C3B4
:10307000EFF09F89B7070020138747280443138484
:10308000472899CC370900208549EFF0DFD109C5E1
:103090009307092923A03701FD14E5F82320040034
:1030A000B707002083A70729E38807EEB7E700E00A
:1030B000116723A0E7200545CDB519E5B7E700E086
:1030C000116723A0E7208280EFD2EFC4B70700206A
:1030D00083A7C72641119DC3A1679387078073907B
:1030E000073037760000377500001306863F9305DA
:1030F000905413058539EF20E01001A02AC6EFF0A7
:10310000FFC832458145EFF07F82EFF09FE411E583
:10311000B7E700E0116723A0E72041016FD0EFC1BE
:10312000B707002003A7C726B70700209387072902
:1031300001C7054798C3828023A00700B707002076
:1031400013874727184313864727B73700209387ED
:10315000476F5148B3060703B385D700884115C5AB
:10316000C841A106BE964841C8C16314D500544168
:10317000D4C1D146B306D702B697DC43D447B707CC
:10318000002023ACD72418C2828015E7EFD2AFB855
:10319000A1679387078073900730377600008565B5
:1031A000377500001306863F938525C013058539C2
:1031B000EF20400501A07D1771BFEFD2CFB505E527
:1031C000A167938707807390073037760000856585
:1031D000377500001306863F9385C5C113058539F1
:1031E000EF20400201A0B70700202E8483A5872589
:1031F000E105EFF04FAC85452285EFF02FF36FD05E
:10320000CFB3EFD24FB12A8705E5A1679387078037
:103210007390073037760000856537750000130618
:10322000863F938525C513058539EF10B07D01A034
:10323000B70700209387872554432E858C4303A826
:103240008600D4CD8C4323A0050303A807008C4639
:10325000610823A2050103A807009C43610823A479
:10326000060198D71C4385071CC311C27D55B28542
:10327000EFF0CFEB6FD06FAC5C45DC4795E7EFD25A
:103280008FA9A16793870780739007303776000076
:103290008565377500001306863F938525C813059D
:1032A0008539EF10307601A0D04F9453985793850D
:1032B000870114C6D0C250436313B60054C31443ED
:1032C00023A40702FD1614C3370700200327C726CF
:1032D000D45725EF8C47D047D84B90C5D0474843AB
:1032E0004CC2938547006313B50050C3104323AA13
:1032F00007007D1610C33707002013074727104328
:103300006373D60014C351473386E6023737002073
:103310001307476F32975043084690C7C8C70846FF
:103320004CC10CC6D8CB1C43014585071CC3B7074D
:10333000002083A78725DC5763F8D700B707002054
:10334000054723A8E7280545828037470020130753
:10335000878450430846D0CF88D308464CC10CC65A
:1033600098D7D1B7B707002083A707281CC1B70794
:10337000002083A7C7285CC18280EFD2CF9941117A
:1033800005E5A167938707807390073037760000C3
:103390008565377500001306863F9385D5CF1305E5
:1033A0008539EF10306601A085E5A1679387078016
:1033B0007390073037760000856537750000130677
:1033C000863F9385E5CF13058539EF10B06301A0E3
:1033D0002EC62AC4EFF08F8537070020B7070020DC
:1033E0001307872583A6C7281C432245B24583C7F8
:1033F000170599CB1C43A38807040544EFF06F849D
:10340000228541016FD06F939C417D570144E38732
:10341000E7FE37060020032606280328050058414A
:103420006307C80063E5E60023A00500F9B733860B
:10343000E640E37BF6FE958FBA979CC1EFF09FF2D2
:1034400001446DBFB7070020054723A8E728828005
:10345000B707002083A78728054581CBB707002041
:1034600003A5C7261335150006058280EFD2AF8A63
:1034700037040020EFE09FFB1304042A1C40B1E74F
:10348000374500201309458813054588EFE09FFF65
:10349000374500209304858913058589EFE09FFE59
:1034A000B707002023AA27290146B7070020C145F6
:1034B000114523AC9728EFF0AF9B08C019C5B7752D
:1034C000000093858543EFF0AFB7EFE09FF76FD033
:1034D000CF86EFD24F844CC108C9AA876362B60277
:1034E000184D158E0545637BE60093854700B707A9
:1034F000002003A58729EFE01FFC01456FD0EF8373
:103500006375D6000545E3FBD5FE93854700B707F5
:10351000002003A54729C5B7EFC2FFFF2A84AE8468
:1035200032890C4CA6864A86A6952285EFF07FFA52
:1035300019E16FD08F801C4C2285BE941C5082975D
:10354000CDB7EFC25FFDB707002083A74729411120
:10355000AA84DC472EC6C04713054400EFE09FF85D
:1035600083474402324613F7470019CBA6852285CC
:10357000EFF09FFA1C502285829741016FC0FFFB3C
:10358000F99B2302F402FDB7EFC2FFF837040020D5
:103590009306442998421C4391EBB7070020938778
:1035A0008729904398C390C26FC03FF95C47FD558F
:1035B0008843EFF01FF9E9BFEFC27FF31D694111A6
:1035C000B70A0020B7090020370B0020B70B0020F6
:1035D0001309494183A74A29984329CBDC47814CE9
:1035E00003AC0700EFF08FFAEFF04FFB83A7C92978
:1035F0002A849384C929130A0B2A636CF50288C0B4
:1036000063800C0483A78B2990431336160003258F
:103610000A00B3058C40EFF06FA9EFF09F9319ED0E
:10362000B7E700E0116723A0E72009A8854C014C0B
:1036300055BFEFF07FF580C0EFF0BF91214C0DA09A
:103640000146E36685FDEFF0DF90A2856285EFF02D
:103650005FEFEDB79247B2458297824763DD07007F
:1036600003250A0001468A85EFF04F8725D582475A
:103670002245E3C107FE22445C489DE3EFF00FF2D0
:103680009C40AA8C6374F500EFF01FF0824723A0E2
:103690009401FD17E366FCFC8A07CA979C43828766
:1036A00013054400EFE01FE4D1BF834744020C4CF4
:1036B000924693E717002302F4026686B6952285A8
:1036C000EFF03FE151DD8347440213F7470001CF9C
:1036D0001C4C924566862285BE95EFF0FFE31C5098
:1036E00022858297B5BFF99B2302F402CDBF8347A1
:1036F0004402F99B2302F402A5B783474402924592
:1037000093E717002302F4020CCC9DE1A167938795
:103710000780739007303776000037750000130676
:1037200006449305903513058539EF10B02D01A09F
:10373000E6866686E6952285EFF0BFD915B7834702
:10374000440213F7270055F72285EFE09FB309BF26
:10375000EFC27FDCEFF09FD1B707002083A7072AD5
:103760009DE3A16793870780739007303776000049
:10377000377500001306064493059011130585392B
:10378000EF10502801A0B7070020B77500003735AB
:1037900000009387472A3947814613060010938516
:1037A00085451305855BEFF0EFA745DD6FC0FFD8BA
:1037B000B7F700E0D8438146799BD8C3370700208C
:1037C0000357872A3306A70290CBD4CB98431367BD
:1037D000070198C398431367170298C3D843058B12
:1037E00075DF9843799B98C38280B707002083A731
:1037F000871F37177A0013070720B3D7E702370769
:10380000002093F7F70F2305F72A1307803EB387AD
:10381000E702370700202314F72AB73700003707DD
:1038200000209387077B2322F7228280EFC2BFCE3E
:10383000B707002083A7472282976FC01FD0EFC22F
:103840009FCD9307803E3305F5023355F502EFF027
:10385000DF866FC09FCEEFC21FCC01112A84854541
:1038600037050200EFD04FF685451145EFD0EFF355
:1038700091477C82371501408D473EC44C00E1479B
:10388000130505803EC6EFD0CFCB22C83744004099
:10389000B70708000C08130504403ECC02CA231EDB
:1038A0000100EFD04FF4854513050440EFD08FFCA5
:1038B00005616FC09FC8EFC27FC4B7440040AE89A6
:1038C0003289014493840440634524014A856FC0D2
:1038D0003FC6930500042685EFD0CFFC7DD9B38782
:1038E00089008385070026850504C205C181EFD0C4
:1038F000EFFAD9BF138781811C43B7460020938616
:10390000068B3E95636BD500B70602209386068032
:1039100063E5A60008C33E858280FD57EDBFC16701
:10392000637CF5029307F00F1307000263EBA70017
:1039300097470000938707B3AA9788233305A740CA
:1039400082802181974700009387C7B1AA97882377
:1039500061473305A7408280B7070001636DF5001A
:103960006181974700009387E7AFAA978823214793
:103970003305A7408280418197470000938787AE37
:10398000AA97882341473305A740828013D7450172
:10399000B7071000FD1713D846011377F77F930878
:1039A000F07F33FEB700AA8EF58FFD81328F13783A
:1039B000F87FFD82630B170105436306180163144A
:1039C0000701630DFE001A858280B368AE000543CF
:1039D000E39B08FEE319E8FED18FF5F70543E39476
:1039E000EEFF0143E381D5FE054371FF3365AE0071
:1039F0003333A000C9BF13D74501B7071000FD1727
:103A000013D846011377F77F9308F07F33F3B7009D
:103A10002A8EF58FFD81B28E1378F87FFD826308C0
:103A20001703630018030DEBB368A30063140800C9
:103A30005D8E29CA638508046388D502054595ED26
:103A40008280B3E8C700E38008FE79558280336541
:103A5000A30065FD630CE802631408005D8E79DE47
:103A6000E39ED5FCE34CE8FC63480701E3E867FC10
:103A70006303F302637FF30081E57D558280F5DE09
:103A8000054582800145E39B08FA82805D8E69DAF4
:103A90006DBF01458280E3E3CEFB0145E372DEFBAF
:103AA000E5F1E1BF13D74501B7071000FD1713D8A3
:103AB00046011377F77F9308F07F33FEB700AA8E95
:103AC000F58FFD81328F1378F87FFD82630E170327
:103AD000630D180129E3B368AE00631F08005D8E13
:103AE00001EE0143638C080421A8B3E8C700094331
:103AF000639608046DD305A0638408046385D5022A
:103B000005438DCD7D531DA8B368AE00094363976F
:103B10000802630AE802631408005D8E75D2E3911F
:103B2000D5FEE34FE8FC63490701E3EBC7FD630FF4
:103B3000FE0001436374FE00F1D505431A858280BF
:103B4000EDFE7D53E5BF5D8E79DACDBFE36ADFFB25
:103B50000143E3F5EEFFF5F175B739714AD813D992
:103B600045014ED652D456D29399C50006DE22DCCA
:103B700026DA5AD05ECE1379F97F2A8A93D9C90002
:103B800093DAF501630D090E9307F07F6306F918C8
:103B90001354D5018E09B36934013704800033E42E
:103BA000890093143500130919C08149814B13D73B
:103BB0004601139AC6001377F77FB285135ACA00DD
:103BC00013DBF601630B07109307F07F6303F70421
:103BD0009357D6010E0A33EA4701130717C0B707F8
:103BE0008000B367FA00931536003A99814833C7CD
:103BF0006A01BD463A851308190063E8361717466F
:103C00000000130626968A09B29983A60900B29687
:103C10008286B367CA001309F97F6399071293E993
:103C2000290081458948E1B701479307F07F3704B0
:103C3000080081443204D20731807E075D8C598CA4
:103C4000A285F250625426854259D254B259225A62
:103C5000925A025BF24B216182805A853E84AE8487
:103C6000C68B8947638DFB0E8D47E38FFBFA854733
:103C70002A87639EFB3881470144814465BF33E452
:103C8000A90061C036C632C4638C092A4E85EFF0A4
:103C90001FC92246B246AA87130755FF754493846D
:103CA00087FF198CB399990033548A003364340127
:103CB000B3149A0013D746011309D0C0139AC60053
:103CC0001377F77F3309F9408149814BB285135A45
:103CD000CA0013DBF601E31907EEB367CA00B1C7E8
:103CE000630F0A22528532C4EFF07FC322462A872F
:103CF000930655FFF547930587FF958F331ABA0052
:103D0000B357F600B3E74701B315B6003309E940EE
:103D10001309D9C08148E1BD33E4A90001ECA149F0
:103D200081441309F07F894B59B593E91900814506
:103D3000854875BD4E84AA84B1491309F07F8D4B27
:103D4000BDB5914981440149854B95B593E9390049
:103D5000D2878D4869BD89475685E397FBF02A874E
:103D60009307F07F01448144F1B5C16E1386FEFFD5
:103D700093D6040113DE0501F18CF18D3386950293
:103D80003383B6029358060133059E021A95AA980A
:103D9000B382C60363F36800F692C16F1383FFFF1B
:103DA00033F5670093D30701B3F76800C207337395
:103DB00066003E933306950293D80801B387A602A6
:103DC000135F0601B3849302BE94FA94B38E760215
:103DD00063F3F400FE9E416A9307FAFF935F0401C8
:103DE000B376F400B3F9F4007D8EC1803384D5023C
:103DF000C209338FD401B299CE98B307DE02935E25
:103E00000401B385BF02AE97BE9E330EFE0363F37B
:103E1000BE00529EC1679385F7FF33F6BE006D8CDE
:103E20004206229693DE0E01B305D502769E3385B7
:103E3000AF0213D40501B386D302AA96A296B38F1C
:103E4000F30363F3A600BE9F41657D15B3F7A6009B
:103E5000C2076D8DAA97B3855800B3B93501FA979B
:103E6000B2953384370133B6C500B30EC401338530
:103E7000CE0033343401B3B7E701C18F33BECE0176
:103E800013D406013336C5003E943366CE009394B6
:103E9000950032947E94B3E4640026049356750131
:103EA000B3349000DD8193179500CD8C558CDD8C5B
:103EB0009317740063DB070093D71400858893166B
:103EC000F401DD8CD58C058042899307F93F635955
:103ED000F00893F6740081CE93F6F40011466388DF
:103EE000C60093864400B3B496002694B684931615
:103EF000740063D80600B70700FFFD177D8C930799
:103F000009409306E07F63CFF60E93D634009314F6
:103F1000D4012604D58C318093F7F77F21BB3285FD
:103F200032C4EFF0DF9F93065501F14713070502F6
:103F30002246E3D1D7DC6115B317A6008145F9B35A
:103F4000EFF0FF9D13075501F14593070502224647
:103F5000B246E3D5E5D461153314AA00814499BB78
:103F600085469D8EB1E71309E941B3972401B3D487
:103F7000D40033192401B337F000B3649900DD8C09
:103F800093F77400B356D40081CF93F7F400114631
:103F90006388C70093874400B3B49700A696BE8495
:103FA0009397860063D8070485470144814459B13B
:103FB00013068003E341D6CC7D46E356D6FA055678
:103FC000B307F640930500023356F4006387B6004A
:103FD0001309E943B3172401DD8CB3349000D18C6D
:103FE00093F67400014499CA93F7F4001146814690
:103FF000E392C7FA139496003180F6068D80D58C33
:1040000081470DB99307F07F0144814425B142896E
:104010006DBD370710007D1701113373B70093D8BA
:104020004601758F935ED60122CC26CA0E0393D427
:1040300045019357D5010E0706CE4AC84EC693F8E0
:10404000F87F130EF07F33E7EE0093F4F47F13D480
:10405000F50133E36700131F3500FD82931E360020
:104060006380C81993C61600B38514416305D41242
:104070006351B018638B081AB70780005D8F6381A6
:10408000C4599307800363C4B734FD4763C5B74879
:10409000930700028D8FB3D9BE003318F700B39E8B
:1040A000FE00336838013357B700B339D0013368A5
:1040B00038013303E340B3090F41B3373F013306FF
:1040C000F3409317860063D30724370980007D19D6
:1040D00033792601630F092C4A85EFF05F841307BB
:1040E00085FF93070002998FB3D7F9003316E900D3
:1040F000D18FB399E9006344972A058F13061700FF
:10410000FD4663C5C63A13070002118FB3D6C90036
:104110003398E9003397E700558F33380001B369CE
:10412000070133D6C700814493F7790081CF93F616
:10413000F90091476388F6009386490033B8360149
:104140004296B6899317860063D6071C138714001E
:104150009307F07F05886306F720B70780FFFD17F8
:10416000F18F1398D70193D93900A6073368380126
:10417000B1831377F77F9396C7005207B1827E040D
:10418000D98EC18EF2406244D2444249B24942853E
:10419000B685056182806356B00A638A0812B70744
:1041A00080005D8F6387C42D9307800363C7B718B2
:1041B000FD4763D2B73C138805FE93070002B3594D
:1041C0000701638AF50093070004B385B7403317EE
:1041D000B700B3EEEE003338D0013368380195A252
:1041E000B367D7019385148099E393C61600630AD9
:1041F000D404D1E19387140093F7E77F6399071EF6
:10420000B367E3013368D701639204166382073C06
:1042100063160842131835009316D301135838005B
:1042200033E806019357330019A2B367D7016385BA
:10423000071A9387F5FF638B073A638CC523BE8506
:1042400089B56399051C9386140093F7E67FC1EF47
:10425000B367E30163900436638D0744B367D70106
:10426000639407460E051318D3010D813368A80027
:10427000935733006DA8B385984063970420B367C4
:10428000E301638D07309387F5FF638907401305CA
:10429000F07F6383A520BE859307800363C2B72A9E
:1042A000FD4763C8B73C930700028D8F3318F300B6
:1042B0003356BF00B317FF003368C800B339F000AE
:1042C0003353B3003368380133076740B5ACB36785
:1042D000D701638307109387F5FF638F071E638001
:1042E000C52FBE85D1B59307F07F638BF606FA9E86
:1042F00033B6EE01B307E300B2971398F70193DEEC
:104300001E00B369D80113D61700B68493F779005D
:10431000E39F07E09317D60113D839003368F800FC
:10432000A685935736001307F07F6380E506B20732
:10433000B18313F7F57F05883DBD3367D701333867
:10434000E000B309E801B3B7E901338667009317CA
:104350008600E3DD07FA85049307F07F639CF41879
:1043600005881307F07F8147014831B56391071035
:104370006301083C131836009317D701135838000F
:104380003368F800368493573700B367F800E9DBE9
:1043900001441307F07FB70708000148E9BB37065F
:1043A00080FF7D167D8E93F77900998CE39107D875
:1043B00095B74E85EFF0AFD613078501FD47E3D2E1
:1043C000E7D2130685FFB397C90081492DB333683F
:1043D000D70133380001C5B1131835009317D30145
:1043E000135838003368F800935733002DBFB309D2
:1043F000DF413309E34033363F013309C9409317A6
:10440000890063CA072033E82901E31508CC8147F6
:10441000014431BFB385984063810414B70680001E
:104420009307F07F3363D3006381F8209307800301
:1044300063CCB722FD4763C9B72C930700028D8F69
:104440003318F300B356BF00B317FF003368D8002A
:10445000B339F0003353B300336838011A97B30906
:10446000D801B3B7D9013386E700C684CDB5E311CF
:1044700008F2131835009317D30113583800336826
:10448000F8009357330011B7370580009307F07F8A
:104490003363A300E392F8E00E061318D7010D82F0
:1044A0003368C800935737003684C5B5051793069F
:1044B000000233D7E700630AD60093060004338670
:1044C000C6403396C700B3E9C90033383001B36939
:1044D000E800014681441DBDB309DF01B307E300D5
:1044E00033BFE9013386E701931786008544E3DF94
:1044F00007E08944B70780FFFD17F18F13D7190034
:1045000013F81900336807019399F701B3E909011A
:1045100013D6170011B9138805FE93070002B3598B
:104520000701638AF50093070004B385B74033178A
:10453000B700B3EEEE003338D00133683801A5BEC2
:104540003363E30133386000B3890E41B3B73E01F2
:104550003306F740C6843684ADB6B367E30163879C
:1045600007189387F5FF638C071C9306F07F638E13
:10457000D50ABE8565BD930700028D8FB3D9BE00F5
:104580003318F700B39EFE00336838013357B70085
:10459000B339D001336838013A9365B31318360044
:1045A0009317D7011358380033E80701368493571F
:1045B000370095BBBDCB3367D701E31B07DC0E0586
:1045C0001318D3010D813368A8009357330075BBCE
:1045D000E30F08E2131836009317D7011358380079
:1045E0003368F80036849357370091B3B309DF413D
:1045F000B307E340333F3F013386E7418544D1B4FD
:10460000131835009316D3011358380033E8060108
:10461000935733009DBBB389EE413306674033B9EE
:104620003E0133092641368475B40E061318D701AE
:104630000D823368C8009357370081BBB309DF414F
:10464000B307E34033363F013386C74093178600F4
:1046500063D7070AB389EE41B3076740B3BE3E0193
:104660003386D7413684C9B43363E30133386000FD
:10467000FDB3138805FE93070002B3590301638A53
:10468000F50093070004B385B7403313B300336FCD
:104690006F003338E001336838017DB5B389EE41EE
:1046A000B3076740B3BE3E013386D74136848544A5
:1046B00009BC131836009317D70113583800336814
:1046C000F80093573700A5B1B309DF01B307E30042
:1046D00033BFE9013386E70193178600E3D807C2A9
:1046E000B70780FFFD177D8E85440DB10E061318A8
:1046F000D7010D823368C800935737002DB133E8D6
:10470000C900E30608D019B1138805FE930700021B
:10471000B3590301638AF50093070004B385B740DA
:104720003313B300336F6F003338E001336838015F
:104730003DB301441307F07FB70708002DBCB30950
:10474000DF01B307E300B3BED9013386D70169BBEC
:1047500013D74501B7071000FD171347F7FF13D80C
:104760004601FD8DF58F931657011378F87F99CA8E
:104770001307F07F01456303E8008280D18F333552
:10478000F0008280C98D0545E5D5828093D745012B
:10479000B70610001387F6FF93F7F77F1306E03F85
:1047A0006D8FFD81635CF6001306D041635AF600FD
:1047B000370500801345F5FF2E95828001458280E4
:1047C000130630431D8E7D48558F635DC8009306E8
:1047D0003041B387F640B357F7003305F040E5F1B9
:1047E0003E8582809387D7BEB317F7003355C50047
:1047F000C98FE5B7411106C622C426C20DCD935715
:10480000F541B3C4A7009D8C2A842685EFF02F9133
:104810009306E041898EA9477D8093F6F67F63CDAC
:10482000A7022D47098FB3D7E4005505B207B3940B
:10483000A400B18329A00144814681478144B20785
:10484000D206B1837E04D58FC18FB2402244268523
:10485000BE859244410182805515B397A400B207EA
:10486000B1838144E9BF0325C50E82809387C1814E
:104870009C439C5389E797C7FF1F9387678103A5D4
:10488000C70E82809387C181AA858843DDA2938762
:10489000C181AA85884335A291ED41116C00014583
:1048A00001CA795591C61C229CC108223335A0004B
:1048B00041018280014509CA795599C61C229CC1D3
:1048C00008223335A00082808280B3C7A5008D8B7B
:1048D0003307C50081E78D4763EDC700AA87637E74
:1048E000E508942185078505A38FD7FEE3EBE7FE56
:1048F000828093763500AA8789CA94218507850529
:10490000A38FD7FE93F63700C5BF9376C7FF1386F4
:1049100006FE63F0C70683A3050083A2450083AFAC
:10492000850003AFC50083AE050103AE450103A3B7
:10493000850183A8C5019385450223A0770003A8BC
:10494000C5FF23A2570023A4F70123A6E70123A84C
:10495000D70123AAC70123AC670023AE17019387B1
:10496000470223AE07FF75B790419107910523AE2B
:10497000C7FEE3EBD7FEE3E6E7F6828063F1A5042A
:10498000B386C500637DD5029345F6FF8147FD17C9
:104990006393F50082803387F6000348070033876E
:1049A000C7002A9723000701DDB73387F5001423DA
:1049B0003307F500850714A3E319F6FE82808147CB
:1049C000E5BFDDC583A7C5FF411122C406C626C2C7
:1049D0001384C5FF63D307003E94AA84EF102023FD
:1049E00097C7FF1F9387C78C9C4391EF2322040036
:1049F00097C7FF1F23AE878A2244B2402685924480
:104A000041016F10E020637EF40014403307D400AE
:104A10006396E7009843DC43369718C05CC0C9BF73
:104A2000BA87D84319C3E37DE4FE94433386D700A5
:104A3000631F86001040B29694C33386D700E31DEF
:104A4000C7FA10435843B29694C3D8C375B7637579
:104A5000C400B1479CC04DB71040B306C4006316F4
:104A6000D70014435843B29614C058C0C0C369B7A6
:104A70008280011126CA93843500F19806CE22CC9B
:104A80004AC84EC6A104B14763FBF404B14463EACB
:104A9000B4042A89EF10A01797C7FF1F9387478197
:104AA00098433A8429E897C7FF1F9387A7809C43C0
:104AB00089EB81454A85EF00D00797B7FF1F23ABED
:104AC000A77EA6854A85EF00D006FD59631B3507F2
:104AD000B1472320F9004A85EF10801329A0E3D8BD
:104AE00004FAB1471CC10145F2406244D244424934
:104AF000B249056182801C40858F63C10704AD46C1
:104B000063F6F6001CC03E9404C001A85C40631527
:104B1000870217B7FF1F232DF7784A85EF10400F44
:104B20001305B4009307440061993307F5404DDF46
:104B30003A94898F1CC04DBF5CC3C5B722874040E3
:104B400095B7130435007198E30085FCB305A440C4
:104B50004A85EF00007EE31935FB9DBF1C46FD171B
:104B60001CC663DA0700184E63C5E700A9476394C3
:104B7000F5006F00D0151C422E851387170018C250
:104B80008CA38280011122CC26CA4AC84EC652C4C8
:104B900006CE2A89AE893284B304D6007D5A6314C6
:104BA0009400014509A80C204E864A85EFF01FFBB2
:104BB0000504E31645FFF2406244D2444249B2493B
:104BC000224A05618280357122CD26CB4AC94EC763
:104BD00006CF52C556C35AC1DEDEE2DCE6DAAA8948
:104BE000AE843289368409C51C4D99E3EF003057F5
:104BF00097370000938707B26399F40C83A44900A8
:104C0000DE24A18BEDC79C48FDC393070002A304DB
:104C1000F1029307000302D22305F10222C6930B8F
:104C20005002973A0000938AEA98054C294B4A842F
:104C30001C2099C36390770FB30C2441638E0C0042
:104C4000E6864A86A6854E85EFF0DFF3FD576302C0
:104C5000F51E9256E69636D21C20638C071CFD5733
:104C60001309140002C802CE3ECA02CCA3090104F3
:104C700082D48345090015465685EF00D07713048A
:104C80001900C24751E913F7070109C713070002CA
:104C9000A309E10413F7870009C71307B002A309AA
:104CA000E104834609001307A002638FE606F2477A
:104CB0004A8481462546182093051400130707FDF2
:104CC0006377E60AB5CA3ECE85A89737000093877A
:104CD00067A66395F40083A489001DB79737000089
:104CE000938747A1E39EF4F083A4C90011BFA68572
:104CF0004E85EF00D00E11D97D55FA406A44DA4452
:104D00004A49BA492A4A9A4A0A4BF65B665CD65C1B
:104D10000D618280050429BF330555413315AC0070
:104D2000C98F3EC82289B1B732479306470018435E
:104D300036C6634707023ACE18209307E002631D88
:104D4000F70418309307A002631BF702B247090467
:104D5000138747009C433AC663C107023ECA2DA889
:104D60003307E04093E727003ACE3EC8F1B7B38758
:104D7000670385462E84BA973DBFFD57C5B7050426
:104D800002CA81468147254618209305140013075F
:104D900007FD6376E606F9F20C200D461735000094
:104DA0001305C581EF00306511CD9737000093875B
:104DB000E7801D8D93070004B397A70042450504C3
:104DC0005D8D2AC80C201946172500001305457F64
:104DD000130914002304B102EF00F06135C197B745
:104DE000FFFF9387272295E74247B24713770710C3
:104DF00009CF91073EC69257D2973ED20DBDB387D9
:104E0000670385462E84BA9741B79D07E19BA107AA
:104E1000D5B7780097060000938606D726860C083B
:104E20004E8597000000E7000000FD572A8AE31432
:104E3000F5FCDE2493F70704E39007EC125575BDEB
:104E4000780097060000938626D426860C084E85A7
:104E5000012AE1BF797156CA9C49BA8A984522D481
:104E600026D24ECE52CC06D64AD05AC85EC6AA89A1
:104E70002E84B284368A63D3E700BA879CC0034786
:104E8000340419C385079CC01C4093F7070281C7EF
:104E90009C4089079CC00329040013796900631AA8
:104EA0000900130B9401FD5B5C449840998F634C9F
:104EB000F9041C408346340493F70702B336D0004C
:104EC000A5EB13063404D2854E85829AFD57630301
:104ED000F5041C4011469840998B544481446397D3
:104EE000C700B384E64063D3040081441C441848DF
:104EF0006354F700998FBE94014969047D5B639800
:104F00002405014509A885465A86D2854E85829A90
:104F1000631E75017D55B250225492540259F249D4
:104F2000624AD24A424BB24B456182800509ADBF0D
:104F30003307D40013060003A301C7040347540436
:104F400093871600A2978906A381E7049DBF854633
:104F50002286D2854E85829AE30E65FB050945B708
:104F6000797122D426D24AD04ECE06D652CC56CA19
:104F70005AC8B689942D930790063289AA842E8444
:104F800013863504638DF60263E2D7069307800526
:104F90006387F61863EDD700638F0620930730040C
:104FA000638FF60A930A24042301D404D1A0930743
:104FB00030066386F60A93074006E395F6FE1C402A
:104FC000084393F6070893054500CDC61C410CC362
:104FD00063D807001307D002B307F040A301E4042D
:104FE000972600009386465E29476DA89307000721
:104FF0006383F61663E5D7029307E006638AF61823
:105000009307F006E390F6FA0C401C4313F80508EA
:10501000138547006308080608C39C438DA89307BF
:105020005007E383F6FE93078007638AF61293071F
:105030003007E399F6F61C43D0418145938647003B
:1050400014C383AA07005685EF00F03A01C5330563
:10505000554148C05C401CC8A301040461A81C431E
:10506000930A2404938647009C4314C32301F40449
:105070008547D5B793F607041C410CC3B1DAC207C4
:10508000C187B9B793F5050408C3C1D99E23130797
:10509000F0066387E60E972600009386E6522947BE
:1050A000A30104044C400CC463C5050008406D997D
:1050B00008C099E3B28A89CDB28AB3F5E702FD1A36
:1050C000B6958C212380BA00B3D5E70263F0E70CD4
:1050D000A147631EF7001C40858B91CB58401C48AC
:1050E00063C7E70093070003A38FFAFEFD1A330698
:1050F000564110C84E87CA867000A2852685EFF0FB
:105100007FD57D5A631D450B7D55B2502254925474
:105110000259F249624AD24A424B45618280A382D7
:10512000D504972600009386264A0C40084313F8BE
:1051300005081C411105630D080208C313F715008B
:1051400001C793E505020CC04147B9FB0C4093F53C
:10515000F5FD0CC0B1B79C4193E707029CC19307D2
:105160008007A302F404972600009386264775BFA4
:1051700013F8050408C3E30308FCC207C1837DBF1D
:105180009726000093864644214719BFAE8735B75E
:1051900094411C43CC4913F8060813854700630665
:1051A000080008C39C438CC339A008C393F60604C7
:1051B0009C43F5DA8EA323280400B28A25BF144845
:1051C0005686CA8526858299E30045F51C40898B61
:1051D0008DE7B2474844E35AF5F23E853DB7854630
:1051E0005686CA8526858299E30065F3050A5C44E4
:1051F0003247998FE345FAFEE9BF014A930A9401C9
:105200007D5BF5B739713EDA2ED232D436D63AD834
:1052100042DC46DE9387C18122CC804326CA06CE7B
:10522000AA8409C41C4C99E32285152F0C44541000
:105230002686228536C6EFF01F99F2406244D2449A
:1052400021618280011126CA4AC806CE22CC4EC6F0
:1052500052C4AA842E8901C51C4D91E309279C4C98
:10526000804499E32685E52D972700009387874A98
:10527000631BF402C0405E24A18BB1C71C48A1C7C8
:10528000FD59294A1C4483450900FD17B1E91CC496
:1052900063DD07062286A9452685152CFD57630880
:1052A000F502294535A0972700009387A748631486
:1052B000F4008044C9B7972700009387A743E31CF5
:1052C000F4FAC0444DBFA2852685112E55D97D55CF
:1052D000F2406244D2444249B249224A0561828086
:1052E0001CC4050963D70700184C63CAE70063882C
:1052F00045011C401387170018C08CA361B7228694
:105300002685F122E31035F9D9B71C401387170021
:1053100018C0294798A371B79387C181AA8588438C
:105320006FF05FF29387C1812E86AA8588436F0054
:10533000500E411122C42A842E8597E7FF1F23A90E
:10534000075606C6EFE00FDBFD576319F50097E738
:10535000FF1F9387E7559C4391C31CC0B240224472
:105360004101828035713ECBB707008093C7F7FFBC
:105370003ECE3EC8C1779387872032C536C73AC92B
:1053800042CD46CF3ECA9387C1812AC42ACC8843E6
:1053900034012E862C0086DE36C2EF00701BA24739
:1053A00023800700F6500D61828071713ED3930710
:1053B000402006C72EC632CD36CF3AD142D546D789
:1053C0002312F1022ACC2AD4D5289707000093870C
:1053D00007063EDEFD57B2452313F1029387C181D4
:1053E0002ACE2AD6884334092E862C0882C682D03B
:1053F00036CAEF00504ABA404D618280411122C442
:105400002E848395E50006C6EF10A036634905009B
:105410007C48AA977CC8B2402244410182805E2425
:105420007D777D17F98F5EA4FDB701458280DE256B
:10543000011122CC26CA4AC84EC606CE93F70710E1
:10544000AA842E843289B68991C78395E50089465E
:10545000014649255E247D777D17F98F5EA483156B
:10546000E4006244F240CE864A86B249424926852B
:10547000D244056115AA411122C42E848395E5000A
:1054800006C6892DFD575A24631AF500FD77FD17CE
:10549000F98F5EA4B2402244410182808567D98F92
:1054A0005EA468C8C5BF8395E5000DACAA879821A6
:1054B00085078505A38FE7FE7DFB8280AA87850788
:1054C00003C7F7FF6DFF3385A7407D15828001116B
:1054D00022CC26CA4AC806CE4EC6AA842E89328459
:1054E00001C51C4D91E3A5299727000093878722CA
:1054F0006317F406C0401C4C1CC45E24A18BC1C3BE
:105500001C48B5CF1C4808409379F90F1379F90F5F
:105510001D8D5C486346F500A2852685152625E588
:105520001C440505FD171CC41C401387170018C038
:10553000238037015C486388A7005E24858B81CB7C
:10554000A9476316F900A2852685DD2C0DEDF240F2
:1055500062444A85D2444249B24905618280972714
:1055600000009387271D6314F400804469B79727D0
:10557000000093872718E310F4F8C044ADBFA2855C
:105580002685B12841D17D59D9B789CD9307F00F30
:1055900063F7C7009307A0081CC17D55828090A1C6
:1055A0000545828001458280411122C42A842E85CE
:1055B000B285368697E7FF1F23AC072E06C6EFE0BD
:1055C0008FAFFD576319F50097E7FF1F9387472EAD
:1055D0009C4391C31CC0B2402244410182804111CE
:1055E0009387C18126C2844322C44AC006C62A8941
:1055F0002E8489C49C4C99E3268595269727000024
:1056000093874711631BF402C0400317C40093172C
:105610000701C18393F68700B5EA93F6070195EE7B
:10562000A5472320F900136707045AA47D55B2400B
:1056300022449244024941018280972700009387C7
:10564000670F6314F4008044C9B79727000093875D
:10565000670AE31CF4FAC0444DBF918B85C74C58D0
:1056600091C9930744046385F5004A85EFF06FB54F
:10567000232A04025E242322040093F7B7FD5EA4CC
:105680001C481CC05E2493E787005EA41C4899EB6D
:105690005E241307002093F707286385E700A2859F
:1056A0004A85C1215E2413F717001DC35C482324DB
:1056B0000400B307F0401CCC1C480145ADFB831728
:1056C000C40013F7070825D793E707045EA4B9BF02
:1056D000898B014791E3584818C4F9BF411122C48E
:1056E0002A842E8597E7FF1F23A4071C06C6EF1008
:1056F000C04CFD576319F50097E7FF1F9387471BC1
:105700009C4391C31CC0B240224441018280DE25EB
:10571000011122CC26CA06CE4AC84EC613F787000E
:10572000AA842E8461EFD841634DE000B841634AFA
:10573000E0000145F2406244D2444249B249056169
:10574000828058547DD703A904009396370123A083
:10575000040063DC060670485E24918B99C75C40A8
:105760001D8E5C5899C33C401D8E5C540C50814684
:1057700026858297FD575A24631DF5009440F5470E
:1057800063E9D706B70740208507B3D7D700858BD5
:10579000ADC31C48232204001CC09317370163D8F3
:1057A0000700FD576314F5009C4091E368C84C580E
:1057B00023A02401BDDD930744046385F5002685FD
:1057C000EFF02FA0232A0402ADB70C500146854606
:1057D00026850297FD572A86E310F5F89C40ADDF39
:1057E00075476385E70059476393E70423A02401C5
:1057F00089B7136707045AA47D552DBF83A90501F6
:10580000E38909F203A905008D8B23A03501330933
:105810003941014791E3D84918C4E35C20F11C5495
:105820000C50CA864E86268582976347A0005E2468
:1058300093E707045EA4C9B7AA993309A940F1BF49
:105840009C49A5C3011122CC06CE2A8411C51C4D4A
:1058500081E72EC62922B24597270000938787EB60
:10586000639CF5004C408397C5009DC72285624428
:10587000F24005616FF0BFE997270000938787EB3F
:105880006394F5000C44C5B797270000938787E61B
:10589000E39BF5FC4C44C1BFF24062440145056105
:1058A000828001458280411122C406C62A844EA509
:1058B00072A52320050023220500232405002322AE
:1058C000050623280500232A0500232C0500214670
:1058D00081451305C505EFA01FC7970700009387F3
:1058E00027B25CD0970700009387A7B41CD4970712
:1058F0000000938787B85CD4970700009387E7BAC6
:1059000000D01CD8B240224441018280970500009B
:10591000938545F399AA411126C213068006938404
:10592000F5FFB384C4024AC02E8922C406C69385FB
:105930004407EFF00F942A8401CD23200500232291
:105940002501310508C4138684068145EFA0BFBF39
:105950002285B240224492440249410182801C4D7A
:10596000A5E7411106C622C497070000938747FAAE
:105970001CD5938741829C432324050423260504D8
:10598000232805046314F50085471CCD2A84352897
:1059900048C022851D2808C42285052848C44840DF
:1059A00001469145EFF03FF008440546A545EFF06C
:1059B0009FEF48440946C945EFF0FFEE85471CCCF0
:1059C000B24022444101828082804111938741820A
:1059D00026C284434AC006C69C4C22C42A8981E759
:1059E0002685EFF0DFF7938484048044DC40FD17C4
:1059F00063D607009C40B9CF8440C5BF0317C400DD
:105A000039E7C177850723220406232004002322D7
:105A10000400232404005CC423280400232A040077
:105A2000232C0400214681451305C405EFA0BFB116
:105A3000232A0402232C040223240404232604041E
:105A40002285B240224492440249410182801304DB
:105A5000840671BF91454A85EFF0FFEB88C049FD90
:105A6000B1472320F9000144E1BF797122D44AD023
:105A700052CC56CA5AC85EC606D626D24ECE2A8AFE
:105A8000AE8A130485040149054BFD5B09ECB25055
:105A900022544A8592540259F249624AD24A424BF0
:105AA000B24B45618280044483294400FD1963D4CC
:105AB00009000040E1BFDE24637BFB008397E40024
:105AC00063877701A6855285829A3369A9009384FA
:105AD0008406E9BF411122C42A842E85B285368608
:105AE00097E7FF1F23A607DC06C6EF100010FD573F
:105AF0006319F50097E7FF1F938787DB9C4391C3EA
:105B00001CC0B2402244410182801971A6DAAE84E1
:105B10008395E500A2DC86DE328463DB0500DE24AB
