:040000006F00F02776
:100004000000000000000000080700000A070000CC
:10001400000000007C0A0000000000000000000056
:100024007C0A00007C0A00000000000000000000C0
:10003400E4230000000000000002000000000000B3
:100044007C0A00007C0A00007C0A00007C0A000094
:100054007C0A00007C0A00007C0A00000C070000F7
:100064007C0A00007C0A00007C0A00007C0A000074
:100074007C0A00007C0A00007C0A00007C0A000064
:100084007C0A00007C0A00007C0A00007C0A000054
:100094007C0A00007C0A00007C0A00007C0A000044
:1000A4007C0A00007C0A00007C0A00007C0A000034
:1000B4007C0A00007C0A00007C0A00007C0A000024
:1000C4007C0A00007C0A00007C0A00007C0A000014
:1000D4007C0A00007C0A00007C0A00007C0A000004
:1000E4007C0A00007C0A00007C0A00007C0A0000F4
:1000F4007C0A00007C0A00007C0A00007C0A0000E4
:10010400000000007C0A00007C0A00007C0A000059
:100114007C0A00007C0A00007C0A00007C0A0000C3
:100124007C0A00007C0A00007C0A00007C0A0000B3
:100134007C0A00007C0A00007C0A00007C0A0000A3
:100144007C0A00007C0A00007C0A00007C0A000093
:100154007C0A00007C0A00007C0A00007C0A000083
:100164007C0A00007C0A00007C0A00007C0A000073
:100174007C0A00007C0A00007C0A00007C0A000063
:100184007C0A00007C0A00007C0A00007C0A000053
:100194007C0A00007C0A00007C0A00007C0A000043
:1001A400000000000000000000000000000000004B
:0C01B4000000000000000000000000003F
:10020000130181F806C216C41AC61EC822CA26CC1B
:100210002ACE2ED032D236D43AD63ED842DA46DC76
:100220004ADECEC0D2C2D6C4DAC6DEC8E2CAE6CC46
:10023000EACEEED0F2D2F6D4FAD6FED8F3220030CF
:1002400096DA9702002083A2220123A02200F32540
:1002500010342EC09305000273A0458003A10182D3
:10026000EF20106B17030020032303FF032103007B
:10027000824273901234D652739002309240A2425E
:100280003243C2435244E244724582551256A2564A
:100290003257C2575258E25872598649164AA64AEE
:1002A000364BC64B564CE64C764D865D165EA65ECA
:1002B000365FC65F13018107730020301300000012
:1002C00013000000130000001300000013000000E2
:1002D00013000000130000001300000013000000D2
:1002E00013000000130000001300000013000000C2
:1002F00013000000130000001300000013000000B2
:1003000083A20182938202E07390023417010020DD
:10031000032181F4024182403243C2435244E24409
:10032000724582551256A2563257C2575258E25859
:1003300072598649164AA64A364BC64B564CE64C6D
:10034000764D865D165EA65E365FC65FD652A1020A
:1003500073900230A24213018107828013000000D3
:100360001300000013000000130000001300000041
:100370001300000013000000130000001300000031
:100380001300000013000000130000001300000021
:100390001300000013000000130000001300000011
:1003A0001300000013000000130000001300000001
:1003B00013000000130000001300000013000000F1
:1003C00013000000130000001300000013000000E1
:1003D00013000000130000001300000013000000D1
:1003E00013000000130000001300000013000000C1
:1003F00013000000130000001300000013000000B1
:10040000F322003093F272FF130380781203B3E2F9
:100410006200711523205500130585FA10C12115BE
:10042000232005009302000063870200711523203A
:100430000500FD12D5BF71150CC1828000000000BF
:1004400000000000000000000000000000000000AC
:10045000000000000000000000000000000000009C
:10046000000000000000000000000000000000008C
:10047000000000000000000000000000000000007C
:10048000000000000000000000000000000000006C
:10049000000000000000000000000000000000005C
:1004A000000000000000000000000000000000004C
:1004B000000000000000000000000000000000003C
:1004C000000000000000000000000000000000002C
:1004D000000000000000000000000000000000001C
:1004E000000000000000397101436EC619A0397187
:1004F00041536AC866CA62CC5ECE19A039710153F5
:100500005AD056D252D44ED64AD826DA22DC06DE4B
:1005100033016140828241114AC026C222C406C60C
:100520008282B24D4101024D924C224CB24B4101AC
:10053000024B924A224AB249410102499244224462
:10054000B240410182803D432A876373C30293779F
:10055000F700BDEFADE5937606FF3D8ABA960CC372
:100560004CC30CC74CC74107E36BD7FE11E2828036
:10057000B306C3408A069702000096966780A600DD
:100580002307B700A306B7002306B700A305B700EB
:100590002305B700A304B7002304B700A303B700E3
:1005A0002303B700A302B7002302B700A301B700DB
:1005B0002301B700A300B7002300B700828093F5A2
:1005C000F50F93968500D58D93960501D58D61B76E
:1005D000939627009702000096968682E78086FA17
:1005E0009680C1171D8F3E96E374C3F8A5B7336795
:1005F000B500FD530D8B79E7B7877F7F9387F7F7BA
:1006000010419441B372F6003363F600BE92B3E238
:1006100062006395720C6318D6065041D441B372E0
:10062000F6003363F600BE92B3E262006396720A8C
:10063000631BD60410459445B372F6003363F6008D
:10064000BE92B3E26200639F7208631ED6025045F9
:10065000D445B372F6003363F600BE92B3E2620093
:10066000639872086311D60210499449B372F60078
:100670003363F600BE92B3E26200639172085105E3
:10068000D105E30FD6F61317060193970601631CF5
:10069000F7001357060193D706013305F74093750A
:1006A000F50F91E982804183C1833305F74093754B
:1006B000F50F91E182801377F70F93F7F70F33056A
:1006C000F740828010219421050585056313D6002B
:1006D00075FA3305D640828011059105E314D6FEE4
:1006E000014582802105A105E31ED6FC01458280DB
:1006F0003105B105E318D6FC014582804105C105ED
:10070000E312D6FC0145828001A001A00945F52B2A
:100710000DC137150140894513050580D92D01C943
:10072000B7070020938707229843050798C3094518
:10073000E52B73002030EFF27FDC0564EF005058AA
:10074000B77900001304843837790000B7740000CB
:10075000138509F5EF4060412285EF201015130540
:1007600089F5EF4080400145EF00103F138504F606
:10077000EF40A03FF1BFEFF21FDAEF10304AB707AA
:100780000020B77500003705000029478146130691
:100790000008938545FD9387472213056573EF2075
:1007A0006027B707002003A58722EF20E046EF105F
:1007B000504861B3EFF23FD6411109458125412AE6
:1007C000EF20107E716513050520EF20907DB7079F
:1007D000002083A5871F37750000130585F6EF40BD
:1007E00080273D26AA8537750000130585F7EF4061
:1007F0008026B775000037750000938585F81305CE
:1008000005F9EF404025B72700009387870E3EC4C7
:10081000B72700009387272728003EC6EF10A06265
:10082000B7070020B77500003705000093878722BF
:100830000547814613060008938505FB1305657778
:10084000EF20401DEF20604A377400001305C4FB01
:10085000EF40A031E5BFB71702409843B706FFF05D
:1008600041111367170098C3D84337060200758FEC
:10087000D8C39843B706F7FEFD16758F98C3984303
:10088000B706FCFFFD16758F98C3D843B70601FF66
:10089000FD16758FD8C39843B70600ECFD16758F0B
:1008A00098C33707FF0098C723A6070202C402C6F1
:1008B0009843C166558F98C3B716024005679C429E
:1008C000F18F3EC6A24785073EC4B24781E7A247E3
:1008D000E397E7FEB71702409C431397E700635680
:1008E000070685473EC632478547631EF704B7179C
:1008F0000240D843B706C1FFFD16D8C3D843D8C3BA
:10090000D84313670740D8C3D843758FD8C3D8439B
:10091000C166558FD8C39843B7060001558F98C359
:10092000984393166700E3DD06FED843B7160240EE
:10093000719BD8C3D84313672700D8C32147DC4233
:10094000B18BE39EE7FE4101828002C669BFB71604
:100950000240D842B70700201146318B9387871F8A
:100960006305C70021466308C70237177A001307DB
:10097000072098C337170240584311839376F70036
:10098000370700201307070036971423984333577F
:10099000D70098C38280D842D442416649833D8BB8
:1009A000F18E1306270015CF3D47630FE60241473E
:1009B000630FE602454781456313E6004146A1E225
:1009C0003747024003270780418B0DC737177A004E
:1009D000130707203306C70290C3C9DD9843058378
:1009E00049BF81454946E1BF85453546C9BF814577
:1009F0003D46F1B737173D0013070790E1BF3715A4
:100A0000024058559316F700585563DF06041183CA
:100A10003D8B9306170037177A00130707203357CB
:100A2000D70298C35455A182BD8A8DE295463307FB
:100A3000D702058398C337170240585794433D8B1C
:100A4000050733D7E60298C3984369B70545639411
:100A5000A600E546E9BF3D456396A600D14633872B
:100A6000E602C9BF8906E5BF3D8B9306170037171D
:100A70007A00130707203357D702F1B701A0970177
:100A800000209381A1F717F101201301A1571775D9
:100A900000001305A5C297F5FF1F9385A556138681
:100AA000818263FAC5008322050023A05500110549
:100AB0009105E3EAC5FE17F5FF1F1305A5769735E7
:100AC00000209385A5DE6377B5002320050011057E
:100AD000E36DB5FEFD42739002BCFD42739042800F
:100AE000B7820000938202807390023097F2FFFF7A
:100AF0009382825193E2320073905230EFF0BFD56F
:100B000097020000938242CB73901234730020301E
:100B1000B7F7FF1F03A5477082801C414167791713
:100B2000F98F1CC123200500232205002324050082
:100B3000B707024023260500138787006317E500E7
:100B4000D8431367F700D8C382801387C7016316A1
:100B5000E500D8431367070FFDB713870703631832
:100B6000E500D8438566938606F0558FE9BF138765
:100B700047046315E500D843BD66C5BF13878705E5
:100B80006316E500D843B7060F00C5B71387C7063D
:100B90006316E500D843B706F000C1BF1387070806
:100BA0006316E500D843B706000FC1B71387874027
:100BB0006319E50003A747401367F70023A2E74046
:100BC00082801387C7416317E50003A74740136777
:100BD000070FEDB793870743631BF500B707024084
:100BE00003A747408566938606F0558FC1BFB707B8
:100BF0000240138747446316E50003A74740BD66DC
:100C0000EDB7138787456317E50003A74740B7068D
:100C10000F00E1BF1387C7466317E50003A74740EE
:100C2000B706F000D9B7138707486317E50003A795
:100C30004740B706000F55BF138707496319E50002
:100C400003A7474D1367F70023AAE74C8280138759
:100C5000074A6317E50003A7474D1367070FEDB772
:100C60001387074B6319E50003A7474D85669386F5
:100C700006F0558FD1BF1387074CE319E5FC03A796
:100C8000474DBD66FDB71C4161773D0794517D8F8F
:100C90009C45D58F9449D58FD449D58F944DD58F08
:100CA000D44DD58FD451D58F9455D58FD98F1CC1A4
:100CB000DC455CC19C411CC5DC415CC582801C419B
:100CC00089C593E717001CC1828041677917F98FA6
:100CD000DDBF4CC18280484142054181828093172B
:100CE000350063D70700B707024023A2A7408280E0
:100CF0009317250063D70700B707024023AAA74C24
:100D00008280B7070240C8C38280B70701401387BB
:100D1000074083A70740584B698F09C77D8D33353E
:100D2000A000828001458280B707014023AAA74026
:100D300082809C4513F7070113F8F70001C7D841DB
:100D40003368E8008E2113F7F50F39C31841814647
:100D5000854E3D4F930F800293028004214E3396BF
:100D6000DE00B3F8C5006311160393982600331311
:100D70001F011343F3FF3377E300B318180133E780
:100D8000E800639FF70550C98506E39AC6FD18C1C0
:100D90001307F00F6375B70454412146854E3D4F4C
:100DA000930F800293028004414EB398CE0033F734
:100DB00015016392E8021317260001173313EF00A1
:100DC0001343F3FFB376D3003317E800D98E639D46
:100DD000F701232A15010506E319C6FD54C18280D7
:100DE000E39457FA10C94DB7E39757FE232815012E
:100DF000DDB708456D8D3335A0008280B707002030
:100E000023A6A7228280371702405C439146B18B0C
:100E10006385D700A1466382D706B7177A00938708
:100E200007201CC1371602405C4237070020130719
:100E300007019183BD8BBA9794231C41B3D7D70088
:100E40005CC15442A1829D8ABA969422B3D6D7003F
:100E500014C55442AD829D8A36971823B3D7E70054
:100E60005CC55842398393763700138741803697A3
:100E70001823B3D7E7021CC982805C435843C1667C
:100E8000C983758FB7F6FF1F83A6C670BD8B890710
:100E90001396160163480600C54601466392D702C1
:100EA000C94739A88946638FD702BD46638ED702EA
:100EB000C146638ED702C54601466393D700C1473A
:100EC0001DEF3747024003270780418B05C73717BF
:100ED0007A0013070720B307F7021CC121D61C4173
:100EE000858381B701466DBF0546B547D1BF014631
:100EF000BD47F9B737173D0013070790E9BFB7158E
:100F00000240D8559316F700D85563DF06041183C5
:100F10003D8B9306170037177A00130707203357C6
:100F2000D70218C1D455A182BD8A8DE295463307F8
:100F3000D702058318C137170240585714413D8B1B
:100F4000050733D7E60218C1184171B78545639488
:100F5000B600E546E9BFBD456396B600D146338786
:100F6000E602C9BF8906E5BF3D8B93061700371718
:100F70007A00130707203357D702F1B799C53717FF
:100F800002405C4B5D8D48CB8280B7170240D84B46
:100F90001345F5FF798DC8CB828099C5371702407C
:100FA0001C4F5D8D08CF8280B7170240984F1345C4
:100FB000F5FF798D88CF828099C5371702405C4F45
:100FC0005D8D48CF8280B7170240D84F1345F5FF9B
:100FD000798DC8CF8280EFF20FD41629F577FD17EF
:100FE000F58FF621DA257971D58F1EA95625FD7763
:100FF0009387379FF58FD6212A842EC6D58F9625C5
:10100000D58FB625D58F5EA55E29C207C18393F71C
:10101000F7CFD98F5EA96808FD33B74701409387A2
:101020000780B245631EF402A2576547B387E70203
:101030009841930640060A07B3D7E70233D7D70291
:10104000B3F7D7021207920793872703B3D7D702C4
:10105000BD8BD98FC207C1831EA445616FF0EFCD50
:101060009257E1B791C55E250967D98F5EA5828049
:101070005A25F977FD17F98FD5BF5E2901C6DD8D99
:101080004EA9828093C5F5FFFD8DDDBF93F5F51F59
:101090004EA182800A216D8D3335A0008280EFF24F
:1010A0008FC7011185451305000439378545414532
:1010B000ED3585477C828D473EC44C00E1473715AE
:1010C00001403EC6BD3189477C824C0093078004B5
:1010D000371501403EC6B139F16737240040938788
:1010E00007203EC80C08B7070C00130504803ECC4F
:1010F00002CA231E0100C535370502408545130588
:101100000548753E854513050480A93F05616FF0CC
:10111000CFC2EFF24FC07971854509458535370457
:1011200002401305C446D53AB7270040938747804D
:101130003EC2B7070020938707233EC4C1473EC67F
:10114000930700083ECC4C008D671305C4463ED47F
:1011500002C802CA02CE02D002D202D62D36B7078A
:1011600000209387C72A3EC4930700403EC84C0026
:1011700093070002130504483ED202C62936456192
:101180006FF0AFBBEFF22FB9370402402A89130585
:10119000C446AE84893615E5370500200905813639
:1011A0001305C4468145213E1304C4462326240169
:1011B000A6852285393E22858545113605456FF085
:1011C000CFB70145EDBFEFF20FB52A8437050240D6
:1011D0004111130505482EC6FD3C13070040B70713
:1011E0000020098F83D62723420741830145638569
:1011F000E602B245370600209387272301451306F0
:10120000C62A9308F03F96236388E6001318050169
:10121000135808016365B80041016FF00FB2B29630
:1012200094223308A4002300D80096238506C20622
:10123000C18263E5D80096A30505F1B723900700A6
:10124000E5BFEFF24FAD8145B307B50083870700D7
:1012500081E70D3F6FF06FAE8505C205C181EDB727
:10126000EFF26FAB3705024013050548AD34930725
:101270000040370700203385A74003572723420546
:1012800041816367E500198D420541816FF0EFAA46
:10129000998F3E95D5BFEFF20FA823000500A3005C
:1012A000050023010500A30105002A84553F19C943
:1012B000AA852285093F37750000A285130585FAA6
:1012C000EF3060796FF06FA7EFF2EFA49D6783D7DF
:1012D00007B56D712A842EC61306E00F81451305EC
:1012E0002101FC80EFF02FA6B246B77500002286E0
:1012F000938585150808EF30100C0808993775DDBF
:101300001305401FEF10705A51616FF00FA3EFF2F9
:101310008FA09D6783D707B56D712A842EC61306EB
:10132000E00F814513052101FC80EFF0CFA103A759
:101330008180B246B775000022869385C5120808E1
:10134000EF3070070808F53D75DD1305401FEF10FD
:10135000D05551616FF06F9EEFF24F9A9D6783D722
:1013600007B5130101DF1306E00F814513052111B5
:101370002318F110EFF02F9DEF009050377600000A
:10138000B77500001306060C9385450C2A84EF0000
:10139000704C37760000B77500001306860C9385F5
:1013A000C50C2285EF00104BEF00904DB775000083
:1013B0002A892A869385450D2285EF00F03AEF00B1
:1013C000304CB777000003A6870A83A6C70AB77414
:1013D00000009385C40DAA89EF003042B775000064
:1013E0004E869385450E4A85EF001038EF00504930
:1013F000B777000083A6470B03A6070B9385C40DA0
:10140000AA89EF00903FB77500004E869385850F3F
:101410004A85EF0070359385C40D4E85EF00F0339B
:10142000B777000083A5870B03A6C70BEF00902BAF
:101430002285EF00D0312A89EF30207381469387CF
:1014400016003307F9000307F7FF93F4F60F3DE7A3
:1014500093F6F60F37750000B6851305451036C6AE
:10146000EF30605F2285EF00902EB24603A6C18068
:10147000B77500002A899385C5100808EF30A0735E
:101480000808C13375DD13054006C204EF10F041B2
:10149000C180A6854A85FD316DDD1305401FEF1023
:1014A000D040080ACD3B2285EF00901E4A85EF0010
:1014B000505C0145130101216FF08F87BE8641B753
:1014C000EFF26F859D6783D707B5130101C013063F
:1014D000E03F8145130521007C80EFF0CF86153970
:1014E0007D3E3725004005469305000C1305058019
:1014F0006936377400008D45130544FE613165FD82
:1015000013054006EF10703A37740000914513053B
:1015100084FE8D3913054006EF103039B774000092
:10152000138504FF393B6DDD13054006EF10F037DE
:10153000B77400001385040029336DDD13054006E0
:10154000EF10B0369145130584FE2D391305400682
:10155000EF10B035377500009945130545011D3171
:1015600013054006EF107034377400001305C401F2
:10157000C9396DDD13054006EF10303337740000B4
:101580001305C4027D393DC9377400001305C40337
:101590004D396DDD13054006EF103031B775000091
:1015A000377500009385C50413058505313B130588
:1015B000803EEF10902F0A85F93913054006EF1091
:1015C000D02EB775000037750000938545061305CA
:1015D0000507353B1305401FEF10302D3774000011
:1015E00013058407B9396DDD1305803EEF10F02B2C
:1015F0000A855531130101406FE03FF41305401F88
:10160000EF10B02AB5BF19CD1C4189CFEFE2BFF072
:1016100004452A8433859700EF30606F269508C40F
:101620006FE0BFF18280EFE21FEF05CD044199CC5E
:101630005C4181C718456376F70263C4050218450B
:10164000138915003A9963E62701BA9426856FE05D
:10165000DFEE1C4999E7B70700406366F900635560
:1016600009028144E5B706091C512A849DC32685D9
:10167000CA858297AA8415ED5C4C08408297232284
:10168000040023200400D9B7370900801349F9FF6B
:10169000E1BF1C4D4A858297AA840C4001E55C4C51
:1016A0002E85E9BF10440506EF3080165C4C0840DB
:1016B00082971C4404C023222401BE9441BFEFE260
:1016C000FFE341CDD9C9AE8900453DEE854A51C4FD
:1016D0000329040263070906630F39074E8B034A87
:1016E0000B00EF30000D52951C318D8B6394570128
:1016F000130A0A0283440900EF30A00B2695183123
:10170000A6870D8B631457019387040283440B0053
:101710006309FA04EF30E00926951C318D8B639440
:1017200057019384040203490900EF3080084A9569
:101730001831CA870D8B6314570193070902638C14
:10174000F400004069B7004009C80C5089C54E85B7
:10175000EFE0FFE96DF91C5091E3014422856FE051
:101760003FDDF5D8050B05099DBF814799C911C912
:101770006389A500184501EB0CC5CCC123A0050069
:1017800085473E85828054438547E5DE8CC2D4C1BF
:101790004CC3C5BF99E501458280014541016FE019
:1017A0005FD8EFE25FD4AA8441112E85C9E08D4550
:1017B0009D3D65D5B775000093858526EF30205493
:1017C0000545E9BF63EDF60463F86700138787FFFB
:1017D0001377F70F6369EE04050905061C22FDF374
:1017E000058E4A969305360032C6353D5DD53246A4
:1017F00013041500130A1600930926002A9AAA99C1
:10180000631209041309200223002501A6852285FD
:10181000EF30000023002A012380090055B7E38D33
:1018200007FBE38B17FBE3EAF5FA15097DB726867C
:101830000149B546FD45130820029308C005314310
:10184000094E69BF930720021CA1FD4B130CC00574
:10185000314B930C6006377D000013092002930A78
:10186000C005B54D9C2091E7930720022300FA00A4
:1018700065B763FCFB00638A2701638857011CA0DE
:101880002285850413041500F1BF230084019020F4
:101890001305140063006605636FCB00A547630161
:1018A000F604A947630BF602A147631EF6029307ED
:1018B00020061CB0F9B7630C2601630756016314B8
:1018C000B60393072007F5B7A30054015DBFA3003B
:1018D000240145BFA30094016DB79307E006D1BF73
:1018E00093074007F9B79305CD26EF30C02C1305B9
:1018F000540041BFEFE23FC2AA87130580028297DE
:101900002A8411C5130680028145EFE0DFC32285DA
:101910006FE0BFC2EFE23FC0411101441DC12AC6C2
:10192000EF30E03EB707002083A70702130615003B
:10193000328532C482972A8409C52246B245EF20F7
:10194000306D228541016FE05FBF19E5014582805E
:10195000014541016FE07FBEF5D9EFE2DFBB4111E8
:1019600032847DD62A89E305C5FE9DC6444693E4AC
:1019700004205C4493F7072091EB085001C9B70796
:10198000002083A747022EC68297B2450CD044C4DC
:10199000A2854A85D93B75BF2E85AD3FAA854DD915
:1019A000444493F4F4DFF1B719E101458280EFE29A
:1019B0001FB439712E848DC15C252147AA846383AD
:1019C000E70A634FF70009476385E7081147638D0E
:1019D000E70405476386E706014521616FE0BFB470
:1019E000130700026386E71E6348F7004147E3954B
:1019F000E7FE08494533D5B7130700046389E72696
:101A000013070008E39AE7FC084979D5EF30203046
:101A100013061500B285228532C6313155DD3246B6
:101A20008C48EF20F05E19A895452285ED3E4DD5F6
:101A3000B775000093858528EF30602C054571BF90
:101A400099452285CD3649D9B7750000938505297A
:101A5000E5B795452285C13E41D1B7750000938514
:101A60008529D9BF032985018329C5016946814597
:101A70004810EFE05FAD4A86CE864A85CE8502CC1F
:101A800002CEEF20903A15E9B777000003AB872725
:101A900083ABC727139A1900135A1A005A86DE8699
:101AA0004A85D285EF20703831E55A86DE864A8530
:101AB000D285EF10106D635FA002B77500009385AB
:101AC00085284810EF30A0239144E547E3E697F0DE
:101AD000938514002285813EE30005F081471307BA
:101AE000E002639BF40C2695230005001C44BE9481
:101AF00004C4A9B7C4482685EF20703D2A86AE8667
:101B00004A85CE85EF10705619E9B7750000268614
:101B10009385052A4810EF30000AAA847DB7B7756F
:101B200000004A86CE869385452A4810EF30A008EB
:101B3000B7750000AA8430089385C52A4810EF3095
:101B4000E00B85476310F506724C624B4A85931A89
:101B50001C0093DA1A005A86D686D285DA8BEF10EB
:101B6000506263440500CA8BD28A4A86CE865A8563
:101B7000E285EF20E037B777000003A6072883A6A9
:101B800047282A8B139A15005E85D685EF10D06AF8
:101B9000135A1A002A86AE865A85D285EF10705ED7
:101BA000E355A0F2B77500004A86CE869385052BD3
:101BB0004810EF30400095B75410BE969022B306FF
:101BC000F5006315E60098A2850721BF90A2EDBF3E
:101BD0000329850085452285EFF0FFA4E30E05DE8D
:101BE0009307B0051CA11C449309C002130A00020C
:101BF00085071CC45C4485075CC4631109028945E0
:101C00002285EFF05FA29307D005E30705DC1CA156
:101C1000A30005005C44FD175CC40DB5A2854A8590
:101C20006133E30B05DA2285EFF0FF9D832709007E
:101C30009DC744482285B3349000850493851400E1
:101C4000EFF07F9EE30A05D8230035015C4899EB4D
:101C500093071500238007001C44BE9404C4032985
:101C6000090061BF93072500A3004501E5B703A95B
:101C700045010445228533392001050993051900E2
:101C8000EFF07F9AE30A05D49307B0071CA15C44E8
:101C900085075CC45C4899C3A9471CB11C44A5498D
:101CA000130AA0033E9923242401930AC002294B5E
:101CB0005C4899EC894599C34C4485052285EFF031
:101CC0009F96E30B05D05C48E9EB9307D00781B7FB
:101CD00091CF4C442285EFF01F95E30F05CE81474D
:101CE000584463ECE7081C44BA971CC48850A2858A
:101CF000EFF05FAAE30205CE2285EFF0DF90032923
:101D000044012285333920010509CA85EFF0BF91CE
:101D1000E30405CC230045015C4899C3A3003501C9
:101D20001C44A28526853E9923242401B539E30568
:101D300005CA2285EFF03F8D9C400329440122858E
:101D4000B337F000333920013E9993051900EFF0C5
:101D50009F8DE30305C89C4081C7230055010505FD
:101D60005C4881C7230065010505230005001C446C
:101D700084403E992324240125BF3307F500230026
:101D800037018507B1BF90A285075844B306F50017
:101D90007D17E3EAE7FE36850DBF81472546F5B797
:101DA000EFE2CFF5797113064002AE892A898145A9
:101DB0006800EFE04FF9B704002083A70402130581
:101DC000001082972AC693070010938504022A8484
:101DD000314648103EC84ED093840402EF20502371
:101DE0000DC06C004A85EFF03FBC01CD6800EFF0FC
:101DF0009F819C44D24589CF3245850582972A84AC
:101E00001DED32440DCCDC4022850144829705A8AB
:101E10009C401385150082972A8465D55246C24797
:101E2000050663F3C7003E86B2452285EF20501EAB
:101E3000D247A29723800700DC4032458297228553
:101E400045616FE0EFEEB7070020B74600009387CB
:101E500007029386A67C3747000094C31307477D8B
:101E600001E9D8C337570000130767B798C705A023
:101E7000104111C290C35041D8C311C2D0C3904386
:101E800023A407006315D600D443E38DE6FC8280CB
:101E9000EFE26FE8B70400202A849384040219E07B
:101EA0006FE0AFE95C440329040093F7071089E76A
:101EB000084405E1084805E55C4493F7072089E7F5
:101EC000085019C1DC408297DC4022854A84829701
:101ED000F9B77D3F5C4493F70710E9DFF1BFDC40C1
:101EE0008297D9BFEFE22FE3B7770000B28483A6D1
:101EF000C72503A687252A892E842E85A685EF105F
:101F0000701D63400502B707008093C7F7FF232ABF
:101F1000F900232C8900232E99002285A6856FE0E5
:101F2000CFE1B777000003A6072683A647262285C0
:101F3000A685EF1010256345A000B7070080C1BF3C
:101F40002285A685EF202072232AA900D9B7EFE2C7
:101F50008FDC8145B1356FE04FDEEFE2CFDB01462C
:101F6000EFF0EFF56FE06FDDEFE2EFDA8146EFF0D3
:101F7000DF9D6FE08FDC4111B70700204AC22A893C
:101F800003A5070222C44EC006C6AE89EFF09F9695
:101F90002A8405C9A1475CC5B777000003A6872539
:101FA00083A6C725232C2501232E3501CE854A85FE
:101FB000EF105012634E0500B707008093C7F7FF7C
:101FC0005CC82285B2402244124982494101828084
:101FD000B777000003A6072683A647264A85CE8545
:101FE000EF10301A6345A000B7070080D1BF4A85C3
:101FF000CE85EF20406748C8E9B7EFE2CFD1AA8489
:102000002E893285B685853F2A842A868146CA85EF
:102010002685EFF09F9301E522859D3D01442285B1
:102020006FE0AFD1EFE22FCFB7070020AA8403A55E
:102030000702EFF03F8C2A8419C9C1475CC5268589
:10204000EFF05F8D08C801E52285993501442285AE
:102050006FE0AFCEEFE22FCC4111AA8432852EC6BD
:10206000D137B2452A842A8681462685EFF0FF8D36
:1020700001E52285313D0144228541016FE0EFCB2E
:10208000EFE26FC9B707002003A50702EFF09F86B4
:1020900001C5930700045CC56FE02FCAB707002095
:1020A0009387C7249843636FA702D043B386C700C2
:1020B0006316D50054413E85B296D4C35041B30651
:1020C000C500631CD700B706002083A6462363061D
:1020D000D70054431843B29654C118C16303F500A6
:1020E00088C38280BA877DBFEFE24FC141112AC603
:1020F000EF00D048B706002083A74623370600200C
:1021000093864623130686233245A1EF3707002026
:102110009307C76A93F5F7001307C76A81C513874A
:10212000F700419BB70500209385C52423A2050035
:1021300098C18D65C115AE97C19B23A2070023A04E
:102140000700B385E7409CC21CC3B707002023A04B
:10215000B724B707002023AEB722B70700804CC3CF
:102160001CC2032A0600B377AA0085E39307F5FF94
:102170003957636CF7009307050113F7F70041C364
:1021800013F707FF410763EBE706814489A0228725
:102190002E8461A058C15CC011375840B70600209A
:1021A000938606249042B307E94023A0F90063F325
:1021B000C7009CC2B70700203367EA009387472413
:1021C00058C09843C10423200400050798C3EF00BA
:1021D000505793F7F400D1CBA16793870780739092
:1021E000073037760000377500001306862B9305FD
:1021F00000111305052EEF20100601A0BA8737073E
:1022000000200329C7239309C723E360F9F83707A0
:1022100000200324C7241307C72450406374F6002A
:102220000C40B5F59442E38286F61440044314C38F
:102230003307F64093060002E3F1E6F63305F400B7
:102240009376F500A1DAA167938707807390073032
:1022500037760000377500001306862B9305F00CC7
:102260001305052EEF20207F01A0268541016FE098
:102270002FAC55C1EFE22FAAB7070020032745FF77
:1022800083A787232A84B376F7009DE2A16793870B
:10229000078073900730377600003775000013060B
:1022A000862B930540121305052EEF20C07A01A05E
:1022B000832605FF9DC2A16793870780739007302F
:1022C00037760000377500001306862B93055012F1
:1022D0001305052EEF20207801A093C7F7FFF98F93
:1022E000232AF5FEEF009029B70700209387C72324
:1022F0009443032744FF130504FF369798C3793BA3
:10230000B7070020938787249843050798C3EF00F9
:1023100050436FE08FA28280B7E700E041572387E8
:10232000E7402386E740B7F700E023A0070023A299
:102330000700814694C70147D8C737070020832587
:10234000871F1307803E814633D6E5023D4790CB79
:10235000D4CB98C38280EFE20F9C411102C6F327D1
:1023600050303EC6B2470D478D8B6384E702A167AC
:102370009387078073900730377600003775000029
:10238000130646309305600B1305052EEF20A06C55
:1023900001A0B707022093870700BD8B9DC3A167EB
:1023A00093870780739007303776000037750000F9
:1023B000130646309305B00B1305052EEF20A069D8
:1023C00001A0993FB7E700E0056723A0E710116778
:1023D00023A0E71023A80180EFD09FF2014541011F
:1023E0006FE0AF9573110134A167938707807390F5
:1023F0000730B7F700E023A20700EF00D01911C59E
:10240000B7E700E0116723A0E720A16793878788DB
:10241000739007307311013473002030A1679387E4
:10242000078073900730938701819843050798C30D
:102430008280138701811C438DE7EFE2CF8DA16776
:102440009387078073900730377600003775000058
:1024500013064630930520101305052EEF20A05FCC
:1024600001A0FD171CC391E7A1679387878873902C
:1024700007308280930785007D575CC118C55CC515
:102480001CC92320050082802328050082805C412E
:102490009847DCC198C598474CC38CC71C4188C974
:1024A00085071CC182809841FD5693078500631EF5
:1024B000D7001C49D843D8C10CC79CC5CCC31C410C
:1024C00088C985071CC18280B687D4439042E37DCA
:1024D000C7FECDB7544118451C4998C654C3D443D0
:1024E0006393A600D8C39843232805007D1798C39B
:1024F00088438280EFE22F8241112AC60537324598
:10250000005D053F1335140041016FE00F8330413A
:1025100015C2EFE24F8058451445AA87329758C537
:102520006364D700184158C52E85CC47EF20402E54
:102530006FE0AF808280EFD21FFE2A84C5358344CE
:10254000540413094402E204E18463459002FD57F8
:10255000A302F404F93DD93583444404130904016A
:10256000E204E18463449002FD572302F404D13570
:102570006FD0BFFC5C50E1DF4A85EF00F04E19C11F
:10258000EF00506BFD14E204E184C1B71C48E9DFA1
:102590004A85EF00704D19C1EF00D069FD14E204C7
:1025A000E184C9B7EFD23FF741111DE1A1679387DD
:1025B00007807390073037760000377500001306E8
:1025C000C632930500111305052EEF20C04801A067
:1025D0005C5D2EC62A84BDC33841B3B7E702B9EFAC
:1025E000353D3040585C1440232C0402B307E6020A
:1025F000B24554C03387F600918FB6975CC4FD573F
:102600002302F40418C4A302F40495E11C4899CBF6
:1026100013050401EF00504511C5B7E700E011674D
:1026200023A0E7203935054541016FD01FF113057F
:102630000401893513054402353DEDB7A167938741
:102640000780739007303776000037750000130657
:10265000C632930550141305052EEF20C03F01A08C
:10266000EFD27FEB411129C1B3B7A502AA848DEF48
:102670003305B502930770FB63E8A70213058504D1
:102680002EC6EFF07FA62A8401CDB245AA8799C154
:10269000930785042CC01CC044DC8545228519376E
:1026A000228541016FD07FE9A167938707807390EE
:1026B000073037760000377500001306C6329305E1
:1026C000601C1305052EEF20003901A0EFD23FE278
:1026D000011132C61DE1A16793870780739007300F
:1026E00037760000377500001306C6329305105583
:1026F0001305052EEF20203601A02A84AE898DE532
:102700003C419DC3A167938707807390073037765C
:102710000000377500001306C632930550551305A7
:10272000052EEF20403301A0EF00905115E5B24790
:10273000014985C7A1679387078073900730377673
:102740000000377500001306C6329305A055130527
:10275000052EEF20403001A001497D5A930A440222
:1027600037EB00E0916B8DA8B24789E7EFF07FCCA3
:10277000014561A8631509002808EF00B03DEFF09E
:102780005FCBED2BEFF09FC983474404E207E1875D
:10279000639447012302040483475404E207E1875A
:1027A00063944701A3020404EFF0BFC86C0028083B
:1027B000EF00B03B25E52285EFF0DFD331C9B2450C
:1027C0005685EF00901E2285EFF0FFD6EF00607770
:1027D00019E123207B210549EFF05FC4045CC9D4D3
:1027E000CE852285FD14EFF09FD204DC1C4899CBE6
:1027F00013050401EF00502711C5B7E700E011678A
:1028000023A0E720EFF0FFC2054505616FD0BFD1DF
:102810002285EFF05FD2EF00C07275BF2285EFF026
:102820009FD1EF0000722285EFF0DFCC4DD589B744
:1028300015E5EFD25FCEA1679387078073900730CD
:10284000377600008565377500001306C63293851C
:1028500085AC1305052EEF20002001A09DCD373655
:1028600000209306C66A814701471306C66A2148BD
:1028700083A846006398A80093173700B2978CC3CB
:10288000C8C321A891E783A8060063930800B68710
:102890000507A106E31E07FDFDF38280EFD2BFC747
:1028A00041112A842EC632C4EFF05FB78347440437
:1028B0007D572246E207E187B2456394E700230291
:1028C0000404834754047D57E207E1876394E700DB
:1028D000A302040432C62EC4EFF0BFB51C5CA245AF
:1028E000324689E713054402EF00B0102285EFF06D
:1028F0009FC441016FD07FC437070020130787258D
:102900001C439443B70700209387872781E67D57B0
:1029100098C38280184358471843DDBFEFD21FBECB
:1029200037090020B70700209304492583A9872889
:102930002A849C4088404111A388070411052EC6B3
:10294000EFF05FB97D5793074925B245631CE40258
:1029500095C9B7470020938747859440D84398C6C8
:1029600010479440D0C694401047910654C29440FA
:10297000910614C798405CCB9843050798C3410162
:102980006FD01FBB98434E9440C3637B340137071D
:1029900000200325C7258C439105EFF0DFB0C5B7B4
:1029A00037070020032587258C439105EFF0BFAF43
:1029B000B7070020938787279843E372E4FC80C31E
:1029C0007DBFEFD2BFB337440020B7090020130406
:1029D0008486370A0020938449269C40EDDFEFF07F
:1029E000FFA35C4403A9C70013054900EFF09FAEA5
:1029F00013070A261C43FD171CC39C40FD179CC0EF
:102A0000EFF03FA303250903EFF0BF864A85EFF0FF
:102A10005F86D1B7EFD2BFAD13192600AA8A4A85C7
:102A20002E8A368BBA8BBE89EFF00FEC1DC1AA84BB
:102A300013054005EFF04FEB2A8409C904D98147FB
:102A4000C146631A0A00230A050225A02685EFF075
:102A50005F827D5565A23307FA000307070033063E
:102A6000F400230AE60201C78507E396D7FEA30117
:102A70000404B94763F47703A167938707807390D1
:102A800007303776000037750000130606349305CB
:102A900070391305052EEF10107C01A0130A4400B5
:102AA0005285232674032322740523240404EFF0A3
:102AB000BF9D13058401EFF03F9D3D471305C9FFFE
:102AC00033077741269500C818CC40D0230604046C
:102AD000A306040423070404A3070404230804042E
:102AE000A30804045A86D6854199EFD07F9108C087
:102AF0006384090023A08900EFF05F92B7070020EC
:102B0000938707269843B7040020B73900200507AC
:102B100098C3138744251843938444251389C96EA9
:102B20006310070E80C0984385476316F7069389A4
:102B3000C96E930AC9124E85D109EFF0BF93E39C89
:102B40003AFF37450020930A858113058581EFF010
:102B50007F92374500209309C5821305C582EFF0A7
:102B60007F913745002013050584EFF0BF9037456E
:102B7000002013058586EFF0FF8F374500201305F1
:102B80004585EFF03F8FB707002023AC5725B707E7
:102B9000002023AE3725B70700209387C726984328
:102BA000050798C337070020130707275C54144311
:102BB00063F3F6001CC35147B387E702CA97D843B3
:102BC000144718C454C4144723A2460123244701C0
:102BD00098435CC8050798C3EFF0BF85B70700208E
:102BE00083A74728054599CB9C40D8575C54637709
:102BF000F700B7E700E0116723A0E7206FD0BF928E
:102C0000B707002083A74728D9F79C40D8575C54C2
:102C1000E3E3E7F880C041B7EFD2FF8F2A84B7041F
:102C20000020EFF0AFFF9384442511E080401309AA
:102C300044004A85EFF01F8A1C5489C7130584019C
:102C4000EFF05F89B70700209387C72698430507F1
:102C500098C39C40639A870637450020CA851305B0
:102C60008586EFF0DF82B7070020938747269843D9
:102C7000050798C3EFF0EFFB9C4063888700085876
:102C8000EFF02FDF2285EFF0CFDEB707002083A71C
:102C90004728B1CB9C4063988704B707002083A7DF
:102CA00087268DCFA167938707807390073037768B
:102CB000000037750000130606349305C04D130558
:102CC000052EEF10505901A0B70700209387072663
:102CD00098437D1798C3EFF03FC269BFB7E700E0A4
:102CE000116723A0E7206FD05F85EFD2DF82B7079F
:102CF0000020B7750000373500009387472701474C
:102D0000814613060010938545351305259CEFF089
:102D10007FD00544631E8502EF009022631A85026E
:102D2000A1679387078073900730B70700207D570E
:102D300023ACE726B707002023A2A728B707002067
:102D400023A40728EFF02FE183A741816FD0EFFE86
:102D5000FD57E31BF5FEA16793870780739007304B
:102D600037760000856537750000130606349385B5
:102D700005841305052EEF10104E01A0B7070020A3
:102D8000938787269843050798C38280B70700205A
:102D900003A587288280B707002083A78726639929
:102DA0000718EFD24FF7B707002093878728804393
:102DB000050480C321ECB70700209387872598433B
:102DC000184305C7A167938707807390073037764C
:102DD000000085653775000013060634938575ACD1
:102DE0001305052EEF10304701A037070020130709
:102DF000C7259443104390C3B707002014C393879B
:102E0000C7279843050798C3EFF01FAF3706002088
:102E1000930786279C4337370020B7050020130609
:102E200086271307C76E9385452501456375F40210
:102E30009C41D146DC57B387D7023E97184385475C
:102E400063F3E7000545B707002083A7C72891C3B0
:102E500005456FD08FEE370E0020B70E0020514F82
:102E600093078E259443944281E6FD571CC2C9B74F
:102E70009C43DC47DC47D4436374D40014C24DBF89
:102E800083A8870003A8C700D44B1383470023A45B
:102E900008012322180183A846006394680023A236
:102EA000060103A8060023AA07007D1823A0060137
:102EB000945795CA03A8C70183A8070283AF4600A9
:102EC0002324180183A8070223A20801138887017D
:102ED00063940F0123A2160103A8060023A407028E
:102EE0007D1823A0060193860E2703A8C70283A896
:102EF000060063F4080123A00601B306E803BA96AE
:102F000083A8460083AF880023A4170123A6F701F6
:102F100083AF880023A26F0023A46800D4CB9C4217
:102F200085079CC29C41DC57E36CF8F205450DBF58
:102F3000B70700209387072898430145050798C3E2
:102F40008280EFD2AFDB37040020130484261C40BC
:102F5000411185E7A1679387078073900730377623
:102F60000000856537750000130606349385358BA0
:102F70001305052EEF10302E01A0EFF02FCA1C40D4
:102F8000FD171CC01C4089CB01452AC6EFF06FCA53
:102F9000324541016FD0CFD9B707002083A707265C
:102FA000E5D7B74600203735002081479386068451
:102FB000370F00201305C56ED14837030020370EA8
:102FC0000020854E59A8DC46DC47CC4F90539857DB
:102FD00090C503A807022322B80003284700938561
:102FE00087016313B80050C3104323A407027D1662
:102FF00010C38C47D047D84B1388470090C54CC2AC
:103000004C436393050150C3104323AA07007D1668
:1030100010C313070F27D0570C4363F3C50010C329
:10302000330716032A974C4383AF85008CC723A62A
:10303000F70183AF850023A20F0123A405010C43F0
:10304000D8CB85050CC3130743251843585763662F
:10305000E6001307CE282320D70198422DF799C305
:10306000EFF09F89B70700201387072804431384D4
:10307000072899CC370900208549EFF0DFD109C531
:103080009307C92823A03701FD14E5F82320040085
:10309000B707002083A7C728E38807EEB7E700E05B
:1030A000116723A0E7200545CDB519E5B7E700E096
:1030B000116723A0E7208280EFD2EFC5B707002079
:1030C00083A7872641119DC3A167938707807390CB
:1030D0000730377600003775000013060634930575
:1030E00090541305052EEF10101701A02AC6EFF01B
:1030F000FFC832458145EFF07F82EFF09FE411E594
:10310000B7E700E0116723A0E72041016FD0EFC2CD
:10311000B707002003A78726B70700209387C72893
:1031200001C7054798C3828023A00700B707002086
:1031300013870727184313860727B737002093877D
:10314000C76E5148B3060703B385D700884115C53C
:10315000C841A106BE964841C8C16314D500544178
:10316000D4C1D146B306D702B697DC43D447B707DC
:10317000002023AAD72418C2828015E7EFD2AFB966
:10318000A1679387078073900730377600008565C5
:103190003775000013060634938525C01305052EE8
:1031A000EF10700B01A07D1771BFEFD2CFB605E510
:1031B000A167938707807390073037760000856595
:1031C00037750000130606349385C5C11305052E17
:1031D000EF10700801A0B70700202E8483A54725B3
:1031E000E105EFF04FAC85452285EFF02FF36FD06E
:1031F000CFB4EFD24FB22A8705E5A1679387078046
:103200007390073037760000856537750000130628
:103210000634938525C51305052EEF10D00301A0B4
:10322000B70700209387472554432E858C4303A876
:103230008600D4CD8C4323A0050303A807008C4649
:10324000610823A2050103A807009C43610823A489
:10325000060198D71C4385071CC311C27D55B28552
:10326000EFF0CFEB6FD06FAD5C45DC4795E7EFD269
:103270008FAAA16793870780739007303776000085
:1032800085653775000013060634938525C8130538
:10329000052EEF10407C01A0D04F94539857938592
:1032A000870114C6D0C250436313B60054C31443FD
:1032B00023A40702FD1614C337070020032787261F
:1032C000D45725EF8C47D047D84B90C5D0474843BB
:1032D0004CC2938547006313B50050C3104323AA23
:1032E00007007D1610C33707002013070727104378
:1032F0006373D60014C351473386E6023737002084
:103300001307C76E32975043084690C7C8C7084690
:103310004CC10CC6D8CB1C43014585071CC3B7075D
:10332000002083A74725DC5763F8D700B7070020A4
:10333000054723A6E7280545828037470020130765
:10334000078450430846D0CF88D308464CC10CC6EA
:1033500098D7D1B7B707002083A7C7271CC1B707E5
:10336000002083A787285CC18280EFD2CF9A4111C9
:1033700005E5A167938707807390073037760000D3
:10338000856537750000130606349385D5CF130580
:10339000052EEF10406C01A085E5A167938707809B
:1033A0007390073037760000856537750000130687
:1033B00006349385E5CF1305052EEF10C06901A0F3
:1033C0002EC62AC4EFF08F8537070020B7070020EC
:1033D0001307472583A687281C432245B24583C788
:1033E000170599CB1C43A38807040544EFF06F84AD
:1033F000228541016FD06F949C417D570144E38742
:10340000E7FE370600200326C6270328050058419B
:103410006307C80063E5E60023A00500F9B733861B
:10342000E640E37BF6FE958FBA979CC1EFF09FF2E2
:1034300001446DBFB7070020054723A6E728828017
:10344000B707002083A74728054581CBB707002091
:1034500003A587261335150006058280EFD2AF8BB2
:1034600037040020EFE09FFB1304C4291C40B1E7A0
:10347000374500201309C5871305C587EFE09FFF77
:10348000374500209304058913050589EFE09FFE69
:10349000B707002023A827290146B7070020C14508
:1034A000114523AA9728EFF0AF9B08C019C5B7753F
:1034B000000093850538EFF0AFB7EFE09FF76FD0CE
:1034C000CF87EFD24F854CC108C9AA876362B60285
:1034D000184D158E0545637BE60093854700B707B9
:1034E000002003A54729EFE01FFC01456FD0EF84C2
:1034F0006375D6000545E3FBD5FE93854700B70706
:10350000002003A50729C5B7EFD2EF802A84AE8437
:1035100032890C4CA6864A86A6952285EFF07FFA62
:1035200019E16FD08F811C4C2285BE941C5082976C
:10353000CDB7EFC25FFEB707002083A7072941116F
:10354000AA84DC472EC6C04713054400EFE09FF86D
:1035500083474402324613F7470019CBA6852285DC
:10356000EFF09FFA1C502285829741016FC0FFFC4B
:10357000F99B2302F402FDB7EFC2FFF937040020E4
:103580009306042998421C4391EBB70700209387C8
:103590004729904398C390C26FC03FFA5C47FD55DE
:1035A0008843EFF01FF9E9BFEFC27FF41D694111B5
:1035B000B70A0020B7090020370B0020B70B002006
:1035C0001309C93583A70A29984329CBDC47814CC5
:1035D00003AC0700EFF08FFAEFF04FFB83A78929C8
:1035E0002A8493848929130ACB29636CF50288C045
:1035F00063800C0483A74B299043133616000325E0
:103600000A00B3058C40EFF06FA9EFF09F9319ED1E
:10361000B7E700E0116723A0E72009A8854C014C1B
:1036200055BFEFF07FF580C0EFF0BF91214C0DA0AA
:103630000146E36685FDEFF0DF90A2856285EFF03D
:103640005FEFEDB79247B2458297824763DD07008F
:1036500003250A0001468A85EFF04F8725D582476A
:103660002245E3C107FE22445C489DE3EFF00FF2E0
:103670009C40AA8C6374F500EFF01FF0824723A0F2
:103680009401FD17E366FCFC8A07CA979C43828776
:1036900013054400EFE01FE4D1BF834744020C4C04
:1036A000924693E717002302F4026686B6952285B8
:1036B000EFF03FE151DD8347440213F7470001CFAC
:1036C0001C4C924566862285BE95EFF0FFE31C50A8
:1036D00022858297B5BFF99B2302F402CDBF8347B1
:1036E0004402F99B2302F402A5B7834744029245A2
:1036F00093E717002302F4020CCC9DE1A1679387A6
:103700000780739007303776000037750000130686
:103710008638930590351305052EEF10C03301A0B0
:10372000E6866686E6952285EFF0BFD915B7834712
:10373000440213F7270055F72285EFE09FB309BF36
:10374000EFC27FDDEFF09FD1B707002083A7C72925
:103750009DE3A16793870780739007303776000059
:103760003775000013068638930590111305052E52
:10377000EF10602E01A0B7070020B77500003735A5
:1037800000009387072A3947814613060010938566
:10379000053A1305855AEFF0EFA745DD6FC0FFD955
:1037A0008280EFC25FD701112A8485453705020068
:1037B000EFD09F8085451145EFD02FFE91477C8249
:1037C000371501408D473EC44C00E1471305058085
:1037D0003EC6EFD00FD622C837440040B7070800D6
:1037E0000C08130504403ECC02CA231E0100EFD092
:1037F0008FFE854513050440EFD0DF8605616FC05D
:10380000DFD3EFC2BFCFB7440040AE893289014455
:1038100093840440634524014A856FC07FD193059A
:1038200000042685EFD01F877DD9B3878900838563
:10383000070026850504C205C181EFD03F85D9BFA9
:10384000138781811C43B74600209386868A3E9564
:10385000636BD500B70602209386068063E5A60059
:1038600008C33E858280FD57EDBF13D74501B707DA
:103870001000FD1713D846011377F77F9308F07FE8
:1038800033FEB700AA8EF58FFD81328F1378F87F53
:10389000FD82630B170105436306180163140701DA
:1038A000630DFE001A858280B368AE000543E39B7A
:1038B00008FEE319E8FED18FF5F70543E394EEFF28
:1038C0000143E381D5FE054371FF3365AE00333319
:1038D000A000C9BF13D74501B7071000FD1713D8C3
:1038E00046011377F77F9308F07F33F3B7002A8EF2
:1038F000F58FFD81B28E1378F87FFD826308170380
:10390000630018030DEBB368A300631408005D8E19
:1039100029CA638508046388D502054595ED828030
:10392000B3E8C700E38008FE795582803365A300C1
:1039300065FD630CE802631408005D8E79DEE39E8A
:10394000D5FCE34CE8FC63480701E3E867FC63034C
:10395000F302637FF30081E57D558280F5DE054546
:1039600082800145E39B08FA82805D8E69DA6DBF33
:1039700001458280E3E3CEFB0145E372DEFBE5F126
:10398000E1BF13D74501B7071000FD1713D8460153
:103990001377F77F9308F07F33FEB700AA8EF58F79
:1039A000FD81328F1378F87FFD82630E1703630D5C
:1039B000180129E3B368AE00631F08005D8E01EEB5
:1039C0000143638C080421A8B3E8C7000943639648
:1039D00008046DD305A0638408046385D5020543FC
:1039E0008DCD7D531DA8B368AE00094363970802CF
:1039F000630AE802631408005D8E75D2E391D5FE78
:103A0000E34FE8FC63490701E3EBC7FD630FFE00EA
:103A100001436374FE00F1D505431A858280EDFEF3
:103A20007D53E5BF5D8E79DACDBFE36ADFFB0143ED
:103A3000E3F5EEFFF5F175B739714AD813D94501B1
:103A40004ED652D456D29399C50006DE22DC26DA31
:103A50005AD05ECE1379F97F2A8A93D9C90093DAB6
:103A6000F501630D090E9307F07F6306F9181354EF
:103A7000D5018E09B36934013704800033E489002D
:103A800093143500130919C08149814B13D746019E
:103A9000139AC6001377F77FB285135ACA0013DB57
:103AA000F601630B07109307F07F6303F704935746
:103AB000D6010E0A33EA4701130717C0B707800083
:103AC000B367FA00931536003A99814833C76A0103
:103AD000BD463A851308190063E8361717460000FB
:103AE0001306C68C8A09B29983A60900B29682860B
:103AF000B367CA001309F97F6399071293E9290094
:103B000081458948E1B701479307F07F37040800F2
:103B100081443204D20731807E075D8C598CA285A6
:103B2000F250625426854259D254B259225A925ABE
:103B3000025BF24B216182805A853E84AE84C68B43
:103B40008947638DFB0E8D47E38FFBFA85472A87F4
:103B5000639EFB3881470144814465BF33E4A9007B
:103B600061C036C632C4638C092A4E85EF00303DF1
:103B70002246B246AA87130755FF7544938487FFF0
:103B8000198CB399990033548A0033643401B31407
:103B90009A0013D746011309D0C0139AC6001377B1
:103BA000F77F3309F9408149814BB285135ACA0026
:103BB00013DBF601E31907EEB367CA00B1C7630F61
:103BC0000A22528532C4EF00903722462A87930694
:103BD00055FFF547930587FF958F331ABA00B35702
:103BE000F600B3E74701B315B6003309E9401309FE
:103BF000D9C08148E1BD33E4A90001ECA149814469
:103C00001309F07F894B59B593E91900814585481F
:103C100075BD4E84AA84B1491309F07F8D4BBDB5A3
:103C2000914981440149854B95B593E93900D28783
:103C30008D4869BD89475685E397FBF02A8793072E
:103C4000F07F01448144F1B5C16E1386FEFF93D627
:103C5000040113DE0501F18CF18D33869502338367
:103C6000B6029358060133059E021A95AA98B382AC
:103C7000C60363F36800F692C16F1383FFFF33F549
:103C8000670093D30701B3F76800C2073373660078
:103C90003E933306950293D80801B387A602135FBB
:103CA0000601B3849302BE94FA94B38E760263F352
:103CB000F400FE9E416A9307FAFF935F0401B37616
:103CC000F400B3F9F4007D8EC1803384D502C209BB
:103CD000338FD401B299CE98B307DE02935E04010C
:103CE000B385BF02AE97BE9E330EFE0363F3BE00E4
:103CF000529EC1679385F7FF33F6BE006D8C420676
:103D0000229693DE0E01B305D502769E3385AF026F
:103D100013D40501B386D302AA96A296B38FF303F8
:103D200063F3A600BE9F41657D15B3F7A600C207E9
:103D30006D8DAA97B3855800B3B93501FA97B2953E
:103D40003384370133B6C500B30EC4013385CE00CA
:103D500033343401B3B7E701C18F33BECE0113D47E
:103D600006013336C5003E943366CE009394950029
:103D700032947E94B3E46400260493567501B33400
:103D80009000DD8193179500CD8C558CDD8C9317B9
:103D9000740063DB070093D7140085889316F40141
:103DA000DD8CD58C058042899307F93F6359F00873
:103DB00093F6740081CE93F6F40011466388C60032
:103DC00093864400B3B496002694B6849316740088
:103DD00063D80600B70700FFFD177D8C93070940E5
:103DE0009306E07F63CFF60E93D634009314D4018C
:103DF0002604D58C318093F7F77F21BB328532C4FE
:103E0000EF00F01393065501F14713070502224610
:103E1000E3D1D7DC6115B317A6008145F9B3EF00F4
:103E2000101213075501F145930705022246B246C9
:103E3000E3D5E5D461153314AA00814499BB8546C6
:103E40009D8EB1E71309E941B3972401B3D4D4009F
:103E500033192401B337F000B3649900DD8C93F774
:103E60007400B356D40081CF93F7F40011466388F1
:103E7000C70093874400B3B49700A696BE84939777
:103E8000860063D8070485470144814459B113066D
:103E90008003E341D6CC7D46E356D6FA0556B307F8
:103EA000F640930500023356F4006387B600130909
:103EB000E943B3172401DD8CB3349000D18C93F621
:103EC0007400014499CA93F7F40011468146E392C5
:103ED000C7FA139496003180F6068D80D58C814701
:103EE0000DB99307F07F0144814425B142896DBD2E
:103EF000370710007D1701113373B70093D84601BF
:103F0000758F935ED60122CC26CA0E0393D4450149
:103F10009357D5010E0706CE4AC84EC693F8F87FD0
:103F2000130EF07F33E7EE0093F4F47F13D4F50122
:103F300033E36700131F3500FD82931E3600638F45
:103F4000C81793C61600B38514416304D412635096
:103F5000B018638A081AB70780005D8F638FC45753
:103F60009307800363C2B734FD4763C3B748930721
:103F700000028D8FB3D9BE003318F700B39EFE0048
:103F8000336838013357B700B339D001336838018B
:103F90003303E340B3090F41B3373F013306F34026
:103FA0009317860063D20724370980007D1933797F
:103FB0002601630E092C4A855927130785FF9307AD
:103FC0000002998FB3D7F9003316E900D18FB39966
:103FD000E9006344972A058F13061700FD4663C462
:103FE000C63A13070002118FB3D6C9003398E9000F
:103FF0003397E700558F33380001B369070133D693
:10400000C700814493F7790081CF93F6F900914777
:104010006388F6009386490033B836014296B68924
:104020009317860063D6071C138714009307F07F4D
:1040300005886306F720B70780FFFD17F18F1398F7
:10404000D70193D93900A60733683801B1831377B4
:10405000F77F9396C7005207B1827E04D98EC18E36
:10406000F2406244D2444249B2494285B685056174
:1040700082806356B00A638A0812B70780005D8F9A
:104080006386C42D9307800363C7B718FD4763D1C8
:10409000B73C138805FE93070002B3590701638AF2
:1040A000F50093070004B385B7403317B700B3EEAC
:1040B000EE003338D0013368380195A2B367D701D9
:1040C0009385148099E393C61600630AD404D1E162
:1040D0009387140093F7E77F6398071EB367E301A4
:1040E0003368D701639204166381073C6315084265
:1040F000131835009316D3011358380033E806011E
:104100009357330019A2B367D7016384071A9387C3
:10411000F5FF638A073A638BC523BE8591B5639823
:10412000051C9386140093F7E67FC1EFB367E301A4
:10413000639F0434638C0744B367D70163930746D6
:104140000E051318D3010D813368A800935733006F
:104150006DA8B385984063960420B367E301638C30
:1041600007309387F5FF638807401305F07F63826C
:10417000A520BE859307800363C1B72AFD4763C7A7
:10418000B73C930700028D8F3318F3003356BF00FE
:10419000B317FF003368C800B339F0003353B300DE
:1041A0003368380133076740ADACB367D70163822A
:1041B00007109387F5FF638E071E638FC52DBE859D
:1041C000D1B59307F07F638BF606FA9E33B6EE0106
:1041D000B307E300B2971398F70193DE1E00B369AB
:1041E000D80113D61700B68493F77900E39F07E050
:1041F0009317D60113D839003368F800A685935772
:1042000036001307F07F6380E506B207B18313F72A
:10421000F57F05883DBD3367D7013338E000B3092A
:10422000E801B3B7E9013386670093178600E3DD41
:1042300007FA85049307F07F639BF418058813073A
:10424000F07F8147014831B5639007106300083C57
:10425000131836009317D701135838003368F80045
:10426000368493573700B367F800E9DB014413073E
:10427000F07FB70708000148E9BB370680FF7D16CD
:104280007D8E93F77900998CE39107D895B74E8589
:104290007D2113078501FD47E3D3E7D2130685FF90
:1042A000B397C900814935B33368D701333800016A
:1042B000D5B1131835009317D3011358380033685C
:1042C000F8009357330035BFB309DF413309E340AA
:1042D00033363F013309C9409317890063CA072069
:1042E00033E82901E31708CC8147014439BFB3857E
:1042F000984063810414B70680009307F07F33630E
:10430000D3006381F8209307800363CCB722FD4775
:1043100063C9B72C930700028D8F3318F300B3568F
:10432000BF00B317FF003368D800B339F000335330
:10433000B300336838011A97B309D801B3B7D9016C
:104340003386E700C684D5B5E31208F213183500AA
:104350009317D301135838003368F800935733008C
:1043600019B7370580009307F07F3363A300E39309
:10437000F8E00E061318D7010D823368C800935772
:1043800037003684CDB505179306000233D7E70012
:10439000630AD600930600043386C6403396C700EE
:1043A000B3E9C90033383001B369E80001468144FC
:1043B00025BDB309DF01B307E30033BFE90133864D
:1043C000E701931786008544E3D007E28944B707E5
:1043D00080FFFD17F18F13D7190013F81900336808
:1043E00007019399F701B3E9090113D6170019B929
:1043F000138805FE93070002B3590701638AF5008D
:1044000093070004B385B7403317B700B3EEEE004F
:104410003338D00133683801B5BE3363E301333834
:104420006000B3890E41B3B73E013306F740C6843E
:104430003684BDB6B367E301638707189387F5FF3A
:10444000638C071C9306F07F638ED50ABE8565BD1D
:10445000930700028D8FB3D9BE003318F700B39EC7
:10446000FE00336838013357B700B339D0013368E1
:1044700038013A936DB3131836009317D7011358C8
:10448000380033E807013684935737009DBBBDCB16
:104490003367D701E31C07DC0E051318D3010D8128
:1044A0003368A800935733007DBBE30F08E213186D
:1044B00036009317D701135838003368F800368454
:1044C0009357370099B3B309DF41B307E340333F54
:1044D0003F013386E7418544E1B413183500931654
:1044E000D3011358380033E8060193573300A5BBB6
:1044F000B389EE413306674033B93E0133092641A3
:10450000368445BC0E061318D7010D823368C800E7
:104510009357370089BBB309DF41B307E340333614
:104520003F013386C7409317860063D7070AB389D4
:10453000EE41B3076740B3BE3E013386D7413684B0
:10454000D1B43363E30133386000FDB3138805FE53
:1045500093070002B3590301638AF500930700042F
:10456000B385B7403313B300336F6F003338E001C6
:10457000336838017DB5B389EE41B3076740B3BEF8
:104580003E013386D7413684854419BC1318360062
:104590009317D701135838003368F8009357370042
:1045A000ADB1B309DF01B307E30033BFE9013386DF
:1045B000E70193178600E3D907C2B70780FFFD170D
:1045C0007D8E854415B10E061318D7010D82336810
:1045D000C8009357370035B133E8C900E30608D067
:1045E00021B1138805FE93070002B3590301638AC2
:1045F000F50093070004B385B7403313B300336F5E
:104600006F003338E001336838013DB301441307CC
:10461000F07FB707080035BCB309DF01B307E3003B
:10462000B3BED9013386D70169BB13D74501B7079C
:104630001000FD171347F7FF13D84601FD8DF58FC6
:10464000931657011378F87F99CA1307F07F014535
:104650006303E8008280D18F3335F0008280C98DFA
:104660000545E5D5828093D74501B706100013872D
:10467000F6FF93F7F77F1306E03F6D8FFD81635CD4
:10468000F6001306D041635AF60037050080134543
:10469000F5FF2E95828001458280130630431D8EE2
:1046A0007D48558F635DC80093063041B387F6405F
:1046B000B357F7003305F040E5F13E8582809387DC
:1046C000D7BEB317F7003355C500C98FE5B7411101
:1046D00006C622C426C205CD9357F541B3C4A70030
:1046E0009D8C2A842685A1289306E041898EA947BE
:1046F0007D8093F6F67F63CDA7022D47098FB3D750
:10470000E4005505B207B394A400B18329A0014485
:10471000814681478144B207D206B1837E04D58F9A
:10472000C18FB24022442685BE85924441018280D9
:104730005515B397A400B207B1838144E9BFC1679F
:10474000637CF5029307F00F1307000263EBA700E9
:1047500097370000938787C9AA9788233305A74016
:104760008280218197370000938747C8AA978823C2
:1047700061473305A7408280B7070001636DF500EC
:10478000618197370000938767C6AA9788232147DE
:104790003305A7408280418197370000938707C582
:1047A000AA97882341473305A74082800325C50E79
:1047B00082809387C1819C439C5389E797C7FF1FE1
:1047C0009387078703A5C70E82809387C181AA8537
:1047D000884345A29387C181AA858843DDA091EDD6
:1047E00041116C00014501CA795591C61C229CC13A
:1047F00008223335A00041018280014509CA79555C
:1048000099C61C229CC108223335A0008280828078
:10481000B3C7A5008D8B3307C50081E78D4763EDD6
:10482000C700AA87637EE508942185078505A38FC5
:10483000D7FEE3EBE7FE828093763500AA8789CA2C
:10484000942185078505A38FD7FE93F63700C5BF52
:104850009376C7FF138606FE63F0C70683A30500A1
:1048600083A2450083AF850003AFC50083AE050179
:1048700003AE450103A3850183A8C50193854502C5
:1048800023A0770003A8C5FF23A2570023A4F701A4
:1048900023A6E70123A8D70123AAC70123AC6700F9
:1048A00023AE17019387470223AE07FF75B79041E8
:1048B0009107910523AEC7FEE3EBD7FEE3E6E7F6EB
:1048C0008280DDC583A7C5FF411122C406C626C26A
:1048D0001384C5FF63D307003E94AA84EF00D0364B
:1048E00097C7FF1F9387479C9C4391EF23220400A7
:1048F00097C7FF1F23AA879A2244B2402685924475
:1049000041016F009034637EF40014403307D400FB
:104910006396E7009843DC43369718C05CC0C9BF74
:10492000BA87D84319C3E37DE4FE94433386D700A6
:10493000631F86001040B29694C33386D700E31DF0
:10494000C7FA10435843B29694C3D8C375B763757A
:10495000C400B1479CC04DB71040B306C4006316F5
:10496000D70014435843B29614C058C0C0C369B7A7
:104970008280011126CA93843500F19806CE22CC9C
:104980004AC84EC6A104B14763F9F404B14463E8D0
:10499000B4042A89EF00502B97C7FF1F9387C79055
:1049A00098433A8439E497C7FF1F938727909C4325
:1049B00081EB81454A85F92297C7FF1F23A8A78E5F
:1049C000A6854A85C122FD59631B3507B1472320BF
:1049D000F9004A85EF00702729A0E3DA04FAB1470D
:1049E0001CC10145F2406244D2444249B2490561CA
:1049F00082801C40858F63C10704AD4663F6F600D4
:104A00001CC03E9404C001A85C406315870217C710
:104A1000FF1F232BF7884A85EF0030231305B400CE
:104A20009307440061993307F5404DDF3A94898F2D
:104A30001CC04DBF5CC3C5B722874040A5B7130457
:104A400035007198E30085FCB305A4404A851D2A12
:104A5000E31A35FBA5BF39713EDA2ED232D436D6F1
:104A60003AD842DC46DE9387C18122CC804326CAF5
:104A700006CEAA8409C41C4C99E32285152F0C4448
:104A800054102686228536C6EF10A025F2406244D7
:104A9000D24421618280011126CA4AC806CE22CCA6
:104AA0004EC652C4AA842E8901C51C4D91E3092724
:104AB0009C4C804499E32685E52D97370000938729
:104AC00027B6631BF402C0405E24A18BB1C71C480B
:104AD000A1C7FD59294A1C4483450900FD17B1E9C6
:104AE0001CC463DD07062286A9452685152CFD57C3
:104AF0006308F502294535A097370000938747B42E
:104B00006314F4008044C9B797370000938747AF18
:104B1000E31CF4FAC0444DBFA2852685112E55D959
:104B20007D55F2406244D2444249B249224A05616D
:104B300082801CC4050963D70700184C63CAE700CC
:104B4000638845011C401387170018C08CA361B708
:104B500022862685F122E31035F9D9B71C40138748
:104B6000170018C0294798A371B79387C181AA85F8
:104B700088436FF05FF29387C1812E86AA858843B0
:104B80006F00D00C411122C42A842E8597F7FF1F95
:104B900023AC07D006C6EFE0BFCAFD576319F50086
:104BA00097F7FF1F938747D09C4391C31CC0B24027
:104BB00022444101828035713ECBB707008093C704
:104BC000F7FF3ECE3EC8C1779387872032C536C7F0
:104BD0003AC942CD46CF3ECA9387C1812AC42ACC66
:104BE000884334012E862C0086DE36C2EF00F01991
:104BF000A24723800700F6500D61828071713ED379
:104C00009307402006C72EC632CD36CF3AD142D5C3
:104C100046D72312F1022ACC2AD4D52897070000C0
:104C2000938707063EDEFD57B2452313F1029387B3
:104C3000C1812ACE2AD6884334092E862C0882C602
:104C400082D036CAEF00D048BA404D61828041110F
:104C500022C42E848395E50006C6EF10F01F634939
:104C600005007C48AA977CC8B2402244410182805A
:104C70005E247D777D17F98F5EA4FDB701458280A4
:104C8000DE25011122CC26CA4AC84EC606CE93F7AD
:104C90000710AA842E843289B68991C78395E500CE
:104CA0008946014649255E247D777D17F98F5EA4EC
:104CB0008315E4006244F240CE864A86B2494249F6
:104CC0002685D244056115AA411122C42E848395FC
:104CD000E50006C6892DFD575A24631AF500FD77B5
:104CE000FD17F98F5EA4B24022444101828085679E
:104CF000D98F5EA468C8C5BF8395E5000DACAA87AF
:104D0000982185078505A38FE7FE7DFB8280AA8712
:104D1000850703C7F7FF6DFF3385A7407D158280A8
:104D2000011122CC26CA4AC806CE4EC6AA842E89B4
:104D3000328401C51C4D91E3A52997370000938764
:104D4000278E6317F406C0401C4C1CC45E24A18B44
:104D5000C1C31C48B5CF1C4808409379F90F13799B
:104D6000F90F1D8D5C486346F500A2852685152642
:104D700025E51C440505FD171CC41C4013871700BE
:104D800018C0238037015C486388A7005E24858BA8
:104D900081CBA9476316F900A2852685DD2C0DED90
:104DA000F24062444A85D2444249B2490561828058
:104DB000973700009387C7886314F400804469B76D
:104DC000973700009387C783E310F4F8C044ADBF62
:104DD000A2852685B12841D17D59D9B789CD9307C0
:104DE000F00F63F7C7009307A0081CC17D558280B0
:104DF00090A10545828001458280411122C42A8408
:104E00002E85B285368697F7FF1F23AF07A806C603
:104E1000EFE03F9FFD576319F50097F7FF1F93875A
:104E2000A7A89C4391C31CC0B24022444101828088
:104E300041119387C18126C2844322C44AC006C659
:104E40002A892E8489C49C4C99E326859526972728
:104E500000009387E77C631BF402C0400317C40083
:104E600093170701C18393F68700B5EA93F607010C
:104E700095EEA5472320F900136707045AA47D5532
:104E8000B2402244924402494101828097270000A7
:104E90009387077B6314F4008044C9B79727000009
:104EA00093870776E31CF4FAC0444DBF918B85C706
:104EB0004C5891C9930744046385F5004A85EFF087
:104EC0005FA0232A04025E242322040093F7B7FD87
:104ED0005EA41C481CC05E2493E787005EA41C48A7
:104EE00099EB5E241307002093F707286385E700FA
:104EF000A2854A85C1215E2413F717001DC35C48B3
:104F000023240400B307F0401CCC1C480145ADFB32
:104F10008317C40013F7070825D793E707045EA497
:104F2000B9BF898B014791E3584818C4F9BF4111B3
:104F300022C42A842E8597F7FF1F23A7079606C64B
:104F4000EF10F03BFD576319F50097F7FF1F9387AC
:104F5000A7959C4391C31CC0B2402244410182806A
:104F6000DE25011122CC26CA06CE4AC84EC613F74A
:104F70008700AA842E8461EFD841634DE000B841D8
:104F8000634AE0000145F2406244D2444249B249DA
:104F90000561828058547DD703A904009396370198
:104FA00023A0040063DC060670485E24918B99C739
:104FB0005C401D8E5C5899C33C401D8E5C540C5067
:104FC000814626858297FD575A24631DF50094403B
:104FD000F54763E9D706B70740208507B3D7D70061
:104FE000858BADC31C48232204001CC093173701D6
:104FF00063D80700FD576314F5009C4091E368C82F
:105000004C5823A02401BDDD930744046385F500BB
:105010002685EFF01F8B232A0402ADB70C50014602
:10502000854626850297FD572A86E310F5F89C40B1
:10503000ADDF75476385E70059476393E70423A015
:10504000240189B7136707045AA47D552DBF83A98E
:105050000501E38909F203A905008D8B23A0350121
:1050600033093941014791E3D84918C4E35C20F181
:105070001C540C50CA864E86268582976347A00032
:105080005E2493E707045EA4C9B7AA993309A9402F
:10509000F1BF9C49A5C3011122CC06CE2A8411C5BB
:1050A0001C4D81E72EC62922B24597270000938721
:1050B0002757639CF5004C408397C5009DC7228508
:1050C0006244F24005616FF0BFE9972700009387C3
:1050D00027576394F5000C44C5B7972700009387C2
:1050E0002752E39BF5FC4C44C1BFF24062440145AA
:1050F0000561828001458280411122C406C62A844E
:105100004EA572A5232005002322050023240500B7
:105110002322050623280500232A0500232C050049
:10512000214681451305C505EFB0EFC19707000083
:10513000938727B25CD0970700009387A7B41CD44D
:1051400097070000938787B85CD497070000938780
:10515000E7BA00D01CD8B2402244410182809705B2
:105160000000938545F399AA411126C213068006D3
:105170009384F5FFB384C4024AC02E8922C406C6B4
:1051800093854407EFF0EFFE2A8401CD232005002C
:1051900023222501310508C4138684068145EFB01A
:1051A0008FBA2285B2402244924402494101828052
:1051B0001C4DA5E7411106C622C49707000093873E
:1051C00047FA1CD5938741829C4323240504232658
:1051D0000504232805046314F50085471CCD2A84A3
:1051E000352848C022851D2808C42285052848C4C2
:1051F000484001469145EFF03FF008440546A5457B
:10520000EFF09FEF48440946C945EFF0FFEE8547B0
:105210001CCCB2402244410182808280411193879C
:10522000418226C284434AC006C69C4C22C42A89B5
:1052300081E72685EFF0DFF7938484048044DC4027
:10524000FD1763D607009C40B9CF8440C5BF031744
:10525000C40039E7C1778507232204062320040010
:1052600023220400232404005CC423280400232AEE
:105270000400232C0400214681451305C405EFB02A
:105280008FAC232A0402232C0402232404042326A3
:1052900004042285B24022449244024941018280A2
:1052A0001304840671BF91454A85EFF0FFEB88C077
:1052B00049FDB1472320F9000144E1BF797122D4AF
:1052C0004AD052CC56CA5AC85EC606D626D24ECE50
:1052D0002A8AAE8A130485040149054BFD5B09EC5B
:1052E000B25022544A8592540259F249624AD24A33
:1052F000424BB24B45618280044483294400FD192E
:1053000063D409000040E1BFDE24637BFB00839788
:10531000E40063877701A6855285829A3369A900E4
:1053200093848406E9BF411122C42A842E85B28564
:10533000368697E7FF1F23A9075606C6EF10207F82
:10534000FD576319F50097E7FF1F9387E7559C43C7
:1053500091C31CC0B2402244410182801971A6DA77
:10536000AE848395E500A2DC86DE328463DB050033
:10537000DE2423A0060093F7070885E79307004083
:105380001DA0300836C6EF10406AB246E34205FE63
:105390007247BD67F98F7977BA9793B717009CC2A8
:1053A000F1BF930700041CC0F6506654D654014563
:1053B00009618280DE25011122CC06CE26CA4AC8A8
:1053C000898B2E8489CF930774041CC01CC8854721
:1053D0005CC8F2406244D244424905618280740054
:1053E0003000AA84EFF09FF7A2452A892685EFF0C6
:1053F0004FD819E98317C40013F7072079FBF19BF5
:1054000093E727005EA4C1B797070000938767D58D
:105410009CD45E2408C008C893E707085EA4A2478E
:105420005CC8B24781CF8315E4002685EF10006386
:1054300011C55E24F19B93E717005EA45E243369D7
:10544000F9002316240171B78280828081E5B2853C
:105450006FF02FD2011122CC06CE26CA4AC84EC602
:10546000328401EEEFF0EFC50149F24062444A8513
:10547000D2444249B24905618280AE84AA89EF10C4
:10548000C0662689E37385FEA2854E85EFF06FCE58
:105490002A8961DDA6852286EFF08FB7A6854E8525
:1054A000EFF02FC2D9B701114AC803A9850022CC59
:1054B00052C45AC006CE26CA4EC656C22E84328B5D
:1054C000368A63E92609DE2513F7074851C30440ED
:1054D0008C495848AA8AB389B4408D44B384E40205
:1054E0000947B3C4E402138716004E9763F3E40040
:1054F000BA8493F70740BDCFA6855685EFF06FC7F6
:105500002A891DE1B14723A0FA005E247D5593E767
:1055100007045EA4F2406244D2444249B249224A9E
:10552000924A024B056182800C484E86EFF04FAEE6
:105530005E2493F7F7B793E707085EA423282401B6
:1055400044C84E99B38434412320240104C45289B1
:1055500063732A01528908404A86DA85EF10805425
:105560001C440145B38727411CC41C403E9923209D
:1055700024014DB726865685EFF05FED2A895DFD43
:105580000C485685EFF0EFB3B5BFDE25717126D319
:105590004AD14ECF06D722D552CD56CB5AC95EC777
:1055A00062C566C393F70708AA892E89B284B9C376
:1055B0009C49A9E39305000436C6EFF08FBB232076
:1055C000A9002328A900B24615E1B14723A0F9009C
:1055D0007D55BA502A549A540A59FA496A4ADA4A05
:1055E0004A4BBA4B2A4C9A4C4D6182809307000477
:1055F000232AF90093070002A30CF102930700038A
:1056000002DA230DF10236CE930B5002972A0000E6
:10561000938A0A05054C294B26841C2099C363995B
:105620007709B30C9440638E0C00E6862686CA8503
:105630004E85EFF05FE7FD57630BF518D256E696FF
:1056400036DA1C2063850718FD579304140002D036
:1056500002D63ED202D4A301010682DC8C2015467C
:105660005685EF10A04213841400825721E513F7EA
:10567000070109C713070002A301E10613F787001A
:1056800009C71307B002A301E10694201307A00283
:10569000638AE602B2572684814625461820930580
:1056A0001400130707FD6372E6068DC63ED61DA0E3
:1056B0000504A5B7330555413315AC00C98F3ED05D
:1056C000A28469BF724793064700184336CE6347EA
:1056D00007023AD618209307E002631DF70418303A
:1056E0009307A002631BF702F247090413874700E0
:1056F0009C433ACE63C107023ED22DA83307E04057
:1057000093E727003AD63ED0F1B7B38767038546C3
:105710002E84BA9761B7FD57C5B7050402D28146FA
:1057200081472546182093051400130707FD63766B
:10573000E606F9F20C200D46172500001305C5F208
:10574000EF10C03411CD972700009387E7F11D8D2E
:1057500093070004B397A700025505045D8D2AD076
:105760000C20194617250000130545F0930414007A
:10577000230CB102EF10803125C597B7FFFF938747
:10578000678895E70257F2471377071009CF91070B
:105790003ECED257D2973EDA41B5B38767038546EE
:1057A0002E84BA9741B79D07E19BA107D5B778082A
:1057B00097060000938666CF4A860C104E859700A8
:1057C0000000E7000000FD572A8AE314F5FC835728
:1057D000C9007D5593F70704E39D07DE5255D5BBFD
:1057E000780897060000938646CC4A860C104E85B2
:1057F000EF00D008C9BF411106C622C426C24AC064
:10580000FD57639AF500FD54B240224426850249B3
:105810009244410182805E2613F9F50F93F4F50F4F
:1058200093F7F7FD5EA65C5A584285C71C5E32842A
:10583000635CF7001C401387F7FF18C0A38F27FF96
:105840005C4085075CC0C9B7B285EF10A0157DD15B
:105850005DBF144A1C4281CE63FBF60083C6F7FF8E
:1058600063979600FD1705071CC258C271BF5CDE26
:10587000930746045CDA8D471CDE930766041CC25E
:10588000854738C2230326055CC2BDBF411122C42F
:105890002E84CC5906C69DC1930744046384F50049
:1058A000EFF02F823C40232A04025CC081CB5C5C79
:1058B00001451CC0B2402244410182801C48232281
:1058C00004007D551CC05E2493E707025EA4DDB78B
:1058D000130101D297070000938727F22326312D69
:1058E000232CF1289309C10197070000938747FAF9
:1058F000232C812C232A912C2328212D2324412D54
:105900002322512D2320612D232E712B232C812B1B
:10591000232E112C232A912B2328A12B2326B12BB4
:10592000AA842E8423240112232601122328311352
:10593000232EF12836CC130A5002130BA002A54BDC
:105940002949972A0000938A2AD217ACFFFF130C2B
:105950006C6B1C2232C6638E0730EFE09FE5324647
:10596000834D0600930C16006E951C31A18BA1C3CC
:105970005C406357F002EFE0DFE31C4098233A9568
:105980001831218B19E36686E9B70327C112850711
:105990001CC005072326E11258407D1758C0C9BF17
:1059A0008327C129A2852685829771D5E9BF63988F
:1059B0004D1723220112232E01101C326397670119
:1059C000C147232EF110930C260083C50C00668D71
:1059D000850C938705FD63F0FB060D465685EF1099
:1059E000E00A01CD330555418547B397A70003254C
:1059F000C111668D5D8D232EA11083470D00130705
:105A00007006930C1D006366F7081307500663FDCC
:105A1000E71A13077004636AF7021307500463F56B
:105A2000E71A63890712638C470F8D47232AF11207
:105A30002320211361A083274112B307F902938722
:105A400007FDAE972322F11249B71307B005638112
:105A5000E7126365F70213078005E398E7FC032765
:105A6000C11113670720232EE11041472320E112C3
:105A70001307E006B337F7008D073DA8130730067C
:105A80006385E71013074006E391E7FA232021130B
:105A9000C5B7130700076381E70C6364F7061307B4
:105AA000E006638DE70E6360F70C13079006E39E34
:105AB000E7F6232001128D47232AF1125C40635739
:105AC000F0108327C11193F7070491EBEFE07FCE2D
:105AD0001C4098233A951831218B631107108327B6
:105AE000411309476341F712340822866C0A268560
:105AF000EF0010038547630EF5168947E315F5E8B7
:105B0000B9A013075007E383E7F813078007E3887A
:105B1000E7F413073007E39AE7F0894771BF5C4069
