:040000006F30E00974
:100004000000000000000000F8500000FC50000058
:10001400000000004001000000000000000000009B
:10002400400100009C3000000000000000000000BF
:100034009C300000000000009C3000000000000024
:100044009C3000009C3000009C3000009C3000007C
:100054009C3000009C3000009C3000009C3000006C
:100064009C3000009C3000009C3000009C3000005C
:100074009C3000009C3000009C3000009C3000004C
:100084009C3000009C3000009C3000009C3000003C
:100094009C3000009C3000009C3000009C3000002C
:1000A4009C3000009C3000009C3000009C3000001C
:1000B4009C3000009C3000009C3000009C3000000C
:1000C4009C3000009C3000009C3000009C300000FC
:1000D4009C3000009C3000009C3000009C300000EC
:1000E4009C3000009C4800009C3000009C300000C4
:1000F4009C3000009C3000009C300000FE5000004A
:10010400D02F00009C3000009C3000009C30000088
:100114009C3000009C300000000000000000000043
:1001240000000000000000000000000000000000CB
:0C013400000000000000000000000000BF
:100140009305000273A04580824573901534924058
:100150002242B2424243D2436244F2440255925593
:100160002256B2564257D2576258F258064996491B
:10017000264AB64A464BD64B664CF64C065D965D13
:10018000265EB65E465FD65F096173002030EF528F
:10019000C047EF404029C52BEDBF23AC05FE1C41F5
:1001A00081E70CC18280BA8703A787FF6DFF23AC6C
:1001B000B7FE8280411126C24AC0B744024006C63B
:1001C00022C403A9C42023A604200F10000009E9BB
:1001D00023A62421B2402244924402494101828054
:1001E0002A842105BD654205C18D4181EF20B00003
:1001F00001CDFD5723200500231285002303F500C0
:1002000023A624212105F9B723A624210145D9B726
:1002100001114AC84EC6B747024006CE22CC26CAB4
:1002200083A9C7202A8923A607200F10000097471B
:1002300000209387677480438144014619E499E85C
:10024000A1654A85EF70E00315A08347E4FF639B37
:10025000270395CCA685174500201305E571EF60AF
:10026000B00079DCA1654A85EF605039F240624404
:10027000B747024023A6372126854249D244B249D6
:100280000561828091E02286032484FF45BFA28419
:10029000E5BF97470020938727739C4399E33E85EA
:1002A000828003D727006316B70003C70700E3085F
:1002B000A7FEDC47E5B7B747024003A7C72023A640
:1002C00007200F10000001C599C1814711E6B7470B
:1002D000024023A6E7208280B386F50003C806000B
:1002E000B306F500850723800601E317F6FEC5B7C0
:1002F000374702408327C720232607200F1000001E
:1003000019C191C111E6374702402326F7208280A8
:10031000910503A7C5FF11057D16232EE5FEDDB768
:10032000374702408327C720232607200F100000ED
:1003300001C53307C50011E6374702402326F720E1
:1003400082800505A30FB5FEE31DE5FEF5B7B747AF
:10035000024083A6C72023A607200F100000814774
:100360003307F5000307070019E737470240232644
:10037000D7203E8582808507E5B7011126CA4AC885
:10038000B747024006CE22CC83A4C7202A892E86F6
:1003900023A607200F100000131506019305F00493
:1003A000418132C6EF2020652A8401C53246CA85C4
:1003B00019372285F2406244B747024023A69720AE
:1003C0004249D24405618280B747024003A7C72053
:1003D00023A607200F10000001C599C1814711EA2B
:1003E000B747024023A6E720054582808507E30939
:1003F000F6FE3308F500B386F5000348080083C60F
:100400000600E305D8FEB747024023A6E7200145D2
:100410008280B747024003A7C72023A607200F10FA
:1004200000009307F6FFBE952A966317C500B747ED
:10043000024023A6E7208280FD1583C7150005052D
:10044000A30FF5FEDDB7374702408327C7202326D9
:1004500007200F10000001C53307C50019E6374714
:1004600002402326F7200145828005058346F5FFDB
:10047000E397B6FEE31BE5FE374702402326F7204D
:10048000054582807971974700209387E75322D4EE
:10049000804306D626D24AD04ECE52CC56CA5AC82F
:1004A0005EC669C0B7C4C901014B97490020938952
:1004B00029519384F437174A0020130A2A51974A86
:1004C0000020938AAA4B174900201309A954835787
:1004D000240095E35C44631D0B001747002023258F
:1004E000F74E832BC4002285EF20C05F5E84A9A84D
:1004F0002326FB00FDB783A7090082971C4433071E
:10050000F5406376F500032749001D8F2A9763E0C5
:10051000E4089747002023AB074683552400034592
:100520000400EF60B00D5C405844A1CB0C4403269E
:100530004900AE97BE8663E4B70063E4C700B386A4
:10054000C74014C4228B3A8459F097470020938700
:10055000E7429C4B05476372F706FD1717470020DB
:100560002326F742B250225492540259F249624A69
:10057000D24A424BB24B4561828063170B009747CA
:10058000002023A3E744B1BF2326EB0099BF032734
:100590008A0209CF63EFA7003385A74083A70A012A
:1005A0006376F5009747002023A2A73E228B4044A4
:1005B00061BF03274900BA97C5B79747002023A713
:1005C000073C4DB701114EC6B747024006CE22CCBC
:1005D00026CA4AC852C483A9C72023A607200F10E1
:1005E0000000174900201309E9429747002083C7FC
:1005F000274303254900ADC39747002083D74765AC
:10060000A1CF974700209387675903A4070B630581
:10061000A4049747002093876736984B3E8A630768
:10062000A710974400209384A4399C408297636B61
:10063000A40E9C40098C829703270A016373E4008F
:100640002287B307A7003E858326490063E4E700BD
:1006500063E4D7003385D740B747024023A637214C
:1006600083274900639FA702174400201304043125
:100670001848974700209387A7349C43631AA70A1A
:10068000829783264900B74736FE938707C8B697F7
:100690003387A7003A856364F7006364D7003305A6
:1006A000D740174400201304E4645C5081CF97477F
:1006B00000209387E76B94433707CDFF7D179C4657
:1006C000F98F9CC619E1032549008547174700208B
:1006D0002328F762974700209387472F9C578297DC
:1006E00011ED5C5099CB5C4489CBEF00E22CEFF02C
:1006F000B1039747002023A5076069335C5099CB6D
:10070000974700209387C7669843B70633001C4776
:10071000D58F1CC7F2406244D2444249B249224AB2
:1007200005618280832749003E9421B722852DB739
:100730008297144803274900B387A6003E8563E4E7
:10074000D700E3E0E7F63385E740A1BF23AEA186FB
:1007500001C585472380F18882809387C1879C43A8
:1007600081CF411106C6829783C7018899E323AEE2
:100770000186B2404101828083C7018881E723AEB0
:10078000018682808280411126C206C622C4974714
:10079000002083C7E728974400209384E42085EB5A
:1007A0009747002083C75755858B174700201307AD
:1007B000675491CF8347770099466396F60C974725
:1007C0000020A38B0752EF107032DC4482979C44C8
:1007D00091C38297174400201304C41E1840174683
:1007E00000200346B6199747002083C72719939620
:1007F0001700BA9683D60600C5C69747002083C760
:10080000E71763E9C70A9747002023890716974728
:10081000002083C7B74E974400209384A44D63976C
:100820000712974700209387A7199C43638B0710F3
:10083000974700209387071EDC4317470020232794
:10084000F714893197470020938747189C57638A8C
:10085000070E83C7740011476365F70E97470020A2
:1008600083C7C74E918BF1EF83C70188F9EB104026
:100870009746002083C6961063C7D70E2244B24025
:100880009244410181B3834777001D47E311F7F498
:1008900097470020A3820746EF1050259C483DB79C
:1008A000850793F7F70F974600202389F60CE3ECB2
:1008B000C7F2A1B786073E978355070023100700AC
:1008C00097470020239C070E974700209387870DAA
:1008D0009C43174500200345650A13172500BA9766
:1008E0009C4382979747002083D7470D17470020E6
:1008F0000347C70893C7F7FF7D8D9317170018406C
:100900003E97835707005D8D2310A700974700206F
:1009100083C7C70691C78507174700202300F7063E
:100920009C4091C782979747002023AF070617473F
:1009300000200347A7049747002083C73704E374C8
:10094000F7ECB240224492444101828083C7740094
:1009500093F7F70FE39707EC97470020A380073A38
:10096000EFF0F12A7DBD1397170032970357070068
:1009700069FB850711B7374702408326C720F17707
:10098000FD17F58F2326F72001000100974700206F
:100990009387C7FEC84F832787262326D7206A055B
:1009A00093C7F7FF99835D8D82809747002083C7A7
:1009B00017FD99CF9747002083C7870681CF9747B8
:1009C00000209387270603A3070063070300028321
:1009D00005458280094582801305F00F8280938748
:1009E000818D9843174600200346C61A8147631538
:1009F000F600814636858280BA86130787028355C2
:100A000087FDE389A5FE850793F7F70FCDB7938799
:100A1000418F9C43174700200347D7172A860507B5
:100A200081463E8583D707006388C7008506930704
:100A30006500E3E8E6FE014582809387C18E984316
:100A400019E3014615A81C4703D8A700636B0501ED
:100A500083584700B38608016355D50081466394E7
:100A600016011843F1BF3E86C10703D3A7FF6317E2
:100A7000A30099C123900501328582808506C206B4
:100A8000C182F1BF974700209387C70A9843174652
:100A900000200346261081476315F60081463685FF
:100AA0008280BA861307C703835567FCE389A5FED6
:100AB000850793F7F70FCDB7032785116302071258
:100AC000411122C406C68347C5008345E5042A8434
:100AD00093F7C70F2306F500834697000356C70018
:100AE00013958601618563F2C508635B05060345BE
:100AF000870093F6F607A304D700054693E6270080
:100B00006314C50093E617002306D4005C438907ED
:100B10005CC3A30AB400032504112E864C430905C7
:100B2000EFF06FF98327841103465401D44303D7B0
:100B3000C700B296118FD4C32396E7008947A30D4F
:100B4000F400034764039747002083C747E96378AD
:100B5000F7048347C40093E707012306F40081A04C
:100B600093E717002306F4006DB79376F60F635DE5
:100B7000050203458700854513E627006314B50089
:100B800013E617002306C400A30AD400A304070039
:100B90008547A30DF400832784119C43DDF3B24005
:100BA000224401454101828093E717002306F400A7
:100BB000A30AD400A3040700032504114C4309052C
:100BC000EFF06FEF8327841103465401D44303D71A
:100BD000C700B296118FD4C32396E7008D4755BF47
:100BE00005458280974700209387070E9C4341115B
:100BF00022C406C6858B2A84D5EB4165130525F5ED
:100C0000EF80C12045C58347A5002315F500832744
:100C10000412BDE72320A4122322A4128547231126
:100C2000F404232005008347640154412316F50092
:100C30000347D4002304E5000547A304E500174754
:100C400000201307270B58531385170215811C43E7
:100C50007D151375F50F9CC25C43DCC21C479CC616
:100C60005C47DCC61C4B9CCA5C4BDCCA1C4F9CCE50
:100C70005C4FDCCE19CD9386060213070702C1BF75
:100C80008327441288C3835724042322A412850790
:100C900079B79747002083D7E7F0850717470020EB
:100CA0002312F7F0B2402244410182808347C400FE
:100CB00023090400054593C747002306F400DDB768
:100CC0008347850193F7E70FC5EF83479501CDEB88
:100CD000034625018346C50009CA834565031747B6
:100CE00000200347D7CF63E7E50013F7060151CB98
:100CF000014709C6C18A0357251E81C68356651E52
:100D0000369741C31307C71217450020035505D175
:100D1000B335A70237460F0041111306062481465A
:100D200022C426C206C67D543305A702EF40C05137
:100D30009747002083C7F7CAB384A70097470020CE
:100D40009387C7E503A7C7098327070963F38700CC
:100D50003E84184375FB97470020938767C69C43E2
:100D6000829781476364A400B307A440B240224441
:100D7000B3B7970093C7170092443E854101828024
:100D800081473E85828097470020938727F99843C3
:100D90007C53FDFF8280011197470020938707E075
:100DA00022CC03A4470A26CA9747002083D707C747
:100DB00083546408032504094AC8B384F402B7477E
:100DC0000F001387F7239387072406CE4EC652C41D
:100DD00056C2174900201309E9C3BA94B3D4F402E8
:100DE000636E950297490020938989BD83A7090006
:100DF000B3049540829763E7A402898C63C8040218
:100E000083570404A30F040085072310F4048347C9
:100E10000414639F07102285352729AA83274900D8
:100E20003E95C9B783274900BE94C1BF83A7090077
:100E30008297032784086367E50A198D8357E403C3
:100E400017470020035787BD8E07B387E7021307B4
:100E5000003293870719B3D7E70263EAA708374A36
:100E60000F00930AFA23130A0A2483570404850700
:100E70002310F4048347041499E32285E125228595
:100E8000EF60F17D631A0526832604098327C408D1
:100E900003274900B6973E8563E4D70063E4E70083
:100EA0003385E7408347F401835464082328A4086A
:100EB0008507A30FF4009747002083D727B6B38494
:100EC000F402D694B3D44403636C9504B304954000
:100ED00083A70900829763E9A4043385A440E3460D
:100EE00005F839BF83274900998F3E9581BFA145F9
:100EF0002285EF60516EA305A402974700209387D7
:100F0000E7AC03A347036309031E6244F240D244E3
:100F10004249B249224A924A8945154505610283F0
:100F2000B3049740AA946DB783274900BE9475B760
:100F30002285452D2285EF609172631F051A835724
:100F4000640817450020035565ADB7460F00B38709
:100F5000A7021386F6239386062403270409230B8E
:100F60000402032A4900B297B3D7D702636FF71878
:100F7000B307F7408326C4082324F408814AB387C3
:100F8000E600BE8463E4D70063E44701B3844741CD
:100F90008357040223289408B1CB835604040357D3
:100FA000440237460F002312D4023387E640B3874A
:100FB000E702035724021306062481468145BA97A7
:100FC000C207C1833385A7022311F402EF40C02773
:100FD00011CD2695B3349500AE94AA8763949A00F8
:100FE00063644501B30745412328F40883A709003A
:100FF0008297AA8483A709008297E30D95FE83A7B1
:10100000090083248408829763E6A4103385A440F2
:1010100063030512835764089749002083D909A008
:10102000B7440F00B38737031387F4239384042452
:10103000BA97B3D79702174700200347979ABA97F2
:1010400063EBA70EB3359502035924024E86814601
:1010500033059502EF40401F330AA90033053903D9
:1010600037460F001306062481468145EF40C01D18
:1010700005C1B33795024E868146B385B4023385E8
:10108000A402BE95EF40401C3305A9402311A402E1
:101090003545EFF0614A9747002023A387BA83467E
:1010A000B40005479747002083C787976398E606F3
:1010B000130700FD2307E40017470020130707C2AA
:1010C0000843B5C7EFF08FE897460020938606C522
:1010D0009042954717470020A301F7C25846F97779
:1010E000FD17F98F5CC60F1000009C428966060A46
:1010F00094C723A24707D8C7F2406244D24442496A
:10110000B249224A924A05618280B3064701B387F9
:10111000F6408DB583274900BE94CDBD130710FC62
:101120002307E400174700201307C7BA51BF8145C2
:10113000EF60A02D51BF9747002023A307B097472A
:10114000002083C7E78D99CF97470020938747B842
:101150008843EF60606DB7E700E03707000223A225
:10116000E72059BF8347940285456244F240D24448
:101170004249B249224A924AB395F500C205C1815B
:10118000014505616F509047011122CC4AC84EC6F7
:1011900006CE26CA52C456C25AC00347B500854778
:1011A0002A842E8983290509631DF71E83570508A4
:1011B000035BC503974A002083DA4A86174A00205A
:1011C000130A4A8563F7671B834605016393E61A92
:1011D00003278511631F07180327450A631B071898
:1011E0008346F5001D476396E6180355A503330BA8
:1011F000FB409307204E330565038324440937469B
:101200000F001306062481463305F50297370020A8
:1012100083C7277DB3549502B3B5AA02BE94C20416
:10122000C180231394083385AA02EF40E001AA99F4
:1012300033B5A9002E954E8783274A0019E163E450
:10124000F9003387F940B3845403B7460F009387FE
:10125000F623938606242320E900BE94B3D4D40257
:1012600093171B00A6976360F7101D8F2320E900DA
:10127000973900209389C97483A709008324090042
:10128000829763E3A4123385A4406352050C83A7BD
:101290000900829703270900636FE510198D8357B2
:1012A000E40317370020035767778E07B387E702F9
:1012B0001307003293870719B3D7E70263E5A71036
:1012C000374A0F00130BFA23973A0020938A8A7447
:1012D000130A0A248357040485072310F404834760
:1012E000041499E32285B92C2285EF60513765E912
:1012F000832604098327C40803A74A00B6973E85BE
:1013000063E4D70063E4E7003385E7408347F401F3
:10131000835464082328A4088507A30FF400973793
:10132000002083D7A76FB384F402DA94B3D44403C4
:101330006366950CB304954083A7090023209900A8
:10134000829763E1A40C3385A440E34505F8973701
:10135000002083C7176963E5A7089747002023A1EA
:10136000878E0145B5A883264A00B387F6403E978D
:10137000F5BD8357640837470F00B38457039307BD
:10138000F723A69793040724B3D4970263E7990041
:10139000B384994023209900E1BD83274A00BE9978
:1013A000C5BF23A03501E9B597370020938787662D
:1013B000DC43BE94C9BD973700209387A765DC4303
:1013C000998F3E95E9BDA1452285EF60D120A30507
:1013D000A402973700209387675FDC5B81EF7D5520
:1013E000F2406244D2444249B249224A924A024BF4
:1013F00005618280894515458297D5B7B30497402A
:10140000AA941DBF83A74A00BE9435BF31CD0111F8
:101410006C0022CC06CE2A84853B29C5FD57630883
:10142000F502973600209386665A945632479737CE
:10143000002083C7175B91C28583636EF700B307F3
:10144000F7403EC6B24503459402EF505032F24099
:10145000624405618280973600209386A65BD44261
:101460003697F1BF0D3AE5B7828079719737002042
:101470009387C77226D283A4C70906D622D44AD03E
:101480004ECE0947A5C09746002083C616879547CC
:101490000D476389F604974700209387A785DC47AB
:1014A0002A8989CBEFF04151EFE0112897470020BE
:1014B00023A80784FD596C002685F93105ED170531
:1014C00000001305858DEFF06FA8A1471747002096
:1014D0002304F78297470020938747849C4309475A
:1014E000F8D30D47B250225492540259F2493A852A
:1014F00045618280637435013244AA898440C5FC09
:10150000FD571307F00FE38FF9FC914763F487024F
:101510009307B4FF2320F900173700202328F77220
:101520000147E9F3973700209387C74EDC43232018
:10153000F9004DBF973700209387C74DDC43ED1767
:10154000A297C9BF797126D206D622D44AD04ECEF0
:1015500052CC56CA5AC85EC6834755030344751316
:10156000AA843E941374F40F9307400263F6870035
:101570001304B4FD1374F40F03AA841383AAC413D1
:10158000A38B841222865285D685EF30704605895A
:1015900005E503CBD41201498149337B6403930BE6
:1015A00050024A865285D685EF309044058915C58C
:1015B000639169031374F90F238B8412B250225480
:1015C00092540259F249624AD24A424BB24B4561A7
:1015D00082808509E20993D989410509E31379FDE0
:1015E000E1BF8327850903560504797193D6070166
:1015F000BD8EC206C182358E135776409357564032
:10160000898B058B5D8F93573640918B5D8F9357F8
:101610001640A18B5D8F93171600C18B5D8F9317BA
:10162000360093F707025D8F931756009355860097
:1016300093F707041E065D8F1376F60F518F93D72D
:10164000554013D63540118A898BD18F13D67540FA
:10165000D18F13D61540218AD18F13961500418A58
:10166000D18F1396350013760602D18F139655004D
:10167000137606049E05D18F93F5F50FCD8FA20743
:1016800045465D8F3307C70222D42A8426D252CC26
:1016900056CA032A8413832AC4135AC806D6369717
:1016A0004207418393577740135557400989858BEB
:1016B000C98F135537401189C98F13551740218998
:1016C000C98F131517004189C98F1315370013757A
:1016D0000502C98F1315570093558700137505042C
:1016E0001E07C98F1377F70FD98F13D5354013D73E
:1016F00055401189098B498F13D57540498F13D5F2
:1017000015402189498F139515004189498F1395FB
:10171000350013750502498F13955500137505049F
:101720009E05498F93F5F50F4D8F2207D98FB3870B
:10173000C7024AD04ECE5EC662C4B697C207C18306
:1017400013D7774013D557400989058B498F13D597
:1017500037401189498F13D517402189498F139537
:1017600017004189498F1395370013750502498F7A
:101770001395570093D58700137505049E07498F6D
:1017800093F7F70FD98F13D5354013D755401189EB
:10179000098B498F13D57540498F13D51540218981
:1017A000498F139515004189498F1395350013759D
:1017B0000502498F13955500137505049E05498F41
:1017C00093F5F50F4D8F2207D98FB387C702130604
:1017D00050025285D685B697BD8E93940601C1807E
:1017E00033F6C402137BF60FEF30902005891DE914
:1017F0008347D41201498149B3849702130C5002E4
:10180000C1804A865285D685EF30901E0589937B2C
:10181000F90F11C563863403850993F9F90F05099A
:10182000E31189FF230B6413B250225492540259DE
:10183000F249624AD24A424BB24B224C4561828005
:101840005E8BCDB78327C50803568508797193D67B
:101850000701BD8EC206C182358E1357764093575D
:101860005640898B058B5D8F93573640918B5D8FEA
:1018700093571640A18B5D8F93171600C18B5D8F18
:101880009317360093F707025D8F93175600935511
:10189000860093F707041E065D8F1376F60F518FAF
:1018A00093D7554013D63540118A898BD18F13D6E3
:1018B0007540D18F13D61540218AD18F139615000C
:1018C000418AD18F1396350013760602D18F139675
:1018D0005500137606049E05D18F93F5F50FCD8F35
:1018E000A20745465D8F3307C70222D42A8426D239
:1018F00052CC56CA032A040A832A440A5AC806D676
:1019000036974207418393577740135557400989CB
:10191000858BC98F135537401189C98F13551740CF
:101920002189C98F131517004189C98F13153700F5
:1019300013750502C98F131557009355870013754A
:1019400005041E07C98F1377F70FD98F13D53540BC
:1019500013D755401189098B498F13D57540498F8D
:1019600013D515402189498F139515004189498F59
:101970001395350013750502498F1395550013759E
:1019800005049E05498F93F5F50F4D8F2207D98FDA
:10199000B387C7024AD04ECE5EC662C4B697C207AE
:1019A000C18313D7774013D557400989058B498FD9
:1019B00013D537401189498F13D517402189498F95
:1019C000139517004189498F139537001375050248
:1019D000498F1395570093D58700137505049E070B
:1019E000498F93F7F70FD98F13D5354013D755404B
:1019F0001189098B498F13D57540498F13D515402F
:101A00002189498F139515004189498F1395350018
:101A100013750502498F13955500137505049E052E
:101A2000498F93F5F50F4D8F2207D98FB387C702E2
:101A3000130650025285D685B697BD8E9394060143
:101A4000C18033F6C402137BF60FEF30607A05894C
:101A50001DE98347140801498149B3849702130C97
:101A60005002C1804A865285D685EF30607805895C
:101A7000937BF90F11C563863403850993F9F90F38
:101A80000509E31189FF230F6407B25022549254D1
:101A90000259F249624AD24A424BB24B224C45614A
:101AA00082805E8BCDB783274509035685087971FF
:101AB00093D60701BD8EC206C182358E135776407C
:101AC00093575640898B058B5D8F93573640918B8A
:101AD0005D8F93571640A18B5D8F93171600C18BB6
:101AE0005D8F9317360093F707025D8F93175600AB
:101AF0009355860093F707041E065D8F1376F60F45
:101B0000518F93D7554013D63540118A898BD18F89
:101B100013D67540D18F13D61540218AD18F1396D5
:101B20001500418AD18F1396350013760602D18FA6
:101B300013965500137606049E05D18F93F5F50F85
:101B4000CD8FA20745465D8F3307C70222D42A8472
:101B500026D252CC56CA032A040B832A440B5AC8F5
:101B600006D636974207418393577740135557401F
:101B70000989858BC98F135537401189C98F135532
:101B800017402189C98F131517004189C98F131573
:101B9000370013750502C98F131557009355870039
:101BA000137505041E07C98F1377F70FD98F13D547
:101BB000354013D755401189098B498F13D575408E
:101BC000498F13D515402189498F139515004189F7
:101BD000498F1395350013750502498F13955500EC
:101BE000137505049E05498F93F5F50F4D8F220758
:101BF000D98FB387C7024AD04ECE5EC662C4B697AD
:101C0000C207C18313D7774013D557400989058B85
:101C1000498F13D537401189498F13D51740218932
:101C2000498F139517004189498F13953700137514
:101C30000502498F1395570093D587001375050446
:101C40009E07498F93F7F70FD98F13D5354013D7D8
:101C500055401189098B498F13D57540498F13D58C
:101C600015402189498F139515004189498F139596
:101C7000350013750502498F13955500137505043A
:101C80009E05498F93F5F50F4D8F2207D98FB387A6
:101C9000C702130650025285D685B697BD8E93941F
:101CA0000601C18033F6C402137BF60FEF304054B7
:101CB00005891DE98347F40801498149B3849702E6
:101CC000130C5002C1804A865285D685EF304052AF
:101CD0000589937BF90F11C563863403850993F950
:101CE000F90F0509E31189FF230F6407B25022544D
:101CF00092540259F249624AD24A424BB24B224CA8
:101D0000456182805E8BCDB7797122D406D683C7B8
:101D100035002E8423160100A307F10083C7450078
:101D2000100802C02307F10083C755008A8502C24C
:101D3000A306F10002C402C802CA02CC02CED52A10
:101D40000347F1018347040001456310F70203478D
:101D5000E1018347140001456319F7000345D101F0
:101D6000834724001D8D13351500B2502254456160
:101D70008280011197370020938747E222CC03A489
:101D8000C70C26CA4AC84EC606CEAA841309250027
:101D9000854915C083C7140003473400858B63044D
:101DA000F700405CFDB71946930544004A85EFE013
:101DB000AFE1E31835FF2285F2406244D244424944
:101DC000B24905618280411197370020938707DD72
:101DD00022C403A4C70C26C24AC006C69304250029
:101DE000054901E82285B24022449244024941015A
:101DF0008280A6851305A402013FE30525FF405C10
:101E0000CDB7411197370020938747D922C403A447
:101E1000C70C26C24AC006C693042500054901E83E
:101E20002285B24022449244024941018280A68523
:101E30001305A401D13DE30525FF405CCDB7011199
:101E400022CC604126CA4AC84EC652C406CEAA84D5
:101E50001D4A130965058549BC446364F4000545C2
:101E600081A803C7D40083474400631B470503C709
:101E700084026304F7000040C5B70347540083C7DA
:101E80005405E31AF7FE1946CA8513056400EFE00E
:101E9000AFD3E31235FF0347C40083C79402E31CAA
:101EA000F7FC0357E40083D7A402E316F7FC0145CF
:101EB000F2406244D2444249B249224A05618280DA
:101EC000E31BF7FA0347540083C75405E315F7FAF9
:101ED0001946CA8513056400EFE00FCFE31D35F9FD
:101EE000F9B7011197370020938747CB22CC03A481
:101EF000470C26CA06CE2AC42EC6854419E40145DD
:101F0000F2406244D24405618280834791000347D6
:101F10001400858B6304F7000044CDB71946930580
:101F2000A10013052400EFE02FCAE31795FE054535
:101F3000C1BF973600209386E6DA9C421307001053
:101F400098C323A007000347150003482500220774
:101F5000420842970348050042970348350062084B
:101F6000429798D703475500034865002207420867
:101F7000429703484500429703487500620842971C
:101F8000D8D7034795000348A50022074208429787
:101F90000348850042970348B5006208429798DBE2
:101FA0000347D5000348E50022074208429703484B
:101FB000C5000345F500429762052A97D8DB03C7A1
:101FC000150003C52500220742052A9703C5050011
:101FD0002A9703C5350062052A9798CF03C7550095
:101FE00003C56500220742052A9703C545002A97C5
:101FF00003C5750062052A97D8CF03C7950003C5AE
:10200000A500220742052A9703C585002A9703C524
:10201000B50062052A9798D303C7D50003C5E5002C
:10202000220742052A9703C5C50083C5F5002A97F4
:10203000E2052E97D8D3D843759BD8C3D8431367EE
:102040001700D8C398431367170098C398425C439E
:10205000858BD9E31C4F01452300F6009C429C4F21
:10206000A183A300F6009C429C4FC1832301F6008C
:102070009C429C4FE183A301F6009C42D84F23026F
:10208000E600D84F2183A302E600D84F4183230303
:10209000E600D84F6183A303E60098532304E600CB
:1020A00098532183A304E600985341832305E60057
:1020B00098536183A305E600D8532306E600D8535E
:1020C0002183A306E600D85341832307E600DC53AF
:1020D000E183A307F600828001008DBF97370020BF
:1020E0009387C7C398431605136505083C4B93E7D0
:1020F00007083CCB973700209387C7BE9C4303A7B4
:10210000450E88C398CB03A7850E0145D8CB03A7FE
:10211000C50B98CF03A7050CD8CF03A7450C98D3C0
:1021200003A7850CD8D303A7C50C98D703A7050D23
:10213000D8D703A7450D98DB03A7850DD8DB03A7E8
:10214000C50D98C703A7050ED8C7984313670704A2
:1021500098C3828097370020938747BC9843160521
:10216000136505083C4B93E707083CCB97370020E5
:10217000938747B79C4303A7C50E88C398CB03A793
:10218000050F0145D8CB03A7C50B98CF03A7050CB6
:10219000D8CF03A7450C98D303A7850CD8D303A7A2
:1021A000C50C98D703A7050DD8D703A7450D98DB15
:1021B00003A7850DD8DB03A7C50D98C703A7050E98
:1021C000D8C798431367070498C3930700F81737D5
:1021D00000202304F7B28280973600209386C6B091
:1021E0009842411126C21C5F06C622C49983858B82
:1021F000B684CDC3930700061CDF9737002083C742
:1022000067AF93F70704173400201304A4AE9DC3EF
:10221000972700209387C77A9C438297973700209F
:1022200023A8A7AE8347040093F7F70B17370020C6
:102230002302F7AC8347040093F707029DC383474B
:102240000400A16693F7F70D173700202304F7AABF
:1022500017370020130787AC5C481843860714C75C
:102260007CD78347440093F707048DE785471737EA
:102270000020A303F7A897370020938727AA9C4341
:10228000096798C7130700FC973600202386E6A647
:102290001848F8D398401C5F9183858B81CBC14748
:1022A0001CDF8547973600202388F6A41C5F9D839A
:1022B000858B89CB930700081CDF854717370020E3
:1022C000230CF7A2973700209387C7A19C43D843DC
:1022D0000583058B19C7D843759BD8C3D843799B11
:1022E000D8C3B240224492444101828097370020F3
:1022F0009387C7A29443973700209387A79F03C76C
:102300000700058B09EB03C71700058B09E7F85297
:102310007DF783C7570097370020A38F079C8280E3
:10232000173800201308489C032708001C5F95837A
:10233000858BBDEB09C61C5BBD832300F60085CAF7
:1023400083270800985B4607935767016356070089
:1023500093E707C0C207C18303970600C207C1877E
:1023600009C7BA970947B3C7E7022390F60095C19A
:102370008347150099CF3E9583479500054719453A
:1023800093F6F7066393E602E207E187394563CEE9
:1023900007008327080001459C5FED838D8B17376D
:1023A0000020A30EF794828005458280411122C44B
:1023B00006C6173400201304649618403DE5AE8726
:1023C0007453FDFE3E85B285973700202385079222
:1023D000EFD0315697370020938707919C43B7067B
:1023E00080009843558F98C3D857719BD8D797379B
:1023F0000020A383079097370020A38D078E1C40F1
:10240000094798C31440173700201307A78E834746
:102410002700858B99E783473700858B99E3FC522A
:10242000FDF7B2402244410182808D476310F502DE
:10243000973700209387478B9C43B70680009843CB
:10244000558F98C3D857719BD8D76DBF8547E31B6D
:10245000F5FA5447F977FD17F58F5CC70F100000A8
:102460001C40096798C7130700F81736002023059A
:10247000E688173700201307278710431842318357
:102480000D8B11E713076019F8D3D4C7A5BF184205
:10249000094631830D8B6315C7001307E043EDB781
:1024A0001307E01BD5B75D7152DC173A0020130A01
:1024B000AA8303270A0086C6A2C4A6C2CAC04EDEEB
:1024C0001C43973900209389A98A173900201309E2
:1024D000E98493F7F7E793E707081CC383A609008D
:1024E0003707CEFF7D179C46130680022A84F98F9A
:1024F0009CC6832709002800AE8423A807049305FF
:102500001008EFD0FFE13545EFE0010383270A0013
:102510009376F41F3706330023A40700984B370F38
:10252000FCFF4E881367F70398CBF84FCA88130552
:1025300010F8137707E0558FF8CF9843F576FD161E
:10254000758F98C317270020A308077A83260900F0
:1025500017270020A300077A054798C29843D28521
:10256000B70204001377F7E798C3984393038025D5
:1025700011491377F7E71367071098C303A70900FA
:102580007D1F85491C47930F8002D18F1CC793077D
:102590009005BCCA01473400135337002693834784
:1025A000030013767700B3D7C740858BDDCF9C41FE
:1025B000832E0800239C07042390070603AECE0257
:1025C000137EDEFF23A6CE0383AE0700137EF7073C
:1025D00093FE0EF833EECE0123A0C70103AE4702EF
:1025E000336E5E0023A2C70383AE0800014E23A210
:1025F0007E0603DA070663074E0303AE0703038A6A
:102600000600135EFE00620E135E8E416358CA011F
:1026100003AE0703135EFE002380C60103DE070638
:10262000137EFE0F03AA4E0663060A0003DA87052F
:10263000E37F49FB03AE4702337EEE0123A2C703CB
:1026400083870600635CF400034E03003396C900E1
:102650001346F6FF3376C6012300C3003E8663D3DC
:10266000A7002A8613158601618505071377F70FE2
:102670008506E313F7F3B640264496440649F2591B
:10268000625A6161828097270020938727699C4363
:10269000D8479316170163D506029847931617017A
:1026A00063D006027D57B8D7172700201307072DE0
:1026B000584F05079726002023A0E62E116798C7DC
:1026C00098470D83058B1DC3172700200347A7627A
:1026D0001367170097260020238FE660130700F882
:1026E00097260020238AE660214798C79847058BE4
:1026F00009CF172700200347F75F136717009726B6
:102700000020A389E65E054798C798470983058B93
:1027100009E798470583058B35C317270020A30DCC
:10272000075C9847172600201306C65C97260020F2
:102730009386865B0983058B9442B28563000710FC
:10274000984231830D8B65EBB04BD851137606025E
:10275000034717005DCA69EF1307D005D8CF03C739
:10276000050013671700172600202305E6581147B8
:1027700098C7D856719B13671700D8D698479316F9
:10278000370163D606029726002083C6E648C18A31
:102790001727002013078740C5CE0347C7071367D5
:1027A0000702972600202389E646056798C79847C1
:1027B0009316270163D10602172700200347C7534A
:1027C0006207618763570700054797260020238526
:1027D000E652096798C798479316070163D6060221
:1027E0009726002083C65643858A172700201307A3
:1027F000E73AADCE0347D707136727009726002097
:10280000A38CE640216798C7828039D705466315B7
:10281000C7001307100699B709466315C7001307C9
:1028200050062DBF0D466315C700130790063DB730
:102830001307B00625B71307C0060DB703473600C8
:102840001367170017260020A307E64A09470DB7AC
:102850008346C7070946BD8A6388C6000347C70782
:102860008D463D8BE313D7F4114725BF8346D70729
:10287000918AC9DA0347D7071367870041B79727BB
:1028800000209387A7499C4398479726002023AFB1
:10289000E6469447172700201307C7458D82858A8F
:1028A0008DC28346270093E61600172600202304D6
:1028B000D644930600F817260020230FD642A146DF
:1028C00094C79447858A99CA8346170093E61600F1
:1028D00017260020A300D642854694C794478982D4
:1028E000858A89E694478582858AA1CE972600202D
:1028F000A38406409447172600201306E63E1042A4
:102900008982858AD5C21442B1828D8AD9EAAC4BBC
:10291000545393F5050283C61600B1CDC1E2930668
:10292000D005D4CF8346070093E6160097250020F4
:102930002382D53C914694C75456F19A93E61600EB
:1029400054D6944713962601635F06000347470059
:102950006207618763570700054797260020238D8C
:10296000E638096798C798479316070163D40600AD
:10297000216798C78280C5D685456395B6009306C2
:10298000100645B789456395B6009306500651BFBA
:102990008D456395B6009306900661B79306B00621
:1029A00049B79306C006B5BF8346370093E61600C5
:1029B00097250020A381D5348946B5BF97270020ED
:1029C0009387C73598438567938707777CD3972785
:1029D00000209387E7399C4383A607091396560086
:1029E0006358060083A60709139666006344060031
:1029F0007453FDF28280411122C4B747024006C6DB
:102A000003A4C72023A607200F10000011C199E5D9
:102A1000B747024023A6872001457DA893073500CC
:102A2000C207C183F19BC207C183130740036369D7
:102A3000F702172700201307673C084317270020D9
:102A40001307473B14436392A6021727002013077E
:102A5000E7F7585B55DFC207DD8D054502974DBF8F
:102A60001727002013074739C9BF035765002DEB0F
:102A7000035745006366F706B306F7402146637CBB
:102A8000D60203280500938687001D8FAA9661173A
:102A9000172600200356E6EE2392E60023A0060147
:102AA0002393060014C12312F500130786FF97260F
:102AB00000202398E6EC2313B5009725002083D54A
:102AC00045ECB387F54017270020231CF7EAB747EA
:102AD000024023A687202105B24022444101828082
:102AE000084195B7B747024003A8C72023A607208F
:102AF0000F10000001E523A6072182809727002000
:102B00009387C72F03AE0700972700209387872E50
:102B100003A307008146F28763F0670C83A80700D0
:102B2000636FF50A63EDA80A138787006366E50AF9
:102B300003D66700216705076317E60003C7819086
:102B400005072384E19097250020938525E303D68C
:102B5000470003D76500239307003297420741835C
:102B600017250020231FE5E0638AC70317250020EF
:102B70001305852808416303F50203D5660019EDA6
:102B800083D7460023A0160121073E9621062392F3
:102B9000C600972700202396E7DEB6879843630D8B
:102BA0006702972600209386262594426306D70263
:102BB0008356670095E283D64700035647001843C3
:102BC000A106B2962392D70098C383D76500A107C8
:102BD000172700202317F7DAB747024029BFBE8620
:102BE000C6871DBF9727002093874721972600207F
:102BF000938646209C4390422A87B305B5406314D0
:102C0000F6003A8529A8938687009C43E369D7FE9E
:102C1000E377F7FE2E85E3E4D5FEE3F2F5FE82804E
:102C2000411197270020938767F726C2A44F06C655
:102C300022C44AC08547C1CC03A4C40A854741C801
:102C40008347A4001307700A639AE70803475400F8
:102C500083479400972600209386C6DBD042B38733
:102C6000E70217270020035767DBB387E702130744
:102C7000003293870719B3D7E70203A74409B68444
:102C80003E973A896364F7006364C7003309C7401D
:102C9000972700209387C7D29C4323202501829742
:102CA000B307A9406374A900D840BA9781E7930796
:102CB000F00F31A8034754009306204E3307D70284
:102CC000E3F7E7FE930780FA2305F4008147B2405B
:102CD0002244924402493E85410182801307800AC2
:102CE000E397E7FC97270020938787CD9C43829743
:102CF0002A893545EFD05104AD4717270020A30E90
:102D0000F7FE03475400834794001726002013065C
:102D100066D05042B387E70217270020035707D039
:102D2000B387E7021307003293870719B3D7E70287
:102D300003A744093E97BA866364F7006364C7003B
:102D4000B306C740E315D9F61765020013052571D0
:102D5000EFD0DF9F97270020938747FC9C430947CC
:102D6000F8D7B1B7397152D4172A0020130A8AF85C
:102D700083278A0106DE22DC26DA4AD84ED656D2CE
:102D80005AD05ECE62CC66CA6AC86EC61397070177
:102D90006357072097270020938747E0A04F032918
:102DA000C40A834799000327C9009207330CF70030
:102DB00003452C00314705053305E50203574C0058
:102DC0003A9542054181EFD0EFBEAA8B6303051E01
:102DD000130DC5002324A50103462C00B145F97A43
:102DE0003306B60223130C008144972900209389EF
:102DF000E9F2172B0020130B2BEF972C0020938C5C
:102E00002CF7930D9005FD1A6A962326CC000346F5
:102E100079009307D00703A509003306F6028567FA
:102E20001CC5B7073300060630D103260B000C4241
:102E300093F5F5E70CC20C4293F5F5E793E5051021
:102E40000CC203A80C0083258800DD8D2324B80064
:102E5000832509002328B5050CC683556C0003267D
:102E6000CC002E962324CD0003461C00930550026F
:102E70002696A301CD0003450408014697270020AC
:102E8000A38A07E6EFD0814003A609004846B37540
:102E900055014CC60F10000003A6090089650328E0
:102EA0000B000CC6930500F8972700202386B7E493
:102EB00083250800B1818D89F1E1930560196CD2F9
:102EC00048C697270020A38907E285459727002059
:102ED000A38207E20CC2EFF06FC1EFD0A15D034601
:102EE0001A00058A4DCAEA852285EF70026115ED48
:102EF00003465D004DC283556C0003554C00B295EE
:102F000063DBA508834524012848918D8905AA958E
:102F100003258D00EFD02FBA23020D0083455D00FD
:102F200003566C002E962313CC0083A50900310DA7
:102F3000B0517DFE03462C00850493F4F40FE3E8C2
:102F4000C4EC034784005E85A381EB0083470C003B
:102F5000A3820B002383CB002382FB006254F25038
:102F6000D2544259B259225A925A025BF24B624CE5
:102F7000D24C424DB24D21616F1081708325080003
:102F80000948B1818D89639505019305E04305BF2B
:102F90009305E01B2DB77D562302CD0079B7972707
:102FA00000209387A7D79C43FC5781C78547238080
:102FB000F188F2506254D2544259B259225A925A6C
:102FC000025BF24B624CD24C424DB24D2161828089
:102FD000197106C212C416C61AC81ECA22CC26CE41
:102FE0002AD02ED232D436D63AD83EDA42DC46DE69
:102FF000CAC0CEC2D2C4D6C6DAC8DECAE2CCE6CED9
:10300000EAD0EED2F2D4F6D6FAD8FEDA938541862B
:103010008841E700050092402242B2424243D24337
:103020006244F244025592552256B2564257D25744
:103030006258F25806499649264AB64A464BD64B3C
:10304000664CF64C065D965D265EB65E465FD65FC4
:103050000961730020300000EFD02FF073000000F2
:103060000000000093820188038302002380020095
:10307000630F0300F32510342EC0970500009385DD
:10308000E5FD73901534EFF08FFF7300203086DC80
:0C309000EFF06FDFE650828000000000CF
:10309C0001A097E1FF1F9381218417D10020130118
:1030AC00A1F5178502001305E51197D5FF1F938530
:1030BC00A5F41386018563FAC5008322050023A0BD
:1030CC00550011059105E3EAC5FE13850185972589
:1030DC0000209385A5D26377B50023200500110548
:1030EC00E36DB5FEFD42739002BC8D42739042803D
:1030FC00930280087390023097D2FFFF938202F004
:10310C0093E2320073905230EF10307F9722000020
:10311C00938282F97390123473002030EF22204E88
:10312C00B727014093870740631CF50085451305BD
:10313C0000200D23814513050020292B6F20604EA4
:10314C00B737014093870780E31AF5FE85451305D1
:10315C0000400923814513050040C5B75C41370782
:10316C00F1E01307F7EF944D7D8F9C41D58FD44D33
:10317C00D58FD441A206D58FD98F5CC11C4537F7AA
:10318C00F1FF1307D77FD4457D8F9C49D58F94458C
:10319C008606D58FD98F1CC55C55370710FF7D1758
:1031AC007D8FDC29FD1793F7F70FD207D98F5CD5EC
:1031BC0082801C4589C593E717001CC58280F99B4A
:1031CC00EDBF1C4591C537075000D98F1CC58280B7
:1031DC003707B0FF7D17F98FD5BFA54763F7B70445
:1031EC008D47138765FF3307F7020328C5009D47FA
:1031FC00B397E70093C7F7FFB3F70701B396E60061
:10320C00DD8E54C5994763E3C70495477D16330695
:10321C00F6025859FD47B397C70093C7F7FFF98FCC
:10322C003396C5005D8E50D982800D473387E502F9
:10323C00032805019D47B397E70093C7F7FFB3F742
:10324C000701B396E600DD8E14C96DBFB14763E28A
:10325C00C702954765163306F6021859FD47B39712
:10326C00C70093C7F7FFF98F3396C5005D8E10D951
:10327C00828095474D163306F6025855FD47B39795
:10328C00C70093C7F7FFF98FB395C500DD8D4CD5FB
:10329C0082806845420541818280B727014093872F
:1032AC000740984711C5B7068000558F98C7828094
:1032BC00B70680FFFD16758FD5BF08416D8D333570
:1032CC00A00082805C4191C537070004D98F5CC196
:1032DC008280370700FC7D17F98FD5BFB7070140F7
:1032EC0023AAA7408280B7066745B727024093867A
:1032FC0036123797EFCDD4C31307B79AD8C3D4D3AC
:10330C00D8D38280372702401C4BA166D58F1CCBAB
:10331C008280B7270240984BB7060200137505F060
:10332C00558F98CBC8CB984B1367070498CBD847CD
:10333C00058B75FF984B8176FD16758F98CB828027
:10334C00372702401C4BC166137505F0D58F1CCB7B
:10335C005C47858BF5FF372702405C47898BF5FF6F
:10336C003727024013060010B386F50003A80600A9
:10337C00B306F50023A006015447898AF5FE910790
:10338C00E394C7FE1C4BB7062000D58F1CCBB72788
:10339C000240D847058B75FF984BC176FD16758F8B
:1033AC0098CB828037F7FF1F8327877E93D68700C1
:1033BC001CA114B193D60701E18334A13CB183273E
:1033CC00C77E5CA1A1835CB182809C4513F7070189
:1033DC0013F8F70001C7D8413368E8008E2113F7C2
:1033EC00F50F39C318418146854E3D4F930F80022E
:1033FC0093028004214E3396DE00B3F8C5006311AE
:10340C0016039398260033131F011343F3FF3377EE
:10341C00E300B318180133E7E800639FF70550C9C0
:10342C008506E39AC6FD18C11307F00F6375B70440
:10343C0054412146854E3D4F930F800293028004E8
:10344C00414EB398CE0033F715016392E80213177F
:10345C00260001173313EF001343F3FFB376D300A9
:10346C003317E800D98E639DF701232A1501050651
:10347C00E319C6FD54C18280E39457FA10C94DB7C5
:10348C00E39757FE23281501DDB708456D8D3335BD
:10349C00A00082800CC982804CC9828037770040A2
:1034AC001C4309C593E707101CC3828093F7F7EF01
:1034BC00E5BFB7160240DC4251777D17F98F5D8D61
:1034CC00C8C28280B71702402380070223800702FC
:1034DC0005476306E50011476306E50082802380FB
:1034EC00A702828015472380E702828037170240AB
:1034FC001C535D8D08D3828001C9371702401C53C1
:10350C00A166D58F1CD38280B71602409C5261777E
:10351C007D17F98F9CD28280371702405C4391460D
:10352C00B18B6387D706A1466389D706B7177A0094
:10353C00938707201CC1371602405C4237070020D6
:10354C00130707009183BD8BBA9794231C41B3D703
:10355C00D7005CC15442A1829D8ABA969422B3D6FC
:10356C00D70014C55442AD829D8A36971823B3D721
:10357C00E7005CC558423983937637003707002043
:10358C001307070E36971823B3D7E7021CC982809E
:10359C00B757E8019387078071BF5C435843C166F6
:1035AC00C983BD8B758F8907C5466393D700C947FF
:1035BC0001EF3747024003270780418B15CB3717A4
:1035CC007A001307072029A8B7160240D8423706FD
:1035DC00C000718F6319C7003727F4001307074029
:1035EC00B387E70281BFD8429316E700E3D906FC04
:1035FC0037173D0013070790E5B799C537170240F9
:10360C005C4B5D8D48CB8280B7170240D84B13457D
:10361C00F5FF798DC8CB828099C5371702401C4FB6
:10362C005D8D08CF8280B7170240984F1345F5FF88
:10363C00798D88CF828099C5371702405C4F5D8D9C
:10364C0048CF8280B7170240D84F1345F5FF798DCC
:10365C00C8CF828099C5371702405C475D8D48C73B
:10366C008280B7170240D8471345F5FF798DC8C73C
:10367C0082809357550005476399E700B7170240BE
:10368C009C4333D5A7000589828009476396E700E0
:10369C00B71702409C53F5B7B7170240DC53D5B7A8
:1036AC00B737004003D74780136707012392E780A1
:1036BC0082803737004083574780C207C183BD9B48
:1036CC00C207C1832312F7808280373600408356AD
:1036DC0086810357868142074183E31AD7FE37362A
:1036EC0000408356C6818357C681C207C183E39AC3
:1036FC00D7FEB735004003D6858103D585814205B9
:10370C004181E31AC5FE630CA700B736004003D70E
:10371C00C68183D7C681C207C183E39AE7FE4205FF
:10372C005D8D8280EF12B06D41112AC6953F3245F6
:10373C00B7370040135705014205239CE7804181B0
:10374C00239EA780BD3741016F10B06DEF12306B17
:10375C0041112AC6B1373245B7370040135705011E
:10376C003D8B42052394E78041812396A7809137B6
:10377C0041016F10106B373700408357478093F728
:10378C000702E5DF8280B737004003D74780134537
:10379C00F5FF798D2392A7808280EF125066E53772
:1037AC006F103068EF12B0651629F577FD17F58F9D
:1037BC00F621DA257971D58F1EA95625FD779387C9
:1037CC00379FF58FD6212A842EC6D58F9625D58F77
:1037DC00B625D58F5EA55E29C207C18393F7F7CFB7
:1037EC00D98F5EA968080D3BB747014093870780C6
:1037FC00B245631EF402A2576547B387E7029841AE
:10380C00930640060A07B3D7E70233D7D702B3F7BC
:10381C00D7021207920793872703B3D7D702BD8B22
:10382C00D98FC207C1831EA445616F10905F925758
:10383C00E1B791C55E250967D98F5EA582805A25AF
:10384C00F977FD17F98FD5BF93F5F51F4EA182803F
:10385C000A216D8D3335A000828083A781813717B3
:10386C007A0013070720B3D7E70293F7F70F2389E2
:10387C00F1841307803EB387E7022398F18482809A
:10388C00B7F700E0D8438146799BD8C303C721859D
:10389C003306A70290CBD4CB98431367070198C388
:1038AC0098431367170298C3D843058B75DF984369
:1038BC00799B98C38280B7F700E0D8438146799B07
:1038CC00D8C303D701853306A70290CBD4CB98433A
:1038DC001367070198C398431367170298C3D8431B
:1038EC00058B75DF9843799B98C38280EF1230511A
:1038FC002A841165011185451105393B9307002078
:10390C007C82371501408D473EC44C00E1471305BE
:10391C0005803EC65D3C22C837440140B70708000D
:10392C000C08130504803ECC02CA231E01009D3DE9
:10393C00854513050480F53D05616F10904EEF121F
:10394C00704AB7440140AE893289014493840480A3
:10395C00634524014A856F10304C9305000426857D
:10396C00C53D65DDB3878900838507002685050481
:10397C00C205C181D13DE9BF138741801C43B756B5
:10398C000020938646E03E95636BD500B706012078
:10399C009386068063E5A60008C33E858280FD57AA
:1039AC00EDBF23A005008547138FF6FFB94F63C306
:1039BC00E70182801398270032980323080093882C
:1039CC001700635567040328C8FF635168044688D1
:1039DC00931E2800B29E330EF840C28883AE0E00B0
:1039EC006305D8000508E305D3FF63D16E0203A875
:1039FC00050063CD0F01930818000A0823A01501D8
:103A0C002A9893081E002320F800BE98C68745B755
:103A1C009306450005476343B700828003A8060060
:103A2C003686BA878328C6FF6357180123201601F0
:103A3C00FD177116E5FB8A07AA9723A00701050756
:103A4C009106D1BF9386450005476343C70082802A
:103A5C0003AE06003688BA8713132E002A93832EE2
:103A6C00C8FF032F030093982E00AA9883A8080080
:103A7C0063D7E8012320D801FD177118EDF38A07ED
:103A8C00AE9723A0C70105079106C1B7EF123037D7
:103A9C002A84328590414111AE84A28536C65D37A9
:103AAC00B2461308C4FFFD577D5EB30ED0408C4068
:103ABC003E8363C7B7002285A13F41016F1070366A
:103ACC0085073E869CC06394C5001108CDB71315BD
:103ADC00260022951841FD586304C3018328080071
:103AEC003307174163C4E600635BD7019840930822
:103AFC00170023A0140108410A07229708C30506E2
:103B0C00D9B7EF12D02F41112E8442C4AA84328926
:103B1C003EC6413DB2474A86A285BE862685BD3744
:103B2C001C4022486353F800C2871CC041016F102F
:103B3C00502FEF12502ABA84BE8C5571AA8B2E8B43
:103B4C00328D3689428C014781476340670B33D7EE
:103B5C00670381461384011463C0660BA28A930623
:103B6C00047C9387011411469843CC4391072E97FC
:103B7C00CC432E978C472E973347C70223AEE7FED4
:103B8C00E394F6FEA2858146138701981308C07B47
:103B9C003E86C84103A30500B308D7009106330540
:103BAC00654023A0A8009105E39506FFBA8513058F
:103BBC00877B938701980948944383A84700910712
:103BCC00C696B3C6060323AED7FEE317F5FEBA8836
:103BDC001545B7AE0200130FA047930FE01E9307D5
:103BEC00B5FF13884E5D814625A893162700DE96F7
:103BFC0094420507B69791BF13962600B305C400EF
:103C0C005E9610428506198E90C1B9B78A07BA978D
:103C1C00035308009C430908B307F3029D8EF287F7
:103C2C00138E1700E394A7FEB3C6E60391087285C2
:103C3C0023AED8FEE315FEFB9307C77B01479441E7
:103C4C00910513D5F641A98E898E3697E399B7FE67
:103C5C009306F01E3347D702A147154813860198E7
:103C6C004C004809793D1247854763DAE706540949
:103C7C0081470546CC42884205069106898DAE9750
:103C8C00E31AC7FE9306F7FFB3C6D702856793877F
:103C9C000777B3C7D70223A0FC0085472300FC009D
:103CAC00814763C5E7043716002081478146130618
:103CBC00061F63C86605AC082E8801450146930EA5
:103CCC00301E634FE604854763C0A70A930790C173
:103CDC002320F9002380040069616F1050139307AF
:103CEC0090C123A0FC0023000C005DBF939627001D
:103CFC0070084C093696AE9694428507890614C214
:103D0C004DB73385FB000841B305F400850688C127
:103D1C003305FD000841B305F600910788C151BF7A
:103D2C00740893172600B6979C439386A7FF63ED00
:103D3C00DE009386B7FF370E0001950705436398A5
:103D4C00F600631303000505050611089DBF939843
:103D5C002600A29883A8080063D6C8012320D800A7
:103D6C00468E01438506E1BF371600209307061FD8
:103D7C001388077C1306061F914603A70A0083A825
:103D8C004A009107910A469783A84A00469783A850
:103D9C008A0046973347D70283A8070023AEEAFE72
:103DAC0003A7C7FF469783A84700469783A88700B9
:103DBC0046973347D70223AEE7FEE310F8FC02C464
:103DCC0002C602C802CA02CC2E8781479306401F46
:103DDC0003280700E3CC06EF85071107E31AF5FE6D
:103DEC00814A0143294E914E130F40067D15D44153
:103DFC0003A805000503B3820641635E5E0AC28810
:103E0C00B70F00FF370700FF15A093972800B303E7
:103E1C00F40083A3030063D47F00468A9E8FB2977D
:103E2C009C436354F700C6893E878508E3CFD8FCD2
:103E3C00131B28008A06B3076401B308D4009C4303
:103E4C0083A80800B3030A41B388F840B38878020A
:103E5C0093932900B3C85802BE98B30774009C43CF
:103E6C00B3871741B387E70213D777406355E00454
:103E7C0063C35E05329BB29683270B009442338852
:103E8C000941B2939D8EB3860603B3C65602BE9605
:103E9C0083A70300958FB387F7039D8789CFB387DB
:103EAC00E70393962A001308010DC296850AB3C73F
:103EBC00E70223ACF6F29105E34BA3F2D68528007A
:103ECC00813E93D71A408D461397270063D0560531
:103EDC00FD1794098A07B6973697032787F383A7AC
:103EEC0087F3BA970947B3C7E7021387D7FF93063F
:103EFC00400BE3EDE6DC37A7020013074761BA97E6
:103F0C009C232320F90085479CA0F9B39C093E977C
:103F1C00832787F3D9BFEF12806EAA842E84E12AFF
:103F2C001305E00AAD2E612C01C501456F10606FC1
:103F3C002685B526692475F922859526492475F5BB
:103F4C00ED2A0545E5B7EF12806B41112A846522F5
:103F5C001305E00AA926A524228591268D24612A21
:103F6C001305F00A2D2EA12C0145692E2AC6F1222B
:103F7C00324541016F10E06AEF12C0663289AE849F
:103F8C002A84952A1305E00A192E152C2285012E58
:103F9C003D2495221305F00A1926152401447D1998
:103FAC00634924010145B92ECA9488A079226F1067
:103FBC00A0660545B3898400B12605042380A900B9
:103FCC001374F40FF1BFEF128063930500042545C1
:103FDC0099376F100065EF12806241112A840145F8
:103FEC002EC6953708A00545B93FB24588A14101B9
:103FFC006F102063EF12A060232005004111AA84EA
:10400C0023A0050001452E843D3F05452D3F2C0086
:10401C0019461D4595371C849884C2072207BA9708
:10402C001885BA979840BA979CC09C8514401886FE
:10403C00C207B69794862207B697BA971CC09840C9
:10404C00B7070400FD177D8F98C01840F98F1CC06E
:10405C0041016F10005DEF12805AB5375145EFF0FA
:10406C009F850145CD350545F93D9305000C094566
:10407C005D3581450D45453581451145693D814588
:10408C001545513D814519457935BD45214561356C
:10409C008D4525454935930570022945AD3D930560
:1040AC00400231458D3D930540023545AD359305B4
:1040BC00F00741458D356F10C056EF124054411139
:1040CC0085452145EFF04FD589677C823715014036
:1040DC0091473EC64C008D47130505C03EC4EFF01A
:1040EC00CFAE41016F10E053EF1260510945EFF074
:1040FC002FF96F100053EF12805037140140856474
:10410C0093850480130504C0EFF0CFB8130504C0E9
:10411C0093050040EFF00FB8C13F93850480130561
:10412C0004C0EFF06FB7C93793050040130504C006
:10413C00EFF08FB6553F6F10C04EEF12404C371456
:10414C000140856493850480130504C0EFF0CFB45F
:10415C00613F130504C093050040EFF0AFB369371E
:10416C0093850480130504C0EFF0CFB2B53F6F10F8
:10417C00404BEF12C048411185452145EFF0CFC9A6
:10418C0085452145EFF04FC9930700403714014096
:10419C007C82D1473EC64C008D47130504C03EC4FB
:1041AC00EFF0AFA28567938707804C00130504C01E
:1041BC007C82EFF08FA1513741016F108046EF12D6
:1041CC00604237140140056993050980130504C04A
:1041DC00EFF04FAC113F130504C093050040EFF016
:1041EC006FAB9304B00F093713090980130404C093
:1041FC00CA852285EFF06FA9AA8919C5FD1493F41D
:10420C00F40FFDF41D3F854937150140930500401F
:10421C00130505C0EFF04FA8C13D4E856F10C03F90
:10422C00EF12E03D3714014085649385048013053B
:10423C0004C0EFF06FA64D3D130504C0930500407C
:10424C00EFF04FA55535130504C093050040EFF072
:10425C00AFA4593D93850480130504C0EFF08FA3E0
:10426C0061356F10003CEF128039371401408565C1
:10427C00130504C093850580EFF0CFA1B535130568
:10428C0004C093050040EFF0EFA0B93D930500404A
:10429C00130504C0EFF04FA0813D6F108038EF1272
:1042AC0060348569371A0140AA84214493890980B6
:1042BC0013090AC093978401E187CE854A8563D0A0
:1042CC000704EFF02F9D0D35930500404A85EFF064
:1042DC006F9C7D14113D930500404A858604137430
:1042EC00F40FEFF06F9B93F4F40F69F485659385ED
:1042FC00058013050AC0EFF0EF996F10E031EFF075
:10430C00AF99D1B7EF12002E3719014085692A8A6F
:10431C00A1440144130909C0938909809305004005
:10432C004A85EFF02F97C9330604CE854A8513745E
:10433C00F40FEFF08F9501C505041374F40FFD1401
:10434C00930500404A8593F4F40FEFF0EF94693B2A
:10435C00F1F463160A00013F22856F10E02BC9357A
:10436C00E5BF93970501C18763D60700A16733C5E5
:10437C00F500828093F725000145BDCBEF12802616
:10438C002E8483A581803726002037250020138AB0
:10439C008185938971851389C1859384018693875F
:1043AC00C1851388718513878185938601861306D1
:1043BC0006191305059CEFF0CFF783070A008DC78C
:1043CC008387090095C3032609008C4037A502009A
:1043DC001305C56CEF10403B03C581871306001411
:1043EC0093050004EF20F03F134524006F10C0220A
:1043FC008280EF12C020B53BB939C131374500007E
:10440C001305E536EF30E012130600058545238BC6
:10441C00A184EF20103D6F10C02083C73185ADCB38
:10442C00EF12E01D3715014041118965130505C0D8
:10443C00EFF0AF8539E99305F1001305E100EFF0DA
:10444C009FB91C8793F70704A9C3138441851E20C9
:10445C00B7250020372500208A079385059C130576
:10446C000519BE953E95EFF0FFB81E2003A781807D
:10447C008507C207C1831EA06399E70003C5618548
:10448C00894523100400EF20B01641016F1060190C
:10449C008280EF12C016B28713962500AA853E853E
:1044AC00EFB0BFE001456F10C017EF12401541117E
:1044BC002A8432C6EFE03FE32285EFE09FE53246E7
:1044CC002285B285EFE0DFE7EFE0DFE30545EFF0B3
:1044DC002FBB014541016F10C014EF12400F397111
:1044EC001306000281450810EF10801FB717024019
:1044FC0083AD870103AD4700B72701409384074084
:10450C0083AC440003AC840083ABC40203AB040350
:10451C0083AA440303AAC40083A9040103A9440188
:10452C009C4C8545130500203EC2DC4C37240140D1
:10453C003EC49C503EC6DC503EC89C543ECA9C5C5B
:10454C003ECCEFF06F8D3165EFE0BFF62685EFE0E6
:10455C00FFBC37070E003AD60C1005472685230AF8
:10456C00E10202D002D202D402D8EFE03FBF85456F
:10457C002685EFE01FC485452685EFE0BFD40545B1
:10458C00EFE0BFD19D460546C1452685EFE0FFC44F
:10459C0085452685EFE0FFC2A6873E858945EFE07D
:1045AC00DFD1B72701409387074065D91305044035
:1045BC00EFE03FCE2ACE13050440EFE03FB6B7172D
:1045CC00024023ACB70123A2A70123229441232448
:1045DC0084412326744323286443232A54432326EB
:1045EC004441924723283441232A2441232CF4406C
:1045FC00A2477247130404405CCCB2473A851CD0E6
:10460C00C2475CD0D2471CD4E2471CDC21616F004E
:10461C00D07FEF02D07E93970501C1872E8463DB98
:10462C000700EFB03FBE19C1EF2020452165218D59
:10463C006F00307F93F7150013C51500F5FB9397AA
:10464C00250163DF0700EFC0011F03C5818637F624
:10465C000200130606E08965EF20B0180965C1BF9A
:10466C00939715010145E3D507FC37A50200130507
:10467C00856EEF10402503C5818613060064916595
:10468C00EF203016116565B7EF027077B737000071
:10469C00B7A5020037B502005D71938747065546F2
:1046AC009385C56E1305C5DE23A2F186EFB01FD12D
:1046BC0001E937A5020013054570EF10C02001A0D9
:1046CC00B7270240D857B7060090FD16758FD8D77C
:1046DC00D857B706003013060004558FD8D7D857D3
:1046EC00B70600038145558FD8D70808EFB09FC295
:1046FC00B7370020938707BE3EC88967938707C0EA
:10470C00FC82B7870708938707C03ECC93073050CD
:10471C00FC87ED472310F10285472301F102B747CF
:10472C0000009387E749BEC4B74700009387674BE7
:10473C00BEC691672317F102930720032318F102D9
:10474C008567938797D02312F102B74700009387B0
:10475C00674E28003EDEEFE0FFC4180881479946FB
:10476C0030003E9610228507050770BBE39AD7FEF2
:10477C00C24789C7B88285676373F70001A0080830
:10478C00EF20F05EAA8501C937A5020013058571DB
:10479C00EF00907F01A0854513050004EFE0FFE5D5
:1047AC00B7E700E03707008023A2E710054723A4F2
:1047BC00E71061616F00F066EF027064374500002E
:1047CC001305E561EF20F0561384818608A01928A3
:1047DC00082037F60200130606E08965EF2070000A
:1047EC006F003064EF02B061411185453705001848
:1047FC0002C002C202C402C6EFE0FFE30545EFE0CF
:10480C00FFC90545EFE01FCC014413051004EFE090
:10481C005FE625C99307900F63F8870037A5020060
:10482C0013058573EF10200A13050010EFE01FCC61
:10483C000545EFE07FCCEFE01FF4EFE0DFF305453B
:10484C00EFE0DFF0EFE03FF30145EFE0BFEDEFE02D
:10485C009FF2FD573EC2B74764003EC4B737000015
:10486C009387676D0A853EC0EF300002AA8519C593
:10487C0037A5020013058574EF00107141016F001C
:10488C00505A0504420429454180EFF0CF82B5BF50
:10489C0005473705020023A6E186EFE03FA4094552
:1048AC00EFE0BFEFEFE03FED730020308280EF02CE
:1048BC00105537B50200130585A3EF00F06C0547C2
:1048CC00A38AE1866F00F055EF027053411136C692
:1048DC002E84EF208039B24637460F00130606248B
:1048EC003376C50291CA37B50200B285130545ADC2
:1048FC0032C6EF007069324681452285EF100213F3
:10490C0041016F001052EF02904F89E937B5020058
:10491C00B285130545A6EF00306719A8854763904B
:10492C00F50209EA37B50200130585A7EF00B07947
:10493C006F00304F37B50200130585A8C5BF8947F6
:10494C006398F50075F637B50200130585A9F9BF14
:10495C008D47E39FF5FC11E637B50200130585AAD8
:10496C00F1B737B50200B2851305C5AB6DB7EF02D1
:10497C007047373600202A8AAE8981441304069684
:10498C00138961870345090063E9A4040E05090531
:10499C001946D2852295EFB05F918345090037B552
:1049AC0002001305059493973500850593F5F50FD3
:1049BC001386F5FF0E062296A297A3803701834833
:1049CC007600034866005C325822343230222300D1
:1049DC00B900EF00705B6F0030449395340089058B
:1049EC001946A2955285EFB07F9D75F5850493F419
:1049FC00F40F79B7EF02B03D93970501C187011110
:104A0C00AE8463DD072403C58187938A8187EFB069
:104A1C006FFF2A8405C518219307000B631DF7004F
:104A2C0083C7718709474C21930B8500638DE70081
:104A3C005E85EF7060612285EF2020042165258D55
:104A4C0005616F00903C0D47638FE5000547639E41
:104A5C00E50018256317F7024C2537A5020013054E
:104A6C00C57AEF007052A38A018658209307F0078D
:104A7C006319F7000E2437A502001305457CEF00DF
:104A8C00B0505C202D476384E70205476398E7022A
:104A9C001824A946631ED7024C2437A5020013051F
:104AAC00057DEF00704EA38A01864C2051B75C4403
:104ABC0037A502001305057E8C23E5B74D4763929D
:104ACC00E70237B5020013054580EF00D05FE1BF68
:104ADC00C9466314D70237A502004C241305057F81
:104AEC00C9B76D47639BE7005C4437B502001305FB
:104AFC0045818C23EF0050494DBF03C741879386F6
:104B0C00418745D70546631AC70245466394C700DB
:104B1C001830E947E39BE7F889479CA283C60A0053
:104B2C0003D52181416685457D16EF60B079AA8554
:104B3C0037B502001305858275BF8946E317D7F692
:104B4C002547E394E7F61E24ADD3014A37BC020097
:104B5C00B7BC0200854DD5A08359A4005C443387B3
:104B6C004903ED1993F9F90FBA9703C94700B83304
:104B7C0003CB27003EC4B7B7020013854784220934
:104B8C003369E900EF003054B7B70200138547864C
:104B9C00EF00903FA247014785076364370B294517
:104BAC00EF009042CA8513850C88EF00F03D37B5B5
:104BBC000200CE851305C589EF00103D9377CB001D
:104BCC0081CF37B50200CA851305C58B2399218780
:104BDC00EF00903BA389B18593770B018DC737B557
:104BEC00020093071900CA851305458D2398F18699
:104BFC00EF00903903C50A001166130606E8930509
:104C0C000008EF20003E137B0B0263050B0237B547
:104C1C00020013071900CA851305C58E2398E18677
:104C2C00EF00903603C50A00130600329305000806
:104C3C00EF20203B050A137AFA0F1E24E36EFAF0DC
:104C4C00ADB5CC2313058C873AC63EC4EF00D033E8
:104C5C003247A24705071377F70F3DBF93F71500AF
:104C6C0085C303C5818737060020B70500201306CE
:104C7C00C60193850501EFF0514C13C51400C9B35F
:104C8C0093F7052081CB41657D15EF10B23813C524
:104C9C0004207DB393F7850095C7054723990186BA
:104CAC00238AE18683C5818703D52181EF60306437
:104CBC00AA8537B5020013054590EF00F02C13C5FB
:104CCC008400BDBB93F7050191CF03D52181130758
:104CDC008025814613064006D145EF10323313C5AB
:104CEC000401B9BB93F705029DC303D5218101478C
:104CFC00894609468145EF103234AA8537B5020042
:104D0C001305C592EF00502813C5040215BB93F789
:104D1C000504D9C383C7518713895187B9E783C663
:104D2C00418103D7218703D5218193892181138464
:104D3C004181A1C6F8828547014781460546C94590
:104D4C00231E0100FC83EF6010722ACC19CD93074F
:104D5C00A0051CA103C6818703D509004C08EF6090
:104D6C00106919E585472300F90013C50404C9B976
:104D7C00C9454808EF70402DCDBF03C681874C084C
:104D8C00F882EF60906675F185472300F9001C20CE
:104D9C0093B717001CA0D1BF93F70508A5C303C791
:104DAC0051871384518739E383D7018703D5218138
:104DBC00FC82814689470946C945231E0100FC83B4
:104DCC00EF60706A2ACC138921810DC185492300BB
:104DDC003501E247035509004C08A380070003C6C0
:104DEC008187EF60D06011E52300340113C50408FE
:104DFC0081B9C9454808EF702025CDBF93F7051040
:104E0C000145E38F07C203D52181EF10F21F03C5C3
:104E1C00818705661306069693050010EF20601C2B
:104E2C0013C5041031B93C2149476369F71CEF02E3
:104E3C00607B37A702008A0713070776BA979C4353
:104E4C0041112A84828705041374F40F83C7618788
:104E5C0013896187637CF400931534008905194626
:104E6C00A6951385C180EFB06FD571DD834709001E
:104E7C00639C870237B5020013058597EF00B024B9
:104E8C00014685450D4523000900EFF0D13337B5B8
:104E9C00020013058596EF001023E9A8B734002013
:104EAC000144938404965DB737B502001305C59889
:104EBC00EF007021B7370020938707960E049306F6
:104ECC0024003E941030BE9681450145EFF0912CA4
:104EDC0003C581870566130606C893050020EF20DD
:104EEC00401037B502001305C59975B793848187B7
:104EFC00882093050020EF2000380C30A9E92A24E3
:104F0C000947A38BE186902005472399A180A38AAA
:104F1C00E1866C00DD477C86EF6010438820130629
:104F2C008070A145EF20E00B88200564130604C8AF
:104F3C00C145EF20000B8820130604969305001042
:104F4C00EF20200A37B502001305C59AA9B737B56B
:104F5C0002001305C59BEF00300337B502001305A3
:104F6C008596EF005016238B0186014685450D452D
:104F7C00EFF0712541014DA5A38B0186795723993B
:104F8C00E180238A018623990186238B0186A38ADB
:104F9C00018603C5818793050010EF20C02D6C207E
:104FAC0037B502001305859DEF00007E37B5020072
:104FBC0013058596EF0030114DBF37B50200130570
:104FCC00459FD1BD37B50200130545A0E9B537B5EE
:104FDC000200130545A1EF00100F03C7618793076B
:104FEC00F004E3E9E7F84C2013055400EFF03F9888
:104FFC0051B737B50200130545A2F1BF8280EF020D
:10500C000060375500004111130505A0EF206052D8
:10501C0013848187856508A0938505960945EF4023
:10502C00202AD1451D45EF40A0299305C0032145F9
:10503C00EF400029930540063545EF406028854731
:10504C000D47700091451305F0405C84DC84588555
:10505C00DC8502C6EF009243300085451305804085
:10506C00EF00D24213069100854513059040EF00E6
:10507C00F2411306A10085451305A040EF00124133
:10508C001306B10085451305D040EF003240EF7098
:10509C0030280820EF70205408208545EF1050551B
:1050AC00410141A3EF02A055EFE02FFB7165130501
:1050BC000520EFE0BF83B7B5020037B5020093853A
:1050CC0045AE130505AFC92537B502001305C5DE7E
:1050DC00EF00607FEFF04FDBEFF00FEEEF1002769A
:1050EC00EFF0FFF1EFF0EFB0EFB0AF8973002030CD
:1050FC0001A0EFD0AF8D73002030B717024098435A
:10510C00B706FFF041111367170098C3D843370651
:10511C000200758FD8C39843B706F7FEFD16758F3E
:10512C0098C39843B706FCFFFD16758F98C3D843F8
:10513C00B70601FFFD16758FD8C337079F0098C7B8
:10514C0002C402C69843C166558F98C3B716024075
:10515C0005679C42F18F3EC6A24785073EC4B24705
:10516C0081E7A247E397E7FEB71702409C431397EA
:10517C00E7006357070685473EC632478547631FDE
:10518C00F704B7170240D843B706C1FFFD16D8C3C2
:10519C00D843D8C3D84313670740D8C3D843758FB7
:1051AC00D8C3D843B7062900558FD8C39843B70640
:1051BC000001558F98C3984393166700E3DD06FEF4
:1051CC00D843B7160240719BD8C3D8431367270046
:1051DC00D8C32147DC42B18BE39EE7FE41018280BC
:1051EC0002C661BF11CE93070002918F635BF00082
:1051FC003355C500B397F50033D6C5005D8DB28528
:10520C008280130506FE014633D5A500B285CDBFBD
:10521C0011CE93070002918F635BF000B395C5002C
:10522C00B357F5003316C500DD8D328582809305AA
:10523C0006FE0146B315B5003285CDBFB687B288E0
:10524C002A832E88639B061463F8C50A4167636B37
:10525C00E61AB70700016360F63493568601E147FE
:10526C0017670200130747DA36971823BA97130704
:10527C0000021D8F19CB3398E500B357F500B31816
:10528C00E60033E807013313E50013D60801335564
:10529C00C80293960801C182935703013377C80261
:1052AC00B385A60242073368F700637AB8004698C4
:1052BC009307F5FF636418016365B8303E853308C6
:1052CC00B8403357C8024203135303013378C80262
:1052DC00B386E602420833686800637BD8004698C0
:1052EC009307F7FF6365180179176363D8003E874E
:1052FC004205598D8145828001E60547B358C702A6
:10530C00416763E8E80EB707000163EAF82893D613
:10531C008801E14717670200130707CF369714235C
:10532C00BE9693070002958FFDE7939E0801338785
:10533C00154113DF080193DE0E01854593570301D8
:10534C003355E7033377E703B306D5034207D98F09
:10535C0063FAD700C6971307F5FF63E4170163E5FB
:10536C00D7263A85958F33D7E703420313530301AE
:10537C00B3F7E703B30ED703C207B3E7670063FBCA
:10538C00D701C6979306F7FF63E51701791763E317
:10539C00D70136874205598D828063E1D504C167F8
:1053AC0063E1F604B707000163E3F61E13D7860129
:1053BC00614897670200938727C5BA979823130E05
:1053CC0000024297330EEE40631A0E0C63EDB61CCE
:1053DC003335C50013451500814582808145014553
:1053EC0082809307F00F63F3D71C13D786002148F4
:1053FC00C9B71307F00FC686E37E17F193D6880062
:10540C00A14709BF1307F00FB286E37BC7E493569D
:10541C008600A147B1B5B398F80033D6D50013DF99
:10542C000801335EE6033397F500B356D500558F6C
:10543C00939E080193DE0E013313F500935507017B
:10544C00B376E603B387CE03C206CD8E63FBF600BC
:10545C00C6961306FEFF63E4161763F2F616791E62
:10546C00C6969D8E33D6E60393170701C183B3F618
:10547C00E6033385CE02139706015D8F637BA7008D
:10548C0046979307F6FF636817136376A71279168E
:10549C00469793150E01098FD18D4DB5B357E60084
:1054AC00B396C601DD8E33D3E50013DF0601B35787
:1054BC00E303939E060193DE0E013398C501335727
:1054CC00E50033680701935808013316C60133739E
:1054DC00E303B385FE024203B368130163FBB80018
:1054EC00B6981387F7FF63EAD80C63F8B80CF91772
:1054FC00B698B388B84033D7E8034208135808016C
:10550C00B3F8E8033383EE02C208B3E5080163FB8A
:10551C006500B6951308F7FF63EDD50863FB6508C6
:10552C007917B695C207416FD98F1307FFFFB3F6F2
:10553C00E70093D80701718F4182B38EE602B385E1
:10554C006540B386C60213D80E013387E802BA96BB
:10555C00C2963386C80263F3E6007A9693D80601A6
:10556C00469663E2C5026385C5003E85814582800F
:10557C0041677D17F98EC206B3FEEE003315C501E7
:10558C00F696E374D5FE1385F7FF8145828013D719
:10559C000601414839BD93560601C147D1B193D696
:1055AC000801C14785BB8145054582803687014886
:1055BC0009B5428785BF3E86E9BDBA871DBF328ECD
:1055CC004DB579154698E5B97915C69761BB397112
:1055DC0001436EC619A0397141536AC866CA62CCC0
:1055EC005ECE19A0397101535AD056D252D44ED630
:1055FC004AD826DA22DC06DE330161408282411170
:10560C004AC026C222C406C68282B24D4101024D56
:10561C00924C224CB24B4101024B924A224AB24963
:10562C004101024992442244B24041018280B3C7F5
:10563C00A5008D8B3307C50081E78D4763EDC7004F
:10564C00AA87637EE508942185078505A38FD7FE7D
:10565C00E3EBE7FE828093763500AA8789CA942112
:10566C0085078505A38FD7FE93F63700C5BF9376C4
:10567C00C7FF138606FE63F0C70683A3050083A24B
:10568C00450083AF850003AFC50083AE050103AEB3
:10569C00450103A3850183A8C5019385450223A079
:1056AC00770003A8C5FF23A2570023A4F70123A664
:1056BC00E70123A8D70123AAC70123AC670023AEB7
:1056CC0017019387470223AE07FF75B790419107E7
:1056DC00910523AEC7FEE3EBD7FEE3E6E7F6828047
:1056EC003D432A876373C3029377F700BDEFADE5A3
:1056FC00937606FF3D8ABA960CC34CC30CC74CC7B5
:10570C004107E36BD7FE11E28280B306C3408A06E1
:10571C009702000096966780A6002307B700A306A1
:10572C00B7002306B700A305B7002305B700A304F1
:10573C00B7002304B700A303B7002303B700A302E9
:10574C00B7002302B700A301B7002301B700A300E1
:10575C00B7002300B700828093F5F50F9396850070
:10576C00D58D93960501D58D61B793962700970239
:10577C00000096968682E78086FA9680C1171D8F68
:10578C003E96E374C3F8A5B739713EDA2ED232D403
:10579C0036D63AD842DC46DE9387C18422CC80438D
:1057AC0026CA06CEAA8409C41C4C99E3228525235B
:1057BC000C4454102686228536C6EF00F016F240B3
:1057CC006244D2442161828001119387C18422CC2E
:1057DC00804306CEAA8519C41C4C89E72AC62285AB
:1057EC00DD29B245104422856244F24005616F0008
:1057FC003077011126CA4AC806CE22CC4EC652C4F6
:10580C00AA842E8901C51C4D91E3F1219C4C804446
:10581C0099E32685C921976702009387E790631B5C
:10582C00F402C0405E24A18BB1C71C48A1C7FD592E
:10583C00294A1C4483450900FD17B1E91CC463DDEA
:10584C0007062286A94526856920FD576308F502BF
:10585C00294535A0976702009387078F6314F400DE
:10586C008044C9B7976702009387078AE31CF4FA50
:10587C00C0444DBFA2852685192A55D97D55F240C5
:10588C006244D2444249B249224A056182801CC416
:10589C00050963D70700184C63CAE7006388450104
:1058AC001C401387170018C08CA361B7228626856D
:1058BC000D20E31035F9D9B71C401387170018C019
:1058CC00294798A371B79387C184AA8588436FF041
:1058DC005FF2011122CC26CA4AC806CE4EC6AA8453
:1058EC002E89328401C51C4D91E3F5269767020081
:1058FC00938787836317F406C0401C4C1CC45E243A
:10590C00A18BC1C31C48B5CF1C4808409379F90F33
:10591C001379F90F1D8D5C486346F500A285268529
:10592C00692C25E51C440505FD171CC41C40138778
:10593C00170018C0238037015C486388A7005E24D9
:10594C00858B81CBA9476316F900A2852685B524E2
:10595C000DEDF24062444A85D2444249B249056198
:10596C008280975702009387277E6314F40080444B
:10597C0069B79757020093872779E310F4F8C0446E
:10598C00ADBFA2852685212041D17D59D9B74111C2
:10599C009387C18426C2844322C44AC006C62A897E
:1059AC002E8489C49C4C99E3268535269757020092
:1059BC0093878777631BF402C0400317C4009317C7
:1059CC000701C18393F68700ADEA93F6070195EEC4
:1059DC00A5472320F900136707045AA47D55B2404C
:1059EC0022449244024941018280975702009387D6
:1059FC00A7756314F4008044C9B7975702009387C6
:105A0C00A770E31CF4FAC0444DBF918B9DC34C5856
:105A1C0089C9930744046384F5004A850D23232A1E
:105A2C0004025E242322040093F7B7FD5EA41C48F5
:105A3C001CC05E2493E787005EA41C4899EB5E248F
:105A4C001307002093F707286385E700A2854A8592
:105A5C00B1295E2413F717001DC35C4823240400EE
:105A6C00B307F0401CCC1C480145B5FB8317C400A0
:105A7C0013F707082DD793E707045EA485B7898B26
:105A8C00014791E3584818C4F9BFDE25011122CC17
:105A9C0026CA06CE4AC84EC613F78700AA842E849F
:105AAC0079EBD841634DE000B841634AE000014511
:105ABC00F2406244D2444249B24905618280585452
:105ACC007DD703A904009396370123A0040063DB60
