:040000006F30200A33
:100004000000000000000000EC8D0000F08D0000F6
:10001400000000004001000000000000000000009B
:1000240040010000A03000000000000000000000BB
:10003400A030000000000000A0300000000000001C
:10004400A0300000A0300000A0300000A03000006C
:10005400A0300000A0300000A0300000A03000005C
:10006400A0300000A0300000A0300000A03000004C
:10007400A0300000A0300000A0300000A03000003C
:10008400A0300000A0300000A0300000A03000002C
:10009400A0300000A0300000A0300000A03000001C
:1000A400A0300000A0300000A0300000A03000000C
:1000B400A0300000A0300000A0300000A0300000FC
:1000C400A0300000A0300000A0300000A0300000EC
:1000D400A0300000A0300000A0300000A0300000DC
:1000E400A030000072850000A0300000A0300000A5
:1000F400A0300000A0300000A0300000F28D00000D
:10010400D02F0000A0300000A0300000A03000007C
:10011400A0300000A030000000000000000000003B
:1001240000000000000000000000000000000000CB
:0C013400000000000000000000000000BF
:100140009305000273A04580824573901534924058
:100150002242B2424243D2436244F2440255925593
:100160002256B2564257D2576258F258064996491B
:10017000264AB64A464BD64B664CF64C065D965D13
:10018000265EB65E465FD65F096173002030EFC21F
:100190001071EF709076C52BEDBF23AC05FE1C41AE
:1001A00081E70CC18280BA8703A787FF6DFF23AC6C
:1001B000B7FE8280411126C24AC0B744024006C63B
:1001C00022C403A9C42023A604200F10000009E9BB
:1001D00023A62421B2402244924402494101828054
:1001E0002A842105BD654205C18D4181EF20B00003
:1001F00001CDFD5723200500231285002303F500C0
:1002000023A624212105F9B723A624210145D9B726
:1002100001114AC84EC6B747024006CE22CC26CAB4
:1002200083A9C7202A8923A607200F10000097570B
:1002300000209387E78C80438144014619E499E8C4
:10024000A1654A85EFE0507B15A08347E4FF639BDF
:10025000270395CCA685175500201305658AEFE086
:10026000007879DCA1654A85EFE0B030F240624465
:10027000B747024023A6372126854249D244B249D6
:100280000561828091E02286032484FF45BFA28419
:10029000E5BF975700209387A78B9C4399E33E8542
:1002A000828003D727006316B70003C70700E3085F
:1002B000A7FEDC47E5B7B747024003A7C72023A640
:1002C00007200F10000001C599C1814711E6B7470B
:1002D000024023A6E7208280B386F50003C806000B
:1002E000B306F500850723800601E317F6FEC5B7C0
:1002F000374702408327C720232607200F1000001E
:1003000019C191C111E6374702402326F7208280A8
:10031000910503A7C5FF11057D16232EE5FEDDB768
:10032000374702408327C720232607200F100000ED
:1003300001C53307C50011E6374702402326F720E1
:1003400082800505A30FB5FEE31DE5FEF5B7B747AF
:10035000024083A6C72023A607200F100000814774
:100360003307F5000307070019E737470240232644
:10037000D7203E8582808507E5B7011126CA4AC885
:10038000B747024006CE22CC83A4C7202A892E86F6
:1003900023A607200F100000131506019305F00493
:1003A000418132C6EF2020652A8401C53246CA85C4
:1003B00019372285F2406244B747024023A69720AE
:1003C0004249D24405618280B747024003A7C72053
:1003D00023A607200F10000001C599C1814711EA2B
:1003E000B747024023A6E720054582808507E30939
:1003F000F6FE3308F500B386F5000348080083C60F
:100400000600E305D8FEB747024023A6E7200145D2
:100410008280B747024003A7C72023A607200F10FA
:1004200000009307F6FFBE952A966317C500B747ED
:10043000024023A6E7208280FD1583C7150005052D
:10044000A30FF5FEDDB7374702408327C7202326D9
:1004500007200F10000001C53307C50019E6374714
:1004600002402326F7200145828005058346F5FFDB
:10047000E397B6FEE31BE5FE374702402326F7204D
:10048000054582807971974700209387676C22D455
:10049000804306D626D24AD04ECE52CC56CA5AC82F
:1004A0005EC669C0B7C4C901014B97490020938952
:1004B000A9699384F437174A0020130AAA69974A56
:1004C0000020938A2A64174900201309296D835755
:1004D000240095E35C44631D0B001747002023298B
:1004E000F766832BC4002285EF20C05F5E84A9A835
:1004F0002326FB00FDB783A7090082971C4433071E
:10050000F5406376F500032749001D8F2A9763E0C5
:10051000E4089747002023AF075E83552400034576
:100520000400EFE010055C405844A1CB0C440326C6
:100530004900AE97BE8663E4B70063E4C700B386A4
:10054000C74014C4228B3A8459F097470020938700
:10055000675B9C4B05476372F706FD171747002042
:10056000232AF75AB250225492540259F249624A4D
:10057000D24A424BB24B4561828063170B009747CA
:10058000002023A7E75CB1BF2326EB0099BF032718
:100590008A0209CF63EFA7003385A74083A70A012A
:1005A0006376F5009747002023A6A756228B404488
:1005B00061BF03274900BA97C5B79747002023AB0F
:1005C00007544DB701114EC6B747024006CE22CCA4
:1005D00026CA4AC852C483A9C72023A607200F10E1
:1005E0000000174900201309695B9747002083C763
:1005F000A75B03254900ADC39747002083D7C77D7C
:10060000A1CF974700209387E77103A4070B6305E9
:10061000A404974700209387E74E984B3E8A6307D0
:10062000A71097440020938424529C408297636BC8
:10063000A40E9C40098C829703270A016373E4008F
:100640002287B307A7003E858326490063E4E700BD
:1006500063E4D7003385D740B747024023A637214C
:1006600083274900639FA70217440020130484498D
:100670001848974700209387274D9C43631AA70A81
:10068000829783264900B74736FE938707C8B697F7
:100690003387A7003A856364F7006364D7003305A6
:1006A000D740174400201304647D5C5081CF9757D6
:1006B00000209387678494433707CDFF7D179C46BE
:1006C000F98F9CC619E1032549008547174700208B
:1006D000232CF77A974700209387C7479C57829728
:1006E00011ED5C5099CB5C4489CBEF804224EF70D4
:1006F000027B9747002023A9077869335C5099CB88
:10070000974700209387477F9843B70633001C47DD
:10071000D58F1CC7F2406244D2444249B249224AB2
:1007200005618280832749003E9421B722852DB739
:100730008297144803274900B387A6003E8563E4E7
:10074000D700E3E0E7F63385E740A1BF23A6A18AFF
:1007500001C585472388F18A82809387C18A9C439B
:1007600081CF411106C6829783C7018B99E323A6E7
:10077000018AB2404101828083C7018B81E723A6B1
:10078000018A82808280411126C206C622C4974710
:10079000002083C76741974400209384643985EB28
:1007A0009747002083C7D76D858B17470020130715
:1007B000E76C91CF8347770099466396F60C97478D
:1007C0000020A38F076AEF107032DC4482979C44AC
:1007D00091C38297174400201304443718401746EA
:1007E0000020034636329747002083C7A7319396EF
:1007F0001700BA9683D60600C5C69747002083C760
:10080000673063E9C70A97470020238D072E974773
:10081000002083C73767974400209384246663973A
:10082000071297470020938727329C43638B07105A
:100830009747002093878736DC4317470020232BF8
:10084000F72C8931974700209387C7309C57638ADC
:10085000070E83C7740011476365F70E97470020A2
:1008600083C74767918BF1EF83C7018BF9EB10408A
:100870009746002083C6162963C7D70E2244B2408C
:100880009244410181B3834777001D47E311F7F498
:1008900097470020A386075EEF1050259C483DB780
:1008A000850793F7F70F97460020238DF624E3EC96
:1008B000C7F2A1B786073E978355070023100700AC
:1008C0009747002023900728974700209387072603
:1008D0009C43174500200345E52213172500BA97CE
:1008E0009C4382979747002083D7C725174700204E
:1008F0000347472193C7F7FF7D8D931717001840D3
:100900003E97835707005D8D2310A700974700206F
:1009100083C7471F91C78507174700202304F71E89
:100920009C4091C782979747002023A30720174731
:1009300000200347271D9747002083C7B71CE37497
:10094000F7ECB240224492444101828083C7740094
:1009500093F7F70FE39707EC97470020A38407521C
:10096000EF7052227DBD139717003297035707008F
:1009700069FB850711B7374702408326C720F17707
:10098000FD17F58F2326F72001000100974700206F
:1009900093874717C84F832787262326D7206A05C2
:1009A00093C7F7FF99835D8D82809747002083C7A7
:1009B000971599CF9747002083C7071F81CF974787
:1009C00000209387A71E03A3070063070300028389
:1009D00005458280094582801305F00F8280938748
:1009E000819098431746002003464633814763159C
:1009F000F600814636858280BA86130787028355C2
:100A000087FDE389A5FE850793F7F70FCDB7938799
:100A100041929C4317470020034757302A86050719
:100A200081463E8583D707006388C7008506930704
:100A30006500E3E8E6FE014582809387C191984313
:100A400019E3014615A81C4703D8A700636B0501ED
:100A500083584700B38608016355D50081466394E7
:100A600016011843F1BF3E86C10703D3A7FF6317E2
:100A7000A30099C123900501328582808506C206B4
:100A8000C182F1BF974700209387472398431746B9
:100A900000200346A62881476315F6008146368567
:100AA0008280BA861307C703835567FCE389A5FED6
:100AB000850793F7F70FCDB7032785116302071258
:100AC000411122C406C68347C5008345E5042A8434
:100AD00093F7C70F2306F500834697000356C70018
:100AE00013958601618563F2C508635B05060345BE
:100AF000870093F6F607A304D700054693E6270080
:100B00006314C50093E617002306D4005C438907ED
:100B10005CC3A30AB400032504112E864C430905C7
:100B2000EFF06FF98327841103465401D44303D7B0
:100B3000C700B296118FD4C32396E7008947A30D4F
:100B4000F400034764039747002083C7C701637815
:100B5000F7048347C40093E707012306F40081A04C
:100B600093E717002306F4006DB79376F60F635DE5
:100B7000050203458700854513E627006314B50089
:100B800013E617002306C400A30AD400A304070039
:100B90008547A30DF400832784119C43DDF3B24005
:100BA000224401454101828093E717002306F400A7
:100BB000A30AD400A3040700032504114C4309052C
:100BC000EFF06FEF8327841103465401D44303D71A
:100BD000C700B296118FD4C32396E7008D4755BF47
:100BE0000545828097470020938787269C434111C3
:100BF00022C406C6858B2A84D5EB4165130525F5ED
:100C0000EF00221845C58347A5002315F50083276B
:100C10000412BDE72320A4122322A4128547231126
:100C2000F404232005008347640154412316F50092
:100C30000347D4002304E5000547A304E500174754
:100C400000201307A72358531385170215811C434F
:100C50007D151375F50F9CC25C43DCC21C479CC616
:100C60005C47DCC61C4B9CCA5C4BDCCA1C4F9CCE50
:100C70005C4FDCCE19CD9386060213070702C1BF75
:100C80008327441288C3835724042322A412850790
:100C900079B79747002083D7670985071747002052
:100CA0002316F708B2402244410182808347C400E2
:100CB00023090400054593C747002306F400DDB768
:100CC0008347850193F7E70FC5EF83479501CDEB88
:100CD000034625018346C50009CA834565031747B6
:100CE0000020034757E863E7E50013F7060151CBFF
:100CF000014709C6C18A0357251E81C68356651E52
:100D0000369741C31307C71217450020035585E9DD
:100D1000B335A70237460F0041111306062481465A
:100D200022C426C206C67D543305A702EF90803A3E
:100D30009747002083C777E3B384A7009747002035
:100D4000938747FE03A7C7098327070963F3870033
:100D50003E84184375FB974700209387E7DE9C434A
:100D6000829781476364A400B307A440B240224441
:100D7000B3B7970093C7170092443E854101828024
:100D800081473E858280974700209387A71198432B
:100D90007C53FDFF8280011197470020938787F8DD
:100DA00022CC03A4470A26CA9747002083D787DFAF
:100DB00083546408032504094AC8B384F402B7477E
:100DC0000F001387F7239387072406CE4EC652C41D
:100DD00056C217490020130969DCBA94B3D4F4024F
:100DE000636E950297490020938909D683A709006D
:100DF000B3049540829763E7A402898C63C8040218
:100E000083570404A30F040085072310F4048347C9
:100E10000414639F07102285352729AA83274900D8
:100E20003E95C9B783274900BE94C1BF83A7090077
:100E30008297032784086367E50A198D8357E403C3
:100E400017470020035707D68E07B387E70213071B
:100E5000003293870719B3D7E70263EAA708374A36
:100E60000F00930AFA23130A0A2483570404850700
:100E70002310F4048347041499E32285E125228595
:100E8000EFE05175631A0526832604098327C408F9
:100E900003274900B6973E8563E4D70063E4E70083
:100EA0003385E7408347F401835464082328A4086A
:100EB0008507A30FF4009747002083D7A7CEB384FC
:100EC000F402D694B3D44403636C9504B304954000
:100ED00083A70900829763E9A4043385A440E3460D
:100EE00005F839BF83274900998F3E9581BFA145F9
:100EF0002285EFE0B165A305A40297470020938700
:100F000067C503A347036309031E6244F240D2444A
:100F10004249B249224A924A8945154505610283F0
:100F2000B3049740AA946DB783274900BE9475B760
:100F30002285452D2285EFE0F169631F051A83574D
:100F40006408174500200355E5C5B7460F00B38771
:100F5000A7021386F6239386062403270409230B8E
:100F60000402032A4900B297B3D7D702636FF71878
:100F7000B307F7408326C4082324F408814AB387C3
:100F8000E600BE8463E4D70063E44701B3844741CD
:100F90008357040223289408B1CB835604040357D3
:100FA000440237460F002312D4023387E640B3874A
:100FB000E702035724021306062481468145BA97A7
:100FC000C207C1833385A7022311F402EF9080107A
:100FD00011CD2695B3349500AE94AA8763949A00F8
:100FE00063644501B30745412328F40883A709003A
:100FF0008297AA8483A709008297E30D95FE83A7B1
:10100000090083248408829763E6A4103385A440F2
:1010100063030512835764089749002083D989B870
:10102000B7440F00B38737031387F4239384042452
:10103000BA97B3D7970217470020034717B3BA9759
:1010400063EBA70EB3359502035924024E86814601
:1010500033059502EF900008330AA90033053903E0
:1010600037460F001306062481468145EF9080061F
:1010700005C1B33795024E868146B385B4023385E8
:10108000A402BE95EF9000053305A9402311A402E8
:101090003545EF70C2419747002023A787D283468A
:1010A000B40005479747002083C707B06398E6065A
:1010B000130700FD2307E40017470020130787DA12
:1010C0000843B5C7EFF08FE897460020938686DD8A
:1010D0009042954717470020A305F7DA5846F9775D
:1010E000FD17F98F5CC60F1000009C428966060A46
:1010F00094C723A24707D8C7F2406244D24442496A
:10110000B249224A924A05618280B3064701B387F9
:10111000F6408DB583274900BE94CDBD130710FC62
:101120002307E40017470020130747D351BF814529
:10113000EFE0002551BF9747002023A707C8974736
:10114000002083C767A699CF974700209387C7D011
:101150008843EFE0C064B7E700E03707000223A24E
:10116000E72059BF8347940285456244F240D24448
:101170004249B249224A924AB395F500C205C1815B
:10118000014505616FD0F03E011122CC4AC84EC620
:1011900006CE26CA52C456C25AC00347B500854778
:1011A0002A842E8983290509631DF71E83570508A4
:1011B000035BC503974A002083DACA9E174A0020C2
:1011C000130ACA9D63F7671B834605016393E61AFA
:1011D00003278511631F07180327450A631B071898
:1011E0008346F5001D476396E6180355A503330BA8
:1011F000FB409307204E330565038324440937469B
:101200000F001306062481463305F5029747002098
:1012100083C7A795B3549502B3B5AA02BE94C2047E
:10122000C180231394083385AA02EF80B06AAA997B
:1012300033B5A9002E954E8783274A0019E163E450
:10124000F9003387F940B3845403B7460F009387FE
:10125000F623938606242320E900BE94B3D4D40257
:1012600093171B00A6976360F7101D8F2320E900DA
:10127000974900209389498D83A709008324090099
:10128000829763E3A4123385A4406352050C83A7BD
:101290000900829703270900636FE510198D8357B2
:1012A000E403174700200357E78F8E07B387E70251
:1012B0001307003293870719B3D7E70263E5A71036
:1012C000374A0F00130BFA23974A0020938A0A8D9E
:1012D000130A0A248357040485072310F404834760
:1012E000041499E32285B92C2285EFE0B12E65E93B
:1012F000832604098327C40803A74A00B6973E85BE
:1013000063E4D70063E4E7003385E7408347F401F3
:10131000835464082328A4088507A30FF400974783
:10132000002083D72788B384F402DA94B3D444032B
:101330006366950CB304954083A7090023209900A8
:10134000829763E1A40C3385A440E34505F89747F1
:10135000002083C7978163E5A7089747002023A54E
:1013600087A60145B5A883264A00B387F6403E9775
:10137000F5BD8357640837470F00B38457039307BD
:10138000F723A69793040724B3D4970263E7990041
:10139000B384994023209900E1BD83274A00BE9978
:1013A000C5BF23A03501E9B5973700209387077F94
:1013B000DC43BE94C9BD973700209387277EDC436A
:1013C000998F3E95E9BDA1452285EFE03118A3052F
:1013D000A402973700209387E777DC5B81EF7D5588
:1013E000F2406244D2444249B249224A924A024BF4
:1013F00005618280894515458297D5B7B30497402A
:10140000AA941DBF83A74A00BE9435BF31CD0111F8
:101410006C0022CC06CE2A84853B29C5FD57630883
:10142000F502973600209386E67294563247973736
:10143000002083C7977391C28583636EF700B3075B
:10144000F7403EC6B24503459402EFD0B029F240C2
:101450006244056182809736002093862674D442C8
:101460003697F1BF0D3AE5B7828079719747002032
:101470009387478B26D283A4C70906D622D44AD0A5
:101480004ECE0947A5C09746002083C6969F954734
:101490000D476389F604974700209387279EDC4712
:1014A0002A8989CBEF70A248EF60721F974700200E
:1014B00023AC079CFD596C002685F93105ED170515
:1014C00000001305858DEFF06FA8A1471747002096
:1014D0002308F79A974700209387C79C9C430947A6
:1014E000F8D30D47B250225492540259F2493A852A
:1014F00045618280637435013244AA898440C5FC09
:10150000FD571307F00FE38FF9FC914763F487024F
:101510009307B4FF2320F90017470020232CF78AF4
:101520000147E9F39737002093874767DC4323207F
:10153000F9004DBF9737002093874766DC43ED17CE
:10154000A297C9BF797126D206D622D44AD04ECEF0
:1015500052CC56CA5AC85EC6834755030344751316
:10156000AA843E941374F40F9307400263F6870035
:101570001304B4FD1374F40F03AA841383AAC413D1
:10158000A38B841222865285D685EF80E07105896F
:1015900005E503CBD41201498149337B6403930BE6
:1015A00050024A865285D685EF800070058915C5A0
:1015B000639169031374F90F238B8412B250225480
:1015C00092540259F249624AD24A424BB24B4561A7
:1015D00082808509E20993D989410509E31379FDE0
:1015E000E1BF8327850903560504797193D6070166
:1015F000BD8EC206C182358E135776409357564032
:10160000898B058B5D8F93573640918B5D8F9357F8
:101610001640A18B5D8F93171600C18B5D8F9317BA
:10162000360093F707025D8F931756009355860097
:1016300093F707041E065D8F1376F60F518F93D72D
:10164000554013D63540118A898BD18F13D67540FA
:10165000D18F13D61540218AD18F13961500418A58
:10166000D18F1396350013760602D18F139655004D
:10167000137606049E05D18F93F5F50FCD8FA20743
:1016800045465D8F3307C70222D42A8426D252CC26
:1016900056CA032A8413832AC4135AC806D6369717
:1016A0004207418393577740135557400989858BEB
:1016B000C98F135537401189C98F13551740218998
:1016C000C98F131517004189C98F1315370013757A
:1016D0000502C98F1315570093558700137505042C
:1016E0001E07C98F1377F70FD98F13D5354013D73E
:1016F00055401189098B498F13D57540498F13D5F2
:1017000015402189498F139515004189498F1395FB
:10171000350013750502498F13955500137505049F
:101720009E05498F93F5F50F4D8F2207D98FB3870B
:10173000C7024AD04ECE5EC662C4B697C207C18306
:1017400013D7774013D557400989058B498F13D597
:1017500037401189498F13D517402189498F139537
:1017600017004189498F1395370013750502498F7A
:101770001395570093D58700137505049E07498F6D
:1017800093F7F70FD98F13D5354013D755401189EB
:10179000098B498F13D57540498F13D51540218981
:1017A000498F139515004189498F1395350013759D
:1017B0000502498F13955500137505049E05498F41
:1017C00093F5F50F4D8F2207D98FB387C702130604
:1017D00050025285D685B697BD8E93940601C1807E
:1017E00033F6C402137BF60FEF80004C05891DE928
:1017F0008347D41201498149B3849702130C5002E4
:10180000C1804A865285D685EF80004A0589937B40
:10181000F90F11C563863403850993F9F90F05099A
:10182000E31189FF230B6413B250225492540259DE
:10183000F249624AD24A424BB24B224C4561828005
:101840005E8BCDB78327C50803568508797193D67B
:101850000701BD8EC206C182358E1357764093575D
:101860005640898B058B5D8F93573640918B5D8FEA
:1018700093571640A18B5D8F93171600C18B5D8F18
:101880009317360093F707025D8F93175600935511
:10189000860093F707041E065D8F1376F60F518FAF
:1018A00093D7554013D63540118A898BD18F13D6E3
:1018B0007540D18F13D61540218AD18F139615000C
:1018C000418AD18F1396350013760602D18F139675
:1018D0005500137606049E05D18F93F5F50FCD8F35
:1018E000A20745465D8F3307C70222D42A8426D239
:1018F00052CC56CA032A040A832A440A5AC806D676
:1019000036974207418393577740135557400989CB
:10191000858BC98F135537401189C98F13551740CF
:101920002189C98F131517004189C98F13153700F5
:1019300013750502C98F131557009355870013754A
:1019400005041E07C98F1377F70FD98F13D53540BC
:1019500013D755401189098B498F13D57540498F8D
:1019600013D515402189498F139515004189498F59
:101970001395350013750502498F1395550013759E
:1019800005049E05498F93F5F50F4D8F2207D98FDA
:10199000B387C7024AD04ECE5EC662C4B697C207AE
:1019A000C18313D7774013D557400989058B498FD9
:1019B00013D537401189498F13D517402189498F95
:1019C000139517004189498F139537001375050248
:1019D000498F1395570093D58700137505049E070B
:1019E000498F93F7F70FD98F13D5354013D755404B
:1019F0001189098B498F13D57540498F13D515402F
:101A00002189498F139515004189498F1395350018
:101A100013750502498F13955500137505049E052E
:101A2000498F93F5F50F4D8F2207D98FB387C702E2
:101A3000130650025285D685B697BD8E9394060143
:101A4000C18033F6C402137BF60FEF80E0250589D1
:101A50001DE98347140801498149B3849702130C97
:101A60005002C1804A865285D685EF80E0230589E1
:101A7000937BF90F11C563863403850993F9F90F38
:101A80000509E31189FF230F6407B25022549254D1
:101A90000259F249624AD24A424BB24B224C45614A
:101AA00082805E8BCDB783274509035685087971FF
:101AB00093D60701BD8EC206C182358E135776407C
:101AC00093575640898B058B5D8F93573640918B8A
:101AD0005D8F93571640A18B5D8F93171600C18BB6
:101AE0005D8F9317360093F707025D8F93175600AB
:101AF0009355860093F707041E065D8F1376F60F45
:101B0000518F93D7554013D63540118A898BD18F89
:101B100013D67540D18F13D61540218AD18F1396D5
:101B20001500418AD18F1396350013760602D18FA6
:101B300013965500137606049E05D18F93F5F50F85
:101B4000CD8FA20745465D8F3307C70222D42A8472
:101B500026D252CC56CA032A040B832A440B5AC8F5
:101B600006D636974207418393577740135557401F
:101B70000989858BC98F135537401189C98F135532
:101B800017402189C98F131517004189C98F131573
:101B9000370013750502C98F131557009355870039
:101BA000137505041E07C98F1377F70FD98F13D547
:101BB000354013D755401189098B498F13D575408E
:101BC000498F13D515402189498F139515004189F7
:101BD000498F1395350013750502498F13955500EC
:101BE000137505049E05498F93F5F50F4D8F220758
:101BF000D98FB387C7024AD04ECE5EC662C4B697AD
:101C0000C207C18313D7774013D557400989058B85
:101C1000498F13D537401189498F13D51740218932
:101C2000498F139517004189498F13953700137514
:101C30000502498F1395570093D587001375050446
:101C40009E07498F93F7F70FD98F13D5354013D7D8
:101C500055401189098B498F13D57540498F13D58C
:101C600015402189498F139515004189498F139596
:101C7000350013750502498F13955500137505043A
:101C80009E05498F93F5F50F4D8F2207D98FB387A6
:101C9000C702130650025285D685B697BD8E93941F
:101CA0000601C18033F6C402137BF60FEF70D07FBC
:101CB00005891DE98347F40801498149B3849702E6
:101CC000130C5002C1804A865285D685EF70D07DB4
:101CD0000589937BF90F11C563863403850993F950
:101CE000F90F0509E31189FF230F6407B25022544D
:101CF00092540259F249624AD24A424BB24B224CA8
:101D0000456182805E8BCDB7797122D406D683C7B8
:101D100035002E8423160100A307F10083C7450078
:101D2000100802C02307F10083C755008A8502C24C
:101D3000A306F10002C402C802CA02CC02CED52A10
:101D40000347F1018347040001456310F70203478D
:101D5000E1018347140001456319F7000345D101F0
:101D6000834724001D8D13351500B2502254456160
:101D700082800111973700209387C7FA22CC03A4F1
:101D8000C70C26CA4AC84EC606CEAA841309250027
:101D9000854915C083C7140003473400858B63044D
:101DA000F700405CFDB71946930544004A85EFE013
:101DB000AFE1E31835FF2285F2406244D244424944
:101DC000B24905618280411197370020938787F5DA
:101DD00022C403A4C70C26C24AC006C69304250029
:101DE000054901E82285B24022449244024941015A
:101DF0008280A6851305A402013FE30525FF405C10
:101E0000CDB74111973700209387C7F122C403A4AF
:101E1000C70C26C24AC006C693042500054901E83E
:101E20002285B24022449244024941018280A68523
:101E30001305A401D13DE30525FF405CCDB7011199
:101E400022CC604126CA4AC84EC652C406CEAA84D5
:101E50001D4A130965058549BC446364F4000545C2
:101E600081A803C7D40083474400631B470503C709
:101E700084026304F7000040C5B70347540083C7DA
:101E80005405E31AF7FE1946CA8513056400EFE00E
:101E9000AFD3E31235FF0347C40083C79402E31CAA
:101EA000F7FC0357E40083D7A402E316F7FC0145CF
:101EB000F2406244D2444249B249224A05618280DA
:101EC000E31BF7FA0347540083C75405E315F7FAF9
:101ED0001946CA8513056400EFE00FCFE31D35F9FD
:101EE000F9B70111973700209387C7E322CC03A4E9
:101EF000470C26CA06CE2AC42EC6854419E40145DD
:101F0000F2406244D24405618280834791000347D6
:101F10001400858B6304F7000044CDB71946930580
:101F2000A10013052400EFE02FCAE31795FE054535
:101F3000C1BF97360020938666F39C4213070010BA
:101F400098C323A007000347150003482500220774
:101F5000420842970348050042970348350062084B
:101F6000429798D703475500034865002207420867
:101F7000429703484500429703487500620842971C
:101F8000D8D7034795000348A50022074208429787
:101F90000348850042970348B5006208429798DBE2
:101FA0000347D5000348E50022074208429703484B
:101FB000C5000345F500429762052A97D8DB03C7A1
:101FC000150003C52500220742052A9703C5050011
:101FD0002A9703C5350062052A9798CF03C7550095
:101FE00003C56500220742052A9703C545002A97C5
:101FF00003C5750062052A97D8CF03C7950003C5AE
:10200000A500220742052A9703C585002A9703C524
:10201000B50062052A9798D303C7D50003C5E5002C
:10202000220742052A9703C5C50083C5F5002A97F4
:10203000E2052E97D8D3D843759BD8C3D8431367EE
:102040001700D8C398431367170098C398425C439E
:10205000858BD9E31C4F01452300F6009C429C4F21
:10206000A183A300F6009C429C4FC1832301F6008C
:102070009C429C4FE183A301F6009C42D84F23026F
:10208000E600D84F2183A302E600D84F4183230303
:10209000E600D84F6183A303E60098532304E600CB
:1020A00098532183A304E600985341832305E60057
:1020B00098536183A305E600D8532306E600D8535E
:1020C0002183A306E600D85341832307E600DC53AF
:1020D000E183A307F600828001008DBF97370020BF
:1020E000938747DC98431605136505083C4B93E737
:1020F00007083CCB97370020938747D79C4303A71B
:10210000450E88C398CB03A7850E0145D8CB03A7FE
:10211000C50B98CF03A7050CD8CF03A7450C98D3C0
:1021200003A7850CD8D303A7C50C98D703A7050D23
:10213000D8D703A7450D98DB03A7850DD8DB03A7E8
:10214000C50D98C703A7050ED8C7984313670704A2
:1021500098C38280973700209387C7D49843160589
:10216000136505083C4B93E707083CCB97370020E5
:102170009387C7CF9C4303A7C50E88C398CB03A7FB
:10218000050F0145D8CB03A7C50B98CF03A7050CB6
:10219000D8CF03A7450C98D303A7850CD8D303A7A2
:1021A000C50C98D703A7050DD8D703A7450D98DB15
:1021B00003A7850DD8DB03A7C50D98C703A7050E98
:1021C000D8C798431367070498C3930700F81737D5
:1021D00000202308F7CA828097360020938646C9DC
:1021E0009842411126C21C5F06C622C49983858B82
:1021F000B684CDC3930700061CDF9737002083C742
:10220000E7C793F7070417340020130424C79DC3BE
:1022100097370020938747939C43829797370020F6
:1022200023ACA7C68347040093F7F70B17370020AA
:102230002306F7C48347040093F707029DC383472F
:102240000400A16693F7F70D173700202308F7C2A3
:1022500017370020130707C55C481843860714C7C3
:102260007CD78347440093F707048DE785471737EA
:102270000020A307F7C0973700209387A7C29C438D
:10228000096798C7130700FC97360020238AE6BE2B
:102290001848F8D398401C5F9183858B81CBC14748
:1022A0001CDF854797360020238CF6BC1C5F9D837E
:1022B000858B89CB930700081CDF854717370020E3
:1022C0002300F7BC97370020938747BA9C43D84335
:1022D0000583058B19C7D843759BD8C3D843799B11
:1022E000D8C3B240224492444101828097370020F3
:1022F000938747BB944397370020938727B803C73A
:102300000700058B09EB03C71700058B09E7F85297
:102310007DF783C7570097370020A38307B68280D5
:10232000173800201308C8B4032708001C5F9583E2
:10233000858BBDEB09C61C5BBD832300F60085CAF7
:1023400083270800985B4607935767016356070089
:1023500093E707C0C207C18303970600C207C1877E
:1023600009C7BA970947B3C7E7022390F60095C19A
:102370008347150099CF3E9583479500054719453A
:1023800093F6F7066393E602E207E187394563CEE9
:1023900007008327080001459C5FED838D8B17376D
:1023A0000020A302F7AE828005458280411122C43D
:1023B00006C6173400201304E4AE18403DE5AE878E
:1023C0007453FDFE3E85B28597370020238907AA06
:1023D000EF50924D97370020938787A99C43B7060B
:1023E00080009843558F98C3D857719BD8D797379B
:1023F0000020A38707A897370020A38107A81C40C7
:10240000094798C3144017370020130727A78347AD
:102410002700858B99E783473700858B99E3FC522A
:10242000FDF7B2402244410182808D476310F502DE
:10243000973700209387C7A39C43B7068000984333
:10244000558F98C3D857719BD8D76DBF8547E31B6D
:10245000F5FA5447F977FD17F58F5CC70F100000A8
:102460001C40096798C7130700F817360020230996
:10247000E6A0173700201307A79F104318423183A7
:102480000D8B11E713076019F8D3D4C7A5BF184205
:10249000094631830D8B6315C7001307E043EDB781
:1024A0001307E01BD5B75D7152DC173A0020130A01
:1024B0002A9C03270A0086C6A2C4A6C2CAC04EDE52
:1024C0001C4397390020938929A317390020130949
:1024D000699D93F7F7E793E707081CC383A60900F4
:1024E0003707CEFF7D179C46130680022A84F98F9A
:1024F0009CC6832709002800AE8423A807049305FF
:102500001008EFD0FFE13545EF50727A83270A00BB
:102510009376F41F3706330023A40700984B370F38
:10252000FCFF4E881367F70398CBF84FCA88130552
:1025300010F8137707E0558FF8CF9843F576FD161E
:10254000758F98C317370020A30C079283260900C4
:1025500017370020A3040792054798C29843D285F5
:10256000B70204001377F7E798C3984393038025D5
:1025700011491377F7E71367071098C303A70900FA
:102580007D1F85491C47930F8002D18F1CC793077D
:102590009005BCCA01473400135337002693834784
:1025A000030013767700B3D7C740858BDDCF9C41FE
:1025B000832E0800239C07042390070603AECE0257
:1025C000137EDEFF23A6CE0383AE0700137EF7073C
:1025D00093FE0EF833EECE0123A0C70103AE4702EF
:1025E000336E5E0023A2C70383AE0800014E23A210
:1025F0007E0603DA070663074E0303AE0703038A6A
:102600000600135EFE00620E135E8E416358CA011F
:1026100003AE0703135EFE002380C60103DE070638
:10262000137EFE0F03AA4E0663060A0003DA87052F
:10263000E37F49FB03AE4702337EEE0123A2C703CB
:1026400083870600635CF400034E03003396C900E1
:102650001346F6FF3376C6012300C3003E8663D3DC
:10266000A7002A8613158601618505071377F70FE2
:102670008506E313F7F3B640264496440649F2591B
:10268000625A61618280973700209387A7819C43BB
:10269000D8479316170163D506029847931617017A
:1026A00063D006027D57B8D7172700201307874548
:1026B000584F05079726002023A4E646116798C7C0
:1026C00098470D83058B1DC3172700200347277BE1
:1026D00013671700972600202383E67A130700F874
:1026E00097260020238EE678214798C79847058BC8
:1026F00009CF17270020034777781367170097261D
:102700000020A38DE676054798C798470983058B77
:1027100009E798470583058B35C317270020A301D8
:10272000077698471726002013064675972600203F
:10273000938606740983058B9442B2856300071063
:10274000984231830D8B65EBB04BD851137606025E
:10275000034717005DCA69EF1307D005D8CF03C739
:10276000050013671700172600202309E67011479C
:1027700098C7D856719B13671700D8D698479316F9
:10278000370163D606029726002083C66661C18A98
:102790001727002013070759C5CE0347C70713673C
:1027A000070297260020238DE65E056798C79847A5
:1027B0009316270163D10602172700200347476CB1
:1027C0006207618763570700054797260020238922
:1027D000E66A096798C798479316070163D6060209
:1027E0009726002083C6D65B858A1727002013070B
:1027F0006753ADCE0347D7071367270097260020FE
:10280000A380E65A216798C7828039D705466315A9
:10281000C7001307100699B709466315C7001307C9
:1028200050062DBF0D466315C700130790063DB730
:102830001307B00625B71307C0060DB703473600C8
:102840001367170017260020A30BE66209470DB790
:102850008346C7070946BD8A6388C6000347C70782
:102860008D463D8BE313D7F4114725BF8346D70729
:10287000918AC9DA0347D7071367870041B79727BB
:102880000020938727629C4398479726002023A324
:10289000E6609447172700201307475E8D82858ADC
:1028A0008DC28346270093E61600172600202308D2
:1028B000D65C930600F8172600202303D65CA146B9
:1028C00094C79447858A99CA8346170093E61600F1
:1028D00017260020A304D65A854694C794478982B8
:1028E000858A89E694478582858AA1CE972600202D
:1028F000A3880658944717260020130666571042EF
:102900008982858AD5C21442B1828D8AD9EAAC4BBC
:10291000545393F5050283C61600B1CDC1E2930668
:10292000D005D4CF8346070093E6160097250020F4
:102930002386D554914694C75456F19A93E61600CF
:1029400054D6944713962601635F06000347470059
:102950006207618763570700054797260020238198
:10296000E652096798C798479316070163D4060093
:10297000216798C78280C5D685456395B6009306C2
:10298000100645B789456395B6009306500651BFBA
:102990008D456395B6009306900661B79306B00621
:1029A00049B79306C006B5BF8346370093E61600C5
:1029B00097250020A385D54C8946B5BF97270020D1
:1029C0009387474E98438567938707777CD39727EC
:1029D0000020938767529C4383A6070913965600ED
:1029E0006358060083A60709139666006344060031
:1029F0007453FDF28280411122C4B747024006C6DB
:102A000003A4C72023A607200F10000011C199E5D9
:102A1000B747024023A6872001457DA893073500CC
:102A2000C207C183F19BC207C183130740036369D7
:102A3000F702172700201307E75408431727002041
:102A40001307C75314436392A602172700201307E6
:102A50006710585B55DFC207DD8D054502974DBFF6
:102A6000172700201307C751C9BF035765002DEB77
:102A7000035745006366F706B306F7402146637CBB
:102A8000D60203280500938687001D8FAA9661173A
:102A900017260020035666072392E60023A00601AE
:102AA0002393060014C12312F500130786FF97260F
:102AB0000020239CE6042313B5009725002083D52E
:102AC000C504B387F540172700202310F704B74744
:102AD000024023A687202105B24022444101828082
:102AE000084195B7B747024003A8C72023A607208F
:102AF0000F10000001E523A6072182809727002000
:102B00009387474803AE070097270020938707471E
:102B100003A307008146F28763F0670C83A80700D0
:102B2000636FF50A63EDA80A138787006366E50AF9
:102B300003D66700216705076317E60003C7819383
:102B40000507238CE192972500209385A5FB03D6EA
:102B5000470003D76500239307003297420741835C
:102B6000172500202313E5FA638AC70317250020E1
:102B70001305054108416303F50203D5660019ED0D
:102B800083D7460023A0160121073E9621062392F3
:102B9000C60097270020239AE7F6B6879843630D6F
:102BA0006702972600209386A63D94426306D702CB
:102BB0008356670095E283D64700035647001843C3
:102BC000A106B2962392D70098C383D76500A107C8
:102BD00017270020231BF7F2B747024029BFBE8604
:102BE000C6871DBF972700209387C73997260020E7
:102BF0009386C6389C4390422A87B305B540631438
:102C0000F6003A8529A8938687009C43E369D7FE9E
:102C1000E377F7FE2E85E3E4D5FEE3F2F5FE82804E
:102C20004111972700209387E70F26C2A44F06C6BD
:102C300022C44AC08547C1CC03A4C40A854741C801
:102C40008347A4001307700A639AE70803475400F8
:102C50008347940097260020938646F4D042B3879A
:102C6000E702172700200357E7F3B387E7021307AC
:102C7000003293870719B3D7E70203A74409B68444
:102C80003E973A896364F7006364C7003309C7401D
:102C900097270020938747EB9C43232025018297A9
:102CA000B307A9406374A900D840BA9781E7930796
:102CB000F00F31A8034754009306204E3307D70284
:102CC000E3F7E7FE930780FA2305F4008147B2405B
:102CD0002244924402493E85410182801307800AC2
:102CE000E397E7FC97270020938707E69C438297AA
:102CF0002A893545EF50A27BAD4717270020A30254
:102D0000F718034754008347940017260020130642
:102D1000E6E85042B387E70217270020035787E809
:102D2000B387E7021307003293870719B3D7E70287
:102D300003A744093E97BA866364F7006364C7003B
:102D4000B306C740E315D9F617E5020013058568F9
:102D5000EFD0DF9F972700209387C7149C43094734
:102D6000F8D7B1B7397152D4172A0020130A0A11C3
:102D700083278A0106DE22DC26DA4AD84ED656D2CE
:102D80005AD05ECE62CC66CA6AC86EC61397070177
:102D900063570720972700209387C7F8A04F032980
:102DA000C40A834799000327C9009207330CF70030
:102DB00003452C00314705053305E50203574C0058
:102DC0003A9542054181EFD0EFBEAA8B6303051E01
:102DD000130DC5002324A50103462C00B145F97A43
:102DE0003306B60223130C008144972900209389EF
:102DF000690B172B0020130BAB07972C0020938C2B
:102E0000AC0F930D9005FD1A6A962326CC0003465D
:102E100079009307D00703A509003306F6028567FA
:102E20001CC5B7073300060630D103260B000C4241
:102E300093F5F5E70CC20C4293F5F5E793E5051021
:102E40000CC203A80C0083258800DD8D2324B80064
:102E5000832509002328B5050CC683556C0003267D
:102E6000CC002E962324CD0003461C00930550026F
:102E70002696A301CD0003450408014697270020AC
:102E8000A38E07FEEF50E23703A609004846B3754C
:102E900055014CC60F10000003A6090089650328E0
:102EA0000B000CC6930500F897270020238AB7FC77
:102EB00083250800B1818D89F1E1930560196CD2F9
:102EC00048C697270020A38D07FA8545972700203D
:102ED000A38607FA0CC2EFF06FC1EF50025503460C
:102EE0001A00058A4DCAEA852285EFF0625815ED71
:102EF00003465D004DC283556C0003554C00B295EE
:102F000063DBA508834524012848918D8905AA958E
:102F100003258D00EFD02FBA23020D0083455D00FD
:102F200003566C002E962313CC0083A50900310DA7
:102F3000B0517DFE03462C00850493F4F40FE3E8C2
:102F4000C4EC034784005E85A381EB0083470C003B
:102F5000A3820B002383CB002382FB006254F25038
:102F6000D2544259B259225A925A025BF24B624CE5
:102F7000D24C424DB24D21616F90E167832508002C
:102F80000948B1818D89639505019305E04305BF2B
:102F90009305E01B2DB77D562302CD0079B7972707
:102FA0000020938727F09C43FC5781C785472388DF
:102FB000F18AF2506254D2544259B259225A925A6A
:102FC000025BF24B624CD24C424DB24D2161828089
:102FD000197106C212C416C61AC81ECA22CC26CE41
:102FE0002AD02ED232D436D63AD83EDA42DC46DE69
:102FF000CAC0CEC2D2C4D6C6DAC8DECAE2CCE6CED9
:10300000EAD0EED2F2D4F6D6FAD8FEDA9385418829
:103010008841E700050092402242B2424243D24337
:103020006244F244025592552256B2564257D25744
:103030006258F25806499649264AB64A464BD64B3C
:10304000664CF64C065D965D265EB65E465FD65FC4
:103050000961730020300000EFD02FF073000000F2
:10306000000000009382018B038302002380020092
:10307000630F0300F32510342EC0970500009385DD
:10308000E5FD73901534EFF08FFF7300203086DC80
:0C309000EFF06FDFE650828000000000CF
:1030A00001A097E1FF1F9381618717D100201301D1
:1030B00061F5174503001305A52F97D5FF1F9385CD
:1030C00065F41386818563FAC5008322050023A079
:1030D000550011059105E3EAC5FE13858185972505
:1030E00000209385E5EA6377B500232005001105EC
:1030F000E36DB5FEFD42739002BC8D427390428039
:10310000930280087390023097D2FFFF9382C2EF40
:1031100093E2320073905230EF50304E97620000CD
:10312000938262C87390123473002030EF9230772C
:10313000B727014093870740631CF50085451305B9
:1031400000200D23814513050020292B6F907077F7
:10315000B737014093870780E31AF5FE85451305CD
:1031600000400923814513050040C5B75C4137077E
:10317000F1E01307F7EF944D7D8F9C41D58FD44D2F
:10318000D58FD441A206D58FD98F5CC11C4537F7A6
:10319000F1FF1307D77FD4457D8F9C49D58F944588
:1031A0008606D58FD98F1CC55C55370710FF7D1754
:1031B0007D8FDC29FD1793F7F70FD207D98F5CD5E8
:1031C00082801C4589C593E717001CC58280F99B46
:1031D000EDBF1C4591C537075000D98F1CC58280B3
:1031E0003707B0FF7D17F98FD5BFA54763F7B70441
:1031F0008D47138765FF3307F7020328C5009D47F6
:10320000B397E70093C7F7FFB3F70701B396E6005C
:10321000DD8E54C5994763E3C70495477D16330691
:10322000F6025859FD47B397C70093C7F7FFF98FC8
:103230003396C5005D8E50D982800D473387E502F5
:10324000032805019D47B397E70093C7F7FFB3F73E
:103250000701B396E600DD8E14C96DBFB14763E286
:10326000C702954765163306F6021859FD47B3970E
:10327000C70093C7F7FFF98F3396C5005D8E10D94D
:10328000828095474D163306F6025855FD47B39791
:10329000C70093C7F7FFF98FB395C500DD8D4CD5F7
:1032A00082806845420541818280B727014093872B
:1032B0000740984711C5B7068000558F98C7828090
:1032C000B70680FFFD16758FD5BF08416D8D33356C
:1032D000A00082805C4191C537070004D98F5CC192
:1032E0008280370700FC7D17F98FD5BFB7070140F3
:1032F00023AAA7408280B7066745B7270240938676
:1033000036123797EFCDD4C31307B79AD8C3D4D3A7
:10331000D8D38280372702401C4BA166D58F1CCBA7
:103320008280B7270240984BB7060200137505F05C
:10333000558F98CBC8CB984B1367070498CBD847C9
:10334000058B75FF984B8176FD16758F98CB828023
:10335000372702401C4BC166137505F0D58F1CCB77
:103360005C47858BF5FF372702405C47898BF5FF6B
:103370003727024013060010B386F50003A80600A5
:10338000B306F50023A006015447898AF5FE91078C
:10339000E394C7FE1C4BB7062000D58F1CCBB72784
:1033A0000240D847058B75FF984BC176FD16758F87
:1033B00098CB828037F7FF1F8327877E93D68700BD
:1033C0001CA114B193D60701E18334A13CB183273A
:1033D000C77E5CA1A1835CB182809C4513F7070185
:1033E00013F8F70001C7D8413368E8008E2113F7BE
:1033F000F50F39C318418146854E3D4F930F80022A
:1034000093028004214E3396DE00B3F8C5006311A9
:1034100016039398260033131F011343F3FF3377EA
:10342000E300B318180133E7E800639FF70550C9BC
:103430008506E39AC6FD18C11307F00F6375B7043C
:1034400054412146854E3D4F930F800293028004E4
:10345000414EB398CE0033F715016392E80213177B
:10346000260001173313EF001343F3FFB376D300A5
:103470003317E800D98E639DF701232A150105064D
:10348000E319C6FD54C18280E39457FA10C94DB7C1
:10349000E39757FE23281501DDB708456D8D3335B9
:1034A000A00082800CC982804CC98280377700409E
:1034B0001C4309C593E707101CC3828093F7F7EFFD
:1034C000E5BFB7160240DC4251777D17F98F5D8D5D
:1034D000C8C28280B71702402380070223800702F8
:1034E00005476306E50011476306E50082802380F7
:1034F000A702828015472380E702828037170240A7
:103500001C535D8D08D3828001C9371702401C53BC
:10351000A166D58F1CD38280B71602409C5261777A
:103520007D17F98F9CD28280371702405C43914609
:10353000B18B6387D706A1466389D706B7177A0090
:10354000938707201CC1371602405C4237070020D2
:10355000130707009183BD8BBA9794231C41B3D7FF
:10356000D7005CC15442A1829D8ABA969422B3D6F8
:10357000D70014C55442AD829D8A36971823B3D71D
:10358000E7005CC55842398393763700370700203F
:103590001307871136971823B3D7E7021CC9828017
:1035A000B757E8019387078071BF5C435843C166F2
:1035B000C983BD8B758F8907C5466393D700C947FB
:1035C00001EF3747024003270780418B15CB3717A0
:1035D0007A001307072029A8B7160240D8423706F9
:1035E000C000718F6319C7003727F4001307074025
:1035F000B387E70281BFD8429316E700E3D906FC00
:1036000037173D0013070790E5B799C537170240F4
:103610005C4B5D8D48CB8280B7170240D84B134579
:10362000F5FF798DC8CB828099C5371702401C4FB2
:103630005D8D08CF8280B7170240984F1345F5FF84
:10364000798D88CF828099C5371702405C4F5D8D98
:1036500048CF8280B7170240D84F1345F5FF798DC8
:10366000C8CF828099C5371702405C475D8D48C737
:103670008280B7170240D8471345F5FF798DC8C738
:10368000828099C5371702401C4B5D8D08CB828024
:10369000B7170240984B1345F5FF798D88CB828090
:1036A0009357550005476399E700B71702409C43BD
:1036B00033D5A7000589828009476396E700B717CD
:1036C00002409C53F5B7B7170240DC53D5B7B73764
:1036D000004003D74780136707012392E780828069
:1036E0003737004083574780C207C183BD9BC2075D
:1036F000C1832312F780828037360040835686814B
:103700000357868142074183E31AD7FE37360040CC
:103710008356C6818357C681C207C183E39AD7FE09
:10372000B735004003D6858103D5858142054181A7
:10373000E31AC5FE630CA700B736004003D7C68165
:1037400083D7C681C207C183E39AE7FE42055D8D38
:103750008280EF92D01441112AC6953F3245B73787
:103760000040135705014205239CE7804181239EB9
:10377000A780BD3741016F90D014EF9250124111D4
:103780002AC6B1373245B7370040135705013D8B84
:1037900042052394E78041812396A7809137410118
:1037A0006F903012373700408357478093F70702F6
:1037B000E5DF8280B737004003D747801345F5FF28
:1037C000798D2392A7808280EF92700DE5376F90FC
:1037D000500F1A218D6793870704B6217D8F9E2194
:1037E000D58FD621D58FF621D58F9625D58FB625A5
:1037F000D58FD625D58FF625D58FD98F1EA15A2DD9
:10380000FD779387F77FF98F5EAD9E291EA9828091
:103810001E2189C593E707041EA18280C207C183C8
:1038200093F7F7FBC207C183C5BFEF925007162974
:10383000F577FD17F58FF621DA257971D58F1EA959
:103840005625FD779387379FF58FD6212A842EC67C
:10385000D58F9625D58FB625D58F5EA55E29C20753
:10386000C18393F7F7CFD98F5EA968087539B74739
:10387000014093870780B245631EF402A257654753
:10388000B387E7029841930640060A07B3D7E702D9
:1038900033D7D702B3F7D7021207920793872703CC
:1038A000B3D7D702BD8BD98FC207C1831EA4456190
:1038B0006F9030019257E1B791C55E250967D98FA6
:1038C0005EA582805A25F977FD17F98FD5BF93F54C
:1038D000F51F4EA182800A216D8D3335A0008280B4
:1038E00083A7C18137177A0013070720B3D7E702F0
:1038F00093F7F70F238DF1841307803EB387E70218
:10390000239CF1848280B7F700E0D8438146799BFD
:10391000D8C303C7A1853306A70290CBD4CB984365
:103920001367070198C398431367170298C3D843D6
:10393000058B75DF9843799B98C38280B7F700E0C9
:10394000D8438146799BD8C303D781853306A70224
:1039500090CBD4CB98431367070198C39843136760
:10396000170298C3D843058B75DF9843799B98C39A
:103970008280EF92C0722A8411650111854511057C
:103980006531930700207C82371501408D473EC486
:103990004C00E147130505803EC6813422C83744F8
:1039A0000140B70708000C08130504803ECC02CA8A
:1039B000231E01009D3D854513050480F53D0561ED
:1039C0006F902070EF92006CB7440140AE8932894D
:1039D000014493840480634524014A856F90C06D3F
:1039E000930500042685C53D65DDB3878900838581
:1039F000070026850504C205C181D13DE9BF1387B3
:103A000041801C43B75600209386C6F83E95636BF1
:103A1000D500B70601209386068063E5A60008C39B
:103A20003E858280FD57EDBF23A005008547138F9B
:103A3000F6FFB94F63C3E7018280139827003298DD
:103A40000323080093881700635567040328C8FF01
:103A5000635168044688931E2800B29E330EF840D6
:103A6000C28883AE0E006305D8000508E305D3FFC6
:103A700063D16E0203A8050063CD0F0193081800FF
:103A80000A0823A015012A9893081E002320F80095
:103A9000BE98C68745B79306450005476343B70000
:103AA000828003A806003686BA878328C6FF63573C
:103AB000180123201601FD177116E5FB8A07AA9746
:103AC00023A0070105079106D1BF9386450005474E
:103AD0006343C700828003AE06003688BA8713139B
:103AE0002E002A93832EC8FF032F030093982E00E5
:103AF000AA9883A8080063D7E8012320D801FD17FE
:103B00007118EDF38A07AE9723A0C7010507910648
:103B1000C1B7EF92C0582A84328590414111AE84DA
:103B2000A28536C65D37B2461308C4FFFD577D5ED9
:103B3000B30ED0408C403E8363C7B7002285A13FBF
:103B400041016F90005885073E869CC06394C50074
:103B50001108CDB71315260022951841FD586304AE
:103B6000C301832808003307174163C4E600635B81
:103B7000D70198409308170023A0140108410A07B1
:103B8000229708C30506D9B7EF92605141112E84E0
:103B900042C4AA8432893EC6413DB2474A86A285C4
:103BA000BE862685BD371C4022486353F800C28775
:103BB0001CC041016F90E050EF92E04BBA84BE8C84
:103BC0005571AA8B2E8B328D3689428C01478147E5
:103BD0006340670B33D7670381461384011763C0C3
:103BE000660BA28A9306047C9387011711469843BB
:103BF000CC4391072E97CC432E978C472E97334773
:103C0000C70223AEE7FEE394F6FEA2858146138742
:103C1000019B1308C07B3E86C84103A30500B3087F
:103C2000D70091063305654023A0A8009105E395D0
:103C300006FFBA851305877B9387019B0948944348
:103C400083A847009107C696B3C6060323AED7FEE6
:103C5000E317F5FEBA881545B72E0300130FA047EA
:103C6000930FE01E9307B5FF1388CE57814625A812
:103C700093162700DE9694420507B69791BF1396D8
:103C80002600B305C4005E9610428506198E90C1C9
:103C9000B9B78A07BA97035308009C430908B307CA
:103CA000F3029D8EF287138E1700E394A7FEB3C62E
:103CB000E6039108728523AED8FEE315FEFB930759
:103CC000C77B01479441910513D5F641A98E898E92
:103CD0003697E399B7FE9306F01E3347D702A14704
:103CE00015481386019B4C004809793D12478547CA
:103CF00063DAE706540981470546CC428842050647
:103D00009106898DAE97E31AC7FE9306F7FFB3C6F7
:103D1000D702856793870777B3C7D70223A0FC0034
:103D200085472300FC00814763C5E7043716002060
:103D3000814781461306862563C86605AC082E8830
:103D400001450146930E301E634FE604854763C06C
:103D5000A70A930790C12320F9002380040069611A
:103D60006F90E034930790C123A0FC0023000C0067
:103D70005DBF9396270070084C093696AE96944224
:103D80008507890614C24DB73385FB000841B3058A
:103D9000F400850688C13305FD000841B305F6002F
:103DA000910788C151BF740893172600B6979C43AA
:103DB0009386A7FF63EDDE009386B7FF370E000101
:103DC000950705436398F600631303000505050690
:103DD00011089DBF93982600A29883A8080063D677
:103DE000C8012320D800468E01438506E1BF37165F
:103DF0000020930786251388077C130686259146A5
:103E000003A70A0083A84A009107910A469783A84E
:103E10004A00469783A88A0046973347D70283A86B
:103E2000070023AEEAFE03A7C7FF469783A8470013
:103E3000469783A8870046973347D70223AEE7FE0D
:103E4000E310F8FC02C402C602C802CA02CC2E87E4
:103E500081479306401F03280700E3CC06EF850740
:103E60001107E31AF5FE814A0143294E914E130FC3
:103E700040067D15D44103A805000503B382064121
:103E8000635E5E0AC288B70F00FF370700FF15A008
:103E900093972800B303F40083A3030063D47F0047
:103EA000468A9E8FB2979C436354F700C6893E872B
:103EB0008508E3CFD8FC131B28008A06B3076401EA
:103EC000B308D4009C4383A80800B3030A41B38815
:103ED000F840B388780293932900B3C85802BE987B
:103EE000B30774009C43B3871741B387E70213D726
:103EF00077406355E00463C35E05329BB296832727
:103F00000B00944233880941B2939D8EB386060319
:103F1000B3C65602BE9683A70300958FB387F703F7
:103F20009D8789CFB387E70393962A001308010D75
:103F3000C296850AB3C7E70223ACF6F29105E34BBC
:103F4000A3F2D6852800813E93D71A408D46139759
:103F5000270063D05605FD1794098A07B697369750
:103F6000032787F383A787F3BA970947B3C7E70205
:103F70001387D7FF9306400BE3EDE6DC37270300FA
:103F80001307C75BBA979C232320F90085479CA0A1
:103F9000F9B39C093E97832787F3D9BFEF92A00D11
:103FA00041111386E1899385C1891385A189EF2089
:103FB00080581386818A9385418A1385018AEF1080
:103FC00020569384018683A5418A884013844186C4
:103FD000EF809007AA85EF80E05D93050000EF7009
:103FE000D06483A5818AAA8B0840EF80F005AA855A
:103FF000EF80405CDE85EF705063EF40B07A83A7BE
:10400000418AAA8B0395A1899CC083A7818A1CC081
:10401000116433458502EF80F04A2AC60395C189B1
:1040200033458502EF80104A2A890395E18933459B
:104030008502EF803049B245AA842E85EF808057F3
:104040002A84CA854A85EF80E056AA852285EF70CA
:10405000D05D2A84A6852685EF80C055AA85228555
:10406000EF70B05CEF4010741387C1851C23F946D4
:104070002A84850793F7F70F638FD7021CA3B7270E
:10408000030083A547675E85EF80A0416355A000CC
:104090000547A38DE184B727030083A587672285A1
:1040A000EF802040635EA00003C5B1853335A000DA
:1040B00041016F80D07F23000700A38D0184C1B729
:1040C0000145FDB7EF82107C411185473704002080
:1040D0007C829307C4019843DC432A89AE848823F9
:1040E0002C2BB28954000946EF20203709C57D5595
:1040F00041016F80707C1305800CEFF03F84130446
:10410000C40118405C40230201006C37882354002E
:104110000546EF20803461FD18405C4054004C336C
:1041200088230546EF20603379F118405C40540045
:104130002C2B88230546EF20403255F918405C406F
:1041400054006C3B88230546EF2020314DF1184088
:104150005C4054004C2388230546EF20003041F991
:10416000B1475C8218405C4054004C2388230546CC
:10417000EF20A02E2DFD3D45EFF04FFC1C541840C4
:1041800054009C3705465C825C402C238823EF203A
:10419000C02C31FD1C54184054009C2705465C82FD
:1041A0005C400C338823EF20402B31F11C54BC279A
:1041B0006384090093E7070E5C8218405C4054005A
:1041C0006C2388230546EF204029E31205F2E147DE
:1041D000638609001C54BC3793E7070E5C821840C5
:1041E0005C4054006C3388230546EF200027E31021
:1041F00005F0638609001305800CEFF02FF4930798
:1042000000045C8218405C4054004C23882305461F
:10421000EF20A024E31D05EC930780075C82184083
:104220005C4054004C3388230546EF200023E31004
:1042300005EC13052003EFF06FF018405C402302FB
:1042400001004C33882354000546EF200021E31081
:1042500005EA18405C4054002C2788230946EF20CB
:104260008025E31605E8034A41009C8223240900C7
:10427000220A336AFA00B147335AFA0223220900AC
:104280002320090023A4040023A2040023A0040087
:104290008149137AFA0F639A49130325090013061B
:1042A000300881469357F541C20793550501DD8DCE
:1042B0004205EF50F0244E868146EF5070242320B3
:1042C000A900032549001306300881469357F5419C
:1042D000C20793550501DD8D4205EF5070224E86D1
:1042E0008146EF50F0212322A900032589001306FF
:1042F000300881469357F541C20793550501DD8D7E
:104300004205EF50F01F4E868146EF50701F232468
:10431000A90088404E8681469355F5419357050183
:10432000139705015D8F9355F741420593F5F57F8E
:10433000B387A500B3B5B700BA95AD831395550102
:104340005D8DAD85EF50D01B88C0C8404E8681463C
:104350009355F54193570501139705015D8F9355CB
:10436000F741420593F5F57FB387A500B3B5B700D4
:10437000BA95AD83139555015D8DAD85EF505018FD
:10438000C8C088444E8681469355F5419357050130
:10439000139705015D8F9355F741420593F5F57F1E
:1043A000B387A500B3B5B700BA95AD831395550192
:1043B0005D8DAD85EF50D01488C4C1776343A000F4
:1043C000C1673E9588C4014525B318405C40540040
:1043D0002C3788233146EF20000EE31A05D01883CE
:1043E0009C83948422075D8F1C8490824207A207DD
:1043F000D58F14824187C207A206D18E9040C20693
:10440000C186B29694C0D440C18790853697D8C0F3
:10441000984494878509BA9718869CC49C8622077D
:1044200093F9F90F5D8F1C8742074187A207D58F4B
:104430001485C207C187A206D18E03260900C206D1
:10444000C186B2962320D9008326490036972322BD
:10445000E90003278900BA972324F9002DBDEF82D4
:104460001044370400209307C40183C74702411159
:104470001304C4019DC311C1094518405C40C8879D
:104480006C3788239306F1000546EF10107D0DC9A7
:10449000FD573E8541016F80D0423C24F5DB0DC5C0
:1044A000183881477DF78547DC875C4018409306C4
:1044B000F10088236C370546EF10307AFD5771F90B
:1044C0009C871CB88147F1B7A3070100F9BFEF82B1
:1044D000103D370400209307C401BC27411189E730
:1044E0007D5541016F80F03D1304C40118405C40CC
:1044F000A30701006C3788239306F1000546EF10EF
:10450000D07579FD18405C409306F1004C33882348
:104510000546EF10907469F518405C409306F10071
:104520004C2388230546EF1050735DF95C408823C7
:104530001C40CC2383474402ADCFB1479306F10022
:104540000546DC87EF10707141FD13052003EFF085
:10455000EFBE930700FCDC873C24858B99C3815711
:10456000DC8718405C409306F1004C238823054605
:10457000EF10B06E35F51C3891C38947DC871840C1
:104580005C409306F1006C3788230546EF10F06C11
:1045900021F918405C40A30701009306F1004C3359
:1045A00088230546EF10706B3335A0003305A0401B
:1045B0000DBF91479306F1000546DC87EF10F069C7
:1045C000E31005F23C281307000491E73C24858B97
:1045D00099C313070006D8875C4018409306F10082
:1045E00088234C230546EF105067E31B05EE1305A7
:1045F0002003EFF0AFB41C3818409306F100B33736
:10460000F000DC875C406C3705468823EF10F064CF
:10461000E31805EC18405C409306040149B7B7075E
:10462000002083C7470205476381E70291CB094712
:104630006380E7020D476380E7022310050021A095
:104640009307A00F1EA1014582809307401FDDBF85
:104650009307803EC5BF9307007DEDB7EF823024FE
:10466000370400209307C401BC27411189E77D5519
:1046700041016F8010259307401F1304C401630894
:10468000F50463ECA7029307A00FE312F5FEA3075E
:1046900001009C87182401458D83E30BF7FC18402B
:1046A0005C409306F1006C2388230546EF10F05A16
:1046B0005DFD9C878D831CA465BF9307803E630BC3
:1046C000F5009307007DE314F5FAE14711A0A14737
:1046D000DC87C1B7C147EDBF370700209306C7018C
:1046E00094360546AA871307C7016384C60289CAA0
:1046F00009466382C6020D466381C6027D558280EB
:10470000894694A3383B014501C79823060798A31F
:1047100082809146FDB7A146EDB7C146DDB7EF8275
:104720001018370400209307C401BC27411189E702
:104730007D5541016F80F01891471304C401630552
:10474000F50463EBA7028947E314F5FEA307010014
:104750009C87183401458D83E30DF7FC18405C40BD
:104760009306F1006C3388230546EF10104F69F172
:104770009C878D831CB475BFA147630AF500C147B0
:10478000E318F5FAE14711A0A147DC87D1B7C1478B
:10479000EDBFB707002083C777021547FD1793F7D2
:1047A000F70F636BF702372703008A071307C76702
:1047B000BA979C4382879307C00B1EA10145828054
:1047C00093072006DDBF9307A002C5BFD147F5B709
:1047D000A947E5B79547D5B723100500C5B7EF82C0
:1047E000100C370400209307C401BC27411189E74E
:1047F0007D5541016F80F00C9307B00B1304C40189
:1048000063F6A7028547DC8738349C870145E302BD
:10481000F7FE18405C409306F1002C2388230546E0
:10482000EF10B04371F59C873CB4E1B793071006D5
:1048300063F4A7008947C1BF9307900263F4A70000
:104840008D47D1B7CD4763F4A70091476DBFA5470A
:1048500063F4A700954745BF994775B7B707002090
:104860009387C70103C7470209E7FE271EA1014539
:1048700082807D558280B707002083C747020547A5
:104880006382E70289CB09476383E7020D476385AB
:10489000E7027D558280B727030083A7076B1CC101
:1048A00001458280B727030083A7476BCDBFB72799
:1048B000030083A7876BE5B7B727030083A7C76B00
:1048C000F9BF370700209306C70194360546AA872B
:1048D0001307C7016384C60289CA09466384C602F6
:1048E0000D466383C6027D558280916696A3383B50
:1048F000014501C79A2305839AA38280896693861E
:10490000C6F9EDB78566DDB7856693860680F9BF83
:10491000EF824077370400201304C4018347440228
:1049200001498DEF3C247D5995CB9374E50FE58FBC
:10493000834904011CA8858FB337F0003309F04088
:104940005C28C58F91CB0545193E89C8493619C5E4
:10495000230834017D5919A0014511364A856F801D
:10496000A075EF822072B70900209384C90183C724
:104970004402411189E77D5541016F80E073BC24F9
:10498000FDDB9840DC40AE8A2A892C278823328AB6
:1049900074000946EF10303279FD1C868086A2072C
:1049A0005D8C6375240123000A00F1B7D840938918
:1049B000C9013E23858363F087029C40082374006D
:1049C0008C3B0546EF10302F5DF51C86C18B81C7EF
:1049D000FD3C795555B703A7090083A74900D68642
:1049E0002C3788231376F90FEF10F02C49F5335448
:1049F00024037D1423008A0041B7EF82406A370404
:104A000000209307C401BC2B41116382A70C13043F
:104A1000C4015C40AA849306F10088231C4005462B
:104A2000CC23A9C8EF10302909C57D5541016F80FD
:104A300040699C8718409306F10093F7F7FDDC87E7
:104A40005C404C2305468823EF10302179FD0D454D
:104A5000EFE0DFEE8947DC878347240281C79307B5
:104A600020F8DC8783473402A1CB9C8793E70703B8
:104A7000DC8799A0EF1030244DF93C249487858B76
:104A800013F7F60D99C313E70602D8875C40184068
:104A90009306F10088234C230546EF10101C51F5B6
:104AA0000D45EFE0BFE98347240299C3930700084F
:104AB00003473402DC875DFB18405C409306F1003D
:104AC0004C2B88230546EF10501925F124A80145E9
:104AD000B1BFEF82C05C370400209307C40183C7D5
:104AE000370241116383A7041304C401814719C12C
:104AF000930700033828DC8701C793E72700DC878A
:104B00008347240289C79C8793E707F8DC875C40CA
:104B10001840AA8488234C2B9306F1000546EF1019
:104B2000D013FD5701E5A301940281473E85410161
:104B30006F8020599307800263F5A700FD573E85DB
:104B40008280EF82C055370400204111AA841304EB
:104B5000C40115E5BD3F930700707C8618405C409A
:104B600074002C2B88230946EF10300FFD5701E508
:104B7000230A040081473E8541016F80805405452A
:104B8000893F930700025C868547639DF402A30674
:104B900001001545A9319C86184074009A0793E7D7
:104BA0007700DC865C402C2B09468823EF10F00A46
:104BB000FD5771F1A1473CA48547230604005CA87A
:104BC000813B4DBF154763649700DC86D9B7D14759
:104BD00063E697008947DC8629456DBF8D47DC86F3
:104BE00051454DBFEF82A04B370400209307C4010D
:104BF000B827411109E77D5541016F80804C03C7FB
:104C0000470275FBDC2B1304C401AA8485C39307F8
:104C1000F5FFC207C183130770026367F7001375BE
:104C2000F50F093F0145C9BF014529371307803EEC
:104C3000A687637497009307803E93960701C1820D
:104C4000114763F3E6009147C207C1839304803E96
:104C5000B3C7F40218409306F10005460C33FD1764
:104C6000DC875C408823EF10407F51F5888705057D
:104C700033C5A4026AA405819D366DB7EF82204238
:104C8000937705074111AA8481C78547DC8721A056
:104C90000DC9A3070100370400209307C4019843FE
:104CA000DC439306F1002C2B882305461304C40132
:104CB000EF10A07A11C9230504007D5541016F80D2
:104CC000404093070004D9B79C8793F7F7FB5CA497
:104CD00093F70404B9CFA307010093F7040289E70F
:104CE0009C8793E72700DC8793F7040189E79C877B
:104CF00093E71700DC8793F7840089E79C8793E7A5
:104D00008703DC8718405C409306F1002C3B882326
:104D10000546EF10807445F193F7740F91C3553B2E
:104D20001305200324A4230A0400EFE03FC101453A
:104D300071B79147DC8755B7EF82603637040020A2
:104D40004111930700F89304C4015C849840DC404F
:104D500034002C2B88230546EF10207011C57D549C
:104D6000228541016F80E03513054006EFE01FBD4D
:104D70001304C40118405C40230401002C2B882339
:104D800034000546EF10606D79F918405C4034003E
:104D90006C2B88231946EF10007271F19C86988560
:104DA0008A070607098B918BD98F9884058BD98F39
:104DB000D1C3054793F5F70F6394E7003CB831A0E2
:104DC00089476392F506A3090400FD577EA41CA839
:104DD0003CA8FD571CC4231A040085473146814571
:104DE000130564015CA4EF80404385473EB0232255
:104DF00004021305007DEFF07F8635F10945EFF0E1
:104E00001F9231FD1305A002EFF07F9D29F91305D4
:104E10002003C93B29F5EFF0BFAF31F1F93E2A84F9
:104E20001DFDA93D35BF372503001305056CEF8037
:104E3000404935B79840DC4034002C338823054680
:104E4000EF106067E31D05F01C84BD8B81EB3725F7
:104E500003001305856EEF80A05A11B71147E39444
:104E6000E7F63725030013054573EF806059854742
:104E7000B1B719E67D5582807D5541016F80602470
:104E8000EF82E021370400201304C4013C244111C7
:104E9000E5D71357850093178500D98F7C865C4032
:104EA0001375F50F2E95BA27E348A7FC1840AE847A
:104EB00088230C2F328974000946EF10005A4DFDEB
:104EC00018405C40CA864C3B882313F6F40FEF1061
:104ED000C0583335A0003305A04045B719E67D55CD
:104EE00082807D5541016F80C01DEF82401B3704D9
:104EF00000201304C4013C244111E5D71357850059
:104F000093178500D98F7C865C401375F50F2E951D
:104F1000BA27E348A7FC1840AE8488230C2F3289B7
:104F200074000946EF1060534DFD18405C40CA867E
:104F30004C3B882313F6F40FEF10E0573335A000F5
:104F40003305A04045B7EF820013B70400209387D4
:104F5000C40183C75702011189C77D5505616F8060
:104F60000015E5DDC16B9384C401368B32892E8A2E
:104F7000AA890144C14CFD1B6369340313168900DF
:104F8000984013598900DC4033692601231621011A
:104F90002C2F882374000946EF10204C5DFD8547B7
:104FA000A382F4022393640355BFB38A894063D379
:104FB0005C01C14A139C0A01135C0C01330D8A0089
:104FC0006A86E2852285753549F91008E2852285D1
:104FD000313741F533F67A010C086A85EF80801687
:104FE00009E562944204418041BF795585BFEF8253
:104FF000000B370400201304C4010347440241118D
:105000006302A70421C5834754027D558DCF014516
:10501000EFF0EFC40145EFF05F9E6A30E1365C408F
:10502000A30701009306F10088230546930530028B
:10503000EF10A042854705452302F402EFF02FC28E
:10504000EFF0EFC8014541016F80A007EFF02FC1DD
:105050001C289306F1000546DC875C40930530026E
:105060008823EF10803F23020402D9BFEF82200083
:10507000370400209307C40103CA47025971AA8A62
:10508000AE8B1304C40163050A0001458D37054A40
:105090001305E103EFF0AFD81305D103EFF0CFE331
:1050A00013052104EFF0EFEE8800EFF02FFB1C2832
:1050B0000146DE855685034DA4003EC6EFF08F8085
:1050C000631805180546AC08E800EFE0BFFF631E53
:1050D000051C5C40B40011468823B545EF10A03D87
:1050E000630C051CB72703003EC8B727030083A73E
:1050F000C776A408130B41063ECAB727030083A74F
:105100000777814901493ECCB727030083A747763B
:10511000054C3ECEB707008093C7F7FF3ED0B727B8
:10512000030083AD877693172900DE9788409C4360
:10513000898F13D5F741A98F3385A740EF70903839
:10514000B727030083A50776EF70C04603270B003F
:10515000AA8C930500003A853AD2EF70C02E630402
:10516000051E12576685BA85EF70C002F245EF70D2
:10517000A06D8257EE857D8DEF70A0326356A00042
:10518000B3172C01B3E9F90005098D479104110B00
:10519000E31BF9F893F7F90FBE8C5C40D4100D4671
:1051A0008823B5459D44EF100031631A051E8347DF
:1051B0006106035741068966FD8B2303F106C2474A
:1051C0009386F6F1758F83A70776370B008023123D
:1051D000E1063EC8B727030083A787779309C10478
:1051E00081443ECAB727030083A7C7770149854B8F
:1051F0003ECCB727030083A74775134BFBFF3ECE7A
:10520000B727030083A747773ED0B727030083A7BC
:1052100047763ED2B727030083AD877693172900E0
:10522000D69703A509009C43898F13D5F741A98F11
:105230003385A740EF701029C245EF70A037DC100E
:10524000338727011C232A8C63840716724521AA01
:105250000146DE855685EFE0FFE6E30505E681447D
:10526000FD570355E1037EA41CA8FD571CC48547C8
:105270005CA4EFF0AFBE0345D103EFF04FCA035576
:105280002104EFF0CFD503550104EFF0BF956A85F7
:10529000EFF0DF9E3245EFF0AFE763040A0005450B
:1052A000B933268565616F7050600546AC08E8002B
:1052B000EFE05FE14DF531BD8346B1040347810462
:1052C0009309410493D746400D878D8B718B5D8F79
:1052D0002302E1040347910493D726408D8B0D8769
:1052E000718B5D8F8347A1048D8AA302E1048D87B2
:1052F000F18BD58F2303F104B727030003AC877527
:10530000B727030083ADC775C410130B010703C98A
:105310000900631A0900930700009CC091048509E5
:10532000E3179BFEC1B323A084017D191379F90F04
:105330006315090023800900D5B78840EE85EF701A
:10534000602788C0DDB7D2456685EF70E01DE34970
:1053500005E2E24566850DB582553AD63ED4EF703A
:105360006025A2573257FD1793F7F70FF5F7AA8577
:10537000230007006285EF60F0619255EF70C04C2A
:10538000EE8533756501EF70C0116355A000B397CA
:105390002B01DD8C05098D479109E311F9E893F4A0
:1053A000F40F93B41400E39D0CEA93E424004DBD84
:1053B000D245EF706017E34C05FCE2456285E1B72A
:1053C000EF72F04D01114C0828004D314800EFF00C
:1053D0008FCA22451244EF70F00EA285EF70801D37
:1053E000EF70D0022AC43245EF70D00DA285EF7065
:1053F000601CEF70B0012AC64245EF70B00CA28568
:10540000EF70401BEF7090002AC828000D2913058B
:105410002100EFF00FCB48082311010002CA02CC93
:1054200002CE212B014505616F70B04903070500CD
:1054300081476343E002914705E303071500854771
:10544000634CE000954709EB030725008947634556
:10545000E0009337170099073E858280EF72304451
:10546000AA84E9372A8913853400C9372A84138529
:1054700064006D3F931734001A055D8D3365250177
:10548000420541816F70F0438280EF725041EF001E
:10549000D076EFF07F8AA94749E113058007EFF046
:1054A000EFFD1375F50F85472DE913058007EFF024
:1054B0002FC61375F50F89472DE113054006EFF050
:1054C0006FF21375F50F8D4729E9912C1375F50FC0
:1054D000914721E5370500201305050141378D244B
:1054E0001375F50F954715E913053017EF00F01107
:1054F0001375F50F994715E1130540063D2B1375FC
:10550000F50F9D4719E96D3DA14701E90545EFF00C
:105510001FAE9377F50F91C3A5473E856F70703A24
:10552000EF7270353971AA8B2E8BB28A9307910175
:105530001307A101740810182C100810EF00902A0E
:105540006314051ABC85094593F70710638B071888
:105550004255B7290300EF70E07683A5096AEF7022
:1055600060052A895255EF70E07583A5096AEF70CE
:105570006004AA846255EF70E07483A5096AEF7035
:1055800060032A847255EF70E07383A5096AEF7097
:105590006002B727030083A5476AAA892685EF70B2
:1055A0006001AA8CCA854A85EF6030082A8CCE85B6
:1055B0006685EF7020002A8AA2856285EF60907F61
:1055C000AA855285EF607006EF701009EF309011D8
:1055D000372A030003268A6A8326CA6AEF50D0411D
:1055E000EF70501223A0AB00A2852285EF60F0037C
:1055F000AA8BA6856685EF60F07BA285AA8C5E8566
:10560000EF60507BAA856685EF700024B727030002
:1056100083A54776EF607001EF7010042AC42EC690
:105620005E85CE85EF601079AA8BA6856285EF60D6
:105630007078AA855E85EF60407FEF70F0012246AA
:10564000B246EF30101603268A6A8326CA6AEF50E4
:10565000B03AEF70300B2320AB00CA854A85EF606B
:1056600070752A8BA6852685EF60D074AA855A8529
:10567000EF60A07B2A8BA2852285EF60B073AA859C
:105680005A85EF70601C2A8BCE854E85EF60907234
:10569000AA855A85EF70401BEF70007C2AC42EC685
:1056A0002685A285EF6010712A84CE854A85EF6039
:1056B0007070AA852285EF604077AA85EF60E0765A
:1056C000EF7080792246B246EF30B00D03268A6A29
:1056D0008326CA6AEF505032EF70D00223A0AA008E
:1056E000014521616F70B01C0545E5BFEF72301BAD
:1056F000B7B7B38D4111938787AB3EC2B7A70D35BE
:105700009387478B3EC450009307D005A5451305EA
:10571000804B5C86EFF0EFF541016F70901AEF72ED
:105720001018B725030005659306800C130600408A
:105730009385457C130565BFEFF0FF806F7070188F
:10574000EF72F015F57741111387C7D49387C7908F
:105750007C869307C00278845C871307C006937623
:1057600035001C085885BE9683C786FF1357350041
:105770000D8B5C801C083E97834787FF100883C60B
:10578000C6FFDC80935765008D8BB29703C687FFF9
:105790000347C7FF83C7C7FF2A8450818D450A8608
:1057A000130560425482D8825C83EFF08FEC09C508
:1057B0007D5541016F70F01050008D451305A042DA
:1057C000EFF02FEB75F59567938767637C80930700
:1057D00060075C819167938767627C8293076006AC
:1057E0005C839377440099C7930770035C809307A9
:1057F00070025C829377040299C793077005DC807E
:1058000093077004DC829377041099C7930770079D
:105810005C81930770065C830A868D4513050044FE
:10582000EFF02FE551F550008D4513051043EFF0D3
:105830004FE43DFDB7270020239887A29DBFEF725C
:105840001006B727002083D707A3411113F73700AD
:105850000A072A970C4313F7470019C3B305B04052
:1058600013D71700318B2A97104313F7070219C378
:105870003306C04013D74700318B3A9593F7071092
:10588000184199C33307E040B7E6CA0293869630C1
:10589000B387D5021305003DB395D502F9833304D0
:1058A000D7028A05CD8F91453317D7027980B3048B
:1058B000D6020A07598C13D78741588613D7074158
:1058C000D88613978700C207C1833316D602F980A2
:1058D000A183D98F7C870A06D18C7000EFF06FD935
:1058E00009C57D5541016F70C07D93D784415C86A9
:1058F00093D70441DC8693978400C204C180A180C1
:10590000DD8C700091451305403D6487EFF06FD644
:1059100069F9935784415C8693570441DC86931759
:1059200084004204418021805D8C70009145130504
:10593000803D6087EFF0EFD375B7EF72407641118D
:105940002A8413052100EFE0DFF7B727002083D773
:1059500007A3308113F737000A07229793F6470011
:105960003E06184399C23307E04093D61700B18A28
:10597000A2968C4293F6070299C2B305B04093D623
:105980004700B18A369493F70710084099C333054E
:10599000A0409357F741B306C702B387C702F98205
:1059A0003337C702BA978A07DD8E93D7F54133871D
:1059B000C502B387C7027983B3B5C502AE978A071C
:1059C0009355F5415D8FB385C502B307C5023336E4
:1059D000C502F983130540292E960A06D18F13D6E6
:1059E0008641508213D60641D08213968600C206A5
:1059F000C182A182D18E7483935687415484935679
:105A00000741D48493168700420741832183558F31
:105A1000788513D78741588613D70741D8861397BF
:105A20008700C207C183A183D98F5000B1457C870D
:105A3000EFF02FC441016F70C068EF724066011132
:105A4000B72503002A8431469385C5534808EF7073
:105A5000A0719307800C63F687007D5505616F7018
:105A60004066B3C78702700089451305602123068D
:105A70000100FD17DC86EFF0CFBF65F1056550082A
:105A8000B145130515ACEFF0CFBE61F9B727002083
:105A9000239A87A2E1B79377750099E37D558280B9
:105AA00093070064E3ECB7FEEF72605F41112A8454
:105AB0002E85EF70802DB737030083A5C73BEF60BD
:105AC000606DAA841305B100EFE01FC19C851147EA
:105AD0006383E70E6369F7000947638EE7027D552C
