:040000006F30200A33
:100004000000000000000000CC7F0000D07F000052
:10001400000000004001000000000000000000009B
:1000240040010000A03000000000000000000000BB
:10003400A030000000000000A0300000000000001C
:10004400A0300000A0300000A0300000A03000006C
:10005400A0300000A0300000A0300000A03000005C
:10006400A0300000A0300000A0300000A03000004C
:10007400A0300000A0300000A0300000A03000003C
:10008400A0300000A0300000A0300000A03000002C
:10009400A0300000A0300000A0300000A03000001C
:1000A400A0300000A0300000A0300000A03000000C
:1000B400A0300000A0300000A0300000A0300000FC
:1000C400A0300000A0300000A0300000A0300000EC
:1000D400A0300000A0300000A0300000A0300000DC
:1000E400A030000052770000A0300000A0300000D3
:1000F400A0300000A0300000A0300000D27F00003B
:10010400D02F0000A0300000A0300000A03000007C
:10011400A0300000A030000000000000000000003B
:1001240000000000000000000000000000000000CB
:0C013400000000000000000000000000BF
:100140009305000273A04580824573901534924058
:100150002242B2424243D2436244F2440255925593
:100160002256B2564257D2576258F258064996491B
:10017000264AB64A464BD64B664CF64C065D965D13
:10018000265EB65E465FD65F096173002030EFC21F
:10019000000FEF70A014C52BEDBF23AC05FE1C4172
:1001A00081E70CC18280BA8703A787FF6DFF23AC6C
:1001B000B7FE8280411126C24AC0B744024006C63B
:1001C00022C403A9C42023A604200F10000009E9BB
:1001D00023A62421B2402244924402494101828054
:1001E0002A842105BD654205C18D4181EF20B00003
:1001F00001CDFD5723200500231285002303F500C0
:1002000023A624212105F9B723A624210145D9B726
:1002100001114AC84EC6B747024006CE22CC26CAB4
:1002200083A9C7202A8923A607200F1000009767FB
:100230000020938727F180438144014619E499E81F
:10024000A1654A85EFD0D05415A08347E4FF639B96
:10025000270395CCA685176500201305A5EEEFD0E2
:10026000805179DCA1654A85EFD0300AF2406244C2
:10027000B747024023A6372126854249D244B249D6
:100280000561828091E02286032484FF45BFA28419
:10029000E5BF976700209387E7EF9C4399E33E858E
:1002A000828003D727006316B70003C70700E3085F
:1002B000A7FEDC47E5B7B747024003A7C72023A640
:1002C00007200F10000001C599C1814711E6B7470B
:1002D000024023A6E7208280B386F50003C806000B
:1002E000B306F500850723800601E317F6FEC5B7C0
:1002F000374702408327C720232607200F1000001E
:1003000019C191C111E6374702402326F7208280A8
:10031000910503A7C5FF11057D16232EE5FEDDB768
:10032000374702408327C720232607200F100000ED
:1003300001C53307C50011E6374702402326F720E1
:1003400082800505A30FB5FEE31DE5FEF5B7B747AF
:10035000024083A6C72023A607200F100000814774
:100360003307F5000307070019E737470240232644
:10037000D7203E8582808507E5B7011126CA4AC885
:10038000B747024006CE22CC83A4C7202A892E86F6
:1003900023A607200F100000131506019305F00493
:1003A000418132C6EF2020652A8401C53246CA85C4
:1003B00019372285F2406244B747024023A69720AE
:1003C0004249D24405618280B747024003A7C72053
:1003D00023A607200F10000001C599C1814711EA2B
:1003E000B747024023A6E720054582808507E30939
:1003F000F6FE3308F500B386F5000348080083C60F
:100400000600E305D8FEB747024023A6E7200145D2
:100410008280B747024003A7C72023A607200F10FA
:1004200000009307F6FFBE952A966317C500B747ED
:10043000024023A6E7208280FD1583C7150005052D
:10044000A30FF5FEDDB7374702408327C7202326D9
:1004500007200F10000001C53307C50019E6374714
:1004600002402326F7200145828005058346F5FFDB
:10047000E397B6FEE31BE5FE374702402326F7204D
:10048000054582807971976700209387A7D022D491
:10049000804306D626D24AD04ECE52CC56CA5AC82F
:1004A0005EC669C0B7C4C901014B97690020938932
:1004B000E9CD9384F437176A0020130AEACD976ACE
:1004C0000020938A6AC817690020130969D18357ED
:1004D000240095E35C44631D0B0017670020232B69
:1004E000F7CA832BC4002285EF20C05F5E84A9A8D1
:1004F0002326FB00FDB783A7090082971C4433071E
:10050000F5406376F500032749001D8F2A9763E0C5
:10051000E4089767002023A107C4835524000345FE
:100520000400EFD0805E5C405844A1CB0C4403260D
:100530004900AE97BE8663E4B70063E4C700B386A4
:10054000C74014C4228B3A8459F0976700209387E0
:10055000A7BF9C4B05476372F706FD17176700207E
:10056000232CF7BEB250225492540259F249624AE7
:10057000D24A424BB24B4561828063170B009767AA
:10058000002023A9E7C0B1BF2326EB0099BF0327B2
:100590008A0209CF63EFA7003385A74083A70A012A
:1005A0006376F5009767002023A8A7BA228B404402
:1005B00061BF03274900BA97C5B79767002023ADED
:1005C00007B84DB701114EC6B747024006CE22CC40
:1005D00026CA4AC852C483A9C72023A607200F10E1
:1005E0000000176900201309A9BF9767002083C77F
:1005F000E7BF03254900ADC39767002083D7C7E154
:10060000A1CF976700209387E7D503A4070B630565
:10061000A40497670020938727B3984B3E8A63070B
:10062000A71097640020938464B69C408297636B04
:10063000A40E9C40098C829703270A016373E4008F
:100640002287B307A7003E858326490063E4E700BD
:1006500063E4D7003385D740B747024023A637214C
:1006600083274900639FA702176400201304C4ADC9
:10067000184897670020938767B19C43631AA70ABD
:10068000829783264900B74736FE938707C8B697F7
:100690003387A7003A856364F7006364D7003305A6
:1006A000D74017640020130464E15C5081CF976742
:1006B0000020938767E894433707CDFF7D179C465A
:1006C000F98F9CC619E1032549008547176700206B
:1006D000232CF7DE97670020938707AC9C578297FF
:1006E00011ED5C5099CB5C4489CBEF60D27DEF601B
:1006F00082549767002023A907DC69335C5099CBAB
:1007000097670020938747E39843B70633001C4759
:10071000D58F1CC7F2406244D2444249B249224AB2
:1007200005618280832749003E9421B722852DB739
:100730008297144803274900B387A6003E8563E4E7
:10074000D700E3E0E7F63385E740A1BF23A4A18A01
:1007500001C585472386F18A82809387818A9C43DD
:1007600081CF411106C6829783C7C18A99E323A42A
:10077000018AB2404101828083C7C18A81E723A4F4
:10078000018A82808280411126C206C622C49767F0
:10079000002083C7A7A5976400209384A49D85EBC0
:1007A0009767002083C7D7D1858B17670020130771
:1007B000E7D091CF8347770099466396F60C976709
:1007C0000020A38F07CEEF107032DC4482979C4448
:1007D00091C38297176400201304849B1840176606
:1007E0000020034676969767002083C7E795939687
:1007F0001700BA9683D60600C5C69767002083C740
:10080000A79463E9C70A97670020238F0792976729
:10081000002083C737CB97640020938424CA639752
:10082000071297670020938767969C43638B071096
:10083000976700209387C79ADC4317670020232D12
:10084000F790893197670020938707959C57638AB3
:10085000070E83C7740011476365F70E9767002082
:1008600083C747CB918BF1EF83C7C18AF9EB104067
:100870009766002083C6568D63C7D70E2244B240C8
:100880009244410181B3834777001D47E311F7F498
:1008900097670020A38607C2EF1050259C483DB7FC
:1008A000850793F7F70F97660020238FF688E3EC10
:1008B000C7F2A1B786073E978355070023100700AC
:1008C000976700202392078C976700209387478AB9
:1008D0009C43176500200345258713172500BA9709
:1008E0009C4382979767002083D7078A1767002069
:1008F0000347878593C7F7FF7D8D9317170018402F
:100900003E97835707005D8D2310A700976700204F
:1009100083C7878391C78507176700202306F7825F
:100920009C4091C782979767002023A5078417678B
:100930000020034767819767002083C7F780E3742F
:10094000F7ECB240224492444101828083C7740094
:1009500093F7F70FE39707EC97670020A38407B698
:10096000EF60C27B7DBD13971700329703570700D6
:1009700069FB850711B7374702408326C720F17707
:10098000FD17F58F2326F72001000100975700205F
:100990009387877BC84F832787262326D7206A051E
:1009A00093C7F7FF99835D8D82809757002083C797
:1009B000D77999CF9767002083C7478381CF9767FF
:1009C00000209387E78203A30700630703000283E5
:1009D00005458280094582801305F00F8280938748
:1009E0004190984317660020034686978147631518
:1009F000F600814636858280BA86130787028355C2
:100A000087FDE389A5FE850793F7F70FCDB7938799
:100A100001929C4317670020034797942A86050795
:100A200081463E8583D707006388C7008506930704
:100A30006500E3E8E6FE0145828093878191984353
:100A400019E3014615A81C4703D8A700636B0501ED
:100A500083584700B38608016355D50081466394E7
:100A600016011843F1BF3E86C10703D3A7FF6317E2
:100A7000A30099C123900501328582808506C206B4
:100A8000C182F1BF976700209387878798431766D5
:100A900000200346E68C81476315F60081463685C3
:100AA0008280BA861307C703835567FCE389A5FED6
:100AB000850793F7F70FCDB7032785116302071258
:100AC000411122C406C68347C5008345E5042A8434
:100AD00093F7C70F2306F500834697000356C70018
:100AE00013958601618563F2C508635B05060345BE
:100AF000870093F6F607A304D700054693E6270080
:100B00006314C50093E617002306D4005C438907ED
:100B10005CC3A30AB400032504112E864C430905C7
:100B2000EFF06FF98327841103465401D44303D7B0
:100B3000C700B296118FD4C32396E7008947A30D4F
:100B4000F400034764039757002083C70766637860
:100B5000F7048347C40093E707012306F40081A04C
:100B600093E717002306F4006DB79376F60F635DE5
:100B7000050203458700854513E627006314B50089
:100B800013E617002306C400A30AD400A304070039
:100B90008547A30DF400832784119C43DDF3B24005
:100BA000224401454101828093E717002306F400A7
:100BB000A30AD400A3040700032504114C4309052C
:100BC000EFF06FEF8327841103465401D44303D71A
:100BD000C700B296118FD4C32396E7008D4755BF47
:100BE00005458280976700209387878A9C4341113F
:100BF00022C406C6858B2A84D5EB4165130525F5ED
:100C0000EFE0B17145C58347A5002315F5008327A3
:100C10000412BDE72320A4122322A4128547231126
:100C2000F404232005008347640154412316F50092
:100C30000347D4002304E5000547A304E500176734
:100C400000201307A78758531385170215811C43EB
:100C50007D151375F50F9CC25C43DCC21C479CC616
:100C60005C47DCC61C4B9CCA5C4BDCCA1C4F9CCE50
:100C70005C4FDCCE19CD9386060213070702C1BF75
:100C80008327441288C3835724042322A412850790
:100C900079B79757002083D7676D850717570020CE
:100CA0002316F76CB2402244410182808347C4007E
:100CB00023090400054593C747002306F400DDB768
:100CC0008347850193F7E70FC5EF83479501CDEB88
:100CD000034625018346C50009CA834565031757A6
:100CE00000200347974C63E7E50013F7060151CB5B
:100CF000014709C6C18A0357251E81C68356651E52
:100D0000369741C31307C712175500200355C54D29
:100D1000B335A70237460F0041111306062481465A
:100D200022C426C206C67D543305A702EF80805830
:100D30009757002083C7B747B384A7009757002071
:100D40009387476203A7C7098327070963F38700CF
:100D50003E84184375FB97570020938727439C4395
:100D6000829781476364A400B307A440B240224441
:100D7000B3B7970093C7170092443E854101828024
:100D800081473E858280975700209387A7759843B7
:100D90007C53FDFF82800111975700209387875C69
:100DA00022CC03A4470A26CA9757002083D7C743FB
:100DB00083546408032504094AC8B384F402B7477E
:100DC0000F001387F7239387072406CE4EC652C41D
:100DD00056C2175900201309A940BA94B3D4F4029B
:100DE000636E9502975900209389493A83A70900B9
:100DF000B3049540829763E7A402898C63C8040218
:100E000083570404A30F040085072310F4048347C9
:100E10000414639F07102285352729AA83274900D8
:100E20003E95C9B783274900BE94C1BF83A7090077
:100E30008297032784086367E50A198D8357E403C3
:100E4000175700200357473A8E07B387E702130767
:100E5000003293870719B3D7E70263EAA708374A36
:100E60000F00930AFA23130A0A2483570404850700
:100E70002310F4048347041499E32285E125228595
:100E8000EFD0D14E631A0526832604098327C408B0
:100E900003274900B6973E8563E4D70063E4E70083
:100EA0003385E7408347F401835464082328A4086A
:100EB0008507A30FF4009757002083D7E732B38448
:100EC000F402D694B3D44403636C9504B304954000
:100ED00083A70900829763E9A4043385A440E3460D
:100EE00005F839BF83274900998F3E9581BFA145F9
:100EF0002285EFD0313FA305A402975700209387A6
:100F0000A72903A347036309031E6244F240D244A6
:100F10004249B249224A924A8945154505610283F0
:100F2000B3049740AA946DB783274900BE9475B760
:100F30002285452D2285EFD07143631F051A835703
:100F40006408175500200355252AB7460F00B387BC
:100F5000A7021386F6239386062403270409230B8E
:100F60000402032A4900B297B3D7D702636FF71878
:100F7000B307F7408326C4082324F408814AB387C3
:100F8000E600BE8463E4D70063E44701B3844741CD
:100F90008357040223289408B1CB835604040357D3
:100FA000440237460F002312D4023387E640B3874A
:100FB000E702035724021306062481468145BA97A7
:100FC000C207C1833385A7022311F402EF80802E6C
:100FD00011CD2695B3349500AE94AA8763949A00F8
:100FE00063644501B30745412328F40883A709003A
:100FF0008297AA8483A709008297E30D95FE83A7B1
:10100000090083248408829763E6A4103385A440F2
:1010100063030512835764089759002083D9C91CBC
:10102000B7440F00B38737031387F4239384042452
:10103000BA97B3D797021757002003475717BA97A5
:1010400063EBA70EB3359502035924024E86814601
:1010500033059502EF800026330AA90033053903D2
:1010600037460F001306062481468145EF80802411
:1010700005C1B33795024E868146B385B4023385E8
:10108000A402BE95EF8000233305A9402311A402DA
:101090003545EF60421B9757002023A787368346CC
:1010A000B40005479757002083C747146398E606A6
:1010B000130700FD2307E400175700201307873E9E
:1010C0000843B5C7EFF08FE8975600209386864116
:1010D0009042954717570020A305F73E5846F977E9
:1010E000FD17F98F5CC60F1000009C428966060A46
:1010F00094C723A24707D8C7F2406244D24442496A
:10110000B249224A924A05618280B3064701B387F9
:10111000F6408DB583274900BE94CDBD130710FC62
:101120002307E400175700201307473751BF8145B5
:10113000EFC0907E51BF9757002023A7072C9757E9
:10114000002083C7A70A99CF975700209387C734F9
:101150008843EFD0403EB7E700E03707000223A204
:10116000E72059BF8347940285456244F240D24448
:101170004249B249224A924AB395F500C205C1815B
:10118000014505616FC07018011122CC4AC84EC6D6
:1011900006CE26CA52C456C25AC00347B500854778
:1011A0002A842E8983290509631DF71E83570508A4
:1011B000035BC503975A002083DA0A03175A0020FD
:1011C000130A0A0263F7671B834605016393E61A55
:1011D00003278511631F07180327450A631B071898
:1011E0008346F5001D476396E6180355A503330BA8
:1011F000FB409307204E330565038324440937469B
:101200000F001306062481463305F5029757002088
:1012100083C7E7F9B3549502B3B5AA02BE94C204DA
:10122000C180231394083385AA02EF80A008AA99ED
:1012300033B5A9002E954E8783274A0019E163E450
:10124000F9003387F940B3845403B7460F009387FE
:10125000F623938606242320E900BE94B3D4D40257
:1012600093171B00A6976360F7101D8F2320E900DA
:1012700097590020938989F183A7090083240900E5
:10128000829763E3A4123385A4406352050C83A7BD
:101290000900829703270900636FE510198D8357B2
:1012A000E40317570020035727F48E07B387E7029C
:1012B0001307003293870719B3D7E70263E5A71036
:1012C000374A0F00130BFA23975A0020938A4AF1EA
:1012D000130A0A248357040485072310F404834760
:1012E000041499E32285B92C2285EFD0310865E9F1
:1012F000832604098327C40803A74A00B6973E85BE
:1013000063E4D70063E4E7003385E7408347F401F3
:10131000835464082328A4088507A30FF400975773
:10132000002083D767ECB384F402DA94B3D4440387
:101330006366950CB304954083A7090023209900A8
:10134000829763E1A40C3385A440E34505F89757E1
:10135000002083C7D7E563E5A7089757002023A59A
:10136000870A0145B5A883264A00B387F6403E9711
:10137000F5BD8357640837470F00B38457039307BD
:10138000F723A69793040724B3D4970263E7990041
:10139000B384994023209900E1BD83274A00BE9978
:1013A000C5BF23A03501E9B597570020938747E3D0
:1013B000DC43BE94C9BD97570020938767E2DC43A6
:1013C000998F3E95E9BDA1452285EFD0A171A30576
:1013D000A40297570020938727DCDC5B81EF7D55C3
:1013E000F2406244D2444249B249224A924A024BF4
:1013F00005618280894515458297D5B7B30497402A
:10140000AA941DBF83A74A00BE9435BF31CD0111F8
:101410006C0022CC06CE2A84853B29C5FD57630883
:10142000F50297560020938626D794563247975751
:10143000002083C7D7D791C28583636EF700B307B7
:10144000F7403EC6B24503459402EFC03003F24078
:1014500062440561828097560020938666D8D44204
:101460003697F1BF0D3AE5B7828079719757002022
:10147000938747EF26D283A4C70906D622D44AD041
:101480004ECE0947A5C09756002083C696039547C0
:101490000D476389F6049757002093872702DC479E
:1014A0002A8989CBEF602222EF50E27897570020FB
:1014B00023AC0700FD596C002685F93105ED1705B1
:1014C00000001305858DEFF06FA8A1471757002086
:1014D0002308F7FE975700209387C7009C430947CE
:1014E000F8D30D47B250225492540259F2493A852A
:1014F00045618280637435013244AA898440C5FC09
:10150000FD571307F00FE38FF9FC914763F487024F
:101510009307B4FF2320F90017570020232CF7EE80
:101520000147E9F397570020938787CBDC432320BB
:10153000F9004DBF97570020938787CADC43ED170A
:10154000A297C9BF797126D206D622D44AD04ECEF0
:1015500052CC56CA5AC85EC6834755030344751316
:10156000AA843E941374F40F9307400263F6870035
:101570001304B4FD1374F40F03AA841383AAC413D1
:10158000A38B841222865285D685EF70F00F0589D1
:1015900005E503CBD41201498149337B6403930BE6
:1015A00050024A865285D685EF70100E058915C502
:1015B000639169031374F90F238B8412B250225480
:1015C00092540259F249624AD24A424BB24B4561A7
:1015D00082808509E20993D989410509E31379FDE0
:1015E000E1BF8327850903560504797193D6070166
:1015F000BD8EC206C182358E135776409357564032
:10160000898B058B5D8F93573640918B5D8F9357F8
:101610001640A18B5D8F93171600C18B5D8F9317BA
:10162000360093F707025D8F931756009355860097
:1016300093F707041E065D8F1376F60F518F93D72D
:10164000554013D63540118A898BD18F13D67540FA
:10165000D18F13D61540218AD18F13961500418A58
:10166000D18F1396350013760602D18F139655004D
:10167000137606049E05D18F93F5F50FCD8FA20743
:1016800045465D8F3307C70222D42A8426D252CC26
:1016900056CA032A8413832AC4135AC806D6369717
:1016A0004207418393577740135557400989858BEB
:1016B000C98F135537401189C98F13551740218998
:1016C000C98F131517004189C98F1315370013757A
:1016D0000502C98F1315570093558700137505042C
:1016E0001E07C98F1377F70FD98F13D5354013D73E
:1016F00055401189098B498F13D57540498F13D5F2
:1017000015402189498F139515004189498F1395FB
:10171000350013750502498F13955500137505049F
:101720009E05498F93F5F50F4D8F2207D98FB3870B
:10173000C7024AD04ECE5EC662C4B697C207C18306
:1017400013D7774013D557400989058B498F13D597
:1017500037401189498F13D517402189498F139537
:1017600017004189498F1395370013750502498F7A
:101770001395570093D58700137505049E07498F6D
:1017800093F7F70FD98F13D5354013D755401189EB
:10179000098B498F13D57540498F13D51540218981
:1017A000498F139515004189498F1395350013759D
:1017B0000502498F13955500137505049E05498F41
:1017C00093F5F50F4D8F2207D98FB387C702130604
:1017D00050025285D685B697BD8E93940601C1807E
:1017E00033F6C402137BF60FEF70006A05891DE91A
:1017F0008347D41201498149B3849702130C5002E4
:10180000C1804A865285D685EF7000680589937B32
:10181000F90F11C563863403850993F9F90F05099A
:10182000E31189FF230B6413B250225492540259DE
:10183000F249624AD24A424BB24B224C4561828005
:101840005E8BCDB78327C50803568508797193D67B
:101850000701BD8EC206C182358E1357764093575D
:101860005640898B058B5D8F93573640918B5D8FEA
:1018700093571640A18B5D8F93171600C18B5D8F18
:101880009317360093F707025D8F93175600935511
:10189000860093F707041E065D8F1376F60F518FAF
:1018A00093D7554013D63540118A898BD18F13D6E3
:1018B0007540D18F13D61540218AD18F139615000C
:1018C000418AD18F1396350013760602D18F139675
:1018D0005500137606049E05D18F93F5F50FCD8F35
:1018E000A20745465D8F3307C70222D42A8426D239
:1018F00052CC56CA032A040A832A440A5AC806D676
:1019000036974207418393577740135557400989CB
:10191000858BC98F135537401189C98F13551740CF
:101920002189C98F131517004189C98F13153700F5
:1019300013750502C98F131557009355870013754A
:1019400005041E07C98F1377F70FD98F13D53540BC
:1019500013D755401189098B498F13D57540498F8D
:1019600013D515402189498F139515004189498F59
:101970001395350013750502498F1395550013759E
:1019800005049E05498F93F5F50F4D8F2207D98FDA
:10199000B387C7024AD04ECE5EC662C4B697C207AE
:1019A000C18313D7774013D557400989058B498FD9
:1019B00013D537401189498F13D517402189498F95
:1019C000139517004189498F139537001375050248
:1019D000498F1395570093D58700137505049E070B
:1019E000498F93F7F70FD98F13D5354013D755404B
:1019F0001189098B498F13D57540498F13D515402F
:101A00002189498F139515004189498F1395350018
:101A100013750502498F13955500137505049E052E
:101A2000498F93F5F50F4D8F2207D98FB387C702E2
:101A3000130650025285D685B697BD8E9394060143
:101A4000C18033F6C402137BF60FEF70E0430589C3
:101A50001DE98347140801498149B3849702130C97
:101A60005002C1804A865285D685EF70E0410589D3
:101A7000937BF90F11C563863403850993F9F90F38
:101A80000509E31189FF230F6407B25022549254D1
:101A90000259F249624AD24A424BB24B224C45614A
:101AA00082805E8BCDB783274509035685087971FF
:101AB00093D60701BD8EC206C182358E135776407C
:101AC00093575640898B058B5D8F93573640918B8A
:101AD0005D8F93571640A18B5D8F93171600C18BB6
:101AE0005D8F9317360093F707025D8F93175600AB
:101AF0009355860093F707041E065D8F1376F60F45
:101B0000518F93D7554013D63540118A898BD18F89
:101B100013D67540D18F13D61540218AD18F1396D5
:101B20001500418AD18F1396350013760602D18FA6
:101B300013965500137606049E05D18F93F5F50F85
:101B4000CD8FA20745465D8F3307C70222D42A8472
:101B500026D252CC56CA032A040B832A440B5AC8F5
:101B600006D636974207418393577740135557401F
:101B70000989858BC98F135537401189C98F135532
:101B800017402189C98F131517004189C98F131573
:101B9000370013750502C98F131557009355870039
:101BA000137505041E07C98F1377F70FD98F13D547
:101BB000354013D755401189098B498F13D575408E
:101BC000498F13D515402189498F139515004189F7
:101BD000498F1395350013750502498F13955500EC
:101BE000137505049E05498F93F5F50F4D8F220758
:101BF000D98FB387C7024AD04ECE5EC662C4B697AD
:101C0000C207C18313D7774013D557400989058B85
:101C1000498F13D537401189498F13D51740218932
:101C2000498F139517004189498F13953700137514
:101C30000502498F1395570093D587001375050446
:101C40009E07498F93F7F70FD98F13D5354013D7D8
:101C500055401189098B498F13D57540498F13D58C
:101C600015402189498F139515004189498F139596
:101C7000350013750502498F13955500137505043A
:101C80009E05498F93F5F50F4D8F2207D98FB387A6
:101C9000C702130650025285D685B697BD8E93941F
:101CA0000601C18033F6C402137BF60FEF70C01D2E
:101CB00005891DE98347F40801498149B3849702E6
:101CC000130C5002C1804A865285D685EF70C01B26
:101CD0000589937BF90F11C563863403850993F950
:101CE000F90F0509E31189FF230F6407B25022544D
:101CF00092540259F249624AD24A424BB24B224CA8
:101D0000456182805E8BCDB7797122D406D683C7B8
:101D100035002E8423160100A307F10083C7450078
:101D2000100802C02307F10083C755008A8502C24C
:101D3000A306F10002C402C802CA02CC02CED52A10
:101D40000347F1018347040001456310F70203478D
:101D5000E1018347140001456319F7000345D101F0
:101D6000834724001D8D13351500B2502254456160
:101D700082800111974700209387C75E22CC03A47D
:101D8000C70C26CA4AC84EC606CEAA841309250027
:101D9000854915C083C7140003473400858B63044D
:101DA000F700405CFDB71946930544004A85EFE013
:101DB000AFE1E31835FF2285F2406244D244424944
:101DC000B249056182804111974700209387875966
:101DD00022C403A4C70C26C24AC006C69304250029
:101DE000054901E82285B24022449244024941015A
:101DF0008280A6851305A402013FE30525FF405C10
:101E0000CDB74111974700209387C75522C403A43B
:101E1000C70C26C24AC006C693042500054901E83E
:101E20002285B24022449244024941018280A68523
:101E30001305A401D13DE30525FF405CCDB7011199
:101E400022CC604126CA4AC84EC652C406CEAA84D5
:101E50001D4A130965058549BC446364F4000545C2
:101E600081A803C7D40083474400631B470503C709
:101E700084026304F7000040C5B70347540083C7DA
:101E80005405E31AF7FE1946CA8513056400EFE00E
:101E9000AFD3E31235FF0347C40083C79402E31CAA
:101EA000F7FC0357E40083D7A402E316F7FC0145CF
:101EB000F2406244D2444249B249224A05618280DA
:101EC000E31BF7FA0347540083C75405E315F7FAF9
:101ED0001946CA8513056400EFE00FCFE31D35F9FD
:101EE000F9B70111974700209387C74722CC03A475
:101EF000470C26CA06CE2AC42EC6854419E40145DD
:101F0000F2406244D24405618280834791000347D6
:101F10001400858B6304F7000044CDB71946930580
:101F2000A10013052400EFE02FCAE31795FE054535
:101F3000C1BF97460020938666579C421307001046
:101F400098C323A007000347150003482500220774
:101F5000420842970348050042970348350062084B
:101F6000429798D703475500034865002207420867
:101F7000429703484500429703487500620842971C
:101F8000D8D7034795000348A50022074208429787
:101F90000348850042970348B5006208429798DBE2
:101FA0000347D5000348E50022074208429703484B
:101FB000C5000345F500429762052A97D8DB03C7A1
:101FC000150003C52500220742052A9703C5050011
:101FD0002A9703C5350062052A9798CF03C7550095
:101FE00003C56500220742052A9703C545002A97C5
:101FF00003C5750062052A97D8CF03C7950003C5AE
:10200000A500220742052A9703C585002A9703C524
:10201000B50062052A9798D303C7D50003C5E5002C
:10202000220742052A9703C5C50083C5F5002A97F4
:10203000E2052E97D8D3D843759BD8C3D8431367EE
:102040001700D8C398431367170098C398425C439E
:10205000858BD9E31C4F01452300F6009C429C4F21
:10206000A183A300F6009C429C4FC1832301F6008C
:102070009C429C4FE183A301F6009C42D84F23026F
:10208000E600D84F2183A302E600D84F4183230303
:10209000E600D84F6183A303E60098532304E600CB
:1020A00098532183A304E600985341832305E60057
:1020B00098536183A305E600D8532306E600D8535E
:1020C0002183A306E600D85341832307E600DC53AF
:1020D000E183A307F600828001008DBF97470020AF
:1020E0009387474098431605136505083C4B93E7D3
:1020F00007083CCB974700209387473B9C4303A7A7
:10210000450E88C398CB03A7850E0145D8CB03A7FE
:10211000C50B98CF03A7050CD8CF03A7450C98D3C0
:1021200003A7850CD8D303A7C50C98D703A7050D23
:10213000D8D703A7450D98DB03A7850DD8DB03A7E8
:10214000C50D98C703A7050ED8C7984313670704A2
:1021500098C38280974700209387C7389843160515
:10216000136505083C4B93E707083CCB97470020D5
:102170009387C7339C4303A7C50E88C398CB03A797
:10218000050F0145D8CB03A7C50B98CF03A7050CB6
:10219000D8CF03A7450C98D303A7850CD8D303A7A2
:1021A000C50C98D703A7050DD8D703A7450D98DB15
:1021B00003A7850DD8DB03A7C50D98C703A7050E98
:1021C000D8C798431367070498C3930700F81747C5
:1021D00000202308F72E8280974600209386462D04
:1021E0009842411126C21C5F06C622C49983858B82
:1021F000B684CDC3930700061CDF9747002083C732
:10220000E72B93F70704174400201304242B9DC3E6
:1022100097470020938787F79C4382979747002032
:1022200023ACA72A8347040093F7F70B1747002036
:102230002306F7288347040093F707029DC38347CB
:102240000400A16693F7F70D174700202308F7262F
:1022500017470020130707295C481843860714C74F
:102260007CD78347440093F707048DE785471747DA
:102270000020A307F724974700209387A7269C43B5
:10228000096798C7130700FC97460020238AE622B7
:102290001848F8D398401C5F9183858B81CBC14748
:1022A0001CDF854797460020238CF6201C5F9D830A
:1022B000858B89CB930700081CDF854717470020D3
:1022C0002300F720974700209387471E9C43D8435D
:1022D0000583058B19C7D843759BD8C3D843799B11
:1022E000D8C3B240224492444101828097470020E3
:1022F0009387471F9443974700209387271C03C762
:102300000700058B09EB03C71700058B09E7F85297
:102310007DF783C7570097470020A383071A828061
:10232000174800201308C818032708001C5F95836E
:10233000858BBDEB09C61C5BBD832300F60085CAF7
:1023400083270800985B4607935767016356070089
:1023500093E707C0C207C18303970600C207C1877E
:1023600009C7BA970947B3C7E7022390F60095C19A
:102370008347150099CF3E9583479500054719453A
:1023800093F6F7066393E602E207E187394563CEE9
:1023900007008327080001459C5FED838D8B17475D
:1023A0000020A302F712828005458280411122C4D9
:1023B00006C6174400201304E41218403DE5AE871A
:1023C0007453FDFE3E85B285974700202389070E92
:1023D000EF401227974700209387870D9C43B7064D
:1023E00080009843558F98C3D857719BD8D797478B
:1023F0000020A387070C97470020A381070C1C40EF
:10240000094798C31440174700201307270B834739
:102410002700858B99E783473700858B99E3FC522A
:10242000FDF7B2402244410182808D476310F502DE
:10243000974700209387C7079C43B70680009843BF
:10244000558F98C3D857719BD8D76DBF8547E31B6D
:10245000F5FA5447F977FD17F58F5CC70F100000A8
:102460001C40096798C7130700F817460020230986
:10247000E604174700201307A703104318423183CF
:102480000D8B11E713076019F8D3D4C7A5BF184205
:10249000094631830D8B6315C7001307E043EDB781
:1024A0001307E01BD5B75D7152DC174A0020130AF1
:1024B0002A0003270A0086C6A2C4A6C2CAC04EDEEE
:1024C0001C439749002093892907174900201309C5
:1024D000690193F7F7E793E707081CC383A6090090
:1024E0003707CEFF7D179C46130680022A84F98F9A
:1024F0009CC6832709002800AE8423A807049305FF
:102500001008EFD0FFE13545EF40F25383270A0072
:102510009376F41F3706330023A40700984B370F38
:10252000FCFF4E881367F70398CBF84FCA88130552
:1025300010F8137707E0558FF8CF9843F576FD161E
:10254000758F98C317470020A30C07F68326090050
:1025500017470020A30407F6054798C29843D28581
:10256000B70204001377F7E798C3984393038025D5
:1025700011491377F7E71367071098C303A70900FA
:102580007D1F85491C47930F8002D18F1CC793077D
:102590009005BCCA01473400135337002693834784
:1025A000030013767700B3D7C740858BDDCF9C41FE
:1025B000832E0800239C07042390070603AECE0257
:1025C000137EDEFF23A6CE0383AE0700137EF7073C
:1025D00093FE0EF833EECE0123A0C70103AE4702EF
:1025E000336E5E0023A2C70383AE0800014E23A210
:1025F0007E0603DA070663074E0303AE0703038A6A
:102600000600135EFE00620E135E8E416358CA011F
:1026100003AE0703135EFE002380C60103DE070638
:10262000137EFE0F03AA4E0663060A0003DA87052F
:10263000E37F49FB03AE4702337EEE0123A2C703CB
:1026400083870600635CF400034E03003396C900E1
:102650001346F6FF3376C6012300C3003E8663D3DC
:10266000A7002A8613158601618505071377F70FE2
:102670008506E313F7F3B640264496440649F2591B
:10268000625A61618280974700209387A7E59C4347
:10269000D8479316170163D506029847931617017A
:1026A00063D006027D57B8D7174700201307C7A984
:1026B000584F05079746002023A6E6AA116798C73A
:1026C00098470D83058B1DC317470020034727DF5D
:1026D00013671700974600202383E6DE130700F8F0
:1026E00097460020238EE6DC214798C79847058B44
:1026F00009CF17470020034777DC13671700974679
:102700000020A38DE6DA054798C798470983058B13
:1027100009E798470583058B35C317470020A301B8
:1027200007DA984717460020130646D99746002037
:10273000938606D80983058B9442B28563000710FF
:10274000984231830D8B65EBB04BD851137606025E
:10275000034717005DCA69EF1307D005D8CF03C739
:10276000050013671700174600202309E6D4114718
:1027700098C7D856719B13671700D8D698479316F9
:10278000370163D606029746002083C666C5C18A14
:1027900017470020130707BDC5CE0347C7071367B8
:1027A000070297460020238DE6C2056798C7984721
:1027B0009316270163D1060217470020034747D02D
:1027C0006207618763570700054797460020238902
:1027D000E6CE096798C798479316070163D60602A5
:1027E0009746002083C6D6BF858A17470020130767
:1027F00067B7ADCE0347D70713672700974600207A
:10280000A380E6BE216798C7828039D70546631545
:10281000C7001307100699B709466315C7001307C9
:1028200050062DBF0D466315C700130790063DB730
:102830001307B00625B71307C0060DB703473600C8
:102840001367170017460020A30BE6C609470DB70C
:102850008346C7070946BD8A6388C6000347C70782
:102860008D463D8BE313D7F4114725BF8346D70729
:10287000918AC9DA0347D7071367870041B797479B
:102880000020938727C69C4398479746002023A3A0
:10289000E6C4944717470020130747C28D82858AF4
:1028A0008DC28346270093E61600174600202308B2
:1028B000D6C0930600F8174600202303D6C0A146D1
:1028C00094C79447858A99CA8346170093E61600F1
:1028D00017460020A304D6BE854694C79447898234
:1028E000858A89E694478582858AA1CE974600200D
:1028F000A38806BC944717460020130666BB104207
:102900008982858AD5C21442B1828D8AD9EAAC4BBC
:10291000545393F5050283C61600B1CDC1E2930668
:10292000D005D4CF8346070093E6160097450020D4
:102930002386D5B8914694C75456F19A93E616006B
:1029400054D6944713962601635F06000347470059
:102950006207618763570700054797460020238178
:10296000E6B6096798C798479316070163D406002F
:10297000216798C78280C5D685456395B6009306C2
:10298000100645B789456395B6009306500651BFBA
:102990008D456395B6009306900661B79306B00621
:1029A00049B79306C006B5BF8346370093E61600C5
:1029B00097450020A385D5B08946B5BF974700202D
:1029C000938747B298438567938707777CD3974768
:1029D0000020938767B69C4383A607091396560089
:1029E0006358060083A60709139666006344060031
:1029F0007453FDF28280411122C4B747024006C6DB
:102A000003A4C72023A607200F10000011C199E5D9
:102A1000B747024023A6872001457DA893073500CC
:102A2000C207C183F19BC207C183130740036369D7
:102A3000F702174700201307E7B80843174700209D
:102A40001307C7B714436392A60217370020130772
:102A5000A774585B55DFC207DD8D054502974DBF52
:102A6000174700201307C7B5C9BF035765002DEBF3
:102A7000035745006366F706B306F7402146637CBB
:102A8000D60203280500938687001D8FAA9661173A
:102A9000173600200356A66B2392E60023A00601FA
:102AA0002393060014C12312F500130786FF9736FF
:102AB0000020239EE6682313B5009735002083D5B8
:102AC0000569B387F540173700202312F768B74729
:102AD000024023A687202105B24022444101828082
:102AE000084195B7B747024003A8C72023A607208F
:102AF0000F10000001E523A60721828097470020E0
:102B0000938747AC03AE070097470020938707AB36
:102B100003A307008146F28763F0670C83A80700D0
:102B2000636FF50A63EDA80A138787006366E50AF9
:102B300003D66700216705076317E60003C74193C3
:102B40000507238AE192973500209385E55F03D638
:102B5000470003D76500239307003297420741835C
:102B6000173500202315E55E638AC703174500204B
:102B7000130505A508416303F50203D5660019EDA9
:102B800083D7460023A0160121073E9621062392F3
:102B9000C60097370020239CE75AB6879843630DF9
:102BA0006702974600209386A6A194426306D70247
:102BB0008356670095E283D64700035647001843C3
:102BC000A106B2962392D70098C383D76500A107C8
:102BD00017370020231DF756B747024029BFBE868E
:102BE000C6871DBF974700209387C79D9746002043
:102BF0009386C69C9C4390422A87B305B5406314D4
:102C0000F6003A8529A8938687009C43E369D7FE9E
:102C1000E377F7FE2E85E3E4D5FEE3F2F5FE82804E
:102C20004111973700209387E77326C2A44F06C649
:102C300022C44AC08547C1CC03A4C40A854741C801
:102C40008347A4001307700A639AE70803475400F8
:102C5000834794009736002093868658D042B387E6
:102C6000E7021737002003572758B387E7021307F7
:102C7000003293870719B3D7E70203A74409B68444
:102C80003E973A896364F7006364C7003309C7401D
:102C9000973700209387874F9C43232025018297F5
:102CA000B307A9406374A900D840BA9781E7930796
:102CB000F00F31A8034754009306204E3307D70284
:102CC000E3F7E7FE930780FA2305F4008147B2405B
:102CD0002244924402493E85410182801307800AC2
:102CE000E397E7FC973700209387474A9C438297F6
:102CF0002A893545EF402255AD4717370020A302FA
:102D0000F77C0347540083479400173600201306CE
:102D1000264D5042B387E702173700200357C74CB0
:102D2000B387E7021307003293870719B3D7E70287
:102D300003A744093E97BA866364F7006364C7003B
:102D4000B306C740E315D9F617D5020013050542AF
:102D5000EFD0DF9F973700209387C7789C430947C0
:102D6000F8D7B1B7397152D4173A0020130A0A754F
:102D700083278A0106DE22DC26DA4AD84ED656D2CE
:102D80005AD05ECE62CC66CA6AC86EC61397070177
:102D900063570720973700209387C75CA04F03290C
:102DA000C40A834799000327C9009207330CF70030
:102DB00003452C00314705053305E50203574C0058
:102DC0003A9542054181EFD0EFBEAA8B6303051E01
:102DD000130DC5002324A50103462C00B145F97A43
:102DE0003306B60223130C008144973900209389DF
:102DF000696F173B0020130BAB6B973C0020938C43
:102E0000AC73930D9005FD1A6A962326CC000346F9
:102E100079009307D00703A509003306F6028567FA
:102E20001CC5B7073300060630D103260B000C4241
:102E300093F5F5E70CC20C4293F5F5E793E5051021
:102E40000CC203A80C0083258800DD8D2324B80064
:102E5000832509002328B5050CC683556C0003267D
:102E6000CC002E962324CD0003461C00930550026F
:102E70002696A301CD00034504080146973700209C
:102E8000A38E0762EF40621103A609004846B3759E
:102E900055014CC60F10000003A6090089650328E0
:102EA0000B000CC6930500F897370020238AB76003
:102EB00083250800B1818D89F1E1930560196CD2F9
:102EC00048C697370020A38D075E854597370020B9
:102ED000A386075E0CC2EFF06FC1EF40822E03465F
:102EE0001A00058A4DCAEA852285EFE0E23115ED28
:102EF00003465D004DC283556C0003554C00B295EE
:102F000063DBA508834524012848918D8905AA958E
:102F100003258D00EFD02FBA23020D0083455D00FD
:102F200003566C002E962313CC0083A50900310DA7
:102F3000B0517DFE03462C00850493F4F40FE3E8C2
:102F4000C4EC034784005E85A381EB0083470C003B
:102F5000A3820B002383CB002382FB006254F25038
:102F6000D2544259B259225A925A025BF24B624CE5
:102F7000D24C424DB24D21616F80614183250800E2
:102F80000948B1818D89639505019305E04305BF2B
:102F90009305E01B2DB77D562302CD0079B79737F7
:102FA0000020938727549C43FC5781C7854723867D
:102FB000F18AF2506254D2544259B259225A925A6A
:102FC000025BF24B624CD24C424DB24D2161828089
:102FD000197106C212C416C61AC81ECA22CC26CE41
:102FE0002AD02ED232D436D63AD83EDA42DC46DE69
:102FF000CAC0CEC2D2C4D6C6DAC8DECAE2CCE6CED9
:10300000EAD0EED2F2D4F6D6FAD8FEDA9385018869
:103010008841E700050092402242B2424243D24337
:103020006244F244025592552256B2564257D25744
:103030006258F25806499649264AB64A464BD64B3C
:10304000664CF64C065D965D265EB65E465FD65FC4
:103050000961730020300000EFD02FF073000000F2
:10306000000000009382C18A0383020023800200D3
:10307000630F0300F32510342EC0970500009385DD
:10308000E5FD73901534EFF08FFF7300203086DC80
:0C309000EFF06FDFE650828000000000CF
:1030A00001A097F1FF1F9381E1B417D10020130114
:1030B00061F5172503001305258097D5FF1F93851C
:1030C00065F41386818563FAC5008322050023A079
:1030D000550011059105E3EAC5FE138581859735F5
:1030E00000209385E54E6377B50023200500110588
:1030F000E36DB5FEFD42739002BC8D427390428039
:10310000930280087390023097D2FFFF9382C2EF40
:1031100093E2320073905230EF40306C97520000CF
:10312000938262E67390123473002030EF92201580
:10313000B727014093870740631CF50085451305B9
:1031400000200D23814513050020292B6F90601569
:10315000B737014093870780E31AF5FE85451305CD
:1031600000400923814513050040C5B75C4137077E
:10317000F1E01307F7EF944D7D8F9C41D58FD44D2F
:10318000D58FD441A206D58FD98F5CC11C4537F7A6
:10319000F1FF1307D77FD4457D8F9C49D58F944588
:1031A0008606D58FD98F1CC55C55370710FF7D1754
:1031B0007D8FDC29FD1793F7F70FD207D98F5CD5E8
:1031C00082801C4589C593E717001CC58280F99B46
:1031D000EDBF1C4591C537075000D98F1CC58280B3
:1031E0003707B0FF7D17F98FD5BFA54763F7B70441
:1031F0008D47138765FF3307F7020328C5009D47F6
:10320000B397E70093C7F7FFB3F70701B396E6005C
:10321000DD8E54C5994763E3C70495477D16330691
:10322000F6025859FD47B397C70093C7F7FFF98FC8
:103230003396C5005D8E50D982800D473387E502F5
:10324000032805019D47B397E70093C7F7FFB3F73E
:103250000701B396E600DD8E14C96DBFB14763E286
:10326000C702954765163306F6021859FD47B3970E
:10327000C70093C7F7FFF98F3396C5005D8E10D94D
:10328000828095474D163306F6025855FD47B39791
:10329000C70093C7F7FFF98FB395C500DD8D4CD5F7
:1032A00082806845420541818280B727014093872B
:1032B0000740984711C5B7068000558F98C7828090
:1032C000B70680FFFD16758FD5BF08416D8D33356C
:1032D000A00082805C4191C537070004D98F5CC192
:1032E0008280370700FC7D17F98FD5BFB7070140F3
:1032F00023AAA7408280B7066745B7270240938676
:1033000036123797EFCDD4C31307B79AD8C3D4D3A7
:10331000D8D38280372702401C4BA166D58F1CCBA7
:103320008280B7270240984BB7060200137505F05C
:10333000558F98CBC8CB984B1367070498CBD847C9
:10334000058B75FF984B8176FD16758F98CB828023
:10335000372702401C4BC166137505F0D58F1CCB77
:103360005C47858BF5FF372702405C47898BF5FF6B
:103370003727024013060010B386F50003A80600A5
:10338000B306F50023A006015447898AF5FE91078C
:10339000E394C7FE1C4BB7062000D58F1CCBB72784
:1033A0000240D847058B75FF984BC176FD16758F87
:1033B00098CB828037F7FF1F8327877E93D68700BD
:1033C0001CA114B193D60701E18334A13CB183273A
:1033D000C77E5CA1A1835CB182809C4513F7070185
:1033E00013F8F70001C7D8413368E8008E2113F7BE
:1033F000F50F39C318418146854E3D4F930F80022A
:1034000093028004214E3396DE00B3F8C5006311A9
:1034100016039398260033131F011343F3FF3377EA
:10342000E300B318180133E7E800639FF70550C9BC
:103430008506E39AC6FD18C11307F00F6375B7043C
:1034400054412146854E3D4F930F800293028004E4
:10345000414EB398CE0033F715016392E80213177B
:10346000260001173313EF001343F3FFB376D300A5
:103470003317E800D98E639DF701232A150105064D
:10348000E319C6FD54C18280E39457FA10C94DB7C1
:10349000E39757FE23281501DDB708456D8D3335B9
:1034A000A00082800CC982804CC98280377700409E
:1034B0001C4309C593E707101CC3828093F7F7EFFD
:1034C000E5BFB7160240DC4251777D17F98F5D8D5D
:1034D000C8C28280B71702402380070223800702F8
:1034E00005476306E50011476306E50082802380F7
:1034F000A702828015472380E702828037170240A7
:103500001C535D8D08D3828001C9371702401C53BC
:10351000A166D58F1CD38280B71602409C5261777A
:103520007D17F98F9CD28280371702405C43914609
:10353000B18B6387D706A1466389D706B7177A0090
:10354000938707201CC1371602405C4237070020D2
:10355000130707009183BD8BBA9794231C41B3D7FF
:10356000D7005CC15442A1829D8ABA969422B3D6F8
:10357000D70014C55442AD829D8A36971823B3D71D
:10358000E7005CC55842398393763700371700202F
:103590001307073F36971823B3D7E7021CC9828069
:1035A000B757E8019387078071BF5C435843C166F2
:1035B000C983BD8B758F8907C5466393D700C947FB
:1035C00001EF3747024003270780418B15CB3717A0
:1035D0007A001307072029A8B7160240D8423706F9
:1035E000C000718F6319C7003727F4001307074025
:1035F000B387E70281BFD8429316E700E3D906FC00
:1036000037173D0013070790E5B799C537170240F4
:103610005C4B5D8D48CB8280B7170240D84B134579
:10362000F5FF798DC8CB828099C5371702401C4FB2
:103630005D8D08CF8280B7170240984F1345F5FF84
:10364000798D88CF828099C5371702405C4F5D8D98
:1036500048CF8280B7170240D84F1345F5FF798DC8
:10366000C8CF828099C5371702405C475D8D48C737
:103670008280B7170240D8471345F5FF798DC8C738
:1036800082809357550005476399E700B7170240BA
:103690009C4333D5A7000589828009476396E700DC
:1036A000B71702409C53F5B7B7170240DC53D5B7A4
:1036B000B737004003D74780136707012392E7809D
:1036C00082803737004083574780C207C183BD9B44
:1036D000C207C1832312F7808280373600408356A9
:1036E00086810357868142074183E31AD7FE373626
:1036F00000408356C6818357C681C207C183E39ABF
:10370000D7FEB735004003D6858103D585814205B4
:103710004181E31AC5FE630CA700B736004003D70A
:10372000C68183D7C681C207C183E39AE7FE4205FB
:103730005D8D8280EF82B03441112AC6953F3245BB
:10374000B7370040135705014205239CE7804181AC
:10375000239EA780BD3741016F80B034EF823032A5
:1037600041112AC6B1373245B7370040135705011A
:103770003D8B42052394E78041812396A7809137B2
:1037800041016F801032373700408357478093F7ED
:103790000702E5DF8280B737004003D74780134533
:1037A000F5FF798D2392A7808280EF82502DE53737
:1037B0006F80302FEF82B02C1629F577FD17F58F2B
:1037C000F621DA257971D58F1EA95625FD779387C5
:1037D000379FF58FD6212A842EC6D58F9625D58F73
:1037E000B625D58F5EA55E29C207C18393F7F7CFB3
:1037F000D98F5EA968080D3BB747014093870780C2
:10380000B245631EF402A2576547B387E7029841A9
:10381000930640060A07B3D7E70233D7D702B3F7B8
:10382000D7021207920793872703B3D7D702BD8B1E
:10383000D98FC207C1831EA445616F80902692571D
:10384000E1B791C55E250967D98F5EA582805A25AB
:10385000F977FD17F98FD5BF93F5F51F4EA182803B
:103860000A216D8D3335A000828083A781813717AF
:103870007A0013070720B3D7E70293F7F70F238DDA
:10388000F1841307803EB387E702239CF184828092
:10389000B7F700E0D8438146799BD8C303C7A18519
:1038A0003306A70290CBD4CB98431367070198C384
:1038B00098431367170298C3D843058B75DF984365
:1038C000799B98C38280B7F700E0D8438146799B03
:1038D000D8C303D781853306A70290CBD4CB9843B6
:1038E0001367070198C398431367170298C3D84317
:1038F000058B75DF9843799B98C38280EF823018DF
:103900002A841165011185451105393B9307002073
:103910007C82371501408D473EC44C00E1471305BA
:1039200005803EC65D3C22C837440140B707080009
:103930000C08130504803ECC02CA231E01009D3DE5
:10394000854513050480F53D05616F809015EF8274
:103950007011B7440140AE893289014493840480D8
:10396000634524014A856F80301393050004268542
:10397000C53D65DDB387890083850700268505047D
:10398000C205C181D13DE9BF138741801C43B766A1
:1039900000209386C65C3E95636BD500B706012078
:1039A0009386068063E5A60008C33E858280FD57A6
:1039B000EDBF23A005008547138FF6FFB94F63C302
:1039C000E701828013982700329803230800938828
:1039D0001700635567040328C8FF635168044688CD
:1039E000931E2800B29E330EF840C28883AE0E00AC
:1039F0006305D8000508E305D3FF63D16E0203A871
:103A0000050063CD0F01930818000A0823A01501D3
:103A10002A9893081E002320F800BE98C68745B751
:103A20009306450005476343B700828003A806005C
:103A30003686BA878328C6FF6357180123201601EC
:103A4000FD177116E5FB8A07AA9723A00701050752
:103A50009106D1BF9386450005476343C700828026
:103A600003AE06003688BA8713132E002A93832EDE
:103A7000C8FF032F030093982E00AA9883A808007C
:103A800063D7E8012320D801FD177118EDF38A07E9
:103A9000AE9723A0C70105079106C1B7EF82207E2C
:103AA0002A84328590414111AE84A28536C65D37A5
:103AB000B2461308C4FFFD577D5EB30ED0408C4064
:103AC0003E8363C7B7002285A13F41016F80607DBF
:103AD00085073E869CC06394C5001108CDB71315B9
:103AE000260022951841FD586304C301832808006D
:103AF0003307174163C4E600635BD701984093081E
:103B0000170023A0140108410A07229708C30506DD
:103B1000D9B7EF82C07641112E8442C4AA8432897B
:103B20003EC6413DB2474A86A285BE862685BD3740
:103B30001C4022486353F800C2871CC041016F80BB
:103B40004076EF824071BA84BE8C5571AA8B2E8B61
:103B5000328D3689428C014781476340670B33D7EA
:103B6000670381461384C11663C0660BA28A93065D
:103B7000047C9387C11611469843CC4391072E9736
:103B8000CC432E978C472E973347C70223AEE7FED0
:103B9000E394F6FEA28581461387C19A1308C07B81
:103BA0003E86C84103A30500B308D700910633053C
:103BB000654023A0A8009105E39506FFBA8513058B
:103BC000877B9387C19A0948944383A8470091074C
:103BD000C696B3C6060323AED7FEE317F5FEBA8832
:103BE0001545B71E0300130FA047930FE01E930760
:103BF000B5FF13884E31814625A893162700DE961F
:103C000094420507B69791BF13962600B305C400EA
:103C10005E9610428506198E90C1B9B78A07BA9789
:103C2000035308009C430908B307F3029D8EF287F3
:103C3000138E1700E394A7FEB3C6E60391087285BE
:103C400023AED8FEE315FEFB9307C77B01479441E3
:103C5000910513D5F641A98E898E3697E399B7FE63
:103C60009306F01E3347D702A14715481386C19A21
:103C70004C004809793D1247854763DAE706540945
:103C800081470546CC42884205069106898DAE974C
:103C9000E31AC7FE9306F7FFB3C6D702856793877B
:103CA0000777B3C7D70223A0FC0085472300FC0099
:103CB000814763C5E7043726002081478146130604
:103CC000C65263C86605AC082E8801450146930EAE
:103CD000301E634FE604854763C0A70A930790C16F
:103CE0002320F9002380040069616F80405A930704
:103CF00090C123A0FC0023000C005DBF9396270019
:103D000070084C093696AE9694428507890614C20F
:103D10004DB73385FB000841B305F400850688C123
:103D20003305FD000841B305F600910788C151BF76
:103D3000740893172600B6979C439386A7FF63EDFC
:103D4000DE009386B7FF370E0001950705436398A1
:103D5000F600631303000505050611089DBF93983F
:103D60002600A29883A8080063D6C8012320D800A3
:103D7000468E01438506E1BF372600209307C652D1
:103D80001388077C1306C652914603A70A0083A82E
:103D90004A009107910A469783A84A00469783A84C
:103DA0008A0046973347D70283A8070023AEEAFE6E
:103DB00003A7C7FF469783A84700469783A88700B5
:103DC00046973347D70223AEE7FEE310F8FC02C460
:103DD00002C602C802CA02CC2E8781479306401F42
:103DE00003280700E3CC06EF85071107E31AF5FE69
:103DF000814A0143294E914E130F40067D15D4414F
:103E000003A805000503B3820641635E5E0AC2880B
:103E1000B70F00FF370700FF15A093972800B303E3
:103E2000F40083A3030063D47F00468A9E8FB29779
:103E30009C436354F700C6893E878508E3CFD8FCCE
:103E4000131B28008A06B3076401B308D4009C43FF
:103E500083A80800B3030A41B388F840B388780206
:103E600093932900B3C85802BE98B30774009C43CB
:103E7000B3871741B387E70213D777406355E00450
:103E800063C35E05329BB29683270B00944233884E
:103E90000941B2939D8EB3860603B3C65602BE9601
:103EA00083A70300958FB387F7039D8789CFB387D7
:103EB000E70393962A001308010DC296850AB3C73B
:103EC000E70223ACF6F29105E34BA3F2D685280076
:103ED000813E93D71A408D461397270063D056052D
:103EE000FD1794098A07B6973697032787F383A7A8
:103EF00087F3BA970947B3C7E7021387D7FF93063B
:103F0000400BE3EDE6DC3717030013074735BA979C
:103F10009C232320F90085479CA0F9B39C093E9778
:103F2000832787F3D9BFEF8280353714014013050B
:103F30000480A145EFF00FD7130504809145EFF001
:103F40006FD613050480A145EFF00FD691451305F8
:103F50000480EFF06FD56F80C034EF8240323714A9
:103F60000140130504809145EFF0CFD31305048081
:103F7000A145EFF06FD3A14513050480EFF08FD278
:103F80006F802032EF82A02F371401401305048088
:103F90009145EFF02FD1914513050480EFF0CFD07C
:103FA0006F802030EF82A02D371401402A89A14470
:103FB0001304048091452285EFF00FCF93178901F8
:103FC000E187A145228563D50702EFF0AFCD91458A
:103FD0002285EFF02FCDFD1491452285060993F43B
:103FE000F40FEFF06FCC1379F90FE9F46F80602BC9
:103FF000EFF08FCBE9BFEF82802841112EC62A84D3
:104000001D3713058007793FB53FB24513050004FE
:1040100091E10145413FBD3722856937A537353FDD
:1040200041016F800028EF82E023B73400209384A1
:10403000C4CF1304000B930A0008130A800B8145B8
:104040002285553F814501457D378145414565378D
:10405000A689014903C50900050985451379F90FAA
:10406000593FA109E31859FF05041374F40F85049F
:10407000E31744FD6F804022EF8260203736002036
:1040800001471306C6CF930500082145B306E60095
:10409000814785072380060093F7F70FA106E39A6F
:1040A000B7FE0507E314A7FEBD3F6F80801FB7373B
:1040B00000209387C7CF0E0513D735003E953A955C
:1040C00093F775008545B395F5001C21DD8D0CA196
:1040D0008280B73700209387C7CF0E0513D73500EE
:1040E0003E953A9518219D898547B397B70093C7A8
:1040F000F7FFF98F1CA18280EF82601593F47600A0
:1041000093D73600B3349000BE9493D71600B3848F
:10411000F402130906FE1379F90F4111930A4002C4
:104120003146372B0300B72B0300371C03002A8DC1
:1041300093F7F40F3EC4B30A590393174900AE8DA9
:10414000B6893EC62E84814C130B0BFE938B0B9FBE
:10415000130CCC573309C902A24793F6FC0F63E551
:10416000F60041016F806012B1476395F904B30610
:104170009901E29603CA06009306840093F4F60FB1
:1041800013168A016186A2856A8563540604053781
:1041900005041374F40F060A3306B441137AFA0FB8
:1041A000631B360313071D00137DF70FEE84850C88
:1041B00026845DB7C1476397F900B247B38697017C
:1041C000DE964DBFE146E39ED9F8B3869A01DA96B2
:1041D00055B7013775BFE39584FAD1BFEF82A007C9
:1041E000FD16AA84AE89B28ABA8B135A170013F44B
:1041F000F60F1309F00F294B631D24036F8020096C
:1042000033066603FD1793F7F70FE39B27FFDE8660
:1042100033D6CA023376660305E213060003268509
:10422000CE85D2947D14C93D93F4F40F1374F40F2A
:10423000E1B7A2870546F9B713060603CDB7EF82AB
:104240000001B309D602011193D736003EC4370AE4
:104250000020B70A0020370B00202A8DAE8DB684CF
:1042600093D9394093F7F90F3EC293078A2E3ECC7B
:1042700093878A0E2A84814C3ECE130B0B01A247F2
:104280006395FC0005616F804000924793861C0097
:10429000930B8004338997011379F90F93179900D1
:1042A0003ECA931779003EC8371C03009317490094
:1042B000B30B790393FCF60F3EC60149130CCC40B7
:1042C000E38F24FB41476396E404B2473387270119
:1042D0006297834A070013888D009379F80F6E8ADE
:1042E00093F51A00ADC1D2852285D13313071A0088
:1042F000137AF70F93DA1A00E3143AFF05041374E4
:10430000F40F3307A4416384E404EE890509CE8DDC
:1043100045BF61476396E40033872B015A9755BF29
:10432000130700026398E400C24733872701F2476E
:104330003E9745B713070004E396E4F4D24733876A
:104340002701E247F5B7D2852285613345B76A84F4
:1043500075BFEF72D072411185451145EFF0CFACBA
:10436000B147371401407C82C1473EC64C008D479F
:10437000130504803EC4EFF04F86B1451305048059
:10438000EFF04F921305800CEFF0EFD3814513054A
:10439000E00A953181450145B93981454145A13949
:1043A0008145130500048139814513051008A131A9
:1043B00081451305F00C813181451305100A25391B
:1043C00081451305800C053981451305600A2531A7
:1043D00081451305800A053181451305F003213914
:1043E00081451305300D013981450145293181454C
:1043F0001305500D0931814513050008ED3E814537
:104400001305900DCD3E81451305100FED36814506
:104410001305A00DCD3681454945F13E8145130573
:10442000B00DD13E814513050004F13681451305D9
:104430000002D136814509457D3E81451305D008EE
:104440005D3E81455145453E81451305400A65362F
:1044500081451305600A453681451305F00A613E22
:10446000213941016F70F063EF72F05E41111386E4
:10447000A1899385818913856189EF20205A13864C
:10448000418A9385018A1385C189EF10605793840F
:10449000018683A5018A884013844186EF70C05845
:1044A000AA85EF70202F93050000EF60103683A5DA
:1044B000418AAA8B0840EF702057AA85EF70802DA3
:1044C000DE85EF609034EF30F04B83A7018AAA8B32
:1044D000039561899CC083A7418A1CC01164334540
:1044E0008502EF70301C2AC6039581893345850209
:1044F000EF70501B2A890395A18933458502EF701F
:10450000701AB245AA842E85EF70C0282A84CA8505
:104510004A85EF702028AA852285EF60102F2A8413
:10452000A6852685EF700027AA852285EF60F02DED
:10453000EF3050451387C1851C23F9462A8485072F
:1045400093F7F70F638FD7021CA3B737030083A538
:10455000C7D35E85EF70E0126355A0000547A38DB9
:10456000E184B737030083A507D42285EF7060117B
:10457000635EA00003C5B1853335A00041016F70B3
:10458000105123000700A38D0184C1B70145FDB779
:10459000EF72504D41118547371400207C829307FC
:1045A000442F9843DC432A89AE8488232C2BB2897C
:1045B00054000946EF20C03809C57D5541016F7090
:1045C000B04D1305800CEFF00FB01304442F1840CA
:1045D0005C40230201006C37882354000546EF201D
:1045E000203661FD18405C4054004C33882305465A
:1045F000EF20003579F118405C4054002C2B8823C3
:104600000546EF20E03355F918405C4054006C3B00
:1046100088230546EF20C0324DF118405C4054001D
:104620004C2388230546EF20A03141F9B1475C8235
:1046300018405C4054004C2388230546EF2040304E
:104640002DFD3D45EFF02FA81C54184054009C3719
:1046500005465C825C402C238823EF20602E31FDD0
:104660001C54184054009C2705465C825C400C3367
:104670008823EF20E02C31F11C54BC27638409000F
:1046800093E7070E5C8218405C4054006C2388233B
:104690000546EF20E02AE31205F2E14763860900B0
:1046A0001C54BC3793E7070E5C8218405C405400F2
:1046B0006C3388230546EF20A028E31005F06386BD
:1046C00009001305800CEFF00FA0930700045C8233
:1046D00018405C4054004C2388230546EF204026B8
:1046E000E31D05EC930780075C8218405C40540092
:1046F0004C3388230546EF20A024E31005EC130576
:104700002003EFF04F9C18405C40230201004C3323
:10471000882354000546EF20A022E31005EA184044
:104720005C4054002C2788230946EF202027E316FD
:1047300005E8034A41009C8223240900220A336AC7
:10474000FA00B147335AFA02232209002320090054
:1047500023A4040023A2040023A004008149137AA7
:10476000FA0F639A4913032509001306300881469E
:104770009357F541C20793550501DD8D4205EF4082
:1047800020764E868146EF40A0752320A9000325A0
:1047900049001306300881469357F541C2079355E7
:1047A0000501DD8D4205EF40A0734E868146EF4046
:1047B00020732322A90003258900130630088146AF
:1047C0009357F541C20793550501DD8D4205EF4032
:1047D00020714E868146EF40A0702324A9008840B6
:1047E0004E8681469355F541935705011397050170
:1047F0005D8F9355F741420593F5F57FB387A5008B
:10480000B3B5B700BA95AD83139555015D8DAD85F0
:10481000EF40006D88C0C8404E8681469355F541F3
:1048200093570501139705015D8F9355F741420595
:1048300093F5F57FB387A500B3B5B700BA95AD83FF
:10484000139555015D8DAD85EF408069C8C08844E2
:104850004E8681469355F5419357050113970501FF
:104860005D8F9355F741420593F5F57FB387A5001A
:10487000B3B5B700BA95AD83139555015D8DAD8580
:10488000EF40006688C4C1776343A000C1673E95CE
:1048900088C4014525B318405C4054002C37882358
:1048A0003146EF20A00FE31A05D018839C8394842F
:1048B00022075D8F1C8490824207A207D58F148245
:1048C0004187C207A206D18E9040C206C186B29629
:1048D00094C0D440C18790853697D8C098449487B7
:1048E0008509BA9718869CC49C86220793F9F90F0C
:1048F0005D8F1C8742074187A207D58F1485C207A9
:10490000C187A206D18E03260900C206C186B296CF
:104910002320D9008326490036972322E900032764
:104920008900BA972324F9002DBDEF725015371472
:1049300000209307442F83C7470241111304442FDB
:104940009DC311C1094518405C40C8876C37882356
:104950009306F1000546EF10B07E0DC9FD573E8568
:1049600041016F7010143C24F5DB0DC518388147E8
:104970007DF78547DC875C4018409306F10088236B
:104980006C370546EF10D07BFD5771F99C871CB83A
:104990008147F1B7A3070100F9BFEF72500E37143A
:1049A00000209307442FBC27411189E77D55410121
:1049B0006F70300F1304442F18405C40A3070100B0
:1049C0006C3788239306F1000546EF10707779FD68
:1049D00018405C409306F1004C3388230546EF10E5
:1049E000307669F518405C409306F1004C2388232B
:1049F0000546EF10F0745DF95C4088231C40CC2321
:104A000083474402ADCFB1479306F1000546DC87EA
:104A1000EF10107341FD13052003EFE0DFEA930769
:104A200000FCDC873C24858B99C38157DC871840C8
:104A30005C409306F1004C2388230546EF1050702C
:104A400035F51C3891C38947DC8718405C409306D4
:104A5000F1006C3788230546EF10906E21F918405D
:104A60005C40A30701009306F1004C338823054600
:104A7000EF10106D3335A0003305A0400DBF9147F6
:104A80009306F1000546DC87EF10906BE31005F20A
:104A90003C281307000491E73C24858B99C3130736
:104AA0000006D8875C4018409306F10088234C2309
:104AB0000546EF10F068E31B05EE13052003EFE059
:104AC0009FE01C3818409306F100B337F000DC87F4
:104AD0005C406C3705468823EF109066E31805ECC0
:104AE00018405C409306040149B7B717002083C7FC
:104AF000C72F05476381E70291CB09476380E7022F
:104B00000D476380E7022310050021A09307A00F43
:104B10001EA1014582809307401FDDBF9307803EA1
:104B2000C5BF9307007DEDB7EF72607537140020A5
:104B30009307442FBC27411189E77D5541016F70D0
:104B400040769307401F1304442F6308F50463EC79
:104B5000A7029307A00FE312F5FEA30701009C87AD
:104B6000182401458D83E30BF7FC18405C40930645
:104B7000F1006C2388230546EF10905C5DFD9C8757
:104B80008D831CA465BF9307803E630BF5009307DC
:104B9000007DE314F5FAE14711A0A147DC87C1B716
:104BA000C147EDBF371700209306472F94360546BF
:104BB000AA871307472F6384C60289CA09466382FE
:104BC000C6020D466381C6027D558280894694A344
:104BD000383B014501C79823060798A38280914678
:104BE000FDB7A146EDB7C146DDB7EF724069371496
:104BF00000209307442FBC27411189E77D554101CF
:104C00006F70206A91471304442F6305F50463EB2A
:104C1000A7028947E314F5FEA30701009C87183417
:104C200001458D83E30DF7FC18405C409306F100CD
:104C30006C3388230546EF10B05069F19C878D8353
:104C40001CB475BFA147630AF500C147E318F5FA24
:104C5000E14711A0A147DC87D1B7C147EDBFB71726
:104C6000002083C7F72F1547FD1793F7F70F636BE6
:104C7000F702373703008A07130747D4BA979C43D4
:104C800082879307C00B1EA10145828093072006EF
:104C9000DDBF9307A002C5BFD147F5B7A947E5B768
:104CA0009547D5B723100500C5B7EF72405D37149F
:104CB00000209307442FBC27411189E77D5541010E
:104CC0006F70205E9307B00B1304442F63F6A702A6
:104CD0008547DC8738349C870145E302F7FE18409E
:104CE0005C409306F1002C2388230546EF105045C5
:104CF00071F59C873CB4E1B79307100663F4A700F5
:104D00008947C1BF9307900263F4A7008D47D1B7CD
:104D1000CD4763F4A70091476DBFA54763F4A70093
:104D2000954745BF994775B7B71700209387472F19
:104D300003C7470209E7FE271EA1014582807D5572
:104D40008280B717002083C7C72F05476382E70219
:104D500089CB09476383E7020D476385E7027D55E9
:104D60008280B737030083A787D71CC101458280A3
:104D7000B737030083A7C7D7CDBFB737030083A7D3
:104D800007D8E5B7B737030083A747D8F9BF371768
:104D900000209306472F94360546AA871307472F0E
:104DA0006384C60289CA09466384C6020D466383CA
:104DB000C6027D558280916696A3383B014501C7A6
:104DC0009A2305839AA3828089669386C6F9EDB7F4
:104DD0008566DDB7856693860680F9BFEF728048E9
:104DE000371400201304442F834744020149A1E3F0
:104DF0003C247D598DCF9374E50FE58F83490401E1
:104E00001CA8858FB337F0003309F0405C28C58FAC
:104E100081CF0545EFF07FB199C8EFF01FB801C908
:104E2000230834017D5921A00145EFF01FB04A85C8
:104E30006F708046EF720043B71900209384492FAA
:104E400083C74402411189E77D5541016F70C04419
:104E5000BC24FDDB9840DC40AE8A2A892C278823BD
:104E6000328A74000946EF10703379FD1C86808603
:104E7000A2075D8C6375240123000A00F1B7D840B6
:104E80009389492F3E23858363F187029C40082341
:104E900074008C3B0546EF1070305DF51C86C18BAD
:104EA00089C7EFF09FAF79554DB703A7090083A7D6
:104EB0004900D6862C3788231376F90FEF10102E71
:104EC00041F5335424037D1423008A00BDBFEF72E3
:104ED000003B371400209307442FBC2B4111638201
:104EE000A70C1304442F5C40AA849306F100882386
:104EF0001C400546CC23A9C8EF10502A09C57D5592
:104F000041016F70003A9C8718409306F10093F7B7
:104F1000F7FDDC875C404C2305468823EF105022C8
:104F200079FD0D45EFE03F9A8947DC8783472402EE
:104F300081C7930720F8DC8783473402A1CB9C8785
:104F400093E70703DC8799A0EF1050254DF93C2427
:104F50009487858B13F7F60D99C313E70602D8875C
:104F60005C4018409306F10088234C230546EF105F
:104F7000301D51F50D45EFE01F958347240299C37D
:104F80009307000803473402DC875DFB18405C4050
:104F90009306F1004C2B88230546EF10701A25F17B
:104FA00024A80145B1BFEF72802D3714002093076C
:104FB000442F83C7370241116383A7041304442F8E
:104FC000814719C1930700033828DC8701C793E79D
:104FD0002700DC878347240289C79C8793E707F86B
:104FE000DC875C401840AA8488234C2B9306F10090
:104FF0000546EF10F014FD5701E5A3019402814727
:105000003E8541016F70E0299307800263F5A70098
:10501000FD573E858280EF728026371400204111B3
:10502000AA841304442F15E5BD3F930700707C86C6
:1050300018405C4074002C2B88230946EF10501058
:10504000FD5701E5230A040081473E8541016F7049
:1050500040250545893F930700025C868547639E8E
:10506000F402A30601001545EFF03FC49C861840EA
:1050700074009A0793E77700DC865C402C2B094686
:105080008823EF10F00BFD5769F1A1473CA4854739
:10509000230604005CA8993345BF15476364970055
:1050A000DC86D1B7D14763E697008947DC8629457E
:1050B00065BF8D47DC86514545BFEF72401C3714F4
:1050C00000209307442FB827411109E77D5541017E
:1050D0006F70201D03C7470275FBDC2B1304442FA0
:1050E000AA8485C39307F5FFC207C1831307700223
:1050F0006367F7001375F50F013F0145C9BF01450F
:1051000021371307803EA687637497009307803E7C
:1051100093960701C182114763F3E6009147C207E6
:10512000C1839304803EB3C7F40218409306F10094
:1051300005460C33FD17DC875C408823EF105000D8
:1051400051F58887050533C5A4026AA40581EFF0EF
:10515000DFB565B7EF72A012937705074111AA84F6
:1051600081C78547DC8721A00DC9A307010037143B
:1051700000209307442F9843DC439306F1002C2B27
:10518000882305461304442FEF10807B11C92305A3
:1051900004007D5541016F70C01093070004D9B71A
:1051A0009C8793F7F7FB5CA493F70404B9CFA3079C
:1051B000010093F7040289E79C8793E72700DC87C7
:1051C00093F7040189E79C8793E71700DC8793F73F
:1051D000840089E79C8793E78703DC8718405C405D
:1051E0009306F1002C3B88230546EF10607545F1CE
:1051F00093F7740F91C3453B1305200324A4230A9E
:105200000400EFE04FEC014571B79147DC8755B7DB
:10521000EF72E006371400204111930700F8930461
:10522000442F5C849840DC4034002C2B88230546B6
:10523000EF10007111C57D54228541016F70600629
:1052400013054006EFE02FE81304442F18405C409C
:10525000230401002C2B882334000546EF10406EF8
:1052600079F918405C4034006C2B88231946EF1004
:10527000E07271F19C8698858A070607098B918BED
:10528000D98F9884058BD98FD9C3054793F5F70F2C
:105290006394E7003CB831A089476393F506A309FE
:1052A0000400FD577EA41CA83CA8FD571CC4231A6B
:1052B0000400854731468145130564015CA4EF7005
:1052C000C01385473EB0232204021305007DEFF092
:1052D000BF8535F10945EFF05F9131FD1305A0025F
:1052E000EFF0BF9C29F913052003C13B29F5EFF02E
:1052F000FFAE31F1EFF0BFBD2A8415FDA13D2DBFFA
:1053000037350300130585D8EF70A0192DB79840E5
:10531000DC4034002C3388230546EF102068E31C62
:1053200005F01C84BD8B81EB37350300130505DBCD
:10533000EF70002B09B71147E393E7F63735030009
:105340001305C5DFEF70C0298547A9B719E67D555C
:1053500082807D5541016F60D074EF6250723714C6
:1053600000201304442F3C244111E5D71357850036
:1053700093178500D98F7C865C401375F50F2E95A9
:10538000BA27E348A7FC1840AE8488230C2F328943
:1053900074000946EF10C05A4DFD18405C40CA86A3
:1053A0004C3B882313F6F40FEF1080593335A000DF
:1053B0003305A04045B719E67D5582807D554101F2
:1053C0006F60306EEF62B06B371400201304442F0F
:1053D0003C244111E5D71357850093178500D98FD9
:1053E0007C865C401375F50F2E95BA27E348A7FC21
:1053F0001840AE8488230C2F328974000946EF10C0
:1054000020544DFD18405C40CA864C3B882313F65F
:10541000F40FEF10A0583335A0003305A04045B776
:10542000EF627063B71400209387442F83C757023D
:10543000011189C77D5505616F607065E5DDC16B40
:105440009384442F368B32892E8AAA890144C14C19
:10545000FD1B6369340313168900984013598900B2
:10546000DC4033692601231621012C2F8823740088
:105470000946EF10E04C5DFD8547A382F4022393BB
:10548000640355BFB38A894063D35C01C14A139C4E
:105490000A01135C0C01330D8A006A86E2852285BD
:1054A000753549F91008E2852285313741F533F623
:1054B0007A010C086A85EF60F06609E5629442049F
:1054C000418041BF795585BFEF62705B3714002082
:1054D0001304442F0347440241116303A70429C561
:1054E000834754027D5595CF0145EFF00FC4014528
:1054F000EFF0FF9D6A30EFF05FBC5C40A307010056
:105500009306F1008823054693053002EF104043CF
:10551000854705452302F402EFF02FC1EFF0EFC7F6
:10552000014541016F60F057EFF02FC01C28930632
:10553000F1000546DC875C40930530028823EF10BC
:10554000204023020402D9BFEF62705037140020BC
:105550009307442F03CA47025971AA8AAE8B1304DA
:10556000442F63050A0001458537054A1305E10309
:10557000EFF0AFD71305D103EFF0CFE2130521040D
:10558000EFF0EFED8800EFF02FFA1C280146DE85E2
:105590005685034DA4003EC6EFE09FFF6318051833
:1055A0000546AC08E800EFE0BFFE631F051C5C4049
:1055B000B40011468823B545EF10403E630D051C2D
:1055C000B73703003EC8B737030083A747E3A408F3
:1055D000130B41063ECAB737030083A787E381490F
:1055E00001493ECCB737030083A7C7E2054C3ECE46
:1055F000B707008093C7F7FF3ED0B737030083ADEE
:1056000007E393172900DE9788409C43898F13D5C1
:10561000F741A98F3385A740EF60D008B737030063
:1056200083A587E2EF60001703270B00AA8C930580
:1056300000003A853AD2EF50107F6305051E1257DD
:105640006685BA85EF501053F245EF60E03D825712
:10565000EE857D8DEF60E0026356A000B3172C014C
:10566000B3E9F90005098D479104110BE31BF9F823
:1056700093F7F90FBE8C5C40D4100D468823B545D6
:105680009D44EF10A031631B051E8347610603573D
:1056900041068966FD8B2303F106C2479386F6F126
:1056A000758F83A787E2370B00802312E1063EC87F
:1056B000B737030083A707E49309C10481443ECAB6
:1056C000B737030083A747E40149854B3ECCB73782
:1056D000030083A7C7E1134BFBFF3ECEB7370300A0
:1056E00083A7C7E33ED0B737030083A7C7E23ED204
:1056F000B737030083AD07E393172900D69703A5B7
:1057000009009C43898F13D5F741A98F3385A740A2
:10571000EF604079C245EF60E007DC103387270176
:105720001C232A8C63850716724529AA0146DE854B
:105730005685EFE0FFE5E30505E68144FD57035597
:10574000E1037EA41CA8FD571CC485475CA4EFF0B0
:10575000AFBD0345D103EFF04FC903552104EFF06E
:10576000CFD403550104EFF05F956A85EFF09F9E5B
:105770003245EFF0AFE663050A000545EFF0DFD4F0
:10578000268565616F6070300546AC08E800EFE083
:105790003FE045F529BD8346B104034781049309E1
:1057A000410493D746400D878D8B718B5D8F23020B
:1057B000E1040347910493D726408D8B0D87718BAD
:1057C0005D8F8347A1048D8AA302E1048D87F18B4D
:1057D000D58F2303F104B737030003AC07E2B737D3
:1057E000030083AD47E2C410130B010703C909008E
:1057F000631A0900930700009CC091048509E31710
:105800009BFE7DBB23A084017D191379F90F6315DD
:10581000090023800900D5B78840EE85EF509077C6
:1058200088C0DDB7D2456685EF50106EE34805E2CB
:10583000E245668505B582553AD63ED4EF5090755F
:10584000A2573257FD1793F7F70FF5F7AA852300F4
:1058500007006285EF5010329255EF60E01CEE8534
:1058600033756501EF50F0616355A000B3972B01CC
:10587000DD8C05098D479109E310F9E893F4F40FE5
:1058800093B41400E39C0CEA93E4240045BDD24594
:10589000EF509067E34C05FCE2456285E1B7EF62AB
:1058A000101E01114C082800EFF01FCA4800EFF04D
:1058B0004FC922451244EF60E05EA285EF50906D23
:1058C000EF60C0522AC43245EF60C05DA285EF5040
:1058D000706CEF60A0512AC64245EF60A05CA285C3
:1058E000EF50506BEF6080502AC828000D29130537
:1058F0002100EFF0CFC948082311010002CA02CCF1
:1059000002CE212B014505616F60B0190307050028
:1059100081476343E002914705E30307150085478C
:10592000634CE000954709EB030725008947634571
:10593000E0009337170099073E858280EF623014AC
:10594000AA84E9372A8913853400C9372A84138544
:1059500064006D3F931734001A055D8D3365250192
:10596000420541816F60F0138280EF625011EF00B9
:105970003077EFF0FF89A94749E113058007EFF081
:105980006FFD1375F50F85472DE913058007EFF0BF
:10599000EFC41375F50F89472DE113054006EFF0AD
:1059A000CFF11375F50F8D4729E9912C1375F50F7C
:1059B000914721E5371500201305852E41378D24A9
:1059C0001375F50F954715E913053017EF00F01122
:1059D0001375F50F994715E1130540063D2B137517
:1059E000F50F9D4719E9653DA14701E90545EFF030
:1059F000BFAD9377F50F91C3A5473E856F60700AE1
:105A0000EF6270053971AA8B2E8BB28A93079101D0
:105A10001307A101740810182C100810EF00902A29
:105A20006314051ABC85094593F70710638B0718A3
:105A30004255B7390300EF60E04683A589D6EF50A1
:105A400070552A895255EF60E04583A589D6EF50FD
:105A50007054AA846255EF60E04483A589D6EF5064
:105A600070532A847255EF60E04383A589D6EF50C6
:105A70007052B737030083A5C7D6AA892685EF5091
:105A80007051AA8CCA854A85EF5020582A8CCE8541
:105A90006685EF5030502A8AA2856285EF50904F7C
:105AA000AA855285EF506056EF600059EF20806163
:105AB000373A030003260AD783264AD7EF40D0118E
:105AC000EF60406223A0AB00A2852285EF50E05337
:105AD000AA8BA6856685EF50F04BA285AA8C5E85C1
